S31508000000E00F0020ED01000891720008F96200086F
S315080000108D720008E10D0008259C0008000000000C
S31508000020000000000000000000000000FB8B000834
S315080000304B0E000800000000D3890008E78F00086F
S31508000040070200080702000807020008070200085E
S3150800005007020008070200084D0E000807020008FC
S31508000060070200080702000807020008E30D000857
S31508000070EF0D0008FB0D000807020008070200083C
S31508000080070200080702000807020008070200081E
S31508000090070200080702000807020008070200080E
S315080000A007020008070200080702000807020008FE
S315080000B075900008819000088D90000807020008D6
S315080000C007020008070200080702000807020008DE
S315080000D007020008359B0008070200080702000807
S315080000E007020008070200080702000807020008BE
S315080000F007020008070200080702000807020008AE
S31508000100070200080702000807020008070200089D
S31508000110070200080702000807020008070200088D
S31508000120070200080702000807020008070200087D
S31508000130070200080702000807020008070200086D
S31508000140070200080702000807020008070200085D
S3150800015007020008070200080702000825620008CF
S31508000160070200080702000807020008070200083D
S31508000170070200080702000807020008070200082D
S31508000180070200080702000807020008070200081D
S31508000190070200080000000007020008070200081E
S315080001A007020008070200080702000807020008FD
S315080001B007020008070200080702000807020008ED
S315080001C007020008070200080702000807020008DD
S315080001D00702000807020008DFF80CD000F0D2FB7F
S315080001E000480047E9A00008E00F002006488047BD
S315080001F006480047FEE7FEE7FEE7FEE7FEE7FEE7FE
S31508000200FEE7FEE7FEE7FEE763900008D90100086F
S315080002102DE9F05F0546002092469B46884606462D
S31508000220814640241BE0284641464746224600F0C0
S31508000230ABFA53465A46C01A914110D3114618468E
S31508000240224600F092FA2D1A67EB01084F4622461D
S315080002500120002100F089FA17EB00094E41201E03
S31508000260A4F10104DFDC484631462A464346BDE888
S31508000270F09F40EA01039B0703D009E008C9121F53
S3150800028008C0042AFAD203E011F8013B00F8013B42
S31508000290521EF9D27047D2B201E000F8012B491E6E
S315080002A0FBD270470022F6E710B513460A46044605
S315080002B01946FFF7F0FF204610BD10B5002200E0F2
S315080002C0521C835C8C5CA34201D1002BF8D1D8B2B6
S315080002D0E1B2401A10BD2DE9FE4F804681EA0300BF
S315080002E0C00F0C46009021F0004123F00045B8EB02
S315080002F00200A94105D24046214690461C460B46B7
S31508000300024623F00040104347D0270DC7F30A00E2
S31508000310C3F30A510290401A019040286BDAC3F3DE
S31508000320130040F4801B0098924620B10023D2EBBC
S31508000330030A63EB0B0B01985946C0F1400250467D
S3150800034000F013FA06460D4650465946019A00F043
S315080003502BFA10EB08006141002487EA115284EA5F
S31508000360E7731A4340D0009A62B3019A012A4FEA0A
S31508000370075215DC001B61EB02014FF0004202EA4E
S315080003800752CDE90042001C41F5801132462B4642
S3150800039000F062FA03B0BDE8F08F40462146F9E75F
S315080003A0001B61EB0201001C41F5801300185B413C
S315080003B02018A2F5001747EB030140EAD570B619D5
S315080003C06D4111E06D084FEA360645EAC0754FEAF9
S315080003D00752001B61EB0201001C41F58011490818
S315080003E04FEA30000019514132462B4603B0BDE8AA
S315080003F0F04F00F022BA0098012240000023D0EB0B
S31508000400020263EBE073009821464FEAE074B8EB0A
S31508000410000061EB0401E9E783F000435BE781F044
S31508000420004158E72DE9FE4F81EA030404F0004431
S3150800043021F0004100944FF0000B23F0004350EAEE
S3150800044001045ED052EA03045BD0C3F30A54C1F335
S315080004500A552C44A4F2F3340194A0FB0254C1F3C8
S31508000460130141F48011C3F3130343F4801301FB12
S31508000470024400FB034E840A970A44EA815447EA79
S315080004808357A4FB076802958D0A05FB07854FEA83
S31508000490932C04FB0C542705029D4FEA065847EA9D
S315080004A01637B5EB08056EEB070C870E920E47EA72
S315080004B0811742EA8312A7FB0201B6EB0B0164EB34
S315080004C000042B0D43EA0C335E1844EB1C50DA4645
S315080004D05146E7FB0201C5F313044FEA0B3343EA1F
S315080004E014534FEA0432019C43EA0603A4F10C04B0
S315080004F00294009CCDE900B400F0AEF903B0BDE863
S31508000500F08F00200146F9E72DE9F04D81EA030452
S3150800051004F0004B21F0004514464FF0000A23F082
S31508000520004150EA050220D054EA01021DD0C5F365
S315080005300A570246C5F31303C1F31300C1F30A565B
S3150800054040F4801543F48013A7EB0608101BD64623
S3150800055008F2FD3873EB050002D308F1010801E043
S3150800056092185B41B8F1000F03DA00200146BDE896
S31508000570F08D00204FF48011064684460EE0171BC6
S3150800058073EB050705D3121B63EB050306434CEA19
S31508000590010C49084FEA300092185B4150EA0107FE
S315080005A0EDD152EA030012D082EA040083EA05017B
S315080005B0084305D0101BAB4106D20122002306E0F2
S315080005C000224FF0004302E06FF0010253101AEBCD
S315080005D006004CEB085110EB0A0041EB0B01BDE895
S315080005E0F04D00F02AB930B5041E71F1000404DBA1
S315080005F04FF00044404264EB0101141E73F10004FD
S3150800060005DB1C464FF00043524263EB0403801A95
S31508000610994101D3012030BD002030BD30B5041EFC
S3150800062071F1000404DB4FF00044404264EB010121
S31508000630141E73F1000405DB1C464FF000435242BA
S3150800064063EB0403101A8B4101D2012030BD002050
S3150800065030BD30B5041E71F1000404DB4FF00044D0
S31508000660404264EB0101141E73F1000405DB1C46CD
S315080006704FF00043524263EB0403101A8B4101D337
S31508000680012030BD002030BD30B5041E71F10004D4
S3150800069004DB4FF00044404264EB0101141E73F181
S315080006A0000405DB1C464FF00043524263EB04038B
S315080006B0801A994101D2012030BD002030BD0EB507
S315080006C0C10F80EAE0700844CA07002140F23343AC
S315080006D08DE80E000A460B4600F0BEF803B000BDD2
S315080006E000F0004230F000400AD0C10D01F56071FB
S315080006F0C0F3160042EA0151C20840071143704789
S3150800070000200146704701F0004330B421F0004153
S3150800071050EA010206D00A0DA2F56072C1F3130170
S31508000720002A02DC30BC00207047440F44EAC104AA
S31508000730C100E01830BC00EBC25000F047B830B535
S315080007400B46014600202022012409E021FA02F581
S315080007509D4205D303FA02F5491B04FA02F528441B
S31508000760151EA2F10102F1DC30BD202A04DB203A75
S3150800077000FA02F1002070479140C2F1200320FAE6
S3150800078003F3194390407047202A04DB203A21FAE4
S3150800079002F00021704721FA02F3D040C2F120028C
S315080007A09140084319467047202A06DBCB17203AA2
S315080007B041FA02F043EAE07306E041FA02F3D04058
S315080007C0C2F1200291400843194670470029A8BF84
S315080007D07047401C490008BF20F00100704710B45C
S315080007E0B0FA80FC00FA0CF050EA010404BF10BC11
S315080007F0704749B1CCF1200421FA04F411FA0CF13E
S3150800080018BF012121430843A3EB0C01CB1D4FEA76
S3150800081000614FEA102042BF002010BC704700EB71
S31508000820C35010440029A4BF10BC7047401C49009F
S3150800083008BF20F0010010BC704710B5141E73F1F4
S31508000840000408DA401C41F1000192185B411A4382
S3150800085001D120F0010010BD2DE9F04D92469B46CE
S3150800086011B1B1FA81F202E0B0FA80F22032904674
S31508000870FFF77BFF04460F4640EA0A0041EA0B01F0
S3150800088053465A46084313D0114653EA010019D075
S31508000890C8F140025046FFF777FF05460E46504618
S315080008A059464246FFF761FF084305D0012004E098
S315080008B020463946BDE8F08D0020054346EAE07635
S315080008C02C4337430A986305E40AA0EB0800002284
S315080008D0FD0A44EA47540A3002D500200146E9E7F2
S315080008E0010510196941DDE9084500196941BDE8A6
S315080008F0F04DA2E7C1F30A52C1F3130140F2FF33E8
S3150800090041F480119A4202DA00200146704740F20B
S3150800091033439A42A2F2334202DC5242FFF734BF13
S31508000920FFF723BF30B5041E71F1000404DB4FF056
S315080009300044404264EB0101141E73F1000405DB18
S315080009401C464FF00043524263EB04038B4208BF38
S31508000950824230BD30B5041E71F1000404DB4FF04D
S315080009600044404264EB0101141E73F1000405DBE8
S315080009701C464FF00043524263EB0403994208BFFA
S31508000980904230BD1CB509480090094801900546BB
S31508000990009C06E0E06840F0010394E807009847E9
S315080009A01034AC42F6D3FFF71BFC000094C50008D0
S315080009B0B4C500080146806AC36DC26D13F0500FB6
S315080009C007D0D20648BF01F01CBC406D426B0846F2
S315080009D0104742F40071C16501680B68CA681B07B5
S315080009E003D4910707D501F00ABC12F4406FFAD177
S315080009F0C9688904F7D4C16D21F48071C165C16DD8
S31508000A00C90448BF01F0FBBBC16D41F00101C165D6
S31508000A1001F0F5BB806AC16D41F04001C165016E08
S31508000A2041F00401016601F0ECBB806A01F0E8BB05
S31508000A30B0B5016804468A688868C0074FF00000A8
S31508000A4031D012F0020218BFB0BD886800F00D0060
S31508000A5001281FD188684FF6C072C7F6FF7210408A
S31508000A60023088600320086002F07CF921688968F2
S31508000A70C9070DD0054600BF02F074F9411B20686E
S31508000A80032902D38168C90704D18068C007F3D156
S31508000A900020B0BDE06D40F01000E065206E40F02B
S31508000AA0010020660120B0BD70B582B00446002062
S31508000AB0019021688A68D20745D14FF6C076C7F6F5
S31508000AC0FF76886806F17F02104209D0E06D40F093
S31508000AD01000E065206E40F001002066012032E03B
S31508000AE088684FF4C162304040F00100886040F2E7
S31508000AF00010C5F20000814208BF4FF40272B1F13E
S31508000B00A04F08BF4FF40272105800021DD402F01D
S31508000B1029F921680A68D20714D105468868C007EA
S31508000B2004D18868304040F00100886002F01AF964
S31508000B30401B2168032802D30868C007C6D0086886
S31508000B40C007EBD0002002B070BD40F22800C2F208
S31508000B500000006842F663518009C0F23E51A0FBCE
S31508000B600101880900EB40000C2101EB800000BF61
S31508000B70019001980028CAD001980138F8E70000CA
S31508000B8080B540F2B440C2F2000090ED070A9FED2E
S31508000B902E1AB8EE400A9FED2D2A20EE010A80EEA5
S31508000BA0020A9FED2B3A40F2CC51C2F200019FEDAA
S31508000BB0294A9FED295A80EE030A81ED000A90ED35
S31508000BC0050A40F28001B8EE400A20EE010A80EEDE
S31508000BD0020AC2F2000180EE040A80EE050A81EDDF
S31508000BE0000A90ED030A40F2D051B8EE400A20EE12
S31508000BF0010A80EE020AC2F2000180EE030A81EDC4
S31508000C00000A90ED010A40F28400B8EE400A20EE90
S31508000C10010A80EE020AC2F2000080EE040A80EEA3
S31508000C20050A80ED000A01F02DF840F2A800C2F28C
S31508000C30000080ED000A00F0D3FF40F26000C2F227
S31508000C40000080ED000A80BDBB27534000F0FF4539
S31508000C506157803D000078420AD7A33B80B501F072
S31508000C6011F89FED2A1AB4EE410AF1EE10FA01DAEC
S31508000C70002043E0B4EE410AF1EE10FA2DDA9FEDBA
S31508000C80241AB4EE410AF1EE10FA29DA9FED211A78
S31508000C90B4EE410AF1EE10FA25DA9FED1F1AB4EE0A
S31508000CA0410AF1EE10FA21DA9FED1C1AB4EE410A58
S31508000CB0F1EE10FA1DDA9FED1A1AB4EE410AF1EEBA
S31508000CC010FA19DA9FED171AB4EE410AF1EE10FA86
S31508000CD0B8BF80BD4FF47A7010E04FF4AF700DE0E6
S31508000CE04FF4E1700AE04FF4167007E04FF42F70E6
S31508000CF004E04FF4487001E04FF4617040F6E021DB
S31508000D00C2F200010968C86380BD00BF00000C423A
S31508000D1000002042000034420000484200005C42C5
S31508000D200000704200008242B0B540F25804C2F298
S31508000D300004207801280FD140F20040C4F60000D4
S31508000D4020210022002502F007F840F25900C2F2DD
S31508000D50000025700570B0BD40F25900C2F20000CF
S31508000D600078012818BFB0BD40F20040C4F6000064
S31508000D7020210122012501F0EFFF2570B0BDB0B595
S31508000D8040F25804C2F200042078012805D140F246
S31508000D905900C2F20000007890B140F25A00C2F23F
S31508000DA000000078012818BFB0BD40F20040C4F624
S31508000DB0000020210122012501F0CEFF2570B0BDDB
S31508000DC040F20040C4F6000020210022002501F070
S31508000DD0C3FF40F25A00C2F2000025700570B0BD8C
S31508000DE0FEE740F21870C2F2000001F08ABD40F238
S31508000DF0D870C2F2000001F084BD40F27870C2F2E9
S31508000E00000001F07EBD70B5D0E913C4D0F854E0F7
S31508000E10CCF80440BEF1000F1CBFD0E9164CC4F84C
S31508000E2004C0D0E910CE046886680EF01F000125BC
S31508000E3005FA00F0CCF8040008466360102E04BFDB
S31508000E4010460A46A060E26070BD7047012001F0B6
S31508000E509BBE0000000000002DE9F04140F270063C
S31508000E60C2F200063078012840F0598640F60004A0
S31508000E700120C4F60004012501F068FE2046012180
S31508000E8001F05DFF002818BFBDE8F08140F25A0066
S31508000E90C2F2000005702046022101F050FF012829
S31508000EA035D10FF6FC4008F04BFE40F2D447C2F2AB
S31508000EB0000740F224013A7BC2F200010878002AB2
S31508000EC064D0042869D0012840F02786387B012899
S31508000ED040F0AE80787B012840F03B8197ED010A0F
S31508000EE0BAEE041A30EE010A87ED010A97ED010AF7
S31508000EF0B6EE001AB4EE410AF1EE10FA80F2B784A3
S31508000F0097ED010AB2EE041A30EE010A89E320468B
S31508000F10022101F014FF002840F0FF850FF640403B
S31508000F2008F00EFE40F2D444C2F2000440F2240156
S31508000F30227BC2F2000108782AB90130C2B2042A1B
S31508000F4088BF01200870C0B204284AD0012840F0A2
S31508000F50E485207B012840F0B680607B012840F0BC
S31508000F60528194ED010AB2EE041A30EE010A84EDBC
S31508000F70010A94ED010A9FEDEF1AB4EE410AF1EE6B
S31508000F8010FA40F3E784BAEE040AB0E30138020621
S31508000F9008BF0420087000F0C0BD387B01286AD15C
S31508000FA0787B012840F0ED8040F29C00C2F20000F8
S31508000FB090ED000ABAEE041A30EE010A80ED000A36
S31508000FC090ED000A9FEDDC1AB4EE410AF1EE10FA34
S31508000FD080F2698590ED000AB2EE041A30EE010A35
S31508000FE04DE3207B012840F08E80607B012840F08D
S31508000FF0228140F29C05C2F2000595ED000AB2EE88
S31508001000041A30EE010A85ED000A2868FFF768FB26
S315080010109FEDCB0B53EC102BFFF7E5FA002840F0B9
S31508001020778595ED000ABAEE041A30EE010ACDE38B
S31508001030387B022840F07185787B012840F0408192
S3150800104097ED020ABAEE041A30EE010A87ED020A93
S31508001050B868FFF745FB9FEDBC0B53EC102BFFF769
S31508001060F8FA002840F0038497ED020AB2EE041A53
S3150800107030EE010AF9E3387B022840F09E80787B3F
S31508001080012840F0388140F2A004C2F2000494ED31
S31508001090000ABAEE041A30EE010A84ED000A206846
S315080010A0FFF71EFB9FEDA80B53EC102BFFF7D1FAA9
S315080010B0002840F0F88494ED000AB2EE041A30EEE7
S315080010C0010A00F025BC207B022840F02685607BBB
S315080010D0012840F0A38194ED020AB2EE041A30EE1C
S315080010E0010A84ED020AA068FFF7FAFA9FED980B49
S315080010F053EC102BFFF7C8FA002800F02B84BAEE41
S31508001100040A00F021BC207B022840F0B380607BF3
S31508001110012840F0B78140F2A000C2F2000090ED2D
S31508001120000AB2EE041A30EE010A80ED000A90EDCC
S31508001130000AB2EE051AB4EE410AF1EE10FA40F3CF
S31508001140E78490ED000ABAEE041A30EE010A00F0C0
S3150800115076BC787B022840F01D8197ED010ABFEE28
S31508001160001A30EE010A87ED010A97ED011AB6EE6C
S31508001170000AB4EE401AF1EE10FAB8BF87ED010A7C
S3150800118075E3787B022840F0258140F29C00C2F284
S31508001190000090ED000ABFEE001A30EE010A80ED5D
S315080011A0000A90ED001A9FED640AB4EE401AF1EEBB
S315080011B010FAC0F2648200F076BC387B032840F04F
S315080011C0AC84787B012840F09E8140F2A400C2F2EC
S315080011D0000090ED000ABAEE041A30EE010A80ED1E
S315080011E0000A90ED000AB6EE001AB4EE410AF1EED6
S315080011F010FA80F2588490ED000AB2EE041A30EE26
S31508001200010A00F04ABC607B022840F0228194ED76
S31508001210010AB7EE001A30EE010A84ED010A94EDD0
S31508001220011A9FED440AB4EE401AF1EE10FAC8BF4F
S3150800123084ED010A8EE3607B022840F03E8140F28D
S315080012409C00C2F2000090ED000AB7EE001A30EEDC
S31508001250010A80ED000A0068FFF742FA9FED380B95
S3150800126053EC102BFFF710FA002800F051849FED7D
S315080012703A0AABE2207B032840F04F84607B0128C2
S3150800128040F03C8240F2A400C2F2000090ED000A51
S31508001290B2EE041A30EE010A80ED000A90ED000A5B
S315080012A09FED2E1AB4EE410AF1EE10FA40F330849F
S315080012B090ED000ABAEE041A30EE010A00F022BCDC
S315080012C0787B022840F03A8197ED020ABFEE001AB1
S315080012D030EE010A87ED020AB868FFF701FA9FEDBA
S315080012E01A0B53EC102BFFF799F9002800F0BF8270
S315080012F09FED1B0AB9E2787B022840F0438140F251
S31508001300A000C2F2000090ED000ABFEE001A30EE0F
S31508001310010A80ED000A0068FFF7E2F99FED0A0B63
S3150800132053EC102BFFF77AF9002800F0BC839FEDE9
S315080013300C0AEDE2000042420000204200BF00BF56
S315080013408FC2F5285CFF58407B14AE47E17A843F8C
S315080013503333333333332440E1FAC742000048427B
S315080013600AD7233C00BF00BF9A9999999999B9BFA2
S315080013709A9999999999B93F9A992141CDCCCC3D99
S31508001380CDCCCCBD00BF00BF7B14AE47E17A84BF8D
S315080013900AD723BC787B032840F01C817868FFF7BE
S315080013A09FF91FED0F0B53EC102BFEF794FFFFF779
S315080013B0AAF9786097ED010AB6EE001AB4EE410A6A
S315080013C0F1EE10FA80F253827868FFF789F91FED7B
S315080013D0180B1EE1787B032840F0268140F29C0416
S315080013E0C2F200042068FFF77BF91FED210B53ECCE
S315080013F0102BFEF770FFFFF786F9206094ED000AC0
S315080014001FED331AB4EE410AF1EE10FA80F24B835F
S315080014102068FFF765F91FED2A0B28E1607B022893
S3150800142040F0328194ED020AB7EE001A30EE010A56
S3150800143084ED020AA068FFF753F91FED3B0B53EC46
S31508001440102BFFF721F9002800F084821FED360AD9
S315080014507EE2607B032840F0328194ED010A1FED9D
S31508001460391A30EE010A84ED010A94ED010A1FEDDE
S315080014704F1AB4EE410AF1EE10FA40F36B821FEDF3
S31508001480400A34E1607B022840F0538140F2A00014
S31508001490C2F2000090ED000AB7EE001A30EE010A1B
S315080014A080ED000A90ED001AB2EE050AB4EE401A75
S315080014B0F1EE10FA00F3C3822AE3607B032840F0BA
S315080014C0588140F29C05C2F200052868FFF708F922
S315080014D01FED590B53EC102BFEF7FDFEFFF713F922
S315080014E028602868FFF7FCF81FED6B0B53EC102BF0
S315080014F0FFF779F8002840F00B832868FFF7F0F823
S315080015001FED670B5AE1787B022840F0648140F2B0
S31508001510A400C2F2000090ED000ABFEE001A30EEF9
S31508001520010A80ED000A90ED001AB6EE000AB4EE44
S31508001530401AF1EE10FAC0F2B082B4E2787B0328C2
S3150800154040F06D81B868FFF7CBF81FED790B53ECC7
S31508001550102BFEF7C0FEFFF7D6F8B860B868FFF79D
S31508001560BFF81FED870B53EC102BFFF772F8002816
S3150800157040F07D81B868FFF7B3F81FED830B53EC95
S31508001580102B6CE1787B032840F0918140F2A0048F
S31508001590C2F200042068FFF7A3F81FED8D0B53EC89
S315080015A0102BFEF798FEFFF7AEF820602068FFF7CD
S315080015B097F81FED9B0B53EC102BFFF74AF8002802
S315080015C040F071822068FFF78BF81FED970B53ECFC
S315080015D0102B97E1787B042840F049817868FFF75B
S315080015E07FF81FED970B53EC102BFEF774FEFFF7F1
S315080015F08AF8786097ED010AB6EE001AB4EE410A49
S31508001600F1EE10FA80F233817868FFF769F81FED7A
S31508001610B20B53EC102BFEF75EFEFFF774F800EEE4
S31508001620100A87ED010A22E1787B042840F03B8204
S3150800163040F29C04C2F200042068FFF751F81FED3F
S31508001640AE0B53EC102BFEF746FEFFF75CF8206056
S3150800165094ED000A1FEDC81AB4EE410AF1EE10FA2D
S3150800166080F221822068FFF73BF81FEDC90B53EC87
S31508001670102BFEF730FEFFF746F800EE100A40F290
S315080016809C00C2F200000CE2607B032840F0458112
S3150800169094ED020A1FEDC71A30EE010A84ED020A1C
S315080016A0A068FFF71DF81FEDD60B53EC102BFEF7BD
S315080016B0EBFF002800F04E811FEDCF0A44E1607B66
S315080016C0042840F0478194ED010A1FEDDB1A30EE3D
S315080016D0010A84ED010A94ED010A1FEDEA1AB4EE37
S315080016E0410AF1EE10FA40F335811FEDD70A94ED61
S315080016F0011A31EE000A84ED010A2BE1607B02280B
S3150800170040F0588140F2A400C2F2000090ED000AB1
S31508001710B7EE001A30EE010A80ED000A90ED001AC5
S315080017201FEDF20AB4EE401AF1EE10FA00F3EA8160
S31508001730EEE1607B032840F05C8140F2A000C2F233
S31508001740000090ED000A1FEDF31A30EE010A80ED55
S31508001750000A90ED000AB2EE051AB4EE410AF1EE5F
S3150800176010FA40F3D5810068FEF7BAFF9FEDEE0B3D
S315080017705DE1607B042840F0CB8140F29C05C2F213
S3150800178000052868FEF7ACFF9FEDE90B53EC102B1C
S31508001790FEF7A1FDFEF7B7FF28602868FEF7A0FF51
S315080017A09FEDE90B53EC102BFEF71DFF002840F0C8
S315080017B0AF812868FEF794FF9FEDDF0B53EC102BE3
S315080017C0FEF789FDFEF79FFF00EE100A40F29C0027
S315080017D0C2F200009AE1787B032840F0358140F296
S315080017E0A404C2F200042068FEF77AFF9FEDD40B2A
S315080017F053EC102BFEF76FFDFEF785FF206094ED86
S31508001800000AB6EE001AB4EE410AF1EE10FA80F2BA
S315080018104A812068FEF764FF9FEDCD0B35E1787BA2
S31508001820042824D1B868FEF75BFF9FEDC30B53EC81
S31508001830102BFEF750FDFEF766FFB860B868FEF796
S315080018404FFF9FEDBB0B54EC105B2A462346FEF771
S3150800185000FF60B9B868FEF743FF2A462346FEF73D
S315080018603AFDFEF750FF00EE100A87ED020A787B74
S31508001870002800F052814FF07E50386097ED010A3B
S315080018809FEDC21A9FEDC22A20EE010A80EE020AD7
S315080018909FEDC01A40F20400C2F2000020EE010AD1
S315080018A0BDEEC00A80ED020A97ED020A71E0787B68
S315080018B0042840F0F88040F2A008C2F20008D8F8E0
S315080018C00000FEF70DFF9FED9C0B53EC102BFEF767
S315080018D002FDFEF718FFC8F80000D8F80000FEF76A
S315080018E0FFFE9FED930B54EC105B2A462346FEF74A
S315080018F0B0FE002840F0D780D8F80000FEF7F0FECA
S315080019002A462346FEF7E7FCFEF7FDFE00EE100A20
S3150800191040F2A000C2F20000C3E0607B042819D19F
S3150800192094ED020A9FED971A30EE010A84ED020A39
S31508001930A068FEF7D5FE9FED880B53EC102BFEF73B
S3150800194052FE38B99FED900A94ED021A31EE000A5C
S3150800195084ED020A607B002800F0DF804FF07E509D
S31508001960206094ED010A9FED891A9FED892A20EEE1
S31508001970010A80EE020A9FED871A40F20400C2F2BD
S31508001980000020EE010ABDEEC00A80ED020A94EDC1
S31508001990020A9FED813A9FED814A20EE030A20EE66
S315080019A0040A80EE020A20EE010ABDEEC00A80EDA6
S315080019B0030AB2E0607B03287BD140F2A400C2F29E
S315080019C0000090ED000A9FED6E1A30EE010A80EDD8
S315080019D0000A90ED000A9FED691AB4EE410AF1EE8D
S315080019E010FA40F395800068FEF77AFE9FED540BD7
S315080019F080E0607B042840F08B8040F2A000C2F2B1
S31508001A00000090ED000A9FED5F1A30EE010A80EDA6
S31508001A10000A90ED000AB2EE051AB4EE410AF1EE9C
S31508001A2010FA75DD0068FEF75BFE9FED430B53EC7D
S31508001A30102BFEF750FCFEF766FE00EE100A40F289
S31508001A40A000C2F2000061E0787B04282BD140F2A6
S31508001A50A404C2F200042068FEF742FE9FED360B8E
S31508001A6053EC102BFEF737FCFEF74DFE206094ED85
S31508001A70000AB6EE001AB4EE410AF1EE10FA12DACE
S31508001A802068FEF72DFE9FED2A0B53EC102BFEF770
S31508001A9022FCFEF738FE00EE100A40F2A400C2F25D
S31508001AA0000080ED000A787BB8B34FF07E503860AE
S31508001AB033E0607B04282BD140F2A405C2F200056E
S31508001AC02868FEF70DFE9FED1A0B53EC102BFEF758
S31508001AD002FCFEF718FE286095ED000A9FED271A0E
S31508001AE0B4EE410AF1EE10FA12DD2868FEF7F8FDA9
S31508001AF09FED110B53EC102BFEF7EDFBFEF703FEE3
S31508001B0000EE100A40F2A400C2F2000080ED000ABE
S31508001B10607B10B14FF07E50206000203070BDE829
S31508001B20F08100BF00BF00BF9A9999999999B9BFEA
S31508001B307B14AE47E17A843F7B14AE47E17A84BFD3
S31508001B409A9999999999B9BF8FC2F5285CFF584017
S31508001B509A9999999999B93F333333333333244052
S31508001B60E7BC96E7A081E599A8E9A1BAE697B6E9A0
S31508001B709288E6978BE8BDAC0D0A00000000484243
S31508001B80CDCCCC3D0AD7233C0AD723BC6157803D30
S31508001B90BB27534000F0FF450AD7A33B0000784215
S31508001BA0E7BC96E7A081E599A8E98086E697B6E9B5
S31508001BB09288E6978BE8BDAC0D0A0000EFF310801B
S31508001BC072B600BFFEE740F6E021642828BF64200D
S31508001BD0C2F2000100EB800009684000C863704744
S31508001BE0B0B52DED028B40F2AC64C2F2000420467B
S31508001BF000F0ECFC47F2A855C1F6FF75688C2988F9
S31508001C009FED1C1A401A00EE100AB8EEC00A2046CC
S31508001C1081EE008A00F0F6FA00EE100A2888B8EE7F
S31508001C20400ABCEE001A9FED142A20EE010A01EEC6
S31508001C30100AB8EE411A20EE020A31EE000A40F602
S31508001C40CC3028EE000AB3EE0E1AC2F2000030EECF
S31508001C50010A90ED001A9FED092A9FED093A21EE37
S31508001C60021A20EE030A31EE000A80ED000ABDECE6
S31508001C70028BB0BD0000C8C227C58C3F6666663FAA
S31508001C80CDCCCC3D10B540F24064C2F200042046EB
S31508001C9000F09CFC204600F0B5FA00EE100A9FED15
S31508001CA0071AB8EE400A9FED062A20EE010A80EED2
S31508001CB0020ABDE8104008F0CBB900BFBB27534065
S31508001CC000F07F47B0B582B004460020019094F832
S31508001CD05800012801D102203BE0012084F8580071
S31508001CE020460D46FEF7A4FEE16D10B141F0100145
S31508001CF02BE041F2021291430231E16521684FF669
S31508001D00C0738A68C3F6FF731A4005F080431A4405
S31508001D1002F100428A604DF60262C0F2040200BF78
S31508001D208B68B3F1FF3F0CDC019B01330193019BE8
S31508001D309342F5D3E06D40F0100020F00201012037
S31508001D4003E0E16D012262F30101E165002184F8F7
S31508001D50581002B0B0BD90F85820012A01D10221CE
S31508001D6087E070B582B0002201920092026840F2C4
S31508001D70080CC5F2000CB2F1A04F0CF1F80508D01A
S31508001D8040F20043C5F200039A4231D10CF59F6335
S31508001D9000E02B469B68946823435B0728D44FF4DE
S31508001DA0E063D1F800E0AA4208BF4FF44073B2F1ED
S31508001DB0A04F08BF4FF440735CF80340BEF1000F14
S31508001DC024F460441AD04D6890F8386042F4807262
S31508001DD045EA46352C4340F20015C5F20005AA42ED
S31508001DE04CF8034019D1DCF80020DCF800411BE070
S31508001DF0C16D41F02001C165012134E042F48071D2
S31508001E0040F20012C5F2000291424CF8034018D184
S31508001E10DCF80010DCF800211AE0DCF80044DCF8F5
S31508001E200055DCF800262C432243D2071AD15CF869
S31508001E30032040F61F748968A243114341EA0E0144
S31508001E400EE0DCF80024DCF80065DCF80016324306
S31508001E501143C90706D15CF8031040F61F72914377
S31508001E604CF803100021002280F8582002B0BDE883
S31508001E707040084670470000F0B581B00022009215
S31508001E8090F85820012A01D1022196E1012307681A
S31508001E9080F85830BB685B0734D4D1E900351F2673
S31508001EA0C5F3012407EB8404226B05F01F05AE4039
S31508001EB0C3F38463B243AB401A432263BA68BB6870
S31508001EC002F0040203F00803D21840F0BC800A6846
S31508001ED007F114030426C2F34064D1F808E006EAC1
S31508001EE0D25C53F82440C2F304550722AA40BEF137
S31508001EF0004F24EA02040BD143F80C401A6842F05A
S31508001F0000430DE0C16D41F02001C165012151E199
S31508001F100EFA05F2224343F80C201A6822F0004311
S31508001F207B61D1E90435FC68042B5FD13A6E3A6EC1
S31508001F300B68C2F3846293FAA3F6C3F3846C6FF357
S31508001F40DF43B6FA86F5002B2C464FF6FF7E08BF10
S31508001F506446A242C0F2070E0CD13A6E22F0004245
S31508001F603A660A6802EA0E03C2F3846C92FAA2F28F
S31508001F70B2FA82F57A6E7A6E002BC2F384622C4628
S31508001F8008BF6446A2420CD17A6E22F000427A66F5
S31508001F900A6802EA0E03C2F3846C92FAA2F2B2FA53
S31508001FA082F5BA6EBA6E002BC2F384622C4608BF5D
S31508001FB06446A2420CD1BA6E22F00042BA660A689A
S31508001FC002EA0E03C2F3846C92FAA2F2B2FA82F51E
S31508001FD0FA6EFA6E002BC2F3846208BF6546AA42FF
S31508001FE031D1FA6E22F00042FA662CE0062202EAA5
S31508001FF0940205FA02FC0E6807F1600555F82340BD
S315080020004FF20002C0F2FF3206F0F846224046EAD6
S315080020100C06324342F0004245F823200A698B69D0
S3150800202055F8226026F08076334345F822300A694F
S315080020300B7F55F82260012B26F0007608BF06F1C3
S31508002040007645F82260BA680D68D2074FD1CA688B
S31508002050D7F8B0602B466FF3DF4326EA030C4FF63A
S31508002060FF7602F01804C0F20706E64000242E4068
S31508002070C4F27F0446EA0C06A242C7F8B06036D11D
S315080020808BB195FAA5F2B2FA82F2013202F01E037A
S31508002090092B02F01F030FD801229A4003EB4303D2
S315080020A042EA035314E0012202EB956202F01E0392
S315080020B00A2B02F01F03EFD3012200269A4003EBF6
S315080020C04303CFF6206606EB03531A4342F0007328
S315080020D0C3F3406607EB86068A687569C3F304533B
S315080020E007249C40A5439A402A4372610D68002143
S315080020F0C8F208010D425CD040F2001CC5F2000C83
S315080021004FF4C161674508BF4FF40271B7F1A04F9C
S3150800211008BF4FF4027151F80C400022CCF221326C
S31508002120954204F0E07E04D01022C9F2C00295421E
S315080021302CD122023DD440F20062C5F20002974239
S3150800214002D0B7F1A04F34D15CF8012022F0E0723A
S3150800215042EA0E0242F400024CF8012040F228013D
S31508002160C2F20001096842F663528909C0F23E527A
S31508002170A1FB0212910901EB41010C2202EB81013C
S3150800218000910099A9B100990139F9E70022CCF22A
S315080021905272954214D10022B2EB1E6F10D15CF830
S315080021A0012022F0E07242EA0E0242F080724CF8F8
S315080021B001200021002280F85820084601B0F0BD11
S315080021C00021CCF684318D424FF0000108BF14F48B
S315080021D08002EFD1B7F1A04F06D06745EAD0674530
S315080021E002D00CF5C06101E00CF500718A6822F096
S315080021F0E07242EA0E0242F480028A60D9E770472A
S31508002200704770470068006C70470000B0B582B030
S3150800221004460020002C019045D0E06D30B92046D8
S3150800222000F00FF90020206684F8580021688868B5
S31508002230800006D588684FF6C072C5F6FF72104052
S3150800224088608868C00021D44FF6C0728868C5F6D1
S31508002250FF7202F18052104000F18050886040F20F
S315080022602800C2F20000006842F663528009C0F2F4
S315080022703E52A0FB02029009022202EB400000BF78
S315080022800190019810B101980138F9E78868C000F3
S315080022900BD4E06D40F01000E065206E40F00100C0
S315080022A02066012002E00120C9E000208A68E36D6B
S315080022B002F0040203F01003D218E26D17D122F4DB
S315080022C081720232E2658A68D20736D140F200137B
S315080022D041F48072C5F2000340F2080C9A42C5F236
S315080022E0000C08D1DCF80030DCF800210BE042F0E5
S315080022F010010120A2E0DCF800E4DCF80025DCF897
S31508002300003642EA0E021A43D20716D10CF1F80239
S315080023104FF4E063D4F804E0914208BF4FF44073E9
S31508002320B1F1A04F08BF4FF440735CF8032022F4C4
S315080023307C1242EA0E024CF8032094F81DE0E36B87
S31508002340D4E902C243EA4E331A4394F8243042EAE7
S315080023500C02012B42EA034207D1D4F828C0002315
S31508002360CFF6FE7303EB4C431A43E36A33B1D4F852
S3150800237030C003F4787343EA0C031A43D1F80CC04F
S3150800238044F20703CFF6F07303EA0C031A43CA6054
S315080023900A69636B22F040621A430A618A68120767
S315080023A03ED494F83820237F520042EA833CCB6817
S315080023B044F2020223EA020242EA0C02CA602269D5
S315080023C00B6952B143F480330B61D1F8C0C043F6B0
S315080023D0FF732CEA03031A4307E023F480320A61E9
S315080023E0D1F8C02043F6FF739A43C1F8C02094F889
S315080023F040300A69012B10D140F2FD7322EA030C22
S31508002400D4E91132D4E913E543EA0C031A4342EA44
S315080024100E022A4342F0010201E022F001020A619B
S3150800242062690B6B012A23F00F0202D1236A013B72
S315080024301A430A63E16D012262F30101E16502B004
S31508002440B0BD70B59CB0044617A81421FDF72AFF45
S3150800245002A85421FDF726FF206840F20061C5F264
S315080024600001884261D040F20011C5F2000188429D
S3150800247075D0B0F1A04F40F0A7804FF4004002900D
S315080024804FF00050139002A801F010FF08B1FFF7B3
S3150800249095FB40F27401C2F200010A6841F24C0051
S315080024A0C4F20200531C0B6042B9016841F40051A2
S315080024B00160016801F40051019101990168002643
S315080024C041F001010160006817A900F001000190C0
S315080024D001980F201790032018904FF090401996F6
S315080024E000F05EFB40F218750820C2F20005C4F23F
S315080024F0020005214FF4807385E8430005F11400B6
S315080025004FF4806C4FF0200E80E808504FF40050CE
S31508002510802228622846C5E9036200F03FFA08B11E
S31508002520FFF74CFB6565AC624EE04FF480300290D5
S315080025304FF00040149002A801F0B8FE08B1FFF76A
S315080025403DFB41F24C00C4F20200016841F48041AF
S315080025500160006800F480400190019834E04FF46F
S31508002560004002904FF00050139002A801F09EFE22
S3150800257008B1FFF723FB40F27401C2F200010A68B2
S3150800258041F24C00C4F20200531C0B6042B90168C8
S3150800259041F400510160016801F40051019101996B
S315080025A0016841F001010160006817A900F0010007
S315080025B00190019810201790032018900020199078
S315080025C04FF0904000F0ECFA1CB070BD70B540F2C8
S315080025D008350446C5F200050068A5F5027105F53B
S315080025E08062884204BF40F20832C5F20002B0F1A8
S315080025F0A04F04BF40F20832C5F200021668806890
S31508002600400703D494F85800012801D1022070BD70
S31508002610012084F858002046FEF746FA20B100202B
S3150800262084F85800012070BD2068E16D40F60172FB
S31508002630914340F20012C5F2000240F2005C06F037
S315080026401F0301F580719042C5F2000CE16504D0C4
S31508002650604508D105F1F80601E04FF0A04686422C
S3150800266018BF002B03D1E16D21F48011E165E16DFE
S315080026700026C9044FF0000144BF216E21F006016F
S3150800268021661C219042016084F8586004D0604598
S315080026900ED105F1F80601E04FF0A046864207D0B4
S315080026A0092B17D80121994040F22123194211D04C
S315080026B0C168890104D5E16D012262F30D31E16536
S315080026C081684FF6C072C7F6FF7211400431816007
S315080026D0002070BDE16D904241F48011E16504D09F
S315080026E0604508BF05F1F80001E04FF0A040C0685A
S315080026F08001EDD5E06D012161F30D30E065E7E776
S315080027002DE9F041044640F200170068C5F20007BB
S315080027104FF4C163B84208BF4FF40273B0F1A04F3B
S3150800272008BF4FF40273DB5986689046720704D4D3
S315080027300E4694F85810012902D10220BDE8F0810E
S3150800274007F5A06203F01F050121904284F858108E
S3150800275018BF002D16D12046FEF7A6F9B0B9216894
S31508002760E06D40F60172904300F58070B942E0656D
S3150800277012D040F20050C5F20000814212D107F58E
S3150800278040700BE0052DE6D0092DE4D0002084F832
S3150800279058000120BDE8F0814FF0A040884218BFDC
S315080027A0002D03D1E06D20F48010E065E06D40F661
S315080027B0B513C0044FF0000044BF206E20F0060099
S315080027C02066606D40F62B27C0F60003C0F60007AA
S315080027D040F615250022C0F60005C0E90B371C2374
S315080027E045630B6084F858204A68434642F0100255
S315080027F04A60CA6842F00102CA604031324600F0B7
S3150800280060F921684FF6C0738A68C7F6FF731A40E5
S3150800281004328A60BDE8F081014690F82500022856
S3150800282027D180B50868D1E910CE8A6C036823F0F1
S315080028300E030360136823F480731360026822F0A2
S31508002840010202600EF01F00012202FA00F0CCF825
S315080028500400D1E913205060486D30B1026822F4B3
S3150800286080720260D1E9160242600020BDE880400D
S3150800287002E00420C8630120012281F825200022F5
S3150800288081F82420704790F8251002292FD180B5A9
S315080028900168D0E910CE826C0B6823F00E030B603A
S315080028A00B6823F001030B60116821F48071116035
S315080028B00EF01F02012101FA02F2CCF80420D0E939
S315080028C013325A60426D32B1136823F48073136071
S315080028D0D0E91623536080F82510826B002180F812
S315080028E024100AB190470021BDE8804007E0042182
S315080028F0C1630121002280F8251080F824200846AB
S315080029007047B0B5D0E910C30268DCF8001003F0D0
S315080029101F030424D2F800E09C400C4218BF1EF0A6
S3150800292004051AD102249C400C4218BF1EF0020569
S315080029301FD1D94009071BD51EF0080118D0116808
S3150800294021F00E011160012101FA03F2CCF80420EE
S31508002950C16380F82510416B18E01168890603D415
S31508002960116821F004011160CCF80440016B91B99B
S31508002970B0BD1168890606D4116821F00A011160F4
S31508002980012180F82510CCF80440C16A00220029EC
S3150800299080F82420ECD0BDE8B040084700284FF066
S315080029A0010100F08C802DE9F04740F2000CC4F2DA
S315080029B0020C03684FF6F8320CF5816ECBF6FD7201
S315080029C0734538BF02F580624CF6CD441A44CCF6FE
S315080029D0CC44A2FB042803F0FC02A2F10802A2FBE5
S315080029E004290CF580656FF00304D0E90262D0F87B
S315080029F010A03CBF0025C4F2020504EA9804C0E909
S31508002A001054022580F825501D6847F6F07725EA08
S31508002A1007073A43476942EA0A0285693A43C7699A
S31508002A202A43056A3A432A4332431A600CF502627E
S31508002A30734538BF0CF50062A3180CF50862C2642A
S31508002A40C9F3041240F6840C01FA02F2B6F5804F77
S31508002A50C4F2020C8364026505D100214160196045
S31508002A60CCF800201CE041685FFA81FE0139032991
S31508002A704FF00001C3F800E0CCF8002010D8AEF102
S31508002A8001020CEB820747F87C1F02F01F010122A6
S31508002A9002FA01F30CF1BC023946CCF8C03001E069
S31508002AA00022002300F1540C8CE80E0000210122BC
S31508002AB0C16380F8252080F82410BDE8F047084651
S31508002AC0704710B5044690F82400012820D001204C
S31508002AD084F8240094F82500012816D1022084F8E9
S31508002AE025000020E063D4F800C0DCF8000020F0E0
S31508002AF00100CCF800002046FEF785F92068226B15
S31508002B0001683AB141F00E010AE0002084F8240079
S31508002B10022010BD21F004010160016841F00A019C
S31508002B200160A16C0A68D20303D50A6842F4807270
S31508002B300A60616D19B10A6842F480720A60016818
S31508002B4041F001010160002010BD0000B0B5044647
S31508002B5000F008F9054640F23000C2F200000068AD
S31508002B60611C18BF044400BF00F0FCF8401BA042DB
S31508002B70FAD3B0BD012818BF704740F27000C2F200
S31508002B80000001210170704740F21441C4F20101AE
S31508002B900A68024214BF08607047FFF7EBBF0000DF
S31508002BA02DE9F04F82B00D68002D00F0C58000F1C8
S31508002BB03847860546EA972741F20046C4F60006D6
S31508002BC0062240F2004EB04208BF0522C4F2010EAA
S31508002BD0052F38BF3A464FF0000C0124002700267F
S31508002BE0009200BF04FA06FB15EA0B0800F09A806B
S31508002BF0D1F804A003230AF003056A1EBB40012A84
S31508002C006FEA030910D88268CB6802EA0902BB405A
S31508002C101A4382604268CAF3001322EA0B02B340E1
S31508002C201A43426004E000BF032D01D103251FE0CB
S31508002C30C2688B6802EA0902BB401A43022DC260C9
S31508002C4016D16FF0030202EA560202440CF01C0584
S31508002C500F23D2F820A003FA05FB0B692AEA0B0A10
S31508002C60AB4043EA0A031362D1F804A00AF003054D
S31508002C70026805FA07F302EA09021A431AF4403F02
S31508002C8002604FD041F26003C4F202031A684FF69D
S31508002C90084A42F001021A601A68CFF6FF7A02F073
S31508002CA001020192019A26F00302724452F80A9030
S31508002CB00CF00C050F23009CAB4029EA030304FA29
S31508002CC005F52B4342F80A30DEF808204B6842EA3D
S31508002CD0080540F20C49DC0258BF22EA0805CEF87E
S31508002CE00850C4F20109D9F800209D0242EA0804F6
S31508002CF058BF22EA0804C9F80040DEF804209D03FC
S31508002D0042EA080458BF22EA0804CEF80440DEF86E
S31508002D100020DB0342EA080458BF22EA0804CEF87A
S31508002D20004001240D68013635FA06F207F102075C
S31508002D300CF1040C7FF456AF02B0BDE8F08F0069C1
S31508002D40084018BF01207047426902EA010391430F
S31508002D5041EA0341816170471823002A08BF2823E6
S31508002D60C150704740F6DC30C2F200000068704778
S31508002D7090F8DD30022B02D14FF0020C72E090F889
S31508002D80DC304FF0020C012B6CD001231F2980F890
S31508002D90DC3080F8DDC010DC4B1E072B27D80FF27D
S31508002DA00601DFE803F0042C6132616161380168CD
S31508002DB0D1F8003462F3040332E07F290DDD80295F
S31508002DC031D0B1F5807F34D0B1F5007F4CD10168A0
S31508002DD0D1F8043462F31C6336E020292FD0402949
S31508002DE042D10168D1F8043462F38A132CE0102921
S31508002DF03AD10168D1F8003462F31C6310E0016827
S31508002E00D1F8003462F38A130AE00168D1F8003475
S31508002E1062F3103304E00168D1F8003462F3964394
S31508002E20C1F8003412E00168D1F8043462F31033B3
S31508002E300AE00168D1F8043462F3964304E00168B5
S31508002E40D1F8043462F30403C1F8043490F8DD10B1
S31508002E504FF0010C072905D080F8DDC04FF0000CB3
S31508002E6080F8DCC060467047072180F8DD10002135
S31508002E7080F8DC10EAE7000090F8DD30022B01D17B
S31508002E800223C7E090F8DC30012B4FF0020300F074
S31508002E90C180B0B5012480F8DC4080F8DD300368D5
S31508002EA01F29D3F880C3D3F8FCE30FDC4C1E072C8C
S31508002EB03ED8DFE804F00452B159B1B1B160548884
S31508002EC0526864F3124CC3F8BC238FE07F2919DDDE
S31508002ED0802957D0B1F5807F65D0B1F5007F40F0E5
S31508002EE09B805488D3F8F85364F3165E25F0F844AB
S31508002EF0C3F8F8435268D3F8F84302F01F0244EACD
S31508002F00826271E020295FD0402940F0858054888C
S31508002F10D3F8F85364F30A2E25F4F844C3F8F843B3
S31508002F205268D3F8F84302F01F0244EA82225BE0B3
S31508002F30102971D14FEADE05B2F802E0D3F8F8435A
S31508002F4065F3DF0E24F01F04C3F8F8435268D3F87C
S31508002F50F84302F01F02224346E05488526864F39D
S31508002F60D54CC3F8C02341E05488526864F3985C92
S31508002F70C3F8C4233AE05488526864F35B6CC3F818
S31508002F80C82333E05488D3F8F85364F30E3E25F487
S31508002F90F814C3F8F8435268D3F8F84302F01F024E
S31508002FA044EA024220E05488D3F8F85364F3124EF8
S31508002FB025F07874C3F8F8435268D3F8F84302F05A
S31508002FC01F0244EA42520FE05488D3F8F85364F3D8
S31508002FD0061E25F47874C3F8F8435268D3F8F84304
S31508002FE002F01F0244EA4212C3F8F82390F8DD20E3
S31508002FF0072A01D101230BE00F298CBFC3F8FCE394
S31508003000C3F880C30121002380F8DD1080F8DC3086
S31508003010BDE8B04018467047072280F8DD20002238
S3150800302080F8DC20E2E770477047704770477047C2
S31508003030704770477047704790F8DC20012A4FF0B8
S31508003040020221D0012380F8DC3080F8DD200268F6
S315080030504B1CD2F8CCC309D04CF00203C2F8CC33CF
S31508003060D2F8CC3323F00C03194301E02CF002010B
S31508003070C2F8CC13D2F8CC1341F00101C2F8CC1334
S315080030800121002280F8DD101046704790F8DD30E7
S31508003090022B01D1022343E090F8DC30012B4FF0DC
S315080030A002033DD070B580F8DD30D2E900C3D2E91D
S315080030B002E60CF4E0546FF35F23156923440EF41B
S315080030C00074234405F480452B4406F40046334433
S315080030D056690025C0F2FF1505EA06469569334488
S315080030E005F00076156A334405F08046D269334305
S315080030F0066802F0004206EBC1111A43D1F8B8304F
S3150800310042F20006C3F6004633401A43C1F8B82017
S315080031100121002380F8DD1080F8DC30BDE870401E
S315080031201846704770477047704770477047704732
S3150800313070472DE9F041062904465FD00D46FF2960
S3150800314040F0DA802068D0F88863D0F89053F10709
S3150800315018BF15F0010105D00121C0F88C132046CF
S31508003160FFF7E1FFB00709D515F0020006D0206881
S315080031700221C0F88C132046FFF7D6FF700709D541
S3150800318015F0040006D020680421C0F88C132046E8
S31508003190FFF7CBFF300709D515F0080006D02068E1
S315080031A00821C0F88C132046FFF7C0FFF00609D5A2
S315080031B015F0100006D020681021C0F88C132046A0
S315080031C0FFF7B5FF700609D515F0400006D0206850
S315080031D04021C0F88C132046FFF7AAFFB00640F13D
S315080031E06C8115F0200000F06881216820222046B5
S315080031F0C1F88C23BDE8F04100F04CBA2068D0F83D
S315080032008853D0F890734668D0F80C80E9030FD538
S3150800321017F480310CD04FF48031C0F88C1301209C
S3150800322084F8DD00002084F8DC002046FFF703FF61
S31508003230A8030AD517F4003007D020684FF40031E8
S31508003240C0F88C132046FFF7EEFEF00718BF18F0FB
S31508003250010006D020680121816020460621FFF77B
S31508003260E5FEB00709D518F0020006D0206802214D
S31508003270816020460621FFF7DAFE700709D518F0A7
S31508003280040006D020680421816020460621FFF745
S31508003290CFFE300709D518F0080006D020680821A7
S315080032A0816020460621FFF7C4FEF00609D518F00E
S315080032B0100006D02068102181602046062100F003
S315080032C0E7F9B00608D518F0200005D020682021B7
S315080032D08160204600F0DDF9700640F1EE8018F0B6
S315080032E0400000F0EA8022684023204606219360C9
S315080032F0BDE8F04100F0CBB9206800EBC510D0F866
S315080033008470D0F88C60F90718BF16F0010106D052
S315080033100121C0F8881020462946FFF787FEB8071E
S315080033200CD516F0020009D02068022100EBC51062
S31508003330C0F8881020462946FFF779FE78070CD58D
S3150800334016F0040009D02068042100EBC510C0F867
S31508003350881020462946FFF76BFE38070CD516F06D
S31508003360080009D02068082100EBC510C0F88810AD
S3150800337020462946FFF75DFEF8060CD516F0100024
S3150800338009D02068102100EBC510C0F88810204627
S31508003390294600F07DF978060CD516F0400009D0CC
S315080033A02068402100EBC510C0F888102046294641
S315080033B000F06DF938060CD516F0800009D02068A3
S315080033C0802100EBC510C0F8881020462946FFF773
S315080033D02BFEF8050DD516F480700AD020684FF438
S315080033E0807100EBC510C0F8881020462946FFF703
S315080033F01CFEB8050DD516F400700AD020684FF4E7
S31508003400007100EBC510C0F888102046294600F068
S3150800341014F978050DD516F480600AD020684FF4A3
S31508003420806100EBC510C0F888102046294600F0D8
S3150800343003F938050DD516F400600AD020684FF454
S31508003440006100EBC510C0F888102046294600F038
S31508003450F6F8F8040DD516F480500AD020684FF413
S31508003460805100EBC510C0F888102046294600F0A8
S31508003470E5F8B8040DD516F400500AD020684FF4C4
S31508003480005100EBC510C0F8881020462946FFF702
S31508003490D1FD780458BFBDE8F08116F480400CD001
S315080034A020684FF4804300EBC51220462946C2F82F
S315080034B08830BDE8F041FFF735BEBDE8F081000071
S315080034C070B582B000284AD00446022084F8DD0090
S315080034D004F1E0001C21FCF7E5FE207AC0071FD0A6
S315080034E0206846F60001C4F2010188420CD141F277
S315080034F06001C4F202010A6842F080620A60096843
S3150800350001F08061019101990168D4E9042321F44D
S31508003510704102F44042114403F4405211440160E0
S31508003520204600F020F8207A800706D52068E16852
S315080035300268090A61F309220260012000250026B3
S3150800354084F8DD0084F8DC50A11901F118000D6338
S315080035501421FCF7A7FE1C36C42EF5D100E0012580
S31508003560284602B070BD006846F60001C4F20101A3
S31508003570884218BF704780B582B041F26000C4F235
S3150800358002000168002241F08061016000680121A3
S3150800359000F0806001900198472000F0C8FD4720A0
S315080035A002B0BDE8804000F0B2BD006846F60001F2
S315080035B0C4F20101884218BF70472DE9F04385B06F
S315080035C041F24C00C4F20200016840F2004441F0A6
S315080035D0020101600168C4F6000401F002010091CD
S315080035E0009901686D4641F00401016000684FF0DA
S315080035F0020800F00400009000984FF44040009044
S315080036004FF0000903260D2720462946CDF80480E9
S31508003610CDF8089003960497FFF7C2FAC0208DE804
S31508003620010304F580602946CDE90367FFF7B8FA78
S3150800363005B0BDE8F043704770477047704770475C
S31508003640F0B581B00D460446FFF78CFB2168D1F82A
S315080036508823D2030ED406466F1C00BF37B1FFF786
S3150800366081FB75B1801BA8420BD82168D1F8880365
S31508003670C003F3D5012084F8DD00002084F8DC00BF
S3150800368003E0072084F8DD00032001B0F0BD704791
S3150800369070477047704790F8DD30022B4FF00203F1
S315080036A030D010B580F8DD300368062910D11968C6
S315080036B0D2E900CED2E9024221F01F0124F0180413
S315080036C0214311431960C3F814C0C3F818E013E086
S315080036D003EBC111D1F88030D2E900ECD2E90242FD
S315080036E023F01F0324F0180423431A43C1F880204B
S315080036F0C1F894E0C1F898C00121002380F8DD10D4
S31508003700BDE810401846704790F8DDC0BCF1020FBE
S3150800371002D14FF0020C97E090F8DCC0BCF1010F23
S315080037204FF0020C00F0908010B54FF0010E0629FC
S3150800373080F8DCE080F8DDC00ED1511E07291FD8BD
S315080037400FF20402DFE801F004231C271C1C1C2BC3
S3150800375019680268D16167E0A2F1010CBCF1070F94
S315080037600ED80FF20602DFE80CF0041E0B380B0B1E
S315080037700B3F02681B6802EBC111C1F89C3053E08D
S31508003780072180F8DD10002180F8DC104CE019686C
S315080037900268516248E019680268916244E0196853
S315080037A00268D16240E0D0F800C0D3E900E40CEB2F
S315080037B0C11CCCF8A4E0614651F8802F22F440528F
S315080037C00A608CB30A68B4F5405F42EA04020A60EC
S315080037D027D0B4F5005F20D026E002681B6802EB0C
S315080037E0C111C1F8A8301FE0D0F800C0D3E90042E3
S315080037F00CEBC11CCCF8AC40614651F8804F24F460
S3150800380040440C6082B10C68B2F5405F44EA820419
S315080038100C6006D0B2F5005F06D19968CCF89C100A
S3150800382002E09968CCF8A81090F8DD10072902D1B3
S315080038304FF0010C06E001214FF0000C80F8DD1076
S3150800384080F8DCC0BDE810406046704790F8DC2080
S31508003850012A4FF002020BD080F8DD2002681368B7
S31508003860194311600121002280F8DD1080F8DC2060
S3150800387010467047B0B5044690F8DD00022804BF2C
S315080038800220B0BD94F8DC0001284FF0020008BF02
S31508003890B0BD012584F8DC5084F8DD00204602F02E
S315080038A0CDFC002084F8DD5084F8DC00B0BD90F82B
S315080038B0DC20012A4FF002020DD080F8DD200268D4
S315080038C0D2F894331943C2F894130121002280F8E0
S315080038D0DD1080F8DC201046704790F8DC20012ABD
S315080038E04FF002020DD080F8DD200268D2F8983336
S315080038F01943C2F898130121002280F8DD1080F8D8
S31508003900DC2010467047000090F8DD30022B01D10C
S3150800391002233FE190F8DC30012B4FF0020300F060
S3150800392039812DE9F04F8EB0012780F8DC7080F8D8
S31508003930DD30D0F80090062909EBC11C26D0E646F2
S315080039405EF8803F644623F07043CEF80030DEF818
S31508003950003054F8E85F23F020030B950D94644675
S3150800396054F8E46F0C94D9F8A0535469202C44EA0F
S31508003970030706D09469042C48D0032C48D0022C9F
S315080039804AD127F4D07303F1200747E0D9F800603D
S31508003990D9F8A0E3556926F0E00625F0C004202DE5
S315080039A046EA040609D09569042D00F0F580032D32
S315080039B000F0F580022D40F0F58046F020064FF223
S315080039C0FF35C3F2FF15D2E907472E4005F5006516
S315080039D0D2E909382C40344327F06E452C4323F0AE
S315080039E06843234328F06044D2F82CB0234343EAC3
S315080039F08B03546B23F000532343146B2EF4803748
S31508003A002743C9F80030C9F8A07391E0022300E003
S31508003A10012363F3C81701E027F4D077D369D2E905
S31508003A2011A40093136AD2F82CB00193536A049335
S31508003A30936A0593536B0693D2E90E830A93136C24
S31508003A400993936D089344F48053B3F5F05F136DAF
S31508003A50079326F480734AEA030A02D1B8F1400FA5
S31508003A6003D12AF4F05343EA040AD36C05290393D5
S31508003A70536D02930BD84DA353F821302E46156B80
S31508003A804C1C334005FA04F444EA030600E02E46CB
S31508003A904FF2FF33C0F2FF13009D07EA030403F554
S31508003AA000632B402343019C049DA4B223434FF695
S31508003AB0BF74C0F2006425402B43059D04F10064E1
S31508003AC02C4023434FF6BF7443EA0B03CFF600643A
S31508003AD02340069CB4F1005F4FF6FF74CFF60264EC
S31508003AE008BF03F5003308EA04052B43089D04F5CF
S31508003AF080242C402343079C2343CEF800304FF6FE
S31508003B00C0730B9FC7F6FF733B400A9F07F03F073A
S31508003B103B44099F3B430D9F3B60039F2AF4804328
S31508003B203B430C9F3B60029BCCF8D430C9F8A0639A
S31508003B30C1EBC103D2E9007500EB8303D2E9024663
S31508003B40C3E9087517690629C3E90A461F630AD82F
S31508003B504BF6B803C0F6000353F82130D9F884733E
S31508003B603B43C9F8843306290BD0BBF1000F08D1B3
S31508003B70DCF88010D26D21F4007141EA4221CCF8BC
S31508003B8080100121002380F8DD1080F8DC300EB0AB
S31508003B90BDE8F04F1846704746F080060FE746F036
S31508003BA040060CE726F0E00609E700BFFFFFFDFF29
S31508003BB0FFFFFBFFFFFFF7FFFFFFEFFFFFFFDFFF43
S31508003BC0FFFFBFFF90F8DD30022B01D1022347E04B
S31508003BD090F8DC30012B4FF0020341D02DE9F0417B
S31508003BE080F8DD30D0F800C04FF6EF740CEBC11E3C
S31508003BF05EF8EC3FCFF6EC7492E86001234001349E
S31508003C00D76804EA0514234326F44034234327F4EB
S31508003C10003495692343012D43EA080309D1D2E903
S31508003C20042423F0060322F002021A43224342F038
S31508003C3001030629CEF800300AD84BF6B802C0F6BA
S31508003C40000252F82110DCF884231143CCF88413BF
S31508003C500121002380F8DD1080F8DC30BDE8F04152
S31508003C601846704790F84120202A03D190F8402042
S31508003C70012A01D1022118E0242280F84120026895
S31508003C80136823F001031360136823F48053136049
S31508003C90136819431160116841F001011160202170
S31508003CA080F84110002180F840100846704790F8C7
S31508003CB04120202A03D190F84020012A01D102216F
S31508003CC017E0242280F841200268136823F00103D4
S31508003CD01360136823F4706343EA012111601168C5
S31508003CE041F001011160202180F84110002180F87F
S31508003CF040100846704708B310B5044690F84100CE
S31508003D0028B9002084F84000204600F00FF9242046
S31508003D1084F8410094E80910E2680168012A21F054
S31508003D200101016023F070610161816821F400419D
S31508003D30816005D14CF4004181600AE0012070479A
S31508003D404CF40441022A816003D1416841F40061C0
S31508003D5002E0416821F400614160416804F1100CF9
S31508003D6041F0007141F400414160C16821F400410D
S31508003D70C1609CE80E10114341EA0321C160216A23
S31508003D8041EA0C010160016841F00101016000206F
S31508003D902021606484F84110206384F8420010BD35
S31508003DA02DE9F04782B0044690F84100202803D157
S31508003DB094F84000012804D10225284602B0BDE83F
S31508003DC0F08701251E461746884684F84050FEF7B8
S31508003DD0C9FF814620464FF4004101221923CDF838
S31508003DE0009002F00BFB0028E7D1212084F841005F
S31508003DF0102084F84200002060646762668560636C
S31508003E00608DB0F5807F04D3FF2020854FF0807247
S31508003E1004E0608D2085A8B14FF0007217F8013BC9
S31508003E2021688B626762638D013B6385431E238528
S31508003E3043466FF39F23C0B243EA0040104340F461
S31508003E40005007E047F6C070424660F39F2221689B
S31508003E5002F5903049F60045CFF600454A68A5F5C3
S31508003E6080631A4010434860608D0A9F002843D03B
S31508003E7040F2000AC0F2FF1A6FF39F28FF2600BF20
S31508003E80204639464A4602F02FFBD8BB606A2168AD
S31508003E9010F8012B8A626062608D01386085208D7A
S31508003EA001382085618D21B3000422D12046802166
S31508003EB000223B46CDF8009002F0A0FA10BB608DB8
S31508003EC0B0F5807F06D32068268550F8041F524631
S31508003ED029400AE0618D2068218550F8042FC9B26F
S31508003EE02A4042EA01414FF0007241EA08011143B3
S31508003EF00160608D0028C3D1204639464A4602F043
S31508003F00C7FA08B1012558E720682021C16142682F
S31508003F104EF60003CFF600631A400025426084F887
S31508003F20411084F8425084F8405046E72DE9F043A2
S31508003F309BB0044601A804305021FCF7B3F9206869
S31508003F4047F60001C4F20001884248D14FF4807850
S31508003F5001A8CDF8048000F0A9F908B1FDF72EFEF6
S31508003F6041F24C06C4F20206306816AC40F0040072
S31508003F70306030684FF0120900F004001690169869
S31508003F803068012540F0010030603068032700F0F2
S31508003F900100169016984FF40070169008201A9093
S31508003FA040F60000C4F600002146CDF85C9018954E
S31508003FB01997FEF7F5FD02201A904FF0904021461A
S31508003FC0CDE91689CDE91857FEF7EAFDF06840F005
S31508003FD08040F060F06800F08040009000981BB0C8
S31508003FE0BDE8F08350B3B0B504460068D4E90112C1
S31508003FF04CF6CC43036045F255530360416082603A
S31508004000FEF7B0FE2168CA6852070DD0054600BF04
S31508004010FEF7A8FE401B2168322802D3C86840076D
S315080040200ED1C8684007F3D10A69E068824206BF24
S315080040304AF6AA20086008610020B0BD0120704732
S315080040400320B0BD01684AF6AA2200200A6070471C
S3150800405040F2300040F6DC31C2F20000C2F2000144
S3150800406000680A6810440860704780B5032000F0AD
S3150800407089F80F2000F007F808B1012080BD00F08C
S315080040802CF8002080BDB0B540F23001C2F2000124
S315080040900968F9B1044640F22800C2F200004FF45C
S315080040A07A720068B2FBF1F1B0FBF1F000F0EEFFB6
S315080040B00F2C4FF001050ED868B94FF0FF30214696
S315080040C00022002500F033F840F23400C2F2000066
S315080040D0046000E001252846B0BD82B041F25800D0
S315080040E0C4F20200816841F001018160816801F033
S315080040F0010101910199016841F080510160006850
S3150800410000F080500090009802B000F0C6B8002871
S315080041100CD400F01F01012202FA01F11C2202EA66
S31508004120D0004EF20012CEF200028150704710B550
S315080041304EF60C5CCEF2000CDCF80030C3F3022E0F
S315080041408EF00704042C28BF0424BEF103034FF0A5
S31508004150FF3E0EFA04F438BF0023A14399400EFA35
S3150800416003F39A43114300F00F0200F1604309017B
S31508004170043A03F564436244002848BF02F10C037D
S31508004180197010BD4EF60C51CEF200010A684FF6B2
S31508004190FF031A4060F30A2242F0806040F0FD7087
S315080041A008607047B0F5007F34D000286AD147F21E
S315080041B0000CC4F2000CDCF80010DCF8802001F4D6
S315080041C0C06122F48072B1F5806FCCF8802062D18C
S315080041D0DCF80010012262F34A21CCF8001040F204
S315080041E02801C2F200010968322359434DF6836358
S315080041F0C4F21B33A1FB031302EB9341002200BF59
S31508004200DCF81400013942F10003400533D5002BD0
S31508004210F6D130E047F2000CC4F2000CDCF80010CE
S31508004220DCF8802001F4C06142F48072B1F5806F39
S31508004230CCF880202FD1DCF80010012262F34A2145
S31508004240CCF8001040F22801C2F2000109683223B6
S3150800425059434DF68363C4F21B33A1FB031302EBE8
S3150800426093410022DCF81400013942F100034005AD
S3150800427001D5002BF6D1DCF81400400544BF032015
S31508004280704708E047F20000C4F200000168022205
S3150800429062F34A2101600020704747F20800C4F221
S315080042A00000016841F48041016070472DE9F04142
S315080042B082B00446807841F20C060007C4F2020672
S315080042C001D400204FE0F06C5FEAC00808D4F06C17
S315080042D040F08050F064F06C00F080500190019836
S315080042E047F20007C4F20007386840F48070386067
S315080042F0FEF738FD054600BF3868C00506D4FEF748
S3150800430031FD401B0228F7D9032025E0D6F88400A2
S3150800431010F4407017D0216D884211D0D6F8840069
S31508004320D6F8841020F4407041F48031C6F8841021
S31508004330D6F8841021F48031C6F88410C6F88400B3
S31508004340C00740F0E880D6F88400216D20F440705C
S315080043500843C6F884000020B8F1000F03D4F16CB6
S3150800436021F08051F1642168CA0705D0F26F6368AD
S3150800437022F003021A43F2678A0705D5F26FA3688B
S3150800438022F00C021A43F2674A0705D5F26FE36872
S3150800439022F030021A43F2670A0705D5F26F23693D
S315080043A022F0C0021A43F267CA0605D5F26F63699E
S315080043B022F440721A43F2678A0605D5F26FA3699A
S315080043C022F440621A43F2674A0605D5F26FE3699A
S315080043D022F440521A43F2670A0605D5F26F236A99
S315080043E022F440421A43F267CA0505D5F26F636A9A
S315080043F022F440321A43F2678A0307D5D6F890208A
S31508004400A36A22F003021A43C6F890208A0505D546
S31508004410F26FE36A22F440221A43F2674A050CD582
S31508004420F26F236B22F440121A43B3F5801FF2672A
S3150800443003D1326842F4801232600A050CD5F26F55
S31508004440636B22F440021A43B3F5800FF26703D177
S31508004450326842F480123260CA040CD5F26FA36B3C
S3150800446022F040721A43B3F1807FF26703D13268B3
S3150800447042F4801232608A040CD5F26FE36B22F0A4
S3150800448040621A43B3F1006FF26703D1326842F40F
S31508004490801232604A040CD5F26F236C22F0406217
S315080044A01A43B3F1006FF26703D1326842F48012FF
S315080044B032600A040CD5F26F636C22F040521A433C
S315080044C0B3F1805FF26703D1326842F4803232601A
S315080044D0CA030CD5F26FA36C22F040421A43B3F11B
S315080044E0804FF26703D1326842F480323260490362
S315080044F00ED5D6F89010E26C21F440111143B2F5AE
S31508004500001FC6F8901003D1316841F4801131605C
S3150800451002B0BDE8F081FEF725FC054641F2883772
S31508004520D6F8840080073FF50EAFFEF71BFC401B4C
S31508004530B842F5D9E8E670472DE9F047002865D076
S3150800454042F2000AC4F2020A0446DAF800000D46EE
S3150800455000F00F0088420CD2DAF8000020F00F00B5
S315080045602843CAF80000DAF8000000F00F00A84255
S315080045704CD1206841F20808C107C4F2020803D1E9
S31508004580810700F1828099E0616802293AD00329FF
S315080045903FD158F8081C890138D5D8F80410D8F83E
S315080045A0042042F20047C2F3031201F00301D8F8CF
S315080045B004300132C0F2F407032904BF47F6400766
S315080045C0C0F27D17B7FBF2F1D8F80420C3F306232F
S315080045D05943C2F34162022303EB4202B1FBF2F1F3
S315080045E04BF20042C0F2C442914208D9D8F80010F2
S315080045F011F0F00F19D0800701D5A068A8B14FF0C7
S3150800460000091BE058F8080C800306D40120BDE811
S31508004610F08758F8080C4005F8D500F0D5F84BF2A5
S315080046200041C0F2C4418842E9D9D8F800000821FF
S3150800463061F307104FF00109C8F80000D8F8000028
S31508004640616820F003000843C8F80000FEF78AFBFB
S31508004650064641F2883700BFD8F80000616800F0C6
S315080046600C00B0EB810F05D0FEF77CFB801BB8422F
S31508004670F2D940E02068810707D4B9F1000F1DD0B0
S31508004680D8F8001021F0F00116E0410705D5D8F852
S31508004690001041F4E061C8F80010010706D5D8F803
S315080046A00010072262F30D21C8F80010D8F8001090
S315080046B0A26821F0F0011143C8F80010DAF80010DA
S315080046C001F00F01A9421AD9DAF8000020F00F000C
S315080046D02843CAF80000FEF745FB064641F288372C
S315080046E0DAF8000000F00F00A84207D0FEF73AFB00
S315080046F0801BB842F4D90320BDE8F087206841073B
S3150800470007D5D8F80010E26821F4E0611143C8F82B
S315080047100010000708D5D8F80000216920F4605079
S3150800472040EAC100C8F8000000F04EF8D8F80010BA
S315080047304BF6D402C1F30311C0F60002515C40F2F5
S31508004740280201F01F0120FA01F140F23400C2F2FA
S3150800475000000068C2F200021160BDE8F047FFF7EA
S3150800476092BC41F20000C4F20200016841F4002143
S315080047700160704740F2280041F20801C2F20000C9
S31508004780C4F20201006809684BF6E402C1F302218B
S31508004790C0F60002515C01F01F01C840704740F2A4
S315080047A0280041F20801C2F20000C4F202010068C2
S315080047B009684BF6E402C1F3C221C0F60002515C57
S315080047C001F01F01C840704741F20801C4F2020116
S315080047D0086842F20042C0F2F40200F00C00042815
S315080047E0104608BF7047086800F00C00082847F60E
S315080047F04000C0F27D1024D00B6803F00C030C2B8C
S315080048001CBF0020704780B5D1F804C04B680CF077
S31508004810030CC3F3031E4B680EF1010EBCF1030F24
S3150800482008BF02464968B2FBFEF0C3F30623C1F38C
S3150800483041610222584302EB4101B0FBF1F0BDE8A9
S315080048408040704710B541F21C04C4F20204206887
S31508004850C00558BF10BDFFF76EFE4FF4807060604C
S3150800486010BD000000285FD02DE9F04182B0044653
S31508004870007841F20006C007C4F2020656D1207835
S31508004880800774D42078000700F1988020784007C4
S3150800489000F1B6802078800600F10281E569002DD6
S315080048A000F01D82B06800F00C000C2840F04C8126
S315080048B0012D00F0E080F068216A00F003028A42C8
S315080048C040F0D980626A6FF00F0300F0F00103EB45
S315080048D00212914240F0CF80A16A00F4FE42B2EB88
S315080048E0012F40F0C880E16A00F07842B2EBC16F50
S315080048F040F0C180226B0023CFF6E07303EA025230
S3150800490000F4C001A2F50012914240F0B480616B38
S315080049104FF07E4202EA016100F0C06001F17E417B
S31508004920884240F0A880DAE101207047B06800F0BC
S315080049300C01F06808295AD0032281F00C0122EAFA
S3150800494000000844B0FA80F0400950D16068B0F51C
S31508004950803F07D0B0F5A02F40F0CD80306840F4F6
S3150800496080203060306840F480303060CDE0B06838
S31508004970F16800F00C00042867D001F0030180F00C
S315080049800C0081F002010844B0FA80F040095CD1BD
S31508004990E1683068002900F0C58040F48070306016
S315080049A0FEF7E0F9054600BF3068400500F1EE80E5
S315080049B0FEF7D8F9401B0228F6D920E16169D6F836
S315080049C09400002900F0858040F00100C6F89400A4
S315080049D0FEF7C8F9054600BFD6F8940080073FF5EC
S315080049E055AFFEF7BFF9401B0228F5D907E1306835
S315080049F080037FF544AF606800287FF440AF3AE053
S31508004A00B06D5FEAC00808D4B06D40F08050B0655C
S31508004A10B06D00F080500190019847F20007C4F28B
S31508004A2000073868C00528D4386840F480703860B4
S31508004A30FEF798F9054600BF3868C0051DD4FEF78D
S31508004A4091F9401B0228F7D9D9E03068400501D50D
S31508004A50E06880B17068216920F0FE4040EA016094
S31508004A60706040F23400C2F200000068FFF70BFBEA
S31508004A7000283FF407AF012032E1A068012808D0DA
S31508004A80052840F0A080D6F8900040F00400C6F84B
S31508004A909000D6F8900040F00100C6F890009FE01C
S31508004AA0A169D6F89800002978D040F00100C6F828
S31508004AB09800FEF757F90546D6F8980080073FF59F
S31508004AC0EDAEFEF74FF9401B02284FF00300F3D96D
S31508004AD006E120F00100C6F89400FEF743F9054602
S31508004AE0D6F8940080077FF5D1AEFEF73BF9401B58
S31508004AF00228F5D983E03168002821F48031316035
S31508004B00316821F4802131607BD0FEF72BF9054608
S31508004B10306880033FF5B3AEFEF724F9401B6428DE
S31508004B20F6D96CE020F480703060FEF71BF9054674
S31508004B30306840057FF5A6AEFEF714F9401B02283B
S31508004B404FF00300F4D9CBE0306820F08070306075
S31508004B50FEF708F9022D05460CD100BF3068800122
S31508004B6079D5FEF7FFF8401B02284FF00300F5D968
S31508004B70B6E000BF3068800140F1AA80FEF7F2F87F
S31508004B80401B02284FF00300F4D9A9E07068216998
S31508004B9020F0FE4040EA0160706073E620F00100F4
S31508004BA0C6F89800FEF7DEF8054600BFD6F8980066
S31508004BB080077FF573AEFEF7D5F8401B02284FF045
S31508004BC00300F3D98CE0D6F8901021F00101C6F85D
S31508004BD09010D6F8901021F00401C6F89010F8B19C
S31508004BE0FEF7C0F8054641F2883700BFD6F89000B0
S31508004BF0800727D4FEF7B6F8401BB842F6D903203B
S31508004C006EE0FEF7AFF80546306880037FF537AEED
S31508004C10FEF7A8F8401B64284FF00300F4D95FE0BC
S31508004C20FEF7A0F8054641F2883700BFD6F890008F
S31508004C30800707D5FEF796F8401BB8424FF00300E9
S31508004C40F4D94DE0B8F1000F3FF524AEB06D20F071
S31508004C508050B0651EE6F06848F20C01C0F29F115C
S31508004C6004F1200700EA010C8ECF6FF00F00D4E99B
S31508004C700C5400EB02100022CFF6E07241EA0C0158
S31508004C8002EA05520843A2F500124FF07E4540EAB3
S31508004C90032005EA0465104305F17E4540EAC7602E
S31508004CA02843F060306840F080703060F06840F06B
S31508004CB08070F060FEF756F80446306880010ED41E
S31508004CC0FEF750F8001B02284FF00300F5D907E05D
S31508004CD0F0684FF6FC71CFF6EE610840F0600020F0
S31508004CE002B0BDE8F08140B1B0B50446406A30B1C3
S31508004CF00020206104F1140007E001207047606875
S31508004D00B0F5827F03D004F11C0000210160002564
S31508004D10A56294F85D0020B9204684F85C5000F03E
S31508004D2052F8022084F85D002068D4F80CE0026886
S31508004D30BEF5E06F22F0400202604EF4006298BFB2
S31508004D400125B2F5706F1CBF0023A3624FEA053C2C
S31508004D50D4E90135D4E9042103F4827305F4044542
S31508004D602B4402F002021A44A36901F00101E56925
S31508004D70114403F40072114405F03802256A1144FF
S31508004D8005F08002A56A114405F40052114301603A
S31508004D900421626A0EF4706501EA1341636B45EA01
S31508004DA00C0502F01002294303F0080311431943C6
S31508004DB04160C16921F40061C161002001212066BA
S31508004DC084F85D10B0BD006843F60041C4F20001E6
S31508004DD0884218BF704780B586B041F24C00C4F2CD
S31508004DE00200C16841F40041C160C16801F4004194
S31508004DF001910199016841F004010160006801A967
S31508004E0000F00400019001984FF4E0500190022050
S31508004E10029000200390032004900620059040F697
S31508004E200000C4F60000FDF7BBFE06B0BDE88040F2
S31508004E30704700002DE9F04381B0044690F85C0005
S31508004E40012801D102200EE101201E4615460F4613
S31508004E5084F85C00FDF786FF94F85D108146012909
S31508004E6040F08080002F4FF0010000F0F980002DFF
S31508004E7000F0F680002E00F0F38094F85D00042818
S31508004E801CBF052084F85D00002020662564A4F870
S31508004E904660A4F84460A763E687C4E9130020685F
S31508004EA0A687E1684268B1F5E06F22F4805213469E
S31508004EB098BF03F58053012E88BF134643600268E6
S31508004EC0520603D4026842F0400202606268731E0A
S31508004ED0B2FA82F2B3FA83F3DDF8208052095B094D
S31508004EE0B1F5E06F43EA02014BD931B137F8021B3D
S31508004EF0C160A763E08F0138E087012608F1010544
S31508004F00E08F20B9B4F84600002800F0AF8020688A
S31508004F10816889070CD5E18F51B1012E08D1A16BA3
S31508004F20002631F8022BC260A163E18F0139E187BF
S31508004F308168C9070DD0B4F8461051B1C068216C14
S31508004F40012621F8020B2164B4F846000138A4F8BA
S31508004F504600FDF707FF002DD2D0A0EB090040451B
S31508004F60CED379E06068B0F5827F08D104294FF086
S31508004F70020075D1A16800293FF474AF70E00220E1
S31508004F806EE089B1E18F02294FF6FE7103D337F837
S31508004F90022BC26004E03A7801310273A06B471C09
S31508004FA0A763E08F0844E087012608F1010500BFE2
S31508004FB0E08F18B9B4F84600002857D020688168F1
S31508004FC0890718D5E18FB1B1012E14D1E28FA16BF3
S31508004FD0022A06D331F8022BC260A163E18F023997
S31508004FE007E009780173A16B20680131A163E18F9D
S31508004FF001390026E1878168C90725D0B4F846102B
S3150800500011B3B4F84610022912D3C168226C22F8EB
S31508005010021B2264B4F846100239A4F84610B4F804
S31508005020461001290FD8416841F4805141600AE0D1
S31508005030007B216C0870206C01302064B4F84600AF
S315080050400138A4F846000126FDF78CFE002DAFD0E6
S31508005050A0EB09004045ABD30320012184F85D107D
S31508005060002184F85C1001B0BDE8F0832046414673
S315080050704A4603F0D5FC00280FBF002020202066F2
S315080050800120216E0029E8D00120E9E7411E002011
S31508005090B0EB116F1CBF012070474EF21002CEF222
S315080050A0000251604EF62351CEF20001F0230B7038
S315080050B0072190601160704770477047704790F8F5
S315080050C03C20012A01D1022163E0B0B5D1E90232C0
S315080050D0D1E900CE22F47C5223F4705343EA020449
S315080050E048F2FF73CEF6F0730EEA0302224303F585
S315080050F0006404EA0C0442EA040C0C6903F5C05285
S3150800510022404C6942EA0C02224303F560542240CD
S315080051100C6B03F5F04323401A438B6940F2000CED
S31508005120CC69CEF6FF7C0CEA034C1443026842F6BF
S315080051300043C4F201039A4244EA0C030BD045F239
S315080051400004C4F20104A24205D043F20044C4F2AA
S315080051500104A24217D14FF6FF74CDF60F4403EAB5
S31508005160040ED1E9084CD1E90A310025CDF6F045FF
S3150800517005EA035343EA0E0324F008552B432CF0A3
S3150800518000552B430B430021536480F83C10BDE8BF
S31508005190B0400846704770477047704790F83C2003
S315080051A0012A4FF0020262D070B580F83D200268ED
S315080051B042F600435468D2F808C0C4F2010345F227
S315080051C0000E9A42C4F2010E18BF724528D14D68E6
S315080051D024F470042C434FF68F75CFF6FF550E68EE
S315080051E02C4042F6FF35C4F201053443AA42546006
S315080051F00BDC40F2FF73C4F200039A4217DCB2F1EB
S31508005200804F27D040F2004319E043F6FF74C4F2FA
S315080052100104A24216DC9A421CD043F2004315E070
S3150800522043F20045C4F20105AA42D0D0D3E740F6BE
S315080052300003C4F200039A420CD040F60043C4F2BD
S31508005240000305E0724505D044F20003C4F20103E9
S315080052509A4204D189682CF0800319439160012190
S31508005260002280F83D1080F83C20BDE870401046CA
S315080052707047704760B310B5044690F83D0028B9EA
S31508005280002084F83C00204600F024F8022084F828
S315080052903D002068211D03F0FFFE012084F8480028
S315080052A084F83E0084F83F0084F8400084F8410002
S315080052B084F8420084F8430084F8440084F84500E2
S315080052C084F8460084F8470084F83D00002010BDA5
S315080052D00120704780B582B0006840F2FF71C4F2C1
S315080052E0000188421CDCB0F1804F34D040F2004106
S315080052F0C4F2000188422CD141F25800C4F20200DF
S315080053000168002241F0020101600068022100F0F4
S315080053100200019001981D20FEF709FF1D2041E0BB
S3150800532040F60001C4F20001884228D043F2004149
S31508005330C4F2010188420CD141F25800C4F20200BD
S31508005340816841F400518160806800F40050019042
S31508005350019802B080BD41F25800C4F2020001680B
S31508005360002241F0010101600068032100F00100FC
S31508005370019001981C20FEF7DAFE1C2012E041F28B
S315080053805800C4F202000168002241F004010160DD
S315080053900068032100F00400019001981E20FEF722
S315080053A0C6FE1E2002B0BDE88040FEF7B0BE90F8EB
S315080053B03D10012919D1022180F83D10016842F6F5
S315080053C0FF32C868C4F20102914240F00100C86089
S315080053D00DDC40F2FF70C4F20000814216DCB1F128
S315080053E0804F2AD040F2004018E00120704743F66B
S315080053F0FF70C4F20100814213DC42F60040C4F299
S315080054000100814219D043F2004012E040F6000044
S31508005410C4F20000814210D040F60040C4F20000F9
S3150800542009E045F20000C4F20100814205D044F2C9
S315080054300000C4F2010081420CD188680722C0F23C
S3150800544001020240062A4FF00000CFD0B2F5803F95
S3150800545008BF7047086840F00100086000207047E0
S3150800546090F83C20012A4FF0020200F0978080B5A0
S3150800547080F83D20D0F800C08822DCF80830CFF646
S31508005480CE721A40CCF808200B68B3F5005F0DDA27
S315080054903F2B21DD5F2B31DD602B00F08180702BE7
S315080054A000F0A080B3F5805F6FD0E3E02F22C0F252
S315080054B01002934217DD4F21C0F210018B4245DDE1
S315080054C05021C0F210018B4253D06021C0F2100166
S315080054D08B424ED0702147E01F2B3EDC002B48D074
S315080054E0102B46D0C6E0B3F1101F3BDAB3F5005FC8
S315080054F000F08B80B3F5801F3BD0BBE0402B00F05B
S315080055009780502B40F0B680D1F804E0C968DCF8E3
