S315080000005010002051030008DD690008415D000812
S31508000010D96900089D190008D17A00080000000077
S315080000200000000000000000000000001D6F00082E
S31508000030071A0008000000001B6F00081F6F000861
S315080000406B0300086B0300086B0300086B030008CA
S315080000506B0300086B030008091A00086B03000805
S315080000606B0300086B0300086B0300089F19000860
S31508000070AB190008B71900086B0300086B030008E2
S315080000806B0300086B0300086B0300086B0300088A
S315080000906B0300086B0300086B0300086B0300087A
S315080000A06B0300086B0300086B0300086B0300086A
S315080000B0A96F00086B0300086B0300086B030008B0
S315080000C06B0300086B0300086B0300086B0300084A
S315080000D06B030008517A00086B0300086B030008DD
S315080000E06B0300086B0300086B0300086B0300082A
S315080000F06B0300086B0300086B0300086B0300081A
S315080001006B0300086B0300086B0300086B03000809
S315080001106B0300086B0300086B0300086B030008F9
S315080001206B0300086B0300086B0300086B030008E9
S315080001306B0300086B0300086B0300086B030008D9
S315080001406B0300086B0300086B0300086B030008C9
S315080001506B0300086B0300086B030008755C000856
S315080001606B0300086B0300086B0300086B030008A9
S315080001706B0300086B0300086B0300086B03000899
S315080001806B0300086B0300086B0300086B03000889
S315080001906B030008000000006B0300086B030008EF
S315080001A06B0300086B0300086B0300086B03000869
S315080001B06B0300086B0300086B0300086B03000859
S315080001C06B0300086B0300086B0300086B03000849
S315080001D06B0300086B03000800F002F800F0A8F8AB
S315080001E014A696E8000CB244B344DA4501D100F0EF
S315080001F09FF8BAE80F000FA696E83000A5EB0405AD
S3150800020004EB0607AAEB0704A7F101074FEA151541
S315080002104FEA3414A4F10104AC4201D300F088F883
S3150800022013F0010F18BFFB1A43F0010300F001F8A1
S31508000230DBE7184748A0000068A00000103A24BF72
S3150800024078C878C1FAD8520724BF30C830C144BF2D
S3150800025004680C6070470000704700000023002403
S3150800026000250026103A28BF78C1FBD8520728BFB8
S3150800027030C148BF0B6070476E2900F0878270292D
S3150800028000F0D183662909F0FC82652909F0F98214
S31508000290672909F0F682612909F0F58203681B0AC5
S315080002A028BF41F08001692900F03482642900F0F2
S315080002B03182752900F02E826F2900F05F83782934
S315080002C000F09D83E92900F0F982E42900F0F6821E
S315080002D0F52900F0F382EF2900F05C83F82900F095
S315080002E09C830368DB0928BF41F08001632901F07C
S315080002F0D380732901F0D880E32901F0E380F3293C
S3150800030001F0E880002070471FB509F0A8FA01F04F
S315080003103BF904000020002108F070FD401C6060D5
S315080003200020002108F054FDE0601FBD10B510BD87
S3150800033001F0FCF81146FFF7E7FF07F035FC01F07E
S31508000340D9F903B4FFF7F2FF03BC01F0DDF90000A9
S315080003500948804709480047FEE7FEE7FEE7FEE74B
S31508000360FEE7FEE7FEE7FEE7FEE7FEE70448054987
S31508000370054A064B70470000976F0008D901000828
S31508000380500A002050100020500C0020500C00206D
S3150800039053EA020C00F069802DE9F04B4FF0000695
S315080003A0002B1FBFB3FA83F503FA05F424FA05F602
S315080003B05E4012BF1643B2FA82F502FA05F4C5F199
S315080003C020051EBF22FA05FC44EA0C04203556EA2D
S315080003D0044C4FEA144418BF641C4FF000084FF051
S315080003E00009904271EB030C39D3002919BFB1FA01
S315080003F081F701FA07F6B0FA80F700FA07F6C7F1AF
S3150800040020071EBF20FA07FC46EA0C062037B6FB73
S31508000410F4FCA7EB0507103F07F01F0BCBF12006EE
S315080004202CFA06F60CFA0BFB44BFB3460026202F1F
S31508000430A4BF5E464FF0000B5BEA060C08BF4FF000
S31508000440010B19EB0B0948EB0608ABFB027C06FB14
S3150800045002CC0BFB03CCC01B71EB0C01C1E70B46AE
S31508000460024641464846BDE8F08B13B5084318BF17
S315080004704FF0FF300146AFF30080BDE81C407047DF
S315080004801CB50C46064B7B4469460090204600F096
S3150800049096F904460020694600F0A4F920461CBDDA
S315080004A05B0300007CB51D4616460C00009007D07D
S315080004B04142A14202D32044401E01E04FF0FF30E2
S315080004C0064B7B442A4669460190304600F077F988
S315080004D0002C02D0009A002111707CBD290300006F
S315080004E0032A40F2308010F0030C00F0158011F852
S315080004F0013BBCF1020F624498BF11F801CB00F82A
S31508000500013B38BF11F8013BA2F1040298BF00F87D
S3150800051001CB38BF00F8013B11F0030300F052830A
S31508000520083AC0F0088051F8043B083A51F804CB61
S31508000530A0E80810F5E7121D5CBF51F8043B40F827
S31508000540043BAFF30080D20724BF11F8013B11F832
S3150800055001CB48BF11F8012B24BF00F8013B00F876
S3150800056001CB48BF00F8012B70474FF0000200B5D9
S31508000570134694469646203922BFA0E80C50A0E8B8
S315080005800C50B1F12001BFF4F7AF090728BFA0E866
S315080005900C5048BF0CC05DF804EB890028BF40F832
S315080005A0042B08BF704748BF20F8022B11F0804F74
S315080005B018BF00F8012B704730B44FF0013C50F8D3
S315080005C0042B51F8043BCCFA52F4D51A20D1FCB9C5
S315080005D050F8042B51F8043BCCFA52F4D51A17D12B
S315080005E0B4B950F8042B51F8043BCCFA52F4D51A96
S315080005F00ED16CB950F8042B51F8043BCCFA52F4DE
S31508000600D51A05D1002CDAD030BC4FF0000070475F
S3150800061029BAB1FA81F111F01801D1F1200084400C
S31508000620F2D1CA40CB4012F0FF0213F0FF0330BCF0
S31508000630D01A704770477047704710B500F0F4FA43
S31508000640006810BD10B5044600F0EEFA046010BD4F
S3150800065070B5044685690068C10601D5302600E0F4
S315080006602026C00707D070BDD4E90121304690473F
S31508000670206A401C20626D1EF6D570BD70B5044612
S3150800068085690078C00707D170BDD4E9012120200B
S315080006909047206A401C20626D1EF6D570BD096819
S315080006A04A0501D540B27047C905FCD500B2704766
S315080006B009684A0501D5C0B27047C905FCD580B29C
S315080006C0704770B50C460546012A05D0287880067D
S315080006D000D5EA69002302E0012305E05B1C93428A
S315080006E002D2E05C0028F9D1A869E618C01AA86108
S315080006F0286A184428622846FFF7AAFF04E0D5E9C5
S31508000700012114F8010B9047B442F8D32846FFF7A5
S31508000710B5FF70BD2DE9F04106460024106875291D
S31508000720314616A510D0FFF7BAFF002802DA404274
S3150800073013A507E031688A0701D512A502E0490723
S3150800074004D511A5012401E0FFF7B2FF00210A2212
S3150800075006F1240709E0B0FBF2FCB0FBF2F302FB5A
S315080007601C00303078541846491C0028F3D123461B
S315080007702A463046BDE8F04100F09FBA0000000066
S315080007802D0000002B000000200000001168026800
S31508000790006A530501D508700AE0D30501D508801B
S315080007A006E0130603D5C217C1E9000200E0086097
S315080007B00120704701694A1C02610878704700B534
S315080007C08FB0CDE901310021059105497944CDE97C
S315080007D003101146684600F031F90FB000BD00005D
S315080007E0E5FFFFFF0A6802F8010B0A607047D1E9C6
S315080007F000239A4202D2531C0B6010707047000007
S315080008002DE9FF5F15468A460446DFF8AC80F844B2
S315080008100027D8E900103E46CDE9001010E03AF866
S3150800082016106A4602A800F059FE411C07D0217826
S31508000830890603D5E269391891420DD80744761C12
S315080008402078800602D5E069B84205DDAE42E6DBCF
S315080008503AF816000028E2D1A069C01BA06120461C
S31508000860FFF7F6FED8E90010CDE90010002017E0E2
S315080008703AF818106A4602A800F030FEB0F1FF3FB9
S3150800088081460BD000250DF1080B05E0D4E90121BE
S315080008901BF8050090476D1C4D45F7D308F101007C
S315080008A0B0428046E4DB206A384420622046FFF7DF
S315080008B0E5FEBDE8FF9F0000B69000002DE9F04177
S315080008C08046D21D22F007020025D2E90002F5294A
S315080008D015A614D0011E72F1000106DA0023D0EB2A
S315080008E0030063EB020211A608E0D8F800108B0794
S315080008F001D50FA602E0490701D50EA60125114626
S31508000900002408F1240704E000F092F930323A5541
S31508000910641C50EA0102F7D12B463246214640466E
S31508000920BDE8F04100F0C9B9000000002D00000044
S315080009302B0000002000000030B4002100F1240440
S3150800094008E002F00705D208303542EA4372DB08B0
S315080009506554491C52EA0305F3D10468002310A222
S31508000960250708D504F020040C4304D0C4690123E4
S315080009700CA2641EC46130BC00F09FB910B50446D1
S3150800098021461068FFF794FE02462046BDE810404F
S315080009900023D1E7D21D22F00701D1E90023CBE7D6
S315080009A00000000030000000F0B40D46018809057B
S315080009B002D5214C7C4402E01F4C7C440E340021B5
S315080009C000F1240608E002F00F071209E75D42EA83
S315080009D003721B097754491C52EA0307F3D10278BC
S315080009E00023120704D5702D06D009B1022311344D
S315080009F02246F0BC00F061B901231034F8E770B55F
S31508000A0004460D4621461068FFF752FE024629465F
S31508000A102046BDE870400023C6E7D21D22F0070332
S31508000A20D3E90023C0E70368126843F02003036094
S31508000A300823C3610023B7E7188F00002DE9F05F8C
S31508000A40894604464FF0000ADFF874B1FB44C0F843
S31508000A5020A02046E1688847002874D0252806D0BB
S31508000A60D4E901219047206A401C2062F1E700265C
S31508000A705F462046E16888472028054607DB312D72
S31508000A8005D2781910F8200C08B10643F1E7B0072B
S31508000A9001D526F00406C4F81CA00027C4F818A03F
S31508000AA02A2D09D0284608F08BF938B304EB8708B5
S31508000AB0303DC8F8185019E059F8041B204604EBD5
S31508000AC087029161E1688847012F054618D1E069D8
S31508000AD0002820DA26F020061DE0D8F8180000EBDA
S31508000AE0800005EB40003038C8F818002046E16859
S31508000AF08847054608F064F90028EED1012F0AD088
S31508000B002E2D08D12046E16888477F1C0546022F0E
S31508000B1046F02006C4DBA069002803DA404246F006
S31508000B200106A061F00701D026F010066C2D0BD047
S31508000B30682D09D04C2D39D06A2D35D0742D35D075
S31508000B407A2D33D016E038E0E1682F4620468847EC
S31508000B50B842054609D16C2F26D04FF48060E1686B
S31508000B60064320468847054604E06C2F1AD04FF402
S31508000B70807006430DB3A5F14100192802D8203527
S31508000B8046F400664A462946204626604E46FFF742
S31508000B9073FB80B101280BD0F61D26F0070000F183
S31508000BA0080956E74020E4E78020D8E70020D6E782
S31508000BB006F104094DE7284652E7206ABDE8F09F8A
S31508000BC0A88E000010B5203AC0F00B80B1E8185086
S31508000BD0A0E81850B1E81850A0E81850203ABFF419
S31508000BE0F5AF5FEA027C24BFB1E81850A0E81850B8
S31508000BF044BF18C918C0BDE810405FEA827C24BF0C
S31508000C0051F8043B40F8043B08BF7047D20728BF99
S31508000C1031F8023B48BF11F8012B28BF20F8023BE8
S31508000C2048BF00F8012B70470048704710000020A5
S31508000C3030B5B0F10A0271F100034FEA900E4EEAA0
S31508000C40817EB0EB0E0061EB91014FEA101E4EEA71
S31508000C50017E10EB0E0041EB11114FEA102E4EEA01
S31508000C60016E10EB0E0041EB11214FEA104E4EEAD1
S31508000C70014E10EB0E0041EB1141401841F1000105
S31508000C804FEAD00040EA41704FEAD1014FEA8104A9
S31508000C9044EA907410EB800544EB01046D1944EBAB
S31508000CA00404521BA3414FF0000348BF0A3200D583
S31508000CB030BD401C41F1000130BD2DE9F0470D461D
S31508000CC099469246044600F124080168880604D528
S31508000CD0E06921F01001216000E00120A84201DD51
S31508000CE0471B00E00027A1697A1902EB0900081AD8
S31508000CF0A0612078C00602D42046FFF7A9FC00268A
S31508000D0008E0D4E901211AF806009047206A401C39
S31508000D10761C20624E45F4DB2078C0060AD52046AC
S31508000D20FFF796FC06E0D4E9012130209047206AB7
S31508000D30401C2062381EA7F10107F4DC07E0D4E95D
S31508000D40012118F805009047206A401C2062281ED9
S31508000D50A5F10105F3DC2046FFF790FC2078000694
S31508000D6002D50220BDE8F0870120FBE72DE9FF4FF9
S31508000D700C461E464FF0FF378BB0D2E90001DDF86E
S31508000D8060800A908A46C1F30A5505B93D46002196
S31508000D9008464FF00000BAF1000F00F4400005DAEB
S31508000DA000EB80004FF4400101EA50004FEA9059E9
S31508000DB0B9F1010F00DDB9460A9850EA4A000ED08B
S31508000DC044F61050A5F2FF3545432F14B8F1000F2D
S31508000DD01ED07542291E1EDDC9F100021CE0B8F1BD
S31508000DE0010F4FF0000001D0302103E0F24305E087
S31508000DF02154401CB042FBDB30460022002121541E
S31508000E000B99C1F80880C1E900200FB0BDE8F08F42
S31508000E10BD1B6D1CDEE74A4600DA694206A800F0EB
S31508000E20F7FB06AB93E8070003AB83E807005046D9
S31508000E300A9907F051F98DE80700A0F500501F3808
S31508000E4000900398002D0ADD42F21F014A46084425
S31508000E50002303A90390684607F0BAFB09E0A0F54A
S31508000E6000504A461F38002303A90390684607F036
S31508000E70C4FB8DE807000004000C03D04FF0FF30D8
S31508000E80410800E01046B8F1000F03D00022009296
S31508000E9015461EE0751E05D4FFF7CAFE30326255A8
S31508000EA06D1EF9D5B3460122084302D000227F1CE5
S31508000EB004E02078302801D100227F1E002A0997F5
S31508000EC084D01DE0112D07DAFFF7B2FE30326255E5
S31508000ED06D1C50EA0102F5D1084302D00098C8B14A
S31508000EE00EE00021681E05E0235C625C6354225410
S31508000EF0401E491C8142F7DBAB46A81B401E0990E1
S31508000F00002004F80B000B98099AC0F80880C0E97D
S31508000F10002B7AE711264FF0000857E72DE9F04F26
S31508000F2088460446D21D22F0070191B0D1E9000196
S31508000F30CDE90A0107F098FC02460B98C00F01D0CC
S31508000F402D2007E02068810701D52B2002E020210B
S31508000F5001EAC000032A099001D0072A05DB0346E7
S31508000F604146204600F014FB0BE12078800601D5A7
S31508000F70E06900E00620B8F1650F814606D0B8F1B1
S31508000F80660F18D0B8F1670F70D131E00020B9F1BB
S31508000F90110F009001DB112301E009F101030AAAF0
S31508000FA001A90CA8FFF7E2FEDDE90C70002609F19D
S31508000FB00105834647E001204B4600904FF0004765
S31508000FC00AAA01A90CA8FFF7D1FEDDE90DB00C9914
S31508000FD05D46002610B909F101000D18B9EB0500A8
S31508000FE003D4C0F1FF3609F10105A5EB09002BE092
S31508000FF0B9F1010F01DA4FF001090020B9F1110F1B
S315080010000090484601DD112300E003460AAA01A91B
S315080010100CA8FFF7ABFEDDE90C704D4600268346AB
S31508001020207800070AD4AB4500DA5D4601A8012DF1
S3150800103004DD411911F8011C302907D04F4502DAA1
S3150800104017F1040F04DA012082460FE06D1EEEE761
S31508001050002F02DCED1B3E4403E0781CA84200DDAD
S315080010607D1CB81B00F1010A4FF0004720780007E5
S3150800107003D4AA4501DB4FF0FF3A0021B7F1004F30
S315080010800DF143088DF8431024D002202B23002F9E
S3150800109001DA7F422D230A21021EA0F1010000DC9D
S315080010A05FB197FBF1FC97FBF1F201FB1C7C17463D
S315080010B00CF1300C08F801CDEEE7A8F10100037039
S315080010C02188090501D5452100E06521A0F101081F
S315080010D000F8011C09980FA9A1EB0807FF1D00B12C
S315080010E00120411901EBEA70A1693844081A401E2B
S315080010F0A0612078C00602D42046FFF7A9FA09980D
S3150800110028B1D4E901219047206A401C2062207842
S31508001110C00622D52046FFF79BFA1EE0002E04DB08
S31508001120B34502DD01A8805D00E03020D4E9012145
S315080011309047206A401C2062761CAAF101005FEAEB
S31508001140000A0AD100F020FAC0680168405CD4E9B8
S3150800115001219047206A401C2062281EA5F101053E
S31508001160DCDC07E0D4E9012118F8010B9047206A76
S31508001170401C2062381EA7F10107F3DC2046FFF762
S315080011807DFA032011B041E62DE9F04F04460D46DD
S31508001190D21D22F0070089B0D0E9009748463946A3
S315080011A007F062FB0246F80F01D02D2307E02068FE
S315080011B0810701D52B2302E0202101EAC0038DF81F
S315080011C020300BB1012000E00020032A824601D01E
S315080011D0072A04DB2946204600F0DAF93FE12078A1
S315080011E0800601D40D2500E0E569C7F30A560D2DE2
S315080011F049DA00214FEA175B08464FF00000002F36
S3150800120000F4400007DA00EB80004FF4400100EBE1
S31508001210D07001EA60008115012901DD4FF0FF3128
S3150800122000224FEA850CBCF1180F06D31346ACF121
S3150800123018004FF08052C24003E04FF4801323FA9F
S315080012400CF30CF10C0CBCF1200F04D3ACF1200C00
S3150800125009FA0CF001E007FA0CF000294FF00048F3
S3150800126001DD18B90FE00ED140450CD319EB020980
S315080012705F4121B9404502D19F4329EA0209BBEBE8
S31508001280175F00D0761C2088000502D57B48784475
S3150800129002E07A487844193808AA302302F80A3056
S315080012A0037C0AF10101002E0AF1020A53546A4628
S315080012B002DC4FF0300101E04FF031014FF0010838
S315080012C08DF8001002D0A6F2FF3603E059EA47016E
S315080012D000D06B4E002D02DC2178090704D54FF0AB
S315080012E002082E218DF80110C44600210BE0C7F331
S315080012F003433F01C35C491C6D1E02F808300529EB
S3150800130008F1010801DA002DF1DC00210CE000EB00
S315080013101973491C1B786D1E082902F808304FEA14
S31508001320091908F1010801DA002DF0DC21688B069D
S3150800133002D516E0A8F10108E04505DD02EB080331
S3150800134013F8013C302BF5D0B8F1000F09DD02EB9C
S31508001350080313F8013C2E2B03D1090701D4A8F181
S315080013600108002D05DD3E2102F808106D1E08F162
S315080013700108407C002E02F8080008F1010804DA8A
S315080013802D20764202F8080002E02B2002F8080019
S315080013900A214FF47A70864208F101080BDB96FBA6
S315080013A0F0F3303302F8083096FBF0F308F1010841
S315080013B000FB136601E0642E0CDB642096FBF0F359
S315080013C0303302F8083096FBF0F308F1010800FB09
S315080013D0136601E00A2E06DB96FBF1F0303002F8C0
S315080013E0080008F1010896FBF1F001FB10603030A7
S315080013F002F80800A16908F1010808EB050202EBEA
S315080014000A00081AA0612078C00602D42046FFF711
S315080014101FF9216A08AE01EB0A00206204E0D4E94C
S31508001420012116F8010B9047BAF1010AF7D2207884
S31508001430C00602D52046FFF70BF96E4609E016F8F6
S31508001440010B3E280FD0D4E901219047206A401CA1
S315080014502062B8F10108F2D22046FFF70FF909B069
S315080014600320BDE8F08F206A2844206203E0D4E90F
S315080014700121302090476D1EEBD3F8E799860000CE
S3150800148002FCFFFF10B5436913B1AFF3008001E01A
S31508001490FFF717F9012010BD127800F124010A7030
S315080014A000224A700122EDE711684FF0FF32E9E7A2
S315080014B010B5436913B1AFF3008001E0FFF7A0F957
S315080014C0012010BD128800F1240182840022C28402
S315080014D00122EDE711684FF0FF32E9E72DE9F04107
S315080014E016460C46054600F047F8036893F80101CE
S315080014F0012807D0FF2C12D8185D80B101202C7066
S31508001500BDE8F081D3F807013246214603F20713F6
S31508001510C7182846BC46BDE8F041002360474FF08F
S31508001520FF30EDE700487047100000207546FFF7CA
S31508001530F9FFAE4605006946534620F00700854682
S3150800154018B020B5FEF712FFBDE820404FF00006A0
S315080015504FF000074FF000084FF0000BAC46ACE820
S31508001560C009ACE8C009ACE8C009ACE8C00921F07C
S3150800157007018D467047000010B500F005F8001DFC
S3150800158010BD00BF79780000004870473000002081
S315080015902DE9F0411F46044603260168072A01F48F
S315080015A0006004DB08B116A505E016A503E008B13E
S315080015B015A500E015A521F010002060A069C01E41
S315080015C0A0610FB1401EA0612046FFF741F84FB158
S315080015D0D4E9012138469047206A401C2062C01C85
S315080015E0206206E0206AFAE7D4E9012115F8010B22
S315080015F09047761EF8D22046FFF740F8BDE8F081FE
S315080016004E414E006E616E00494E4600696E660098
S315080016102DE9F047814616468AB0354878440DC804
S315080016208DE80D0032487844801C03AC0DC884E868
S315080016300D0041F69B300844372190FBF1F290FBF0
S31508001640F1F5A5F1800501FB12041B3C02D56442A5
S31508001650012000E00020DFF898A080460027FA4421
S31508001660AAF1BE0A0EE0E0070AD03246684607EB42
S31508001670470101230AEB810106F0BFFF8DE8070049
S3150800168064107F1C002CEED1194F7F44AE3F19E041
S31508001690E80715D007EB04100DF1180A90E80E00BC
S315080016A08AE80E00C068F04201D1981908903246BF
S315080016B0012306A903A806F0A0FF03AB83E80700E9
S315080016C06D10641C002DE3D14FF0010332466946C4
S315080016D0B8F1000F03A802D006F07AFF01E006F081
S315080016E08CFFC9E90001C9F808200AB0BDE8F087EF
S315080016F09C83000010B50446AFF300802046BDE881
S315080017001040FEF71EBE000001491820ABBEFEE7DA
S315080017102600020070470146806AC36DC26D13F049
S31508001720500F07D0D20648BF00F029BD406D426B66
S315080017300846104742F40071C16501680B68CA681B
S315080017401B0703D4910707D500F017BD12F4406FA5
S31508001750FAD1C9688904F7D4C16D21F48071C165CD
S31508001760C16DC90448BF00F008BDC16D41F0010153
S31508001770C16500F002BD806AC16D41F04001C165D6
S31508001780016E41F00401016600F0F9BC806A00F0C0
S31508001790F5BC0000B0B5016804468A688868C007C9
S315080017A04FF0000031D012F0020218BFB0BD8868B1
S315080017B000F00D0001281FD188684FF6C072C7F6E1
S315080017C0FF721040023088600320086001F088FA32
S315080017D021688968C9070DD0054600BF01F080FA5F
S315080017E0411B2068032902D38168C90704D1806890
S315080017F0C007F3D10020B0BDE06D40F01000E065F1
S31508001800206E40F0010020660120B0BD70B582B0A0
S3150800181004460020019021688A68D20745D14FF610
S31508001820C076C7F6FF76886806F17F02104209D0AF
S31508001830E06D40F01000E065206E40F00100206683
S31508001840012032E088684FF4C162304040F0010060
S31508001850886040F20010C5F20000814208BF4FF4CC
S315080018600272B1F1A04F08BF4FF40272105800027D
S315080018701DD401F035FA21680A68D20714D1054645
S315080018808868C00704D18868304040F00100886045
S3150800189001F026FA401B2168032802D30868C0070E
S315080018A0C6D00868C007EBD0002002B070BD40F271
S315080018B00000C2F20000006842F663518009C0F2D7
S315080018C03E51A0FB0101880900EB40000C2101EB09
S315080018D0800000BF019001980028CAD001980138FD
S315080018E0F8E7B0B540F27804C2F20004207801287F
S315080018F00FD140F20040C4F6000020210022002546
S3150800190001F0E8F940F27900C2F20000257005708E
S31508001910B0BD40F27900C2F200000078012818BF75
S31508001920B0BD40F20040C4F6000020210122012586
S3150800193001F0D0F92570B0BDB0B540F27804C2F216
S3150800194000042078012805D140F27900C2F200008F
S31508001950007890B140F27A00C2F2000000780128BF
S3150800196018BFB0BD40F20040C4F600002021012295
S31508001970012501F0AFF92570B0BD40F20040C4F66C
S31508001980000020210022002501F0A4F940F27A0087
S31508001990C2F2000025700570B0BD0000FEE740F2F7
S315080019A0A460C2F2000000F06ABF40F26470C2F29E
S315080019B0000000F064BF40F20470C2F2000000F0BC
S315080019C05EBF70B5D0E913C4D0F854E0CCF8044033
S315080019D0BEF1000F1CBFD0E9164CC4F804C0D0E90C
S315080019E010CE046886680EF01F00012505FA00F07F
S315080019F0CCF8040008466360102E04BF10460A4659
S31508001A00A060E26070BD7047012001F07BB800005D
S31508001A1070B582B040F27B05C2F20005287801282D
S31508001A200CD140F600040120C4F60004012601F09A
S31508001A304BF82046012101F040F908B102B070BD0B
S31508001A4040F27A00C2F2000006702046022101F038
S31508001A5034F940F25C560128C2F2000603D14FF66B
S31508001A60FF7412A006E02046022101F026F930B9DB
S31508001A70012415A005F0F2FF3088204430800020AC
S31508001A802870582000213022102304F0ABFFB6F945
S31508001A90006014A3582000210822009605F028F9B2
S31508001AA002B0BDE8704005F007BA00BFE7BC96E78C
S31508001AB0A081E599A8E98086E697B6E99288E6972F
S31508001AC08BE8BDAC0D0A0000E7BC96E7A081E59956
S31508001AD0A8E9A1BAE697B6E99288E6978BE8BDAC7D
S31508001AE00D0A000025640000EFF3108072B600BFEF
S31508001AF0FEE740F66011642828BF6420C2F20001A0
S31508001B0000EB800009684000C863704700000000C9
S31508001B102DE9F04381B02DED028B40F23864C2F214
S31508001B200004204600F010FD47F2A855C1F6FF75DF
S31508001B30688C29889FED2A1A401A00EE100AB8EE1A
S31508001B40C00A204681EE008A00F01AFB07F00BFC5B
S31508001B509FED1D0B53EC102B07F018FC07F070F9DE
S31508001B60064618EE100A07F009FE804630468946F2
S31508001B7007F004FE064628880F4607F0F4FB9FED9B
S31508001B80140B04460D4653EC102B3046394607F025
S31508001B90FDFB02460B462046294607F083F9024616
S31508001BA00B464046494607F0F1FB9FED0B0B53ECFD
S31508001BB0102B07F077F907F043F900EE100ABDEC91
S31508001BC0028B01B0BDE8F083000000000000C0BF32
S31508001BD03D07A9EEA498F13F0000000000003E4032
S31508001BE00000C8C20000000010B540F2CC54C2F292
S31508001BF00004204600F0A8FC204600F0C1FA07F0D1
S31508001C00B2FB9FED0B0B53EC102B07F0BFFB9FEDC0
S31508001C100A0B53EC102B07F0F9F907F011F900EE4F
S31508001C20100ABDE8104005F057BF00BF00BF00BF4F
S31508001C30DB8AFD65F7640A400000000000FEEF40FD
S31508001C40B0B582B004460020019094F858000128E7
S31508001C5001D102203BE0012084F8580020460D46B9
S31508001C60FFF798FDE16D10B141F010012BE041F24C
S31508001C70021291430231E16521684FF6C0738A6802
S31508001C80C3F6FF731A4005F080431A4402F1004276
S31508001C908A604DF60262C0F2040200BF8B68B3F197
S31508001CA0FF3F0CDC019B01330193019B9342F5D363
S31508001CB0E06D40F0100020F00201012003E0E16D24
S31508001CC0012262F30101E165002184F8581002B08F
S31508001CD0B0BD90F85820012A01D1022187E070B5DD
S31508001CE082B0002201920092026840F2080CC5F206
S31508001CF0000CB2F1A04F0CF1F80508D040F20043F1
S31508001D00C5F200039A4231D10CF59F6300E02B46D9
S31508001D109B68946823435B0728D44FF4E063D1F8A3
S31508001D2000E0AA4208BF4FF44073B2F1A04F08BFC3
S31508001D304FF440735CF80340BEF1000F24F460448E
S31508001D401AD04D6890F8386042F4807245EA4635F4
S31508001D502C4340F20015C5F20005AA424CF8034090
S31508001D6019D1DCF80020DCF800411BE0C16D41F018
S31508001D702001C165012134E042F4807140F200126D
S31508001D80C5F2000291424CF8034018D1DCF8001065
S31508001D90DCF800211AE0DCF80044DCF80055DCF831
S31508001DA000262C432243D2071AD15CF8032040F6BA
S31508001DB01F748968A243114341EA0E010EE0DCF85C
S31508001DC00024DCF80065DCF8001632431143C90725
S31508001DD006D15CF8031040F61F7291434CF80310C5
S31508001DE00021002280F8582002B0BDE8704008465D
S31508001DF070470000F0B581B00022009290F8582094
S31508001E00012A01D1022196E10123076880F858309A
S31508001E10BB685B0734D4D1E900351F26C5F3012416
S31508001E2007EB8404226B05F01F05AE40C3F38463F9
S31508001E30B243AB401A432263BA68BB6802F0040295
S31508001E4003F00803D21840F0BC800A6807F11403AF
S31508001E500426C2F34064D1F808E006EAD25C53F8D7
S31508001E602440C2F304550722AA40BEF1004F24EAD3
S31508001E7002040BD143F80C401A6842F000430DE007
S31508001E80C16D41F02001C165012151E10EFA05F24B
S31508001E90224343F80C201A6822F000437B61D1E9FB
S31508001EA00435FC68042B5FD13A6E3A6E0B68C2F3B0
S31508001EB0846293FAA3F6C3F3846C6FF3DF43B6FA2E
S31508001EC086F5002B2C464FF6FF7E08BF6446A242D5
S31508001ED0C0F2070E0CD13A6E22F000423A660A6842
S31508001EE002EA0E03C2F3846C92FAA2F2B2FA82F5FF
S31508001EF07A6E7A6E002BC2F384622C4608BF64465B
S31508001F00A2420CD17A6E22F000427A660A6802EA88
S31508001F100E03C2F3846C92FAA2F2B2FA82F5BA6E92
S31508001F20BA6E002BC2F384622C4608BF6446A242EE
S31508001F300CD1BA6E22F00042BA660A6802EA0E03AB
S31508001F40C2F3846C92FAA2F2B2FA82F5FA6EFA6ECB
S31508001F50002BC2F3846208BF6546AA4231D1FA6EE5
S31508001F6022F00042FA662CE0062202EA940205FAFA
S31508001F7002FC0E6807F1600555F823404FF200028F
S31508001F80C0F2FF3206F0F846224046EA0C06324313
S31508001F9042F0004245F823200A698B6955F8226009
S31508001FA026F08076334345F822300A690B7F55F8C8
S31508001FB02260012B26F0007608BF06F1007645F868
S31508001FC02260BA680D68D2074FD1CA68D7F8B060E0
S31508001FD02B466FF3DF4326EA030C4FF6FF7602F033
S31508001FE01804C0F20706E64000242E40C4F27F0417
S31508001FF046EA0C06A242C7F8B06036D18BB195FA0C
S31508002000A5F2B2FA82F2013202F01E03092B02F09F
S315080020101F030FD801229A4003EB430342EA0353F6
S3150800202014E0012202EB956202F01E030A2B02F06D
S315080020301F03EFD3012200269A4003EB4303CFF692
S31508002040206606EB03531A4342F00073C3F3406657
S3150800205007EB86068A687569C3F3045307249C4010
S31508002060A5439A402A4372610D680021C8F2080107
S315080020700D425CD040F2001CC5F2000C4FF4C16161
S31508002080674508BF4FF40271B7F1A04F08BF4FF478
S31508002090027151F80C400022CCF22132954204F02C
S315080020A0E07E04D01022C9F2C00295422CD1220249
S315080020B03DD440F20062C5F20002974202D0B7F161
S315080020C0A04F34D15CF8012022F0E07242EA0E02F9
S315080020D042F400024CF8012040F20001C2F200016D
S315080020E0096842F663528909C0F23E52A1FB021200
S315080020F0910901EB41010C2202EB81010091009943
S31508002100A9B100990139F9E70022CCF25272954239
S3150800211014D10022B2EB1E6F10D15CF8012022F018
S31508002120E07242EA0E0242F080724CF80120002169
S31508002130002280F85820084601B0F0BD0021CCF6F0
S3150800214084318D424FF0000108BF14F48002EFD1AC
S31508002150B7F1A04F06D06745EAD0674502D00CF51F
S31508002160C06101E00CF500718A6822F0E07242EA6B
S315080021700E0242F480028A60D9E7704770477047BA
S315080021800068006C70470000B0B582B004460020B5
S31508002190002C019045D0E06D30B9204600F00FF9CB
S315080021A00020206684F8580021688868800006D5D3
S315080021B088684FF6C072C5F6FF7210408860886856
S315080021C0C00021D44FF6C0728868C5F6FF7202F1C6
S315080021D08052104000F18050886040F20000C2F240
S315080021E00000006842F663528009C0F23E52A0FB26
S315080021F002029009022202EB400000BF01900198FA
S3150800220010B101980138F9E78868C0000BD4E06D71
S3150800221040F01000E065206E40F0010020660120C5
S3150800222002E00120C9E000208A68E36D02F004029A
S3150800223003F01003D218E26D17D122F4817202322C
S31508002240E2658A68D20736D140F2001341F48072FB
S31508002250C5F2000340F2080C9A42C5F2000C08D1F8
S31508002260DCF80030DCF800210BE042F01001012018
S31508002270A2E0DCF800E4DCF80025DCF8003642EAE7
S315080022800E021A43D20716D10CF1F8024FF4E06396
S31508002290D4F804E0914208BF4FF44073B1F1A04F5F
S315080022A008BF4FF440735CF8032022F47C1242EA1C
S315080022B00E024CF8032094F81DE0E36BD4E902C241
S315080022C043EA4E331A4394F8243042EA0C02012BAF
S315080022D042EA034207D1D4F828C00023CFF6FE739A
S315080022E003EB4C431A43E36A33B1D4F830C003F422
S315080022F0787343EA0C031A43D1F80CC044F2070377
S31508002300CFF6F07303EA0C031A43CA600A69636BD3
S3150800231022F040621A430A618A6812073ED494F88A
S315080023203820237F520042EA833CCB6844F20202FB
S3150800233023EA020242EA0C02CA6022690B6952B118
S3150800234043F480330B61D1F8C0C043F6FF732CEA1F
S3150800235003031A4307E023F480320A61D1F8C02048
S3150800236043F6FF739A43C1F8C02094F840300A69CF
S31508002370012B10D140F2FD7322EA030CD4E9113285
S31508002380D4E913E543EA0C031A4342EA0E022A4348
S3150800239042F0010201E022F001020A6162690B6B58
S315080023A0012A23F00F0202D1236A013B1A430A636A
S315080023B0E16D012262F30101E16502B0B0BD70B5BD
S315080023C09CB0044617A81421FEF7CFF802A854219A
S315080023D0FEF7CBF8206840F20061C5F2000188429A
S315080023E061D040F20011C5F20001884275D0B0F103
S315080023F0A04F40F0A7804FF4004002904FF00050E5
S31508002400139002A801F0C4FE08B1FFF76DFB40F275
S315080024107C01C2F200010A6841F24C00C4F20200D3
S31508002420531C0B6042B9016841F400510160016810
S3150800243001F40051019101990168002641F001015A
S315080024400160006817A900F00100019001980F20AB
S315080024501790032018904FF09040199600F05EFBF5
S3150800246040F2A4650820C2F20005C4F20200052164
S315080024704FF4807385E8430005F114004FF4806C2F
S315080024804FF0200E80E808504FF400508022286252
S315080024902846C5E9036200F03FFA08B1FFF724FBB6
S315080024A06565AC624EE04FF4803002904FF0004014
S315080024B0149002A801F06CFE08B1FFF715FB41F273
S315080024C04C00C4F20200016841F4804101600068D2
S315080024D000F480400190019834E04FF400400290E7
S315080024E04FF00050139002A801F052FE08B1FFF712
S315080024F0FBFA40F27C01C2F200010A6841F24C0084
S31508002500C4F20200531C0B6042B9016841F4005141
S315080025100160016801F4005101910199016841F0D7
S3150800252001010160006817A900F0010001900198F7
S315080025301020179003201890002019904FF0904013
S3150800254000F0ECFA1CB070BD70B540F208350446D0
S31508002550C5F200050068A5F5027105F58062884296
S3150800256004BF40F20832C5F20002B0F1A04F04BF22
S3150800257040F20832C5F2000216688068400703D4A4
S3150800258094F85800012801D1022070BD012084F872
S3150800259058002046FFF73AF920B1002084F8580081
S315080025A0012070BD2068E16D40F60172914340F24A
S315080025B00012C5F2000240F2005C06F01F0301F5A6
S315080025C080719042C5F2000CE16504D0604508D1DF
S315080025D005F1F80601E04FF0A046864218BF002B29
S315080025E003D1E16D21F48011E165E16D0026C9048E
S315080025F04FF0000144BF216E21F0060121661C211F
S315080026009042016084F8586004D060450ED105F107
S31508002610F80601E04FF0A046864207D0092B17D8E6
S315080026200121994040F22123194211D0C16889013C
S3150800263004D5E16D012262F30D31E16581684FF63B
S31508002640C072C7F6FF72114004318160002070BD68
S31508002650E16D904241F48011E16504D0604508BF00
S3150800266005F1F80001E04FF0A040C0688001EDD503
S31508002670E06D012161F30D30E065E7E72DE9F041F2
S31508002680044640F200170068C5F200074FF4C1631C
S31508002690B84208BF4FF40273B0F1A04F08BF4FF419
S315080026A00273DB5986689046720704D40E4694F87E
S315080026B05810012902D10220BDE8F08107F5A06271
S315080026C003F01F050121904284F8581018BF002D09
S315080026D016D12046FFF79AF8B0B92168E06D40F6A2
S315080026E00172904300F58070B942E06512D040F25D
S315080026F00050C5F20000814212D107F540700BE088
S31508002700052DE6D0092DE4D0002084F858000120D4
S31508002710BDE8F0814FF0A040884218BF002D03D1D4
S31508002720E06D20F48010E065E06D41F21773C00497
S315080027304FF0000044BF206E20F006002066606D52
S3150800274041F28D77C0F60003C0F6000741F27775AF
S315080027500022C0F60005C0E90B371C2345630B6051
S3150800276084F858204A68434642F010024A60CA680C
S3150800277042F00102CA604031324600F060F9216831
S315080027804FF6C0738A68C7F6FF731A4004328A6028
S31508002790BDE8F081014690F82500022827D180B5CA
S315080027A00868D1E910CE8A6C036823F00E0303602B
S315080027B0136823F480731360026822F00102026032
S315080027C00EF01F00012202FA00F0CCF80400D1E94D
S315080027D013205060486D30B1026822F4807202609E
S315080027E0D1E9160242600020BDE8804002E00420DC
S315080027F0C8630120012281F82520002281F82420BF
S31508002800704790F8251002292FD180B50168D0E9C4
S3150800281010CE826C0B6823F00E030B600B6823F056
S3150800282001030B60116821F4807111600EF01F021C
S31508002830012101FA02F2CCF80420D0E913325A60D9
S31508002840426D32B1136823F480731360D0E91623FE
S31508002850536080F82510826B002180F824100AB195
S3150800286090470021BDE8804007E00421C1630121AB
S31508002870002280F8251080F8242008467047B0B555
S31508002880D0E910C30268DCF8001003F01F03042423
S31508002890D2F800E09C400C4218BF1EF004051AD17D
S315080028A002249C400C4218BF1EF002051FD1D940D5
S315080028B009071BD51EF0080118D0116821F00E0172
S315080028C01160012101FA03F2CCF80420C16380F8F3
S315080028D02510416B18E01168890603D4116821F0A8
S315080028E004011160CCF80440016B91B9B0BD1168C0
S315080028F0890606D4116821F00A011160012180F8C1
S315080029002510CCF80440C16A0022002980F824204A
S31508002910ECD0BDE8B040084700284FF0010100F0B0
S315080029208C802DE9F04740F2000CC4F2020C0368D3
S315080029304FF6F8320CF5816ECBF6FD72734538BF4B
S3150800294002F580624CF6CD441A44CCF6CC44A2FB80
S31508002950042803F0FC02A2F10802A2FB04290CF5E4
S3150800296080656FF00304D0E90262D0F810A03CBF7E
S315080029700025C4F2020504EA9804C0E910540225A9
S3150800298080F825501D6847F6F07725EA07073A4389
S31508002990476942EA0A0285693A43C7692A43056ACA
S315080029A03A432A4332431A600CF50262734538BF2C
S315080029B00CF50062A3180CF50862C264C9F3041288
S315080029C040F6840C01FA02F2B6F5804FC4F2020C06
S315080029D08364026505D1002141601960CCF80020A6
S315080029E01CE041685FFA81FE013903294FF00001B6
S315080029F0C3F800E0CCF8002010D8AEF101020CEBC9
S31508002A00820747F87C1F02F01F01012202FA01F330
S31508002A100CF1BC023946CCF8C03001E00022002394
S31508002A2000F1540C8CE80E0000210122C16380F8E5
S31508002A30252080F82410BDE8F0470846704710B5F1
S31508002A40044690F82400012820D0012084F82400A8
S31508002A5094F82500012816D1022084F825000020C4
S31508002A60E063D4F800C0DCF8000020F00100CCF8E0
S31508002A7000002046FEF7A5FF2068226B01683AB1E0
S31508002A8041F00E010AE0002084F82400022010BD5F
S31508002A9021F004010160016841F00A010160A16C9E
S31508002AA00A68D20303D50A6842F480720A60616D27
S31508002AB019B10A6842F480720A60016841F001019E
S31508002AC00160002010BD0000B0B5044600F008F90A
S31508002AD0054640F20800C2F200000068611C18BFF3
S31508002AE0044400BF00F0FCF8401BA042FAD3B0BD76
S31508002AF0012818BF704740F27B00C2F2000001218E
S31508002B000170704740F21441C4F201010A6802429A
S31508002B1014BF08607047FFF7EBBF00002DE9F04FC0
S31508002B2082B00D68002D00F0C58000F13847860593
S31508002B3046EA972741F20046C4F60006062240F206
S31508002B40004EB04208BF0522C4F2010E052F38BF59
S31508002B503A464FF0000C012400270026009200BFD9
S31508002B6004FA06FB15EA0B0800F09A80D1F804A0CF
S31508002B7003230AF003056A1EBB40012A6FEA03090C
S31508002B8010D88268CB6802EA0902BB401A43826001
S31508002B904268CAF3001322EA0B02B3401A434260A2
S31508002BA004E000BF032D01D103251FE0C2688B682E
S31508002BB002EA0902BB401A43022DC26016D16FF021
S31508002BC0030202EA560202440CF01C050F23D2F84F
S31508002BD020A003FA05FB0B692AEA0B0AAB4043EA75
S31508002BE00A031362D1F804A00AF00305026805FA7D
S31508002BF007F302EA09021A431AF4403F02604FD06B
S31508002C0041F26003C4F202031A684FF6084A42F01A
S31508002C1001021A601A68CFF6FF7A02F001020192E1
S31508002C20019A26F00302724452F80A900CF00C0539
S31508002C300F23009CAB4029EA030304FA05F52B434E
S31508002C4042F80A30DEF808204B6842EA080540F2E6
S31508002C500C49DC0258BF22EA0805CEF80850C4F22F
S31508002C600109D9F800209D0242EA080458BF22EA61
S31508002C700804C9F80040DEF804209D0342EA080467
S31508002C8058BF22EA0804CEF80440DEF80020DB0329
S31508002C9042EA080458BF22EA0804CEF80040012494
S31508002CA00D68013635FA06F207F102070CF1040C35
S31508002CB07FF456AF02B0BDE8F08F0069084018BF30
S31508002CC001207047426902EA0103914341EA034140
S31508002CD0816170471823002A08BF2823C15070470E
S31508002CE040F64820C2F200000068704790F8DD30D0
S31508002CF0022B02D14FF0020C72E090F8DC304FF054
S31508002D00020C012B6CD001231F2980F8DC3080F8D7
S31508002D10DDC010DC4B1E072B27D80FF20601DFE8B3
S31508002D2003F0042C6132616161380168D1F800341E
S31508002D3062F3040332E07F290DDD802931D0B1F535
S31508002D40807F34D0B1F5007F4CD10168D1F80434C6
S31508002D5062F31C6336E020292FD0402942D101684E
S31508002D60D1F8043462F38A132CE010293AD10168A9
S31508002D70D1F8003462F31C6310E00168D1F800341E
S31508002D8062F38A130AE00168D1F8003462F310335B
S31508002D9004E00168D1F8003462F39643C1F80034C0
S31508002DA012E00168D1F8043462F310330AE00168CE
S31508002DB0D1F8043462F3964304E00168D1F8043488
S31508002DC062F30403C1F8043490F8DD104FF0010CE7
S31508002DD0072905D080F8DDC04FF0000C80F8DCC06C
S31508002DE060467047072180F8DD10002180F8DC1066
S31508002DF0EAE7000090F8DD30022B01D10223C7E094
S31508002E0090F8DC30012B4FF0020300F0C180B0B51A
S31508002E10012480F8DC4080F8DD3003681F29D3F8E8
S31508002E2080C3D3F8FCE30FDC4C1E072C3ED8DFE842
S31508002E3004F00452B159B1B1B1605488526864F3D0
S31508002E40124CC3F8BC238FE07F2919DD802957D09F
S31508002E50B1F5807F65D0B1F5007F40F09B8054883E
S31508002E60D3F8F85364F3165E25F0F844C3F8F8432C
S31508002E705268D3F8F84302F01F0244EA826271E00E
S31508002E8020295FD0402940F085805488D3F8F8532C
S31508002E9064F30A2E25F4F844C3F8F8435268D3F8C5
S31508002EA0F84302F01F0244EA82225BE0102971D13E
S31508002EB04FEADE05B2F802E0D3F8F84365F3DF0E11
S31508002EC024F01F04C3F8F8435268D3F8F84302F015
S31508002ED01F02224346E05488526864F3D54CC3F86F
S31508002EE0C02341E05488526864F3985CC3F8C4234D
S31508002EF03AE05488526864F35B6CC3F8C82333E03D
S31508002F005488D3F8F85364F30E3E25F4F814C3F83E
S31508002F10F8435268D3F8F84302F01F0244EA024223
S31508002F2020E05488D3F8F85364F3124E25F07874E9
S31508002F30C3F8F8435268D3F8F84302F01F0244EA8C
S31508002F4042520FE05488D3F8F85364F3061E25F46A
S31508002F507874C3F8F8435268D3F8F84302F01F02AE
S31508002F6044EA4212C3F8F82390F8DD20072A01D173
S31508002F7001230BE00F298CBFC3F8FCE3C3F880C319
S31508002F800121002380F8DD1080F8DC30BDE8B04070
S31508002F9018467047072280F8DD20002280F8DC20DA
S31508002FA0E2E7704770477047704770477047704749
S31508002FB07047704790F8DC20012A4FF0020221D0B2
S31508002FC0012380F8DC3080F8DD2002684B1CD2F83B
S31508002FD0CCC309D04CF00203C2F8CC33D2F8CC33B8
S31508002FE023F00C03194301E02CF00201C2F8CC13BC
S31508002FF0D2F8CC1341F00101C2F8CC13012100220A
S3150800300080F8DD101046704790F8DD30022B01D1AC
S31508003010022343E090F8DC30012B4FF002033DD049
S3150800302070B580F8DD30D2E900C3D2E902E60CF4C7
S31508003030E0546FF35F23156923440EF400742344A8
S3150800304005F480452B4406F40046334456690025AA
S31508003050C0F2FF1505EA06469569334405F0007681
S31508003060156A334405F08046D2693343066802F090
S31508003070004206EBC1111A43D1F8B83042F20006F5
S31508003080C3F6004633401A43C1F8B820012100238D
S3150800309080F8DD1080F8DC30BDE8704018467047CF
S315080030A070477047704770477047704770472DE9FB
S315080030B0F041062904465FD00D46FF2940F0DA8024
S315080030C02068D0F88863D0F89053F10718BF15F038
S315080030D0010105D00121C0F88C132046FFF7E1FF56
S315080030E0B00709D515F0020006D020680221C0F8FD
S315080030F08C132046FFF7D6FF700709D515F0040094
S3150800310006D020680421C0F88C132046FFF7CBFFB1
S31508003110300709D515F0080006D020680821C0F840
S315080031208C132046FFF7C0FFF00609D515F01000EE
S3150800313006D020681021C0F88C132046FFF7B5FF8B
S31508003140700609D515F0400006D020684021C0F861
S315080031508C132046FFF7AAFFB00640F16C8115F0E4
S31508003160200000F06881216820222046C1F88C23BF
S31508003170BDE8F04100F04CBA2068D0F88853D0F882
S3150800318090734668D0F80C80E9030FD517F48031A0
S315080031900CD04FF48031C0F88C13012084F8DD0080
S315080031A0002084F8DC002046FFF703FFA8030AD5B1
S315080031B017F4003007D020684FF40031C0F88C139C
S315080031C02046FFF7EEFEF00718BF18F0010006D0FC
S315080031D020680121816020460621FFF7E5FEB00739
S315080031E009D518F0020006D0206802218160204621
S315080031F00621FFF7DAFE700709D518F0040006D095
S3150800320020680421816020460621FFF7CFFE30079B
S3150800321009D518F0080006D02068082181602046E4
S315080032200621FFF7C4FEF00609D518F0100006D0EF
S315080032302068102181602046062100F0E7F9B006D3
S3150800324008D518F0200005D0206820218160204686
S3150800325000F0DDF9700640F1EE8018F0400000F04D
S31508003260EA8022684023204606219360BDE8F041A3
S3150800327000F0CBB9206800EBC510D0F88470D0F800
S315080032808C60F90718BF16F0010106D00121C0F8B5
S31508003290881020462946FFF787FEB8070CD516F092
S315080032A0020009D02068022100EBC510C0F888107A
S315080032B020462946FFF779FE78070CD516F0040054
S315080032C009D02068042100EBC510C0F888102046F4
S315080032D02946FFF76BFE38070CD516F0080009D00B
S315080032E02068082100EBC510C0F88810204629463A
S315080032F0FFF75DFEF8060CD516F0100009D0206819
S31508003300102100EBC510C0F888102046294600F0A9
S315080033107DF978060CD516F0400009D020684021C2
S3150800332000EBC510C0F888102046294600F06DF954
S3150800333038060CD516F0800009D02068802100EBED
S31508003340C510C0F8881020462946FFF72BFEF80559
S315080033500DD516F480700AD020684FF4807100EB02
S31508003360C510C0F8881020462946FFF71CFEB80588
S315080033700DD516F400700AD020684FF4007100EBE2
S31508003380C510C0F888102046294600F014F97805BB
S315080033900DD516F480600AD020684FF4806100EBE2
S315080033A0C510C0F888102046294600F003F93805EC
S315080033B00DD516F400600AD020684FF4006100EBC2
S315080033C0C510C0F888102046294600F0F6F8F8041B
S315080033D00DD516F480500AD020684FF4805100EBC2
S315080033E0C510C0F888102046294600F0E5F8B8044C
S315080033F00DD516F400500AD020684FF4005100EBA2
S31508003400C510C0F8881020462946FFF7D1FD780474
S3150800341058BFBDE8F08116F480400CD020684FF400
S31508003420804300EBC51220462946C2F88830BDE81D
S31508003430F041FFF735BEBDE8F081000070B582B0F7
S3150800344000284AD00446022084F8DD0004F1E00092
S315080034501C21FDF78AF8207AC0071FD0206846F697
S315080034600001C4F2010188420CD141F26001C4F2A4
S3150800347002010A6842F080620A60096801F0806108
S31508003480019101990168D4E9042321F4704102F4F9
S315080034904042114403F4405211440160204600F0B2
S315080034A020F8207A800706D52068E1680268090AAC
S315080034B061F30922026001200025002684F8DD0058
S315080034C084F8DC50A11901F118000D631421FDF7E9
S315080034D04CF81C36C42EF5D100E00125284602B06A
S315080034E070BD006846F60001C4F20101884218BFA3
S315080034F0704780B582B041F26000C4F202000168EC
S31508003500002241F0806101600068012100F08060BE
S3150800351001900198472000F07CFD472002B0BDE8E5
S31508003520804000F066BD006846F60001C4F201015D
S31508003530884218BF70472DE9F04385B041F24C0028
S31508003540C4F20200016840F2004441F00201016041
S315080035500168C4F6000401F00201009100990168AF
S315080035606D4641F00401016000684FF0020800F062
S315080035700400009000984FF4404000904FF0000976
S3150800358003260D2720462946CDF80480CDF8089055
S3150800359003960497FFF7C2FAC0208DE8010304F5E5
S315080035A080602946CDE90367FFF7B8FA05B0BDE89C
S315080035B0F04370477047704770477047F0B581B061
S315080035C00D460446FFF78CFB2168D1F88823D20301
S315080035D00ED406466F1C00BF37B1FFF781FB75B1E5
S315080035E0801BA8420BD82168D1F88803C003F3D5FD
S315080035F0012084F8DD00002084F8DC0003E00720C1
S3150800360084F8DD00032001B0F0BD704770477047AD
S31508003610704790F8DD30022B4FF0020330D010B51A
S3150800362080F8DD300368062910D11968D2E900CE82
S31508003630D2E9024221F01F0124F018042143114364
S315080036401960C3F814C0C3F818E013E003EBC111FE
S31508003650D1F88030D2E900ECD2E9024223F01F0308
S3150800366024F0180423431A43C1F88020C1F894E0D3
S31508003670C1F898C00121002380F8DD10BDE810408C
S315080036801846704790F8DDC0BCF1020F02D14FF022
S31508003690020C97E090F8DCC0BCF1010F4FF0020C69
S315080036A000F0908010B54FF0010E062980F8DCE096
S315080036B080F8DDC00ED1511E07291FD80FF204026B
S315080036C0DFE801F004231C271C1C1C2B1968026860
S315080036D0D16167E0A2F1010CBCF1070F0ED80FF219
S315080036E00602DFE80CF0041E0B380B0B0B3F0268D2
S315080036F01B6802EBC111C1F89C3053E0072180F822
S31508003700DD10002180F8DC104CE01968026851626F
S3150800371048E019680268916244E019680268D16253
S3150800372040E0D0F800C0D3E900E40CEBC11CCCF8AB
S31508003730A4E0614651F8802F22F440520A608CB307
S315080037400A68B4F5405F42EA04020A6027D0B4F575
S31508003750005F20D026E002681B6802EBC111C1F8A1
S31508003760A8301FE0D0F800C0D3E900420CEBC11C1A
S31508003770CCF8AC40614651F8804F24F440440C60C4
S3150800378082B10C68B2F5405F44EA82040C6006D048
S31508003790B2F5005F06D19968CCF89C1002E09968EA
S315080037A0CCF8A81090F8DD10072902D14FF0010CCB
S315080037B006E001214FF0000C80F8DD1080F8DCC02F
S315080037C0BDE810406046704790F8DC20012A4FF0AB
S315080037D002020BD080F8DD200268136819431160D5
S315080037E00121002280F8DD1080F8DC2010467047A1
S315080037F0B0B5044690F8DD00022804BF0220B0BD2B
S3150800380094F8DC0001284FF0020008BFB0BD01257E
S3150800381084F8DC5084F8DD00204602F033FA0020F4
S3150800382084F8DD5084F8DC00B0BD90F8DC20012A6D
S315080038304FF002020DD080F8DD200268D2F89433EA
S315080038401943C2F894130121002280F8DD1080F88C
S31508003850DC2010467047000090F8DD30022B01D1BD
S3150800386002233FE190F8DC30012B4FF0020300F011
S3150800387039812DE9F04F8EB0012780F8DC7080F889
S31508003880DD30D0F80090062909EBC11C26D0E646A3
S315080038905EF8803F644623F07043CEF80030DEF8C9
S315080038A0003054F8E85F23F020030B950D94644626
S315080038B054F8E46F0C94D9F8A0535469202C44EAC0
S315080038C0030706D09469042C48D0032C48D0022C50
S315080038D04AD127F4D07303F1200747E0D9F80060EE
S315080038E0D9F8A0E3556926F0E00625F0C004202D96
S315080038F046EA040609D09569042D00F0F580032DE3
S3150800390000F0F580022D40F0F58046F020064FF2D3
S31508003910FF35C3F2FF15D2E907472E4005F50065C6
S31508003920D2E909382C40344327F06E452C4323F05E
S315080039306843234328F06044D2F82CB0234343EA73
S315080039408B03546B23F000532343146B2EF48037F8
S315080039502743C9F80030C9F8A07391E0022300E0B4
S31508003960012363F3C81701E027F4D077D369D2E9B6
S3150800397011A40093136AD2F82CB00193536A0493E6
S31508003980936A0593536B0693D2E90E830A93136CD5
S315080039900993936D089344F48053B3F5F05F136D60
S315080039A0079326F480734AEA030A02D1B8F1400F56
S315080039B003D12AF4F05343EA040AD36C0529039386
S315080039C0536D02930BD84DA353F821302E46156B31
S315080039D04C1C334005FA04F444EA030600E02E467C
S315080039E04FF2FF33C0F2FF13009D07EA030403F505
S315080039F000632B402343019C049DA4B223434FF646
S31508003A00BF74C0F2006425402B43059D04F1006491
S31508003A102C4023434FF6BF7443EA0B03CFF60064EA
S31508003A202340069CB4F1005F4FF6FF74CFF602649C
S31508003A3008BF03F5003308EA04052B43089D04F57F
S31508003A4080242C402343079C2343CEF800304FF6AE
S31508003A50C0730B9FC7F6FF733B400A9F07F03F07EB
S31508003A603B44099F3B430D9F3B60039F2AF48043D9
S31508003A703B430C9F3B60029BCCF8D430C9F8A0634B
S31508003A80C1EBC103D2E9007500EB8303D2E9024614
S31508003A90C3E9087517690629C3E90A461F630AD8E0
S31508003AA049F6D413C0F6000353F82130D9F88473C5
S31508003AB03B43C9F8843306290BD0BBF1000F08D164
S31508003AC0DCF88010D26D21F4007141EA4221CCF86D
S31508003AD080100121002380F8DD1080F8DC300EB05C
S31508003AE0BDE8F04F1846704746F080060FE746F0E7
S31508003AF040060CE726F0E00609E700BFFFFFFDFFDA
S31508003B00FFFFFBFFFFFFF7FFFFFFEFFFFFFFDFFFF3
S31508003B10FFFFBFFF90F8DD30022B01D1022347E0FB
S31508003B2090F8DC30012B4FF0020341D02DE9F0412B
S31508003B3080F8DD30D0F800C04FF6EF740CEBC11EEC
S31508003B405EF8EC3FCFF6EC7492E86001234001344E
S31508003B50D76804EA0514234326F44034234327F49C
S31508003B60003495692343012D43EA080309D1D2E9B4
S31508003B70042423F0060322F002021A43224342F0E9
S31508003B8001030629CEF800300AD849F6D412C0F641
S31508003B90000252F82110DCF884231143CCF8841370
S31508003BA00121002380F8DD1080F8DC30BDE8F04103
S31508003BB01846704790F84120202A03D190F84020F3
S31508003BC0012A01D1022118E0242280F84120026846
S31508003BD0136823F001031360136823F480531360FA
S31508003BE0136819431160116841F001011160202121
S31508003BF080F84110002180F840100846704790F878
S31508003C004120202A03D190F84020012A01D102211F
S31508003C1017E0242280F841200268136823F0010384
S31508003C201360136823F4706343EA01211160116875
S31508003C3041F001011160202180F84110002180F82F
S31508003C4040100846704708B310B5044690F841007E
S31508003C5028B9002084F84000204600F00FF92420F7
S31508003C6084F8410094E80910E2680168012A21F005
S31508003C700101016023F070610161816821F400414E
S31508003C80816005D14CF4004181600AE0012070474B
S31508003C904CF40441022A816003D1416841F4006171
S31508003CA002E0416821F400614160416804F1100CAA
S31508003CB041F0007141F400414160C16821F40041BE
S31508003CC0C1609CE80E10114341EA0321C160216AD4
S31508003CD041EA0C010160016841F001010160002020
S31508003CE02021606484F84110206384F8420010BDE6
S31508003CF02DE9F04782B0044690F84100202803D108
S31508003D0094F84000012804D10225284602B0BDE8EF
S31508003D10F08701251E461746884684F84050FEF768
S31508003D20DFFF814620464FF4004101221923CDF8D2
S31508003D30009002F087F80028E7D1212084F8410096
S31508003D40102084F84200002060646762668560631C
S31508003D50608DB0F5807F04D3FF2020854FF08072F8
S31508003D6004E0608D2085A8B14FF0007217F8013B7A
S31508003D7021688B626762638D013B6385431E2385D9
S31508003D8043466FF39F23C0B243EA0040104340F412
S31508003D90005007E047F6C070424660F39F2221684C
S31508003DA002F5903049F60045CFF600454A68A5F574
S31508003DB080631A4010434860608D0A9F002843D0EC
S31508003DC040F2000AC0F2FF1A6FF39F28FF2600BFD1
S31508003DD0204639464A4602F0ABF8D8BB606A2168E5
S31508003DE010F8012B8A626062608D01386085208D2B
S31508003DF001382085618D21B3000422D12046802117
S31508003E0000223B46CDF8009002F01CF810BB608DEE
S31508003E10B0F5807F06D32068268550F8041F5246E1
S31508003E2029400AE0618D2068218550F8042FC9B21F
S31508003E302A4042EA01414FF0007241EA0801114363
S31508003E400160608D0028C3D1204639464A4602F0F3
S31508003E5043F808B1012558E720682021C161426866
S31508003E604EF60003CFF600631A400025426084F838
S31508003E70411084F8425084F8405046E72DE9F04353
S31508003E809BB0044601A804305021FCF76EFB20685D
S31508003E9047F60001C4F20001884248D14FF4807801
S31508003EA001A8CDF8048000F073F908B1FDF71CFEEF
S31508003EB041F24C06C4F20206306816AC40F0040023
S31508003EC0306030684FF0120900F00400169016981A
S31508003ED03068012540F0010030603068032700F0A3
S31508003EE00100169016984FF40070169008201A9044
S31508003EF040F60000C4F600002146CDF85C901895FF
S31508003F001997FEF70BFE02201A904FF090402146B3
S31508003F10CDE91689CDE91857FEF700FEF06840F09E
S31508003F208040F060F06800F08040009000981BB078
S31508003F30BDE8F08340F2080040F64821C2F20000CE
S31508003F40C2F2000100680A6810440860704780B52C
S31508003F50032000F089F80F2000F007F808B10120C7
S31508003F6080BD00F02CF8002080BDB0B540F20801F5
S31508003F70C2F200010968F9B1044640F20000C2F233
S31508003F8000004FF47A720068B2FBF1F1B0FBF1F071
S31508003F9000F01BFE0F2C4FF001050ED868B94FF044
S31508003FA0FF3021460022002500F033F840F20C00CD
S31508003FB0C2F20000046000E001252846B0BD82B0C8
S31508003FC041F25800C4F20200816841F001018160A3
S31508003FD0816801F0010101910199016841F0805160
S31508003FE00160006800F080500090009802B000F070
S31508003FF0C6B800280CD400F01F01012202FA01F10C
S315080040001C2202EAD0004EF20012CEF200028150C3
S31508004010704710B54EF60C5CCEF2000CDCF800309A
S31508004020C3F3022E8EF00704042C28BF0424BEF125
S3150800403003034FF0FF3E0EFA04F438BF0023A143F2
S3150800404099400EFA03F39A43114300F00F0200F168
S3150800405060430901043A03F564436244002848BFF3
S3150800406002F10C03197010BD4EF60C51CEF2000188
S315080040700A684FF6FF031A4060F30A2242F080608E
S3150800408040F0FD7008607047B0F5007F34D0002816
S315080040906AD147F2000CC4F2000CDCF80010DCF818
S315080040A0802001F4C06122F48072B1F5806FCCF8EB
S315080040B0802062D1DCF80010012262F34A21CCF894
S315080040C0001040F20001C2F2000109683223594388
S315080040D04DF68363C4F21B33A1FB031302EB934132
S315080040E0002200BFDCF81400013942F10003400544
S315080040F033D5002BF6D130E047F2000CC4F2000CA1
S31508004100DCF80010DCF8802001F4C06142F480720B
S31508004110B1F5806FCCF880202FD1DCF80010012291
S3150800412062F34A21CCF8001040F20001C2F2000105
S315080041300968322359434DF68363C4F21B33A1FB46
S31508004140031302EB93410022DCF81400013942F113
S315080041500003400501D5002BF6D1DCF81400400514
S3150800416044BF0320704708E047F20000C4F200008D
S315080041700168022262F34A2101600020704747F273
S315080041800800C4F20000016841F4804101607047EC
S315080041902DE9F04182B00446807841F20C0600070A
S315080041A0C4F2020601D400204FE0F06C5FEAC008B2
S315080041B008D4F06C40F08050F064F06C00F0805049
S315080041C00190019847F20007C4F20007386840F4E6
S315080041D080703860FEF784FD054600BF3868C00564
S315080041E006D4FEF77DFD401B0228F7D9032025E0FB
S315080041F0D6F8840010F4407017D0216D884211D08B
S31508004200D6F88400D6F8841020F4407041F4803142
S31508004210C6F88410D6F8841021F48031C6F88410C4
S31508004220C6F88400C00740F0E880D6F88400216DFF
S3150800423020F440700843C6F884000020B8F1000F47
S3150800424003D4F16C21F08051F1642168CA0705D0C6
S31508004250F26F636822F003021A43F2678A0705D5EC
S31508004260F26FA36822F00C021A43F2674A0705D5D3
S31508004270F26FE36822F030021A43F2670A0705D59F
S31508004280F26F236922F0C0021A43F267CA0605D5FF
S31508004290F26F636922F440721A43F2678A0605D5FB
S315080042A0F26FA36922F440621A43F2674A0605D5FB
S315080042B0F26FE36922F440521A43F2670A0605D5FB
S315080042C0F26F236A22F440421A43F267CA0505D5FB
S315080042D0F26F636A22F440321A43F2678A0307D5FB
S315080042E0D6F89020A36A22F003021A43C6F8902053
S315080042F08A0505D5F26FE36A22F440221A43F2676B
S315080043004A050CD5F26F236B22F440121A43B3F513
S31508004310801FF26703D1326842F4801232600A05C0
S315080043200CD5F26F636B22F440021A43B3F5800F83
S31508004330F26703D1326842F480123260CA040CD59F
S31508004340F26FA36B22F040721A43B3F1807FF267D3
S3150800435003D1326842F4801232608A040CD5F26FB7
S31508004360E36B22F040621A43B3F1006FF26703D1A0
S31508004370326842F4801232604A040CD5F26F236C1C
S3150800438022F040621A43B3F1006FF26703D1326834
S3150800439042F4801232600A040CD5F26F636C22F084
S315080043A040521A43B3F1805FF26703D1326842F490
S315080043B080323260CA030CD5F26FA36C22F04042F9
S315080043C01A43B3F1804FF26703D1326842F4803260
S315080043D0326049030ED5D6F89010E26C21F44011EC
S315080043E01143B2F5001FC6F8901003D1316841F4A5
S315080043F08011316002B0BDE8F081FEF771FC054618
S3150800440041F28837D6F8840080073FF50EAFFEF7ED
S3150800441067FC401BB842F5D9E8E670472DE9F04736
S31508004420002865D042F2000AC4F2020A0446DAF805
S3150800443000000D4600F00F0088420CD2DAF80000A2
S3150800444020F00F002843CAF80000DAF8000000F050
S315080044500F00A8424CD1206841F20808C107C4F2EF
S31508004460020803D1810700F1828099E06168022978
S315080044703AD003293FD158F8081C890138D5D8F80D
S315080044800410D8F8042042F20047C2F3031201F0E0
S315080044900301D8F804300132C0F2F407032904BF37
S315080044A047F64007C0F27D17B7FBF2F1D8F80420AB
S315080044B0C3F306235943C2F34162022303EB4202C4
S315080044C0B1FBF2F14BF20042C0F2C442914208D964
S315080044D0D8F8001011F0F00F19D0800701D5A068A0
S315080044E0A8B14FF000091BE058F8080C800306D461
S315080044F00120BDE8F08758F8080C4005F8D500F00B
S31508004500D5F84BF20041C0F2C4418842E9D9D8F83F
S315080045100000082161F307104FF00109C8F80000F0
S31508004520D8F80000616820F003000843C8F80000C6
S31508004530FEF7D6FB064641F2883700BFD8F80000DA
S31508004540616800F00C00B0EB810F05D0FEF7C8FBE0
S31508004550801BB842F2D940E02068810707D4B9F138
S31508004560000F1DD0D8F8001021F0F00116E0410721
S3150800457005D5D8F8001041F4E061C8F80010010725
S3150800458006D5D8F80010072262F30D21C8F80010E6
S31508004590D8F80010A26821F0F0011143C8F80010FD
S315080045A0DAF8001001F00F01A9421AD9DAF800006A
S315080045B020F00F002843CAF80000FEF791FB0646D4
S315080045C041F28837DAF8000000F00F00A84207D059
S315080045D0FEF786FB801BB842F4D90320BDE8F087B6
S315080045E02068410707D5D8F80010E26821F4E06191
S315080045F01143C8F80010000708D5D8F8000021694B
S3150800460020F4605040EAC100C8F8000000F04EF8F7
S31508004610D8F8001049F6F012C1F30311C0F60002EB
S31508004620515C40F2000201F01F0120FA01F140F24C
S315080046300C00C2F200000068C2F200021160BDE878
S31508004640F047FFF792BC41F20000C4F2020001688D
S3150800465041F400210160704740F2000041F2080170
S31508004660C2F20000C4F202010068096849F6002295
S31508004670C1F30221C0F60002515C01F01F01C840D7
S31508004680704740F2000041F20801C2F20000C4F28D
S3150800469002010068096849F60022C1F3C221C0F682
S315080046A00002515C01F01F01C840704741F2080141
S315080046B0C4F20201086842F20042C0F2F40200F0B5
S315080046C00C000428104608BF7047086800F00C0064
S315080046D0082847F64000C0F27D1024D00B6803F086
S315080046E00C030C2B1CBF0020704780B5D1F804C002
S315080046F04B680CF0030CC3F3031E4B680EF1010E56
S31508004700BCF1030F08BF02464968B2FBFEF0C3F3CB
S315080047100623C1F341610222584302EB4101B0FB73
S31508004720F1F0BDE88040704710B541F21C04C4F2B0
S3150800473002042068C00558BF10BDFFF76EFE4FF48F
S315080047408070606010BD000000285FD02DE9F04140
S3150800475082B00446007841F20006C007C4F2020699
S3150800476056D12078800774D42078000700F1988005
S315080047702078400700F1B6802078800600F1028193
S31508004780E569002D00F01D82B06800F00C000C28C9
S3150800479040F04C81012D00F0E080F068216A00F0BD
S315080047A003028A4240F0D980626A6FF00F0300F074
S315080047B0F00103EB0212914240F0CF80A16A00F4A7
S315080047C0FE42B2EB012F40F0C880E16A00F0784261
S315080047D0B2EBC16F40F0C180226B0023CFF6E073C5
S315080047E003EA025200F4C001A2F50012914240F019
S315080047F0B480616B4FF07E4202EA016100F0C0604E
S3150800480001F17E41884240F0A880DAE10120704734
S31508004810B06800F00C01F06808295AD0032281F02C
S315080048200C0122EA00000844B0FA80F0400950D191
S315080048306068B0F5803F07D0B0F5A02F40F0CD8076
S31508004840306840F480203060306840F48030306052
S31508004850CDE0B068F16800F00C00042867D001F0DC
S31508004860030180F00C0081F002010844B0FA80F0E0
S3150800487040095CD1E1683068002900F0C58040F441
S3150800488080703060FEF72CFA054600BF3068400598
S3150800489000F1EE80FEF724FA401B0228F6D920E143
S315080048A06169D6F89400002900F0858040F001007F
S315080048B0C6F89400FEF714FA054600BFD6F8940029
S315080048C080073FF555AFFEF70BFA401B0228F5D9CE
S315080048D007E1306880037FF544AF606800287FF4FD
S315080048E040AF3AE0B06D5FEAC00808D4B06D40F05A
S315080048F08050B065B06D00F080500190019847F285
S315080049000007C4F200073868C00528D4386840F4A0
S3150800491080703860FEF7E4F9054600BF3868C005C0
S315080049201DD4FEF7DDF9401B0228F7D9D9E0306817
S31508004930400501D5E06880B17068216920F0FE4025
S3150800494040EA0160706040F20C00C2F200000068A4
S31508004950FFF70BFB00283FF407AF012032E1A06800
S31508004960012808D0052840F0A080D6F8900040F02D
S315080049700400C6F89000D6F8900040F00100C6F88A
S3150800498090009FE0A169D6F89800002978D040F0F9
S315080049900100C6F89800FEF7A3F90546D6F8980070
S315080049A080073FF5EDAEFEF79BF9401B02284FF056
S315080049B00300F3D906E120F00100C6F89400FEF7DB
S315080049C08FF90546D6F8940080077FF5D1AEFEF735
S315080049D087F9401B0228F5D983E03168002821F4BD
S315080049E080313160316821F4802131607BD0FEF757
S315080049F077F90546306880033FF5B3AEFEF770F9E0
S31508004A00401B6428F6D96CE020F480703060FEF70D
S31508004A1067F90546306840057FF5A6AEFEF760F9EA
S31508004A20401B02284FF00300F4D9CBE0306820F091
S31508004A3080703060FEF754F9022D05460CD100BF90
S31508004A403068800179D5FEF74BF9401B02284FF0F4
S31508004A500300F5D9B6E000BF3068800140F1AA80AE
S31508004A60FEF73EF9401B02284FF00300F4D9A9E0EF
S31508004A707068216920F0FE4040EA0160706073E6C4
S31508004A8020F00100C6F89800FEF72AF9054600BF8F
S31508004A90D6F8980080077FF573AEFEF721F9401B1C
S31508004AA002284FF00300F3D98CE0D6F8901021F0D5
S31508004AB00101C6F89010D6F8901021F00401C6F846
S31508004AC09010F8B1FEF70CF9054641F2883700BF99
S31508004AD0D6F89000800727D4FEF702F9401BB842A3
S31508004AE0F6D903206EE0FEF7FBF80546306880032A
S31508004AF07FF537AEFEF7F4F8401B64284FF0030045
S31508004B00F4D95FE0FEF7ECF8054641F2883700BFB6
S31508004B10D6F89000800707D5FEF7E2F8401BB842A2
S31508004B204FF00300F4D94DE0B8F1000F3FF524AE7D
S31508004B30B06D20F08050B0651EE6F06848F20C01B2
S31508004B40C0F29F1104F1200700EA010C8ECF6FF026
S31508004B500F00D4E90C5400EB02100022CFF6E072E5
S31508004B6041EA0C0102EA05520843A2F500124FF089
S31508004B707E4540EA032005EA0465104305F17E45B3
S31508004B8040EAC7602843F060306840F080703060C3
S31508004B90F06840F08070F060FEF7A2F804463068CE
S31508004BA080010ED4FEF79CF8001B02284FF0030084
S31508004BB0F5D907E0F0684FF6FC71CFF6EE610840CC
S31508004BC0F060002002B0BDE8F081411E0020B0EB85
S31508004BD0116F1CBF012070474EF21002CEF2000280
S31508004BE051604EF62351CEF20001F0230B700721D7
S31508004BF090601160704770477047704790F83C2086
S31508004C00012A01D1022163E0B0B5D1E90232D1E926
S31508004C1000CE22F47C5223F4705343EA020448F28D
S31508004C20FF73CEF6F0730EEA0302224303F500641F
S31508004C3004EA0C0442EA040C0C6903F5C05222404B
S31508004C404C6942EA0C02224303F5605422400C6B7D
S31508004C5003F5F04323401A438B6940F2000CCC69F4
S31508004C60CEF6FF7C0CEA034C1443026842F6004376
S31508004C70C4F201039A4244EA0C030BD045F200043D
S31508004C80C4F20104A24205D043F20044C4F201046E
S31508004C90A24217D14FF6FF74CDF60F4403EA040E6D
S31508004CA0D1E9084CD1E90A310025CDF6F04505EAE7
S31508004CB0035343EA0E0324F008552B432CF0005502
S31508004CC02B430B430021536480F83C10BDE8B040E9
S31508004CD00846704770477047704790F83C20012A8D
S31508004CE04FF0020262D070B580F83D20026842F6A5
S31508004CF000435468D2F808C0C4F2010345F2000E16
S31508004D009A42C4F2010E18BF724528D14D6824F4A0
S31508004D1070042C434FF68F75CFF6FF550E682C405E
S31508004D2042F6FF35C4F201053443AA4254600BDC4F
S31508004D3040F2FF73C4F200039A4217DCB2F1804FC7
S31508004D4027D040F2004319E043F6FF74C4F2010489
S31508004D50A24216DC9A421CD043F2004315E043F205
S31508004D600045C4F20105AA42D0D0D3E740F60003B5
S31508004D70C4F200039A420CD040F60043C4F2000382
S31508004D8005E0724505D044F20003C4F201039A42D5
S31508004D9004D189682CF0800319439160012100220F
S31508004DA080F83D1080F83C20BDE8704010467047FA
S31508004DB0704760B310B5044690F83D0028B9002046
S31508004DC084F83C00204600F024F8022084F83D00D0
S31508004DD02068211D02F0EEF8012084F8480084F8C6
S31508004DE03E0084F83F0084F8400084F8410084F8C7
S31508004DF0420084F8430084F8440084F8450084F8A7
S31508004E00460084F8470084F83D00002010BD0120C4
S31508004E10704780B582B0006843F20041C4F20101D0
S31508004E2088421AD0B0F1804F24D141F25800C4F21A
S31508004E3002000168002241F00101016000680421B6
S31508004E4000F00100019001981C20FFF7E2F81C20F1
S31508004E5002B0BDE88040FFF7CCB841F25800C4F272
S31508004E600200816841F400518160806800F40050B6
S31508004E700090009802B080BD90F83D10012919D124
S31508004E80022180F83D10016842F6FF32C868C4F274
S31508004E900102914240F00100C8600DDC40F2FF704B
S31508004EA0C4F20000814216DCB1F1804F2AD040F2EC
S31508004EB0004018E00120704743F6FF70C4F2010075
S31508004EC0814213DC42F60040C4F20100814219D047
S31508004ED043F2004012E040F60000C4F200008142AE
S31508004EE010D040F60040C4F2000009E045F2000088
S31508004EF0C4F20100814205D044F20000C4F2010068
S31508004F0081420CD188680722C0F201020240062AB3
S31508004F104FF00000CFD0B2F5803F08BF7047086851
S31508004F2040F0010008600020704790F83C20012AF4
S31508004F304FF0020200F0978080B580F83D20D0F847
S31508004F4000C08822DCF80830CFF6CE721A40CCF8BA
S31508004F5008200B68B3F5005F0DDA3F2B21DD5F2BC8
S31508004F6031DD602B00F08180702B00F0A080B3F556
S31508004F70805F6FD0E3E02F22C0F21002934217DD64
S31508004F804F21C0F210018B4245DD5021C0F21001BD
S31508004F908B4253D06021C0F210018B424ED0702153
S31508004FA047E01F2B3EDC002B48D0102B46D0C6E02E
S31508004FB0B3F1101F3BDAB3F5005F00F08B80B3F551
S31508004FC0801F3BD0BBE0402B00F09780502B40F071
S31508004FD0B680D1F804E0C968DCF82030DCF8202077
S31508004FE022F00102CCF82020DCF8182022F0F0028A
S31508004FF042EA011123F00A0242EA0E02CCF818101E
S31508005000CCF82020DCF808104FF68872CFF6CF725D
S31508005010114057311CE03021C0F210018B420DD0EF
S31508005020402106E0202B09D0302B07D087E005D099
S315080050302021C0F210018B4240F08180DCF8081074
S315080050404FF68872CFF6CF721140194341F0070127
S31508005050CCF808100022012180F83D10002180F8C4
S315080050603C10BDE8804010467047D1F804E0C96896
S31508005070DCF82030DCF8202022F01002CCF82020C2
S31508005080DCF8182022F4704242EA013123F0A0022B
S3150800509042EA0E12CCF81810CCF82020DCF80810DA
S315080050A04FF68872CFF6CF7211406731D0E7D1E953
S315080050B001E3C968DCF8082043EA0E0322F47F42BC
S315080050C043EA01211143CCF80810DCF8081041F036
S315080050D07701BDE7D1E901E3C968DCF8082043EAAE
S315080050E00E0322F47F4243EA01211143CCF808104B
S315080050F0DCF8081041F48041AAE7D1F804E0C96851
S31508005100DCF82030DCF8202022F00102CCF8202040
S31508005110DCF8182022F0F00242EA011123F00A0214
S3150800512042EA0E02CCF81810CCF82020DCF8081059
S315080051304FF68872CFF6CF721140473188E70122C1
S3150800514089E77047F0B581B004460068C568066906
S31508005150B10716D515F0020113D06FF002010161EF
S31508005160012121778069800703D02046FFF7E9FFF0
S3150800517005E0204600F0F3F8204600F07FF900200D
S315080051802077700718D515F0040015D020686FF041
S315080051900401016102212177806910F4407F03D060
S315080051A02046FFF7CEFF05E0204600F0D8F8204657
S315080051B000F064F900202077300717D515F00800AD
S315080051C014D020686FF00801016104212177C069B5
S315080051D0800703D02046FFF7B4FF05E0204600F01D
S315080051E0BEF8204600F04AF900202077F00618D5C8
S315080051F015F0100015D020686FF010010161082124
S315080052002177C06910F4407F03D02046FFF799FF45
S3150800521005E0204600F0A3F8204600F02FF900200C
S315080052202077F00718BF15F0010006D020686FF048
S3150800523001010161204600F0E9F916F4025F05F064
S31508005240800718BF002F06D020686FF4025101614D
S315080052502046FFF7D1FCF00507D537B120686FF473
S31508005260807101612046FFF7C6FC700609D515F066
S31508005270400006D020686FF040010161204600F02A
S31508005280E7F9B00609D515F0200006D020686FF0BA
S31508005290200101612046FFF7B0FCF00209D515F49C
S315080052A0801006D020686FF4801101612046FFF750
S315080052B012FDB00209D515F4001006D020686FF467
S315080052C0001101612046FFF705FD700209D515F4A6
S315080052D0800006D020686FF4800101612046FFF740
S315080052E0FBFC30020CD515F4000009D021686FF4D8
S315080052F0000220460A6101B0BDE8F040FFF758BD3C
S3150800530001B0F0BD006843F20041C4F201018842D1
S3150800531018BF704780B586B041F24C00C4F202004F
S31508005320016841F004010160006801A900F0040069
S31508005330019001984FF4807001900220029000209D
S315080053400390032004900420059040F60000C4F65C
S315080053500000FDF7E3FB06B0BDE8804070477047E4
S31508005360B0B5044690F83C00012804BF0220B0BD41
S315080053700D464FEAB2010120052984F83C0048D8B9
S31508005380DFE801F0030B131B23332068294601F0DD
S31508005390B5FE206850F8181F1EE02068294601F05F
S315080053A0EFFE206850F8181F26E02068294601F00D
S315080053B036FF206850F81C1F0EE02068294601F0C9
S315080053C07DFF206850F81C1F16E02068294601F06A
S315080053D0C4FF206850F8501F41F0080101600168B9
S315080053E021F00401016029690FE02068294601F0CF
S315080053F0E5FF206850F8501F41F40061016001681C
S3150800540021F480610160296909020268114301607B
S315080054100020002184F83C10B0BD60B310B50446E6
S3150800542090F83D0028B9002084F83C00204600F09A
S3150800543024F8022084F83D002068211D01F0BAFDF9
S31508005440012084F8480084F83E0084F83F0084F878
S31508005450400084F8410084F8420084F8430084F848
S31508005460440084F8450084F8460084F8470084F828
S315080054703D00002010BD01207047704770470000AE
S3150800548061B10A1F8B0743EA9202032A11D8DFE8A3
S3150800549002F002130D1600F13F0312E090F83E20C9
S315080054A0012A1BD1022280F83E2028E000F14103A0
S315080054B007E000F1430304E000F1400301E000F1D6
S315080054C042031B78012B09D1032A0DD8DFE802F025
S315080054D002100814022280F83F2010E001207047CD
S315080054E0022280F841200AE0022280F8432006E0E2
S315080054F0022280F8402002E0022280F84220026858
S3150800550001F01F014FF0010C136A0CFA01F18B43ED
