S31508000000E80800204DE300084124000847240008BA
S315080000104B2400084F240008532400080000000061
S31508000020000000000000000000000000572400083F
S3150800003059240008000000005B2400085D2400081D
S3150800004067E3000867E3000867E3000867E300085A
S3150800005067E3000867E3000867E3000867E300084A
S3150800006067E3000867E3000867E3000867E300083A
S3150800007067E3000867E3000867E3000867E300082A
S3150800008067E3000867E3000867E3000867E300081A
S3150800009067E3000867E3000867E3000867E300080A
S315080000A067E3000867E3000867E3000867E30008FA
S315080000B06124000867E3000867E3000867E30008AF
S315080000C067E3000867E3000867E3000867E30008DA
S315080000D067E3000867E3000867E3000867E30008CA
S315080000E067E3000867E3000867E3000867E30008BA
S315080000F067E3000867E3000867E3000867E30008AA
S3150800010067E3000867E3000867E3000867E3000899
S3150800011067E3000867E3000867E3000867E3000889
S3150800012067E3000867E3000867E3000867E3000879
S3150800013067E3000867E3000867E3000867E3000869
S3150800014067E3000867E3000867E3000867E3000859
S3150800015067E3000867E3000867E3000867E3000849
S3150800016067E3000867E3000867E3000867E3000839
S3150800017067E3000867E3000867E3000867E3000829
S3150800018067E3000867E3000867E3000867E3000819
S3150800019067E300080000000067E3000867E300085B
S315080001A067E3000867E3000867E3000867E30008F9
S315080001B067E3000867E3000867E3000867E30008E9
S315080001C067E3000867E3000867E3000867E30008D9
S315080001D067E3000867E30008DFF80CD00EF0DEFCE2
S315080001E000480047E5220008E80800200000000053
S315080001F082B0002001900199C9087C2914D800BF53
S3150800020000900099C9087C2907D800BF00990131D8
S3150800021000910099B1F57A7FF8D3019901310191DE
S315080002200199B1F57A7FEBD302B0704770477047F2
S31508000230704780B582B000218DF8070040F2104063
S315080002408DF806104FF00A0CC2F200000DF10602F6
S3150800025078210223CDF800C003F092F902B080BDE0
S315080002602DE9F04103AF0A46014602F1080020F0E5
S315080002700700541CADEB0005AD464020287012B1AE
S31508000280681C0EF075F882B040F210404FF00A0C68
S31508000290C2F2000078212A462346CDF800C003F0B2
S315080002A06FF902B0A7F10C04A546BDE8F081B0B518
S315080002B082B0FFF79DFF40F210444FF42E40C2F281
S315080002C00004ADF806000A250DF10602204678213D
S315080002D00223009503F054F94FF45540ADF8060093
S315080002E00DF10602204678210223009503F048F90D
S315080002F04FF40040ADF806000DF1060220467821BD
S315080003000223009503F03CF94FF42840ADF80600A7
S315080003100DF10602204678210223009503F030F9F4
S315080003204FF47C50ADF806000DF106022046782100
S315080003300223009503F024F94FF45340ADF8060064
S315080003400DF10602204678210223009503F018F9DC
S315080003500020ADF806000DF106022046782102239A
S31508000360009503F00DF94FF48040ADF806000DF145
S315080003700602204678210223009503F001F94FF47E
S315080003802140ADF806000DF1060220467821022329
S31508000390009503F0F5F84FF44840ADF806000DF166
S315080003A00602204678210223009503F0E9F84FF467
S315080003B05A40ADF806000DF10602204678210223C0
S315080003C0009503F0DDF84FF49050ADF806000DF1F6
S315080003D00602204678210223009503F0D1F84FF44F
S315080003E00140ADF806000DF10602204678210223E9
S315080003F0009503F0C5F84FF44F40ADF806000DF12F
S315080004000602204678210223009503F0B9F84FF436
S315080004105940ADF806000DF1060220467821022360
S31508000420009503F0ADF84FF47140ADF806000DF1F4
S315080004300602204678210223009503F0A1F84FF41E
S315080004405B40ADF806000DF106022046782102232E
S31508000450009503F095F84FF44050ADF806000DF1FD
S315080004600602204678210223009503F089F84FF406
S315080004702440ADF806000DF1060220467821022335
S31508000480009503F07DF84FF42640ADF806000DF10F
S315080004900602204678210223009503F071F84FF4EE
S315080004A00D40ADF806000DF106022046782102231C
S315080004B0009503F065F84FF4A050ADF806000DF16D
S315080004C00602204678210223009503F059F84FF4D6
S315080004D02F40ADF806000DF10602204678210223CA
S315080004E0009503F04DF840F21000C2F200004FF4F8
S315080004F080610DF056FF00F00CF802B0B0BD80B573
S3150800050040F21000C2F200004FF480610DF049FF7E
S3150800051080BD2DE9F04FA3B00DF10B0840F210068F
S3150800052040F2104B08F101050024C2F200064FF014
S3150800053040094FF00A0AC2F2000B00BFE0B20021E0
S3150800054000F019F82846314680226F468DF80B9040
S315080005500DF00EFF5846782142468123CDF800A0BB
S3150800056003F00EF8BD460134082C06F18006E5D1E5
S3150800057023B0BDE8F08FF0B583B040F2104540F0E7
S31508000580B000C2F200050C4600278DF807000A26BF
S315080005900DF106022846782102238DF8067000968A
S315080005A002F0EEFF200910308DF8090002AA28464D
S315080005B0782102238DF80870009602F0E1FF04F016
S315080005C00F008DF80B000DF10A0228467821022348
S315080005D08DF80A70009602F0D3FF03B0F0BD31B172
S315080005E002460120013902FB00F0FBD170470120C9
S315080005F070472DE9F0474FF00005A8B3DDF820C095
S31508000600461E4FF0000E4FF0000800BF32F9159055
S3150800061034B232F914A0E1454FF00007D8BF0127DC
S31508000620E2454FF00006C8BF0126774014D131F9DC
S31508000630144031F91550ACEB0906641B7443AAEB58
S31508000640090694FBF6F42C449C42C2BF1FFA8EF7A7
S31508000650B7FA87F74FEA571E464608F101080FFA18
S3150800066088F58542D2DB7546E8B2BDE8F08700BF5B
S3150800067070B52DED028B064608461C4615460EF04B
S3150800068082F841EC180B30460EF07DF841EC110B60
S31508000690B0EE480AF0EE680A0EF02EFC51EC100B8C
S315080006A09FED110B53EC102B0DF0ADFF9FED100BCA
S315080006B053EC102B0DF035FF0EF083F8A5420146DA
S315080006C005DAA9420BDBA14209DC012008E0A942B0
S315080006D04FF0010004DAA142C8BF002000E0002064
S315080006E0BDEC028B70BD00BF1F85EB51B81E0940DB
S315080006F000000000008066402DE9F041804640B2C7
S31508000700002831D43F292FD802EB0800802803EBB4
S3150800071001006FF07F0788BFA7EB0802402888BF53
S31508000720C1F1400351FA83F0013883B200EB53302C
S31508000730C710B7EBD10F17D3CC0840F2100108EB5E
S31508000740C410C2F200010D18D6B200BFE0B241468D
S31508000750FFF711FF28463146FFF782FDBC4204F138
S31508000760010405F18005F1DBBDE8F0812DE9F047CC
S3150800077047B2002F37D43F2935D85F18402F88BF96
S31508000780C1F1400313F0FF0F2DD051FA83FC131863
S3150800079040F2100A6FF07F07802B88BF3A1A50FA8A
S315080007A082F34FEA02684FF0010EC2F2000A894648
S315080007B0B8F1000F11D009F007020EFA02F2D6437B
S315080007C0C9080246074600BF0AEBC115AC5C0137EB
S315080007D03440AC54FAB29342F6D809F101095FFAEB
S315080007E089F18C45E4D8BDE8F08740F21001002075
S315080007F0C2F20001002200BF8B5CDB438B5401323E
S31508000800802AF9D10130082801F1800108BF704714
S31508000810F0E72DE9F04747B2002F36D43F2934D800
S315080008205F18402F88BFC1F1400313F0FF0F2CD08B
S3150800083051FA83FC131840F2100A6FF07F07802BD9
S3150800084088BF3A1A50FA82F34FEA02684FF0010E4F
S31508000850C2F2000A894600BFB8F1000F0FD009F0AE
S3150800086007020EFA02F6C908024607460AEBC11540
S31508000870AC5C01377440AC54FAB29342F6D809F12D
S3150800088001095FFA89F18C45E6D8BDE8F08780B59D
S3150800089082B0062B0CD0082B1AD140F21603C0F6EC
S315080008A0010303EB0212A2F5007C082210230BE0D9
S315080008B04FF6DC5302EB4202C0F6000303EB42029A
S315080008C0A2F1C00C06220823CDF800C000F002F8F9
S315080008D002B080BD2DE9F04F83B0054640B200282E
S315080008E053D40E463F2950D8284631461F469246CD
S315080008F0FFF73CFF781E81B200EB5130C010029022
S315080009002846802D28BF80208038019040F21000AC
S31508000910C2F20000284406F0070980304FEAD60BD9
S31508000920C9F1080E009000200025BAF1000F27D063
S31508000930009A5BFA85F402EBC4170C9AE9B21AFB23
S315080009400126019958445446D1B107281DD896F86E
S31508000950008017F880CC08FA09F343EA0C03072845
S3150800096007F8803C05D033783A7823FA0EF31A4311
S315080009703A700131013C07F1010706F10106E3D19E
S3150800098001350299E8B28142CFD203B0BDE8F08FB3
S315080009902DE9F0419046127892B11C460E4607465C
S315080009A0002500BF05FB0470D2B2C0B2314623460B
S315080009B0FFF76DFF0135E8B218F80020002AF1D1DB
S315080009C0BDE8F081B3B32DE9F04F81B00A9D4CF62E
S315080009D0CD4B1C4690468A460746A3F101090026D8
S315080009E0CCF6CC4BF04300190AD00120494600BF8B
S315080009F000EB800001398E424FEA4000F8D100E052
S31508000A000120B8FBF0F02B46A0FB0B12D20802EB34
S31508000A10820206FB0571A0EB420040F03000C2B22C
S31508000A20C8B25146FFF733FF0136A642DAD101B004
S31508000A30BDE8F04F70472DE9F04F81B0DDF828800A
S31508000A401C4615468A46002A074604D42B224346E6
S31508000A50FFF71DFF04E02D224346FFF718FF6D42FE
S31508000A605CB34CF6CD4BA4F101090026CCF6CC4B71
S31508000A70F04300190AD00120494600BF00EB800068
S31508000A8001398E424FEA4000F8D100E00120B5FB5B
S31508000A90F0F00136A0FB0B12D20802EB820206FB2D
S31508000AA00871A0EB420040F03000C2B2C8B251460D
S31508000AB04346FFF7ECFEA642DAD101B0BDE8F08F57
S31508000AC06BB32DE9F047089D1C4690468A460746B3
S31508000AD0A3F10109002600BFF043001908D0012040
S31508000AE0494600BF01398E424FEA0010FAD100E0AC
S31508000AF00120B8FBF0F006FB057100F00F0000F1CD
S31508000B0037020A2838BF00F13002C8B251462B46D0
S31508000B10FFF7BDFE0136A642DED1BDE8F0477047B5
S31508000B2053B32DE9F04F81B00A9D1C4690468A467C
S31508000B300746A3F1010900264FF0180BF0430019E8
S31508000B4008D00120494600BF01398E424FEA4000CD
S31508000B50FAD100E00120B8FBF0F206FB05706BF352
S31508000B605F02C0B251462B46FFF791FE0136A642F8
S31508000B70E4D101B0BDE8F04F704700BF00BF00BF29
S31508000B802DE9F04F81B02DED028B84B0B0EE408A8E
S31508000B90F0EE608A9FED3C0B1C4692468B46109DF4
S31508000BA0814651EC180B53EC102B0DF0B6FD80B1B5
S31508000BB0484659462D222B46FFF769FE8DED028BD6
S31508000BC09DF80F0080F080008DF80F009DED028BD8
S31508000BD005E0484659462B222B46FFF758FE4FF0AC
S31508000BE00105019434B100BF05EB8501013C4FEACC
S31508000BF04105F9D158EC186B304641460DF000FE18
S31508000C0007460DF0D1FD02460B46304641460DF02B
S31508000C1082FC064628460C460DF0C6FD02460B46E3
S31508000C20304621460DF07DFC41EC100B0EF064FABF
S31508000C3051EC100B0DF0E4FD0646B0FBF5F0109CE8
S31508000C40C21904EB0900C0B2594653460094FFF78F
S31508000C50B9FE0AF1010010FB0490C0B259462E22D3
S31508000C602346FFF714FE0AF1020010FB0490019BCD
S31508000C70C0B2594632460094FFF7A4FE04B0BDEC54
S31508000C80028B01B0BDE8F08F0000000000000000F4
S31508000C902DE9F04F83B0019111789346002200297F
S31508000CA0029251D04FF6E047A0F1100A002402AE96
S31508000CB0C0F60007002500200228315422D33978CF
S31508000CC030444FF0000980F80290F9B138463146B1
S31508000CD00DF072FBC0B14FF0000800BF08F1010823
S31508000CE05FFA88F94FEAC90050FA88F017F8201019
S31508000CF061B107EB800031460DF05EFB0028EDD1AF
S31508000D0004E000BF013019E04FF000094AF6AB21B4
S31508000D10601CCAF6AA21A0FB010101F01E0009EB1E
S31508000D20C90107EB81010AEBC0000C1D0199C0B28D
S31508000D30102210230094FFF7CDFD00200135ECB2F8
S31508000D401BF804100029B7D103B0BDE8F08FF0B541
S31508000D5089B00DF1060714460D4606460EAA384612
S31508000D60194600920DF032FF304629463A46234688
S31508000D70FFF70EFE09B0F0BD42B2002A12D43F2991
S31508000D8010D840F2100301F0070201F0F801C2F290
S31508000D90000303EB01114FF0010C0B5C0CFA02F295
S31508000DA01A430A54704742B2002A4FF0000210D480
S31508000DB03F290ED86FF0700240F2100302EA0112C2
S31508000DC0C2F200031A44105C01F00701C84000F0A3
S31508000DD00102104670472DE9F04F83B099421FD1A2
S31508000DE01346904238BF034688BF024601F0070003
S31508000DF0012740F2100607FA00F0CF08C2F20006F3
S31508000E0006EBC7173F2906D813F0800603D1DEB2D2
S31508000E10BD5D0543BD559EB201339642F2D3DDE072
S31508000E20904223D11A4640F21005994238BF0A4625
S31508000E3088BF0B4641B24FF0010C6FF0700EC2F23C
S31508000E40000500BF00290CD4D4B23F2C09D804F001
S31508000E5007070EEA04142C44265C0CFA07F73E43EF
S31508000E60265494B201329C42ECD3B7E002D9964696
S31508000E701A4603E0864610460A461946C2F1000C91
S31508000E808A424FF0000867460E4688BF4FF00108B1
S31508000E904D428A4284BF17462E460023BC19BEF12E
S31508000EA07F0F4FF00007A0EB0E0688BF01273F2AE9
S31508000EB088BF0123A64243EA0703CDE900640DDA99
S31508000EC0700002908A429CBF0D469446371BC4EBBD
S31508000ED0460AE1462846F4468BB123E06500A71B7F
S31508000EE08A42C6EB440A4FF00008029502D92BB194
S31508000EF0F14617E09446F1460BB113E0F1466FF060
S31508000F00700540F2100405EA0215C2F200042C44EA
S31508000F1002F00703012614F80E5006FA03F32B43D2
S31508000F2004F80E300FFA80FB0FFA89F35B4555DAA1
S31508000F300FFA8AF509F10103B5F1FF3F029D4C4608
S31508000F40C4BF7D000CF1010CB8F1000F0FFA83F94C
S31508000F5008D0E3B2C02B3ED31CF080033BD1E44358
S31508000F60634623E08A4209D95FEA096333D4CCF1A0
S31508000F700004E3B23F2B4B4618D92CE0DDE90030DC
S31508000F80834209DA5FEA0C6325D45FFA89F33F2BBB
S31508000F9063464C460AD91EE05FEA09631BD45FFA2A
S31508000FA08CF33F2B4B46644615D800BF40F2100021
S31508000FB004F0F80EC2F20000DBB200EB0E1604F0E5
S31508000FC007049646F25C3846012707FA04F42243DA
S31508000FD00746F2547246D945AA44A9DB03B0BDE8D0
S31508000FE0F08F2DE9F043079F02EB000C47B3002A68
S31508000FF000F08C8040F2100803EB01094FF0010E57
S31508001000C2F20008054600BFABB10E466FB2002F0C
S315080010100DD4F7B23F2F0AD806F0F80708EB0717E2
S3150800102006F007043A5C0EFA04F422433A540136F1
S31508001030F2B29145EAD80135E8B28445E4D865E0CC
S315080010408AB301F00702012505FA02FECA18013A19
S315080010505FFA82F902F0070205FA02F840F2100573
S31508001060CE084FEAD902C2F2000505EBC21205EB1B
S31508001070C6160546074600BF3F2906D87CB2002C8F
S3150800108003D4745D44EA0E047455B9F13F0F06D8CB
S315080010907CB2002C03D4545D44EA08045455013745
S315080010A0FDB2AC45E8D88BB3ACF1010240F21008AA
S315080010B003EB010E53B2D2B244B24FF0010CC2F2A6
S315080010C0000800BF002C0DD4CEB23F2E0AD801F07E
S315080010D0F80608EB061601F00707355C0CFA07F761
S315080010E03D433554002B0DD4CDB23F2D0AD801F01F
S315080010F0F80508EB051501F00706AF5C0CFA06F6CD
S315080011003E43AE540131CDB2AE45DBD8BDE8F083DF
S315080011102DE9F04F87B005461298DDE910A89946E3
S3150800112017460C460028ADF81650ADF81820ADF84D
S315080011301AA0ADF81010ADF81230ADF8148052D0E0
S31508001140AF422E4638BF3E46564528BF5646A145AD
S31508001150204638BF4846404528BF4046AF42029021
S3150800116088BF3D46554598BF5546A14588BF4C465C
S3150800117040F2100A444598BF44460DF1160804AFDC
S31508001180C2F2000A039500BFDDF808B0F5B200BF49
S315080011905FFA8BF9032041463A462B46CDF8009074
S315080011A0FFF727FA88B170B200280ED4B9F13F0FBD
S315080011B00BD80BF0F8000AEB00100BF00701425DA4
S315080011C0012303FA01F1114341550BF1010B5FFAB3
S315080011D08BF0A042DCD90136039DF0B2A842D3D9E0
S315080011E007B0BDE8F08F284621463A464B46FFF73A
S315080011F0F2FD2846214652464346FFF7ECFD38469F
S3150800120049465246434607B0BDE8F04FFFF7E3BDEF
S315080012102DE9F04F8AB04FFA80FC40F21009924649
S31508001220BCF1000FC2F20009019310D40AEB0103C6
S31508001230DFB23F2F0BD803F0F80709EB071703F0C7
S31508001240070301263D5C06FA03F32B433B54BCF126
S31508001250000F10D4A1EB0A03DFB23F2F0BD803F01F
S31508001260F80709EB071703F0070301263D5C06FAA2
S3150800127003F32B433B543F2911D80AEB00035BB217
S31508001280002B0CD401F0F805DBB209EB051501F0CB
S3150800129007070126EC5C06FA07F72743EF543F29B0
S315080012A011D8A0EB0A035BB2002B0CD401F0F805A9
S315080012B0DBB209EB051501F007070126EC5C06FA17
S315080012C007F72743EF54019BD3B1CAF100035345EF
S315080012D016DA0127BCF1000F0ED45E18F5B23F2DC1
S315080012E00AD806F0F80509EB051506F007062C5C82
S315080012F007FA06F626432E5401331EB25645E9DB95
S31508001300BAF1000F00F07181CAF101034FF0000C29
S3150800131000220892009000BF0CF1010706931B04F7
S31508001320AAF101043A4623B24CBF5446D21A049293
S315080013303A1852B2002A04EB0105099214D4EAB20B
S315080013403F2A11D8099A05F0F8035FFA82F809EBE3
S31508001350031205F0070612F808E0012303FA06F659
S3150800136046EA0E0602F8086007950FFA84FA7D1811
S315080013700AEB0002EBB23F2B4FFA82FB039312D81B
S31508001380BBF1000F0FD405F0F8065FFA8BFE09EBE8
S31508001390061605F0070416F80E30012202FA04F4C0
S315080013A0234306F80E30C31B4FFA83F8B8F1000F33
S315080013B0A1EB0A09029515D45FFA89F33F2B11D8D8
S315080013C040F2100209F0F805C2F200025FFA88F34B
S315080013D002EB051209F00706D45C012505FA06F6A4
S315080013E02643D654CC1BA0EB0A000597E7B23F2F3D
S315080013F04FFA80FE13D8BEF1000F10D440F2100247
S3150800140004F0F806C2F200025FFA8EF002EB061646
S3150800141004F00705325C0123AB40134333540998A3
S31508001420002817D45FFA89F03F2813D8099840F2A4
S31508001430100209F0F803C2F20002C0B202EB03136D
S3150800144009F0070613F80090012505FA06F646EA9C
S3150800145009061E5440F210093F2FC2F2000910D89F
S31508001460BBF1000F0DD404F0F8035FFA8BF009EB1B
S31508001470031304F007071E5C012404FA07F7374331
S315080014801F54B8F1000F12D40798C0B23F280ED8DF
S31508001490079A5FFA88F002F0F80309EB031302F0E3
S315080014A007071E5C012404FA07F737431F540398FD
S315080014B03F2811D8BEF1000F0ED4029A5FFA8EF0BB
S315080014C002F0F80309EB031302F007071E5C012478
S315080014D004FA07F737431F540198002876D0CAF153
S315080014E0000000B282453BDD099A5FFA88F75FFA89
S315080014F082F900BF099A4618002A17D4F5B23F2D7B
S3150800150014D840F2100206F0F805C2F2000202EB07
S31508001510051506F0070415F8093052464FF0010A7A
S315080015200AFA04F49246234305F80930B8F1000F85
S3150800153012D4F3B23F2B0FD840F2100206F0F8038C
S31508001540C2F2000202EB031306F00704DD5D012672
S3150800155006FA04F42C43DC55013000B25045C9DBC9
S31508001560089840F21009C0435FFA8EF85FFA8BF7C5
S31508001570C2F20009BEF1000F00EB010610D4F4B266
S315080015803F2C0DD806F0F80409EB041406F00705FD
S3150800159014F80830012202FA05F52B4304F808303E
S315080015A0BBF1000F0ED4F3B23F2B0BD806F0F803AD
S315080015B009EB031306F00704DD5D012202FA04F4C1
S315080015C02C43DC5503B201309C45D3DC0898049AB9
S315080015D0013008900698DDF814C000B200EB42000E
S315080015E0431C0098D445FFF697AE0AB0BDE8F08FC5
S315080015F02DE9F04F81B02DED028B8CB00B90189C25
S3150800160003FB03F09B4616468A4606900DF0BBF888
S31508001610814606FB06F00D4607900DF0B4F8CBF1AF
S3150800162000060746304688460DF0ADF89FEDD20B0A
S3150800163053EC102BCDE900230CF0CCFE02460B46EA
S31508001640384641460A97CDF820800CF06AFF4A468C
S315080016502B4603950CF0BEFE0DF0EBF8804604B35E
S31508001660BBF1000F1DD00B98012140B2002814D4FD
S3150800167006EB0A02D3B23F2B0FD840F2100702F04E
S31508001680F803C2F2000707EB03130B9F02F00702E9
S31508001690DD5D01FA02F22A43DA55013632B25A45BD
S315080016A0E4DB0B990BEB0A0049B2C2B200294FF0F2
S315080016B0000348BF01233F2A4FF0000288BF0122DA
S315080016C01A434FF0000311D140F2100700F0F80654
S315080016D0C2F2000707EB06160B9F00F007054FF04E
S315080016E0010CF45D0CFA05F52543F5550029AAEB1E
S315080016F00B014FF00006CDB248BF01263F2D88BF2B
S315080017000123334311D140F2100701F0F806C2F263
S31508001710000707EB06160B9F01F007054FF0010CB3
S31508001720F45D0CFA05F52543F55582B940F2100724
S3150800173000F0F802C2F2000707EB02120B9F00F056
S3150800174007000126D55D06FA00F02843D05583B96F
S3150800175040F2100301F0F800C2F200030B9F03EBFE
S31508001760001001F007010122C35D02FA01F11943D5
S31508001770C15558460DF018F89FED810B53EC102B08
S31508001780CDE904320CF026FE0A9A089B0CF0C9FE35
S31508001790039B4A46CDF808900CF0A4FF002840F0B9
S315080017A0F380069C08EE108A00254FF001090027F1
S315080017B0032000EB45010220A0EB4B020798B5EE8B
S315080017C0408A4243F1EE10FAB5EE408A189801FBBA
S315080017D004FCC8BFABF1010BF1EE10FA0FFA8BFB54
S315080017E0C8BF01FB042C002807F101083FD0CBF144
S315080017F0000109B28B453ADD0B98424608EB000317
S31508001800A0EB08054FFA83FEDBB26EB2EDB200BF5D
S31508001810BEF1000F01EB0A0411D4E0B23F280ED83E
S3150800182040F2100204F0F800C2F2000202EB0010C7
S3150800183004F00707C25C09FA07F73A43C254002EB8
S3150800184011D4E0B23F280ED804F0F80004F00702DD
S3150800185040F21004C2F2000404EB0010445D09FAD9
S3150800186002F222434255481C01B25945D0DB0B9877
S315080018704546404441B200290BEB0A0212D4D0B2C5
S315080018803F280FD840F2100602F0F803C2F200060D
S31508001890C8B206EB031302F007071E5C09FA07F73E
S315080018A037431F540B98AAEB0B03401B46B2002E76
S315080018B013D4D8B23F2810D840F2100403F0F80722
S315080018C0C2F20004F0B204EB071703F007053C5C0C
S315080018D009FA05F525433D544546002E12D4D0B2E3
S315080018E03F280FD8F0B240F2100602F0F807C2F20D
S315080018F0000606EB071702F007023E5C09FA02F239
S3150800190032433A54002912D4D8B23F280FD8C8B265
S3150800191003F0F80103F0070240F21003C2F20003D5
S3150800192003EB01110B5C09FA02F21A430A542F461B
S315080019302DB2069C00EE10CA681CB8EEC00A6043B9
S3150800194038EE008A0CF01FFF0646584688460CF00B
S315080019501AFFDDE904320CF03DFD0A9A089B0CF0EB
S31508001960E0FD324643460CF0F3FE00287FF420AF34
S315080019700BE000BF00BF00BF000000000000E03F12
S31508001980000000000000E0BF0027BBF1010FC0F215
S31508001990078138B23D460CF0F6FEDDE900230CF06F
S315080019A019FDDDE90223064688460CF0BAFD079CB8
S315080019B00A90ABF10100089100FB04F148430CF0D2
S315080019C0E2FE074689460A980899324643460CF0CD
S315080019D0A8FD3A464B460CF0FDFC06460698884696
S315080019E060430CF0D0FE02460B46304641460CF0EA
S315080019F092FD0CF01EFF00EE100A1FFA8BF84FF04E
S31508001A000109CDF824A000BFB5EE400A0320F1EE87
S31508001A1010FAA0EB480003DD07990A9548430AE047
S31508001A2029B2022202EB4101079A01355043069A70
S31508001A300A9501FB020008901898A8F1010BD8B383
S31508001A40C8F101055D4537DADDE90A201118821A61
S31508001A504BB2C9B257B2D4B2002B05EB0A0213D463
S31508001A60D6B23F2E10D840F2100002F0F806C2F2A5
S31508001A70000000EB061602F0070C16F801E009FA5A
S31508001A800CF040EA0E007054002F11D4D0B23F2853
S31508001A900ED840F2100602F0F800C2F2000606EB75
S31508001AA0001002F00702065D09FA02F232430255F7
S31508001AB0013528B28345CFDCDDE90A500BEB0A0174
S31508001AC02844CCB23F2C4FFA80FA13D8BAF1000F4B
S31508001AD010D440F2100701F0F802C2F200075FFACC
S31508001AE08AF007EB021201F00703175C09FA03F301
S31508001AF03B431354099A0B98A2EB0B03401BDFB226
S31508001B003F2F42B214D8002A12D440F2100503F02F
S31508001B10F806C2F20005D0B205EB061603F0070C6C
S31508001B2016F800E009FA0CF545EA0E0535540A9D43
S31508001B303F2C11D8002A0FD440F21006D0B201F07B
S31508001B40F802C2F2000606EB021201F00701165C63
S31508001B5009FA01F1314311543F2F13D8BAF1000F96
S31508001B6010D403F0F80103F0070240F21003C2F2A2
S31508001B7000035FFA8AF003EB01110B5C09FA02F223
S31508001B801A430A540898DDF824A001EE100AB8EEA4
S31508001B90C11A30EE010AB8F1010FD8463FF734AF43
S31508001BA00CB0BDEC028B01B0BDE8F08F2DE9F04F0B
S31508001BB08DB01F46169B92460C910646002011468C
S31508001BC03A460797FEF754FDB8B170B2002814D408
S31508001BD00C985044C1B23F290FD840F2100300F0C8
S31508001BE0F801C2F2000303EB011100F0070001221D
S31508001BF08B5D02FA00F018438855CAF10005079A6A
S31508001C00169B00202946FEF733FDC0B170B20028A6
S31508001C1015D40C98A0EB0A00C1B23F290FD840F2A0
S31508001C20100300F0F801C2F2000303EB011100F003
S31508001C30070001228B5D02FA00F018438855079ABF
S31508001C40169B50460021FEF713FDC8B10C983F2895
S31508001C5016D80AEB060040B2002811D40C9B40F2B5
S31508001C60100703F0070103F0F803C2F20007C0B239
S31508001C7007EB031301221F5C02FA01F139431954D9
S31508001C80079A169B28460021FEF7F2FCC8B10C9865
S31508001C903F2816D8A6EB0A0040B2002811D40C9BA0
S31508001CA040F2100703F0070103F0F803C2F2000739
S31508001CB0C0B207EB031301221F5C02FA01F1394394
S31508001CC019541798039638B3554525DA039840F200
S31508001CD0100746B24FF00108C2F20007079A169B92
S31508001CE029B20020FEF7C4FC90B1002E10D40C983F
S31508001CF02844C1B23F290BD800F0F801039B07EB33
S31508001D00011100F00700CA5C08FA00F01043C85435
S31508001D10013528B25045E1DBBAF1000F00F0F08139
S31508001D20CAF101000021002502900004AAF1010071
S31508001D300A9101F1010601B248BF50460FFA80FA2E
S31508001D40304658BF401A079A169B009030B2514643
S31508001D500990FEF78DFCDDF80C80D0B106EB080083
S31508001D6040B2002815D40C995144CAB23F2A10D85B
S31508001D7040F2100301F0F802C2F20003C0B203EB0E
S31508001D80021201F00701135C012707FA01F1194352
S31508001D9011540999079A169B5046FEF769FCD0B16B
S31508001DA00C983044C1B23F2915D80AEB080149B24C
S31508001DB0002910D440F2100300F0F802C2F2000322
S31508001DC0C9B203EB021200F00700535C012707FAB9
S31508001DD000F0184350546FEA0509CAF10000079A43
S31508001DE0169B01B20FFA89F008900B91FEF740FC9A
S31508001DF0D8B1A8EB060040B2002816D40C99A1EB7E
S31508001E000A01CAB23F2A10D840F2100301F0F802BC
S31508001E10C2F20003C0B203EB021201F00701135C21
S31508001E20012707FA01F1194311540B98DDE9072137
S31508001E30169BFEF71DFCD0B10C98801BC1B23F293A
S31508001E4015D8A8EB0A0149B2002910D440F21003AC
S31508001E5000F0F802C2F20003C9B203EB021200F066
S31508001E600700535C012707FA00F0184350540998F5
S31508001E700B99079A169BFEF7FBFBD8B106EB0800F1
S31508001E8040B2002816D40C99A1EB0A01CAB23F2A1F
S31508001E9010D840F2100301F0F802C2F20003C0B2F3
S31508001EA003EB021201F00701135C012707FA01F19F
S31508001EB019431154DDE90721169B5046FEF7D8FB56
S31508001EC0D0B10C98801BC1B23F2915D80AEB08017E
S31508001ED049B2002910D440F2100300F0F802C2F209
S31508001EE00003C9B203EB021200F00700535C012796
S31508001EF007FA00F0184350540898079A169B51465B
S31508001F000195FEF7B5FBD0B1A8EB060040B2002854
S31508001F1015D40C995144CAB23F2A10D840F210037E
S31508001F2001F0F802C2F20003C0B203EB021201F09C
S31508001F300701135C012707FA01F1194311540B989D
S31508001F400999079A169BFEF793FBD0B10C98304473
S31508001F50C1B23F2915D8A8EB0A0149B2002910D405
S31508001F6040F2100300F0F802C2F20003C9B203EB14
S31508001F70021200F00700535C012707FA00F0184325
S31508001F80505417980496079E002800F0AD800B98C9
S31508001F90824557DDDDE903120B9C501843B2C0B2E7
S31508001FA00590881A45B25FFA80F8A346069300BFE3
S31508001FB027B20998169B39463246FEF759FBD8B11F
S31508001FC00698002818D40C985844C1B23F2913D84B
S31508001FD040F2100200F0F801C2F200022E46059DFA
S31508001FE002EB011100F007004A5D012303FA00F035
S31508001FF0104348553546079E0898169B394632467B
S31508002000FEF736FBC0B1002D16D40C985844C1B261
S315080020103F2911D840F2100200F0F801C2F200027E
S3150800202002EB011100F0070011F80820012303FA5A
S3150800203000F0104301F8080004F1010B0FFA8BF4C5
S315080020405445B5DB039A5146A2EB0A004FFA80FBCA
S31508002050C5B20AEB020044B25FFA80F80FFA89F7B4
S315080020600B98169B39463246FEF702FBB8B1BBF110
S31508002070000F14D40C984844C1B23F290FD840F237
S31508002080100200F0F801C2F2000202EB011100F0A2
S3150800209007004A5D012303FA00F010434855169BD2
S315080020A0504639463246FEF7E3FAC0B1002C16D43C
S315080020B00C984844C1B23F2911D840F2100200F0EA
S315080020C0F801C2F2000202EB011100F0070011F854
S315080020D00820012303FA00F0104301F808000A98C3
S315080020E009F10109B842B9DC0298009900B2019DCC
S315080020F000EB41000499013501305145FFF614AE55
S315080021000DB0BDE8F08F0000F0B587B0002541F2AC
S315080021104C000695C4F20200016840F6000441F03E
S31508002120040101600168C4F6000401F0040101918C
S3150800213001990168012241F02001016001683026F9
S3150800214001F02001019101990168012741F001017F
S3150800215001600068302100F00100019001982046D6
S3150800216001F078F902A92046CDE90267CDE90457BE
S3150800217001F01AF807B0F0BD10B540F2104447F662
S31508002180000042F27211C2F20004C4F20000C0F26A
S3150800219080010022012384E80F0004F110001421B5
S315080021A00CF0FFF8204601F083F908B100F01DF99C
S315080021B040F21040C2F20000002104F0D3FA08B140
S315080021C000F013F940F21040C2F20000002104F0BA
S315080021D0E9FA08B100F009F90420C4F2010001681F
S315080021E041F48001016010BD2DE9F0439BB004461F
S315080021F001A8043050210CF0D4F8206847F60001F5
S31508002200C4F20001884248D14FF4807801A8CDF87D
S31508002210048005F057FD08B100F0E7F841F24C06D6
S31508002220C4F20206306816AC40F00400306030682C
S315080022304FF0120900F00400169016983068012530
S3150800224040F0010030603068032700F00100169066
S3150800225016984FF40070169008201A9040F6000061
S31508002260C4F600002146CDF85C901895199700F041
S315080022709BFF02201A904FF090402146CDE916891F
S31508002280CDE9185700F090FFF06840F08040F06004
S31508002290F06800F08040009000981BB0BDE8F0831D
S315080022A0006847F60001C4F20001884218BF70476B
S315080022B080B541F25800C4F20200016821F080415D
S315080022C0016040F60000C4F600004FF4007101F00A
S315080022D03AF84FF090404FF48071BDE8804001F025
S315080022E032B8000000F084F900F046F8FFF70CFF5A
S315080022F000F010F9FFF740FFFDF7D9FF16A20020FE
S31508002300002108230025FEF743FB15A20020102113
S315080023100823FEF73DFB14A2002020210823FEF720
S3150800232037FB13A2002030210823FEF731FBFEF706
S31508002330F0F840F2DC4640F60004C2F20006C4F6A5
S31508002340000400BF3088B0F5FA7FFBD32046202171
S31508002350358001F085F8F5E7565F696E3A000000AA
S31508002360495F696E3A000000565F6F75743A00005F
S31508002370495F6F75743A000070B594B006AC04F105
S31508002380080014210CF00DF80020002504F08BFB42
S31508002390012006904FF480300521079002200F9106
S315080023A044210D900326CDE91010CDE912002046F0
S315080023B00E9604F0F3FF20B1EFF3108072B600BF5B
S315080023C0FEE70F20CDE9010601A80421CDE9035552
S315080023D0059505F024FA20B1EFF3108072B600BF18
S315080023E0FEE705F043FC14B070BDEFF3108072B63B
S315080023F0FEE70068B0F1804F18BF704740F2DC4036
S31508002400C2F20000018801310180704782B041F2B2
S315080024105800C4F20200816841F0010181608168B8
S3150800242001F0010101910199016841F080510160B3
S31508002430006800F080500090009802B004F047BF92
S3150800244005F02FFCFEE700BFFEE700BFFEE700BF72
S31508002450FEE700BFFEE770477047704700F018B9FF
S3150800246040F26C40C2F2000008F0D2BE4EF6885028
S31508002470CEF20000016841F470010160704741F234
S315080024800800C4F20200016801F00C0240F20401DF
S31508002490042AC2F2000125D0082A28D00C2A2CD1F9
S315080024A04268436802F00302C3F3031303F1010C05
S315080024B047F64003C0F27D13022A04BF42F20043E6
S315080024C0C0F2F4034268B3FBFCFC4368C2F306227D
S315080024D002FB0CFCC3F34163022202EB4302BCFB82
S315080024E0F2F208E042F20042C0F2F40203E047F6D4
S315080024F04002C0F27D120A6000E00A6800684FF6E2
S31508002500C843C0F30310C0F60003185C22FA00F0B3
S315080025100860704780B588B040F26C400021C2F26E
S31508002520000040F2E73C0791CDE9051102914FF012
S315080025308042A923C0E9021C01618021C0E9002369
S31508002540816106F033F908B1FFF74FFF4FF4805069
S31508002550049040F26C40C2F2000004A909F08BFE18
S3150800256008B1FFF742FF00200190039040F26C404B
S31508002570C2F2000001A90BF026FC08B1FFF735FFEF
S3150800258040F26C40C2F2000006F064FA08B080BD62
S315080025900068B0F1804F18BF704780B582B041F22D
S315080025A05800C4F202000168002241F001010160EE
S315080025B00068002100F00100019001981C2000F03D
S315080025C0ABF91C2002B0BDE8804000F0D0B9006825
S315080025D0B0F1804F18BF704741F25801C4F20201AA
S315080025E0086820F001021C200A6000F0CFB900003C
S315080025F080B5032000F080F90F2000F007F808B135
S31508002600012080BDFFF702FF002080BDB0B540F273
S315080026100801C2F200010968F9B1044640F2040053
S31508002620C2F200004FF47A720068B2FBF1F1B0FB17
S31508002630F1F000F0D3F90F2C4FF001050ED868B968
S315080026404FF0FF3021460022002500F065F940F2E0
S315080026500C00C2F20000046000E001252846B0BD67
S31508002660704780B541F22800C4F202004FF0FF31EE
S31508002670002201610261816182610160026041603C
S3150800268042608160826000F002F8002080BD7047D9
S3150800269040F2080040F2E041C2F20000C2F2000136
S315080026A000680A6810440860704740F2E040C2F2C9
S315080026B000000068704740F20C00C2F20000006893
S315080026C07047B0B540F20804C2F200042568854296
S315080026D00BD040F20C01C2F20001096820600846DE
S315080026E0FFF794FF08B12560B0BD0020B0BD40F2E9
S315080026F00800C2F2000000687047B0B50446FFF74C
S31508002700D4FF054640F20800C2F200000068611CCA
S3150800271018BF0444FFF7C9FF401BA042FAD3B0BD57
S315080027204EF21000CEF20000016821F002010160AD
S3150800273070474EF21000CEF20000016841F0020127
S315080027400160704740F20030C0F20210704742F252
S315080027500000CEF204000068000C704742F2000048
S31508002760CEF2040000686FF31F30704747F29050AE
S31508002770C1F6FF700068704747F29450C1F6FF70C3
S315080027800068704747F29850C1F6FF7000687047B6
S3150800279042F20400CEF20400016841F00101016032
S315080027A0704742F20400CEF20400016821F00101EC
S315080027B00160704742F20400CEF20400016841F05D
S315080027C002010160704742F20400CEF2040001687B
S315080027D021F002010160704742F20400CEF20400C3
S315080027E0016841F004010160704742F20400CEF22C
S315080027F00400016821F00401016070471820C4F242
S315080028000100CA21C1605321C160016841F001017C
S31508002810016070470020C4F20100016841F480712C
S31508002820016070470020C4F20100016821F480713C
S31508002830016070473021C4F201010A6822F03002B3
S315080028401043086070473021C4F201010A6822F07B
S3150800285002021043086070473421C4F201010A6875
S3150800286022F03F02104308607047B0B53025C4F225
S315080028700105286840F001002860FFF716FF0446A6
S315080028802868000706D4FFF710FF001B0B28F7D3AC
S315080028900320B0BD0020B0BD3020C4F2010001689D
S315080028A021F00101016070470420C4F201000168AB
S315080028B041F48071016070470420C4F20100016888
S315080028C021F48071016070470420C4F20100016898
S315080028D041F40071016070470420C4F201000168E8
S315080028E021F40071016070472021C4F201010A68D1
S315080028F010430860704700004EF60C51CEF20001F6
S315080029000A684FF6FF031A4060F30A2242F0806015
S3150800291040F0FD700860704710B54EF60C5CCEF2BC
S31508002920000CDCF80030C3F3022E8EF00704042CEA
S3150800293028BF0424BEF103034FF0FF3E0EFA04F449
S3150800294038BF0023A14399400EFA03F39A43114373
S3150800295000F00F0200F160430901043A03F56443ED
S315080029606244002848BF02F10C03197010BD002804
S315080029700BD400F01F01012202FA01F14EF20012F7
S315080029804009CEF2000242F82010704700280FD402
S3150800299000F01F01012202FA01F14EF280124009ED
S315080029A0CEF2000242F82010BFF34F8FBFF36F8FAD
S315080029B0704700F000F84EF60C50BFF34F8FCEF27A
S315080029C000000168042201F4E061C0F2FA521143E2
S315080029D00160BFF34F8F00BF00BFFDE7411E002017
S315080029E0B0EB116F1CBF012070474EF21002CEF2F9
S315080029F0000251604EF62351CEF20001F0230B700F
S31508002A0007219060116070474EF60C50CEF2000018
S31508002A100068C0F30220704710B500F1604C4EF60E
S31508002A2014540CF5644CCEF2000401F0070100F0D2
S31508002A300F0E002848BF0EEB040C81F007049CF823
S31508002A400000042C28BF042403394FEA101C38BFA1
S31508002A5000214FF0FF3E2CFA01FC0EFA01F10EFAA6
S31508002A6004F4C9432CEA040401EA1010146018603F
S31508002A7010BD00280BD400F01F01012202FA01F153
S31508002A804EF200224009CEF2000242F820107047AA
S31508002A9000280DD44EF200224109CEF2000252F867
S31508002AA0211000F01F0021FA00F000F00100704725
S31508002AB00020704700280BD400F01F01012202FAFB
S31508002AC001F14EF280224009CEF2000242F82010AF
S31508002AD0704700280DD44EF200324109CEF20002AA
S31508002AE052F8211000F01F0021FA00F000F0010052
S31508002AF07047002070474EF21001CEF200010A68B6
S31508002B00042822F0040208BF04320A607047AFF3B3
S31508002B10008070474EF6945140F00100CEF2000155
S31508002B200860BFF34F8FBFF36F8F70474EF6945010
S31508002B30CEF200000021BFF35F8F01607047F0B549
S31508002B4002784EF6985C4378CEF2000CCCF800304A
S31508002B50E2B14368CCF80430037BC17A90F80AE006
S31508002B6042EA0372447B42EA0161857B41EACE412F
S31508002B70C67B41EA8441477A41EA4541007A41EAFF
S31508002B80064141EA072141EA400002E00020CCF86C
S31508002B900400CCF80800F0BD00284FF0010100F051
S31508002BA089802DE9F04740F2000CC4F2020C036854
S31508002BB04FF6F8320CF5816ECBF6FD72734538BFC9
S31508002BC002F580624CF6CD441A44CCF6CC44A2FBFE
S31508002BD0042803F0FC02A2F10802A2FB04290CF562
S31508002BE080656FF00304D0E90262D0F810A03CBFFC
S31508002BF00025C4F2020504EA9804C0E91154022526
S31508002C0085621D6847F6F07725EA07073A4347695C
S31508002C1042EA0A0285693A43C7692A43056A3A437A
S31508002C202A4332431A600CF50262734538BF0CF525
S31508002C300062A3180CF508620265C9F3041240F68F
S31508002C40840C01FA02F2B6F5804FC4F2020CC36492
S31508002C50426505D1002141601960CCF800201CE0CE
S31508002C6041685FFA81FE013903294FF00001C3F874
S31508002C7000E0CCF8002010D8AEF101020CEB820778
S31508002C8047F87C1F02F01F01012202FA01F30CF13A
S31508002C90BC023946CCF8C03001E00022002300F11E
S31508002CA0580C8CE80E000021012201648262416200
S31508002CB0BDE8F0470846704700284FF0010C6ED073
S31508002CC02DE9F04F40F20443D0E9002EC4F2020386
S31508002CD04FF6F8311C1DCBF6FD71A24238BF01F53F
S31508002CE080614CF6CD451144CCF6CC45A1FB051BBD
S31508002CF002F0FC01A1F10801A1FB0519116840F2D7
S31508002D00000840F6200A21F00101C4F20208C4F2C4
S31508002D10020A116008F580616FF003073CBF0021C5
S31508002D20C4F20201554607EA9B071C26A24238BF91
S31508002D3003F57F75C0E91117002106EA9B061160A5
S31508002D400CFA06F6A24207EB050238BF08F104039F
S31508002D501E60C2640AF160020265C9F304120CFA25
S31508002D6002F3AEF10102032A43657951CAF86430C9
S31508002D7008D801270AEB820307FA02F2C3F8E01023
S31508002D80CAF82421C0E916110166C0E90C11C0E988
S31508002D900E11016481624162BDE8F04F00E0012135
S31508002DA008467047B0B50446406A01281BD0012082
S31508002DB06062A06A012814D102200025A062256459
S31508002DC0D4F800C0DCF8000020F00100CCF80000C0
S31508002DD0204600F00BF82068016841F00101016007
S31508002DE002E00020606202252846B0BD70B5D0E931
S31508002DF014C4D0F858E0CCF80440BEF1000F1CBF4C
S31508002E00D0E9174CC4F804C0D0E911CE0468866826
S31508002E100EF01F00012505FA00F0CCF8040008465C
S31508002E206360102E04BF10460A46A060E26070BDBB
S31508002E3010B50446406A01281CD001206062A06AC9
S31508002E40012815D10220A06200202064D4F800C011
S31508002E50DCF8000020F00100CCF800002046FFF75F
S31508002E60C5FF2068626B016832B141F00E0109E0C6
S31508002E7000206062022010BD21F004010160016893
S31508002E8041F00A010160E16C0A68D20303D50A68B9
S31508002E9042F480720A60A16D19B10A6842F4807220
S31508002EA00A60016841F001010160002010BD014679
S31508002EB0806A022827D180B50868D1E911CECA6C84
S31508002EC0036823F00E030360136823F4807313600A
S31508002ED0026822F0010202600EF01F00012202FAC7
S31508002EE000F0CCF80400D1E914205060886D30B1A8
S31508002EF0026822F480720260D1E91702426000205B
S31508002F00BDE8804002E004200864012001228A62AC
S31508002F1000224A627047816A02292DD180B501686C
S31508002F20D0E911CEC26C0B6823F00E030B600B6858
S31508002F3023F001030B60116821F4807111600EF013
S31508002F401F02012101FA02F2CCF80420D0E914325A
S31508002F505A60826D32B1136823F480731360D0E926
S31508002F60172353608162C26B002141620AB1904700
S31508002F700021BDE8804005E004210164012100220A
S31508002F8081624262084670472DE9F04381B00446E3
S31508002F90806A02283AD12068006880063BD4A06C73
S31508002FA0884600F01F0004211646B8F1000F08BF36
S31508002FB0022101FA00F5FFF778FB616C0A682A42DC
S31508002FC02ED0A06D68B1D4E9172317683B4208D004
S31508002FD0076847F4807707605360206C40F4806088
S31508002FE02064D4E9140203681A4204D04260206CB3
S31508002FF040F400702064A06CB8F1000F00F01F00C8
S3150800300024D0042202FA00F0486025E00420206457
S315080030100020606202E04FF48070206401202AE0FC
S315080030208146771C0868A26C02F01F02D040000790
S3150800303015D43FB1FFF739FBBEB1A0EB0900B0428A
S3150800304013D8616C08682842ECD0BAE7022202FA63
S3150800305000F048600120A062002060620BE00120B9
S3150800306000FA02F24A60206402E02020206401206F
S315080030700021A062616201B0BDE8F083B0B5D0E975
S3150800308011C30268DCF8001003F01F030424D2F809
S3150800309000E09C400C4218BF1EF0040519D102241A
S315080030A09C400C4218BF1EF002051ED1D9400907E4
S315080030B01AD51EF0080117D0116821F00E0111600B
S315080030C0012101FA03F2CCF8042001648162816BC4
S315080030D017E01168890603D4116821F0040111600C
S315080030E0CCF80440416B81B9B0BD1168890605D496
S315080030F0116821F00A01116001218162CCF80440AF
S31508003100016B002200294262EED0BDE8B0400847B4
S31508003110436A012B01D1022119E0836A012B08D1E8
S31508003120032906D8DFE801F002070A0D00F130018D
S3150800313009E0012109E000F1340104E000F1380159
S3150800314001E000F13C010A600021002242620846C3
S31508003150704700BF426A012A01D102211DE0826A36
S31508003160012A09D1042907D8DFE801F003080B0E64
S315080031701000002101630EE001210CE000214163EB
S3150800318009E00021816306E0002103E00021C0E98F
S315080031900C118163C1630022426208467047806A47
S315080031A07047006C704700002DE9F04F82B00D683B
S315080031B0002D00F0C58000F13847860546EA9727B6
S315080031C041F20046C4F60006062240F2004EB0421E
S315080031D008BF0522C4F2010E052F38BF3A464FF044
S315080031E0000C012400270026009200BF04FA06FB03
S315080031F015EA0B0800F09A80D1F804A003230AF018
S3150800320003056A1EBB40012A6FEA030910D88268C3
S31508003210CB6802EA0902BB401A4382604268CAF3D5
S31508003220001322EA0B02B3401A43426004E000BFCF
S31508003230032D01D103251FE0C2688B6802EA090243
S31508003240BB401A43022DC26016D16FF0030202EA90
S31508003250560202440CF01C050F23D2F820A003FAEC
S3150800326005FB0B692AEA0B0AAB4043EA0A03136219
S31508003270D1F804A00AF00305026805FA07F302EA82
S3150800328009021A431AF4403F02604FD041F2600324
S31508003290C4F202031A684FF6084A42F001021A609D
S315080032A01A68CFF6FF7A02F001020192019A26F017
S315080032B00302724452F80A900CF00C050F23009C86
S315080032C0AB4029EA030304FA05F52B4342F80A3012
S315080032D0DEF808204B6842EA080540F20C49DC0291
S315080032E058BF22EA0805CEF80850C4F20109D9F8F1
S315080032F000209D0242EA080458BF22EA0804C9F8D9
S315080033000040DEF804209D0342EA080458BF22EA7A
S315080033100804CEF80440DEF80020DB0342EA08047D
S3150800332058BF22EA0804CEF8004001240D68013689
S3150800333035FA06F207F102070CF1040C7FF456AFD2
S3150800334002B0BDE8F08F00297ED02DE9F04F81B09C
S3150800335000F13842870547EA922241F20047C4F64F
S315080033600007062340F20049B84208BF0523C4F205
S315080033700109052A38BF134600220F240026002714
S315080033804FF00F0E009300BF012303FA07FB1BEA59
S31508003390010C4ED0A9F57E7527F0030306F00C0A3A
S315080033A0EB5804FA0AF8009C03EA080304FA0AF43C
S315080033B0A34220D1D9F8003040F20C4423EA0C038A
S315080033C0C9F80030D9F80430C4F2010423EA0C0322
S315080033D0C9F80430236823EA0C032360D9F80830B7
S315080033E0BC0823EA0C03C9F8083055F8243023EA48
S315080033F0080345F824300368032595402B430360EA
S315080034006FF0030303EA5704044406F01C0CD4F8CF
S3150800341020800EFA0CF328EA03032362C3680F24FC
S31508003420AB43C360436823EA0B0343608368AB433B
S315080034308360013731FA07F306F1040602F1020246
S31508003440A2D101B0BDE8F04F70470069084018BF27
S31508003450012070471823002A08BF2823C150704747
S31508003460426902EA0103914341EA034181617047D7
S3150800347081B04FF480320092009A0A430092009A73
S31508003480C261C1610099C161C1690091C069012128
S3150800349021EA104001B0704740F21441C4F201011C
S315080034A00A68024214BF08607047AFF3008070478D
S315080034B0F0B110B50446406C20B9002020642046BF
S315080034C0FEF792FE2420606494E80910E268016819
S315080034D0012A21F00101016023F070610161816810
S315080034E021F40041816005D14CF4004181600AE075
S315080034F0012070474CF40441022A816003D14168D7
S3150800350041F4006102E0416821F4006141604168CC
S3150800351004F1100C41F0007141F400414160C168AA
S3150800352021F40041C1609CE80E10114341EA0321D1
S31508003530C160216A41EA0C010160016841F001019C
S31508003540016000202021E06461642063A06410BD4E
S31508003550704790B110B5044624206064206801685D
S3150800356021F0010101602046FEF79AFE0020E06482
S3150800357060642063A064206410BD01207047704712
S315080035802DE9F04782B00446406C202802D1206C11
S31508003590012804D10225284602B0BDE8F087012596
S315080035A01E46174688462564FFF77FF8814620465B
S315080035B04FF4004101221923CDF8009000F09DF840
S315080035C00028E8D1212060641020A0640020E0646F
S315080035D0676266856063608DB0F5807F04D3FF20DF
S315080035E020854FF0807204E0608D2085A8B14FF0E9
S315080035F0007217F8013B21688B626762638D013B95
S315080036006385431E238543466FF39F23C0B243EA6F
S315080036100040104340F4005007E047F6C0704246A9
S3150800362060F39F22216802F5903049F60045CFF6EF
S3150800363000454A68A5F580631A4010434860608DC6
S315080036400A9F002842D040F2000AC0F2FF1A6FF320
S315080036509F28FF26204639464A4600F095F8D8BBEB
S31508003660606A216810F8012B8A626062608D0138F1
S315080036706085208D01382085618D21B3000422D113
S315080036802046802100223B46CDF8009000F035F810
S3150800369010BB608DB0F5807F06D32068268550F86C
S315080036A0041F524629400AE0618D2068218550F89A
S315080036B0042FC9B22A4042EA01414FF0007241EA9A
S315080036C0080111430160608D0028C3D120463946A0
S315080036D04A4600F087F808B101255CE720682021F2
S315080036E0C16142684EF60003CFF600631A40002512
S315080036F042606164A56425644DE72DE9F04381B015
S315080037000446006880690840401AB0FA80F040090B
S3150800371090422AD1DDF8208015460E461F4603F151
S31508003720010900BF20463946424602F09EFF38BBD3
S31508003730B9F1000F10D0FEF7B8FF21681FB1A0EB52
S315080037400800B84209D988693040801BB0FA80F071
S315080037504009A84201D10AE0216888693040801BE7
S31508003760B0FA80F04009A842DCD0002009E0E06CFD
S3150800377040F02000E064202060640020A0642064FB
S31508003780012001B0BDE8F083F0B581B004460068B9
S315080037908069800718D415460E464F1C20463146C8
S315080037A02A4602F062FFD0B957B1FEF77EFF2168BC
S315080037B016B1401BB04204D98869800701D405E0D8
S315080037C0216888698007E9D5002009E0E06C40F0A7
S315080037D02000E064202060640020A06420640120AA
S315080037E001B0F0BD70B5044600688069800614D43F
S315080037F015460E46204631462A4602F036FFB8B927
S31508003800FEF753FF216816B1401BB04202D98869FA
S31508003810800604D588698006ECD5002070BDE06C6A
S3150800382040F02000E064202060640020A06420644A
S31508003830012070BD2DE9F04782B00446406C20286F
S3150800384002D1206C012804D10227384602B0BDE80F
S31508003850F08701271D46164688462764FEF725FF8A
S31508003860814620464FF4004101221923CDF80090E5
S31508003870FFF743FF0028E8D1222060641020A064E7
S315080038800020E064666265856063618D49F6000024
S3150800389040F2000ACFF60040B1F5807FC0F2FF1A69
S315080038A00BD32268434652F8041F6FF39F2301EA9D
S315080038B000070AF51056FF210DE0618D2268434680
S315080038C052F8046F6FF39F23CFB243EA074706EA1D
S315080038D000030AF592363B43334313602185618D15
S315080038E00A9F002941D06FF39F28FF2600F58065BF
S315080038F0204639464A4600F04FF8E0BB2068616A20
S31508003900406A0870606A218D01306062481E208511
S31508003910618D01396185618D21B3000422D120466C
S31508003920802100223B46CDF80090FFF7E6FE10BB4B
S31508003930608DB0F5807F06D32068268550F8041F71
S31508003940524629400AE0618D2068218550F8042FE7
S31508003950C9B22A4042EA01414FF0007241EA080121
S3150800396011430160608D0028C2D1204639464A4677
S31508003970FFF738FF08B1012767E720682021C161F2
S3150800398042684EF60003CFF600631A4000274260ED
S315080039906164A764276458E72DE9F04F81B00546AE
S315080039A000684FF0000880690027400752D44EF699
S315080039B00009B1FA81F014460E464FF0200BCFF6F7
S315080039C000694FEA501A00BF28463146224602F0DF
S315080039D04CFE29680746002818BF01278A69D0B90E
S315080039E012F0200017D088698869C00602D400271B
S315080039F0EF6410E01020C8610420E864C1F81CB028
S31508003A004868012700EA09004860C5F844B0C5F8C7
S31508003A104880C5F84080FEF748FE001B0021B042EA
S31508003A2088BF0121286887B951EA0A010DD0816942
S31508003A30490709D4E96C012741F02001E964C5F872
S31508003A4044B0C5F8408000E00027806900F0040013
S31508003A50C019B9D0384601B0BDE8F08FF0B581B0CD
S31508003A600446406C202806D10F4631B1164622B1CD
S31508003A70206C012806D1022573E04FF40070E0643B
S31508003A8001256EE001201D462064FEF70EFE212169
S31508003A9061642021A1640021E16467626685226869
S31508003AA061635168064621F40040506020460821AB
S31508003AB000222B460096FFF720FE00284BD1216AEC
S31508003AC02068B1F5003F07D1616A11F8012B8262BF
S31508003AD06162618D013961850821C161E06802284A
S31508003AE00FD1204600222B4600960827FFF705FE31
S31508003AF0216828B14868012540F40040486030E054
S31508003B00CF6120464FF4803100222B460096FFF7FE
S31508003B10F4FD00BB0EE0204629463246FFF734FE88
S31508003B20C8B9606A216810F8012B8A626062608DE4
S31508003B3001386085608D0028EDD1204610210022CD
S31508003B402B460096FFF7D9FD70B1608DE16C04290C
S31508003B5008BF002822D020680125416841F40041A9
S31508003B604160284601B0F0BD20688169890744BFD5
S31508003B70002181628169C90703D1816941F0010188
S31508003B8081611021C161204629463246FFF72AFE87
S31508003B9021680028AED12020C86101E00020E06439
S31508003BA020464FF4004101222B4600960125FFF7D7
S31508003BB0A4FD216800284A6842F400424A60D0D130
S31508003BC0202000256064A5642564CAE7F0B581B0A5
S31508003BD00446406C202806D10F4631B1164622B15C
S31508003BE0206C012805D1022538E04FF40070E06406
S31508003BF033E001201D462064FEF757FD222161644B
S31508003C002021A1640021E16467626685628D616393
S31508003C1022852268064651682B4621F400405060EA
S31508003C2020460821002200960827FFF766FD21682E
S31508003C3020B1486840F4004048600EE0CF61204655
S31508003C404FF4803101222B460096FFF756FDD8B176
S31508003C502068416841F4004141600125284601B0C9
S31508003C60F0BD204629463246FFF796FE216868BB16
S31508003C70486A616A0870606A01306062608D01385E
S31508003C806085208D01382085608D0028E9D1204681
S31508003C9029463246FFF7A6FD21680028C9D1202704
S31508003CA0CF6120464FF4004101222B46009601259C
S31508003CB0FFF723FD216800284A6842F400424A605B
S31508003CC0CCD100256764A5642564C7E7486840F435
S31508003CD00040486088694007BFD5486A616A08702D
S31508003CE0606A01306062608D01386085208D013818
S31508003CF02085B2E7D0F844C0BCF1200F0ED110B52C
S31508003D00D0F800C0DCF818E05FEA0E4E04D4D0F80C
S31508003D1040E0BEF1010F03D1022154E0022154E034
S31508003D204FF0010EC0F840E04FF0210EC0F844E015
S31508003D304FF0100EC0F848E04FF0000EC0F84CE007
S31508003D40426243850023CFF6FF73C36243F6CF531F
S31508003D50C0F600034363438DB3F5807F04D3FF2386
S31508003D6003854FF0807E04E0438D03859BB14FF0B9
S31508003D70007E12F8014B6FF39F21CCF8284042626F
S31508003D80428D013A42855A1E0285DAB241EA02415B
S31508003D9041EA0E0103E04FF4004262F39F21DCF88A
S31508003DA0042049F60003CFF600431A40114341F4B4
S31508003DB00051CCF8041000210164DCF8000040F042
S31508003DC0F200CCF80000BDE810400846704770B510
S31508003DD00446006C012804BF022070BD0D4602EAA5
S31508003DE0050016460121C206216411D4410723D4D1
S31508003DF005F04201022939D116F0020136D0608D4C
S31508003E0048B3606A216810F8012B8A62218D1CE08C
S31508003E1020681021C161E16C41F00401E164816907
S31508003E20890744BF002181628169C90713D1816965
S31508003E3041F0010181610EE02068616A406A25F05F
S31508003E4004050870606A218D01306062481E20856D
S31508003E50608D0138608506EA0500800603D5204690
S31508003E60294602F0DBF90020206470BD29060ED52C
S31508003E7016F040010BD0608D08B1208D80B1206806
S31508003E804068800107D4204602F095F9E3E740062A
S31508003E90E1D5608DD0B12046402102F0E3F8DAE79B
S31508003EA020684168628DB2F5807F1BD3FF22228588
S31508003EB0426849F60043CFF600436FF39F211A4044
S31508003EC0114441F0807141F47F0130E02068416877
S31508003ED08901C0D4E16A11F5803FD4D1416841F423
S31508003EE0804124E0628D2285E36A13F5803F0ED176
S31508003EF06FF39F21D2B241EA0241426849F6004374
S31508003F00CFF600431A40114401F100710FE0E36A4D
S31508003F106FF39F21D2B241EA024123F000421143D6
S31508003F20426849F60043CFF600431A401143416000
S31508003F3091E78446406C20281CBF0220704780B554
S31508003F40DCF800E0DEF81800000403D4DCF84000D2
S31508003F50012801D1022080BD2220CCF8440010207F
S31508003F60CCF848000020CCF84C00CCF824200022DD
S31508003F70CFF6FF72ACF82A30CCF82C2043F6CF5295
S31508003F80C0F60002CCF83420BCF82A20FF2A03D950
S31508003F904FF08072FF2303E0BCF82A304FF000721E
S31508003FA0ACF828306FF39F21DBB241EA0341114395
S31508003FB0DEF8042049F60003CFF600431A40114301
S31508003FC041F41051CEF80410CCF84000DEF8001089
S31508003FD041F0F401CEF8001080BD436C202B02D1CD
S31508003FE0036C012B01D1022336E010B501230364CB
S31508003FF021234364202383640023C364D0F800C0CC
S31508004000D0F820E0DCF80440BEF5003F24F4004474
S31508004010CCF8044041624285428D40F20004CFF656
S31508004020FF740285C46244F25D04C0F6000444636A
S3150800403009D111F8014BCCF828404162418D01396C
S315080040404185511E01850364DCF8000040F0FA0042
S31508004050CCF80000BDE8104018467047D0F82CC0D0
S31508004060036C012B04BF0220704710B50A400446B2
S3150800407001239006236417D4D0061BD450072CD4EA
S31508004080100763D4900712D5608D002866D0606A41
S31508004090216810F8012B8A626062608D013860859C
S315080040A0208D0138208502E0204602F048F90020DC
S315080040B0206410BD608D58B320681021C161E06C82
S315080040C06FF080711CEA010F40F00400E064EED145
S315080040D0E16C204601F0C6FFE9E7608D60B1206813
S315080040E0616A406A0870606A218D01306062481E04
S315080040F02085608D01386085608D0028D7D1002025
S31508004100CFF6FF708445D2D0204602F01AFACEE7E1
S31508004110606C282808BFBCF1007F1BD02168606C42
S3150800412010222928CA61C2D10020CFF6FF70844523
S31508004130BDD08869800744BF002088628869C007A7
S31508004140E2D1886940F001008861DDE7204602F087
S3150800415039FAACE7204602F0CAF9A8E76FF0807092
S315080041601CEA000FA3D1CFE780B58646406C20280D
S3150800417003D1DEF84000012801D1022080BD2220AB
S31508004180CEF844002020CEF848000020CEF84C0097
S31508004190DEF800C0DCF8043023F40043CCF8043021
S315080041A0CEF82410AEF82A20BEF82A10AEF8281049
S315080041B00021CFF6FF71CEF82C1044F25D01C0F64F
S315080041C00001CEF83410CEF84000DCF8001041F0BB
S315080041D0FC01CCF8001080BDF0B581B00446406CF7
S315080041E0202807D120680D468169090402D4216C6C
S315080041F0012903D10226304601B0F0BD0121216410
S31508004200212161641021A1640021E1640021CFF617
S31508004210FF7162626385E16244F22D31C0F60001E6
S315080042206163618DB1F5807F04D3FF2121854FF04D
S31508004230807704E0618D218589B34FF0007712F805
S31508004240013B84464CF8283F6262638D0139013B85
S3150800425063850B0421851FD0A06BE0B344F2774336
S31508004260C0F6000344F2215EC0F6000E0026036382
S315080042708BB2114662464663C0F838E0C663FEF75D
S31508004280D7FD98B320206064A664E06C40F0100067
S31508004290E06426640126AEE74FF4803100E0002191
S315080042A043F6CF52C0F600026263426849F600033D
S315080042B06FF39F25CFF600431A402943114341F077
S315080042C0007141F40051002641602664016841F0FE
S315080042D0F20101608FE7202060640020A064E16C91
S315080042E0012641F08001E164206484E7208D6FF3A4
S315080042F09F25411CC9B2226845EA014139435368E2
S3150800430049F60007CFF600473B40194341F40051F0
S315080043105160618D081A60852664106840F0900027
S315080043201060106840F48040106064E710B50446D9
S31508004330006C012804BF022010BD02EA01004FF0FC
S31508004340010CC306C4F840C01AD40B0646D512F0B1
S31508004350400243D02068016821F040010160628D67
S315080043604168002A51D0628D6FF39F21B2F5807F94
S3150800437056D34FF0FF0EA4F828E04FF0807C5CE09F
S3150800438020681022616BC261E26C44F2FD7342F050
S31508004390040244F22D3EC0F60003E264C0F6000EA5
S315080043A045F2B71C20229942C0F6000C08BF6022CD
S315080043B0714508BF60226145016808BF6022114344
S315080043C001608169890744BF002181628169C90743
S315080043D04ED1816941F00101816149E0420605D467
S315080043E0800645D5204601F019FF41E0608D90B959
S315080043F02068416889013BD4E16A11F5803F06D1FE
S31508004400416841F48041416032E0880103D4204686
S3150800441001F0D1FE2CE02046402101F023FE27E0E2
S31508004420B4F82AE0A4F828E0E36A13F5803F1ABF37
S31508004430E36A23F0004C4FF0007C5FFA8EF341EA02
S315080044400341436849F60042CFF600421A4042EA61
S315080044500C0211434160618DA1EB0E016185626C0E
S315080044600168222A14BF41F4804141F400410160E9
S315080044700020206410BD10B5C46A2268106820F4B4
S3150800448080401060608DA0B1208D616A2832014499
S315080044906162608DFF2894BF638DFF23A06B23851F
S315080044A0FEF7C6FC00B320461021BDE8104001F017
S315080044B0D9BD606B44F2FD7344F22D31C0F600039A
S315080044C0C0F6000145F2B71C20249842C0F6000C3D
S315080044D008BF6024884208BF60246045106808BF8A
S315080044E060242043106010BD2068616B44F2FD73A0
S315080044F0046844F22D3CC0F60003C0F6000C45F2F1
S31508004500B71E44F04002994208BF1446C0F6000E92
S31508004510614508BF1446714508BF1446046010BDBE
S31508004520C06A0268516841F400431021536001F0E3
S3150800453099BD2DE9F0410446406C202807D10D4667
S3150800454021688869000402D4206C012803D1022658
S315080045503046BDE8F08101202064222060641020E6
S31508004560A0640020E0640020CFF6FF7062626385D5
S31508004570E06244F22D30C0F600006063608DB0F54D
S31508004580807F04D3FF2323854FF0807804E0638D72
S3150800459023854BB34FF00078E06BD0B144F25D67EA
S315080045A044F2215CC0F60007C0F6000C0026243150
S315080045B0C0E90C76C0E90EC6FEF73AFC70B32020B7
S315080045C06064A664E06C40F01000E064266401268E
S315080045D0BEE7202060640020A064E16C012641F05B
S315080045E08001E1642064B3E743F6CF50C0F60000CB
S315080045F06063486849F60002CFF600426FF39F25CC
S315080046001040284440F0007040F4105000264860DE
S315080046102664086840F0F400086099E7208D22684F
S315080046206FF39F25C1B2536849F6000745EA014171
S31508004630CFF6004741EA08013B40194341F41051BF
S315080046405160618D081A60852664106840F09000F4
S315080046501060106840F40040106079E710B5C46A2D
S315080046602168086820F400400860608DA0B1208D9C
S31508004670626A243102446262608DFF2894BF638DAA
S31508004680FF23E06B2385FEF7D3FB00B320461021FA
S31508004690BDE8104001F0E6BC606B44F2FD7344F2DD
S315080046A02D32C0F60003C0F6000245F2B71C2024DE
S315080046B09842C0F6000C08BF6024904208BF6024E8
S315080046C06045086808BF60242043086010BD20685C
S315080046D0616B44F2FD73046844F22D3CC0F6000396
S315080046E0C0F6000C45F2B71E44F04002994208BFD6
S315080046F01446C0F6000E614508BF1446714508BF4A
S315080047001446046010BDB0B50446406C202804D198
S3150800471029B122B1206C012807D1022503E04FF404
S315080047200070E06401252846B0BD012020642120E0
S3150800473060642020A0640020E06461626285638D65
S315080047400020CFF6FF702385E062206AB0F5003FAF
S3150800475044F2FD70C0F60000606309D111F8010B40
S315080047602268013B90626162608D0138608523850D
S31508004770608DF0B1A06B38B344F6F302C0F60002C0
S3150800478044F2215C00F1300EC0F6000C00258EE8DC
S31508004790241022689BB22832C563FEF749FBF0B1A4
S315080047A028206064A564E06C40F01000E06425648D
S315080047B0B8E720680025416821F400414160256476
S315080047C0016841F0B80117E0282060640020A06461
S315080047D0E16C012541F08001E1642064A3E72068CB
S315080047E0416821F4004141602564016841F0B8013F
S315080047F00160016841F48041016094E7D0F82CC05B
S31508004800036C012B04BF0220704710B502EA0103AE
S3150800481004464FF0010E9806C4F840E007D4D806BF
S315080048200BD4180706D5204601F0CCFE02E0204638
S3150800483001F085FD0020206410BD12F4404F0DD014
S3150800484010040FD5E36B6BB11868436850042BD579
S31508004850A26B4AB3B3FA83F0430908E02068102133
S31508004860C161E7E7500406D5A26B22B100231068A0
S315080048704068D8B1D3B920681021C161E06C40F016
S315080048800400E064616C6FF080701CEA000FD1D1FF
S3150800489021F00800A0F12101012998BF2063E16CED
S315080048A0204601F0DFFBC5E7002BE4D1606C282821
S315080048B008BFBCF1007F18D02168606C1022292837
S315080048C0CA61B7D11CF5803FB4D08869800744BF58
S315080048D0002088628869C00703D1886940F0010012
S315080048E08861204601F02DFEA4E7204601F0FFFD71
S315080048F0A0E7C06A6FF08072C16A114218BF70479C
S3150800490001680A6822F480420A6001F01ABE10B5EE
S315080049100446406C202805D18C4629B122B1206C6A
S31508004920012806D1022010BD4FF40070E064012072
S3150800493010BD012020642220606420200021A0648C
S31508004940E164C4F824C06285638D0020CFF6FF7049
S315080049502385E062E06B44F2FD72C0F600026263F2
S31508004960E8B144F6D112C0F60002C0E90C2122686B
S3150800497044F2215EC0F6000EC16302F124016246CC
S31508004980C0F838E0FEF754FA90B128206064002099
S31508004990A064E16C41F01001E1642064C7E72820B7
S315080049A06064A164E06C40F08000E0642164BEE7C6
S315080049B02168486820F400404860002020640A689E
S315080049C042F0B8020A600A6842F400420A6010BD62
S315080049D0C06AC16AC26B126852684AB911F5803F4B
S315080049E006D001680A6822F400420A6001F0A9BDEF
S315080049F070472DE9F04F81B00446406C20280CD151
S31508004A00DDF828B0BBF1000F09D0DDF82C80B8F12D
S31508004A10000F04D0206C012806D1022516E04FF4B9
S31508004A200070E064012511E001251E4617468A46F6
S31508004A302564FDF73AFE814620464FF400410122DF
S31508004A401923CDF80090FEF758FE18B1284601B094
S31508004A50BDE8F08F21200C99606440200025A064F1
S31508004A60E564C4F824B0A4F82A8049F600428846CA
S31508004A702168CFF60042656393464A686FF39F2A1A
S31508004A80F0B2ABF580634AEA00401A40104440F0A1
S31508004A90807040F400504860204641464A46FEF77A
S31508004AA073FEB0B92068012E08D0390A8162204603
S31508004AB041464A46FEF768FE58B92068F9B281624F
S31508004AC02046802100224346CDF80090FEF715FEC9
S31508004AD008B12564A6E7608D0026B0F5807FC0F290
S31508004AE0FF1607D32068334650F8041F01EA0B0265
S31508004AF0FF210AE0618D2068CBB250F8042F02EA44
S31508004B000B0242EA03424FF000731A4342EA0A02D2
S31508004B10FF2702602185204641464A46FEF734FEB5
S31508004B2000287FF47FAF606A216810F8012B8A623B
S31508004B306062608D01386085208D01382085618D21
S31508004B4041B3000426D12046802100224346CDF8F1
S31508004B500090FEF7D2FD00287FF464AF608DB0F5B3
S31508004B60807F07D32068278550F8041F324601EA5C
S31508004B700B010BE0618D2068218550F8042FC9B21E
S31508004B8002EA0B0242EA01414FF00072114341EA80
S31508004B900A010160608D0028BDD1204641464A467B
S31508004BA0FEF720FE00287FF43DAF20682021C16172
S31508004BB042684EF60003CFF600631A4000254260AD
S31508004BC06164A564256441E72DE9F04F81B0044688
S31508004BD0406C20280CD1DDF828B0BBF1000F09D0B5
S31508004BE0DDF82C80B8F1000F04D0206C012806D11E
S31508004BF0022516E04FF40070E064012511E0012556
S31508004C001E4617468A462564FDF74FFD814620460F
S31508004C104FF4004101221923CDF80090FEF76DFDEF
S31508004C2018B1284601B0BDE8F08F22206064402004
S31508004C300025A064E564C4F824B0A4F82A8049F6DF
S31508004C40000220680C99CFF60042656393464268D5
S31508004C5088466FF39F2AF1B24AEA014102EA0B023B
S31508004C60114401F500514160204641464A46FEF787
S31508004C708BFDB0B92068012E08D0390A816220461A
S31508004C8041464A46FEF780FD58B92068F9B2816266
S31508004C902046402100224346CDF80090FEF72DFD20
S31508004CA008B12564A9E7608D0026B0F5807FC0F2BB
S31508004CB0FF1608D3206806F5105350F8041F01EABA
S31508004CC00B02FF210AE0618D2068CBB250F8042F51
S31508004CD002EA0B0242EA034206F592331A4342EA13
S31508004CE00A02FF270BF5806502602185204604210C
S31508004CF000224346CDF80090FEF7FFFC00287FF41B
S31508004D007CAF2068616A406A0870606A218D01304C
S31508004D106062481E2085618D01396185618D31B3D8
S31508004D20000424D12046802100224346CDF8009075
S31508004D30FEF7E3FC00287FF460AF608DB0F5807F56
S31508004D4006D32068278550F8041F324629400AE012
S31508004D50618D2068218550F8042FC9B22A4042EA9D
S31508004D6001414FF00072114341EA0A010160608D6A
S31508004D700028BBD1204641464A46FEF733FD0028A7
S31508004D807FF43BAF20682021C16142684EF60003DC
S31508004D90CFF600631A40002542606164A564256465
S31508004DA03FE7B0B5446C202C0FD1DDF810E0BEF11A
S31508004DB0000F0CD0059C54B1D0F800C0DCF8185090
S31508004DC02D0402D4056C012D06D1022140E04FF4D2
S31508004DD00071C16401213BE02125456440258564B5
S31508004DE00025C56405850025CFF6FF75C0F824E0C3
S31508004DF04485C56244F65565C0F60005012B456332
S31508004E00416505D1D2B2CCF828204FF0FF3203E035
S31508004E10150AD2B2CCF8285082656FF39F21DAB210
S31508004E2041EA0241DCF8042049F60003CFF60043C4
S31508004E301A40114441F0807141F40051CCF8041035
S31508004E4000210164DCF8000040F0F200CCF8000014
S31508004E500846B0BD70B50446006C012804BF0220A0
S31508004E6070BD0D4602EA050016460121C2062164F8
S31508004E7013D4410726D4810734D429063CD516F025
S31508004E80400139D0608D18B1208D002800F083804C
S31508004E902046402101F0E6F8A7E020681021C1610C
S31508004EA0E16C41F00401E1648169890744BF00218E
S31508004EB081628169C90740F09880816941F00101E2
S31508004EC0816192E02068616A406A25F004050870ED
S31508004ED0606A218D01306062481E2085608D013828
S31508004EE0608582E0A06D01303BD02068A16D8162AB
S31508004EF04FF0FF30A06578E0400676D52068616CF3
S31508004F006FF0F20201F028012829016808BF6FF046
S31508004F10420211400160016849F6000C41F0F401B3
S31508004F200160626C42F20001222A628DC8F2000119
S31508004F3008BF01F58061B2F5807FCFF6004C17D324
S31508004F40FF232385636D42686FF39F2301F4105195
S31508004F5002EA0C021944114341F0807141F47F01C1
S31508004F6017E0606A216810F8012B8A62218DB2E782
S31508004F70628D01F410512285636DD2B26FF39F23BF
S31508004F8043EA02424368114403EA0C02114341F022
S31508004F900071416029E0608DB0F5807F49F6000018
S31508004FA0CFF6004010D3FF2121852168626D4B683A
S31508004FB000F580606FF39F221840104340F0807020
S31508004FC040F47F00486010E0618D00F5806021851F
S31508004FD0626D23686FF39F22C9B242EA01415A689B
S31508004FE01040084340F00070586006EA0500800645
S31508004FF003D52046294601F011F90020206470BD2A
S31508005000B0B5446C202C0FD1DDF810E0BEF1000FCE
S315080050100CD0059C54B1D0F800C0DCF818502D040B
S3150800502002D4056C012D06D102213DE04FF4007132
S31508005030C164012138E022254564402585640025A0
S31508005040C5640025CFF6FF75C0F824E04485C5621F
S3150800505044F65565C0F60005012B4563416505D143
S31508005060D2B2CCF828204FF0FF3203E0150AD2B2AC
S31508005070CCF8285082656FF39F21DAB241EA0241E3
S31508005080DCF8042049F60003CFF600431A40114421
S3150800509001F50051CCF8041000210164DCF8000089
S315080050A040F0F200CCF800000846B0BDF0B581B07B
S315080050B00446406C20280ED10E46069969B1079819
S315080050C058B1D4F800C01D46DCF818301B0402D4C9
S315080050D0236C012B08D1022703E04FF40070E0642B
S315080050E00127384601B0F0BD0123236421236364F8
S315080050F04023A3640023E364616260850020CFF641
S31508005100FF70E06245F2B710C0F60000606366659E
S31508005110608DFF2894BF638DFF23012D238505D15C
S31508005120D0B2CCF828004FF0FF3003E0100ACCF8D4
S315080051302800D0B2A065A06BD8B144F27742C0F679
S31508005140000244F2215EC0F6000E002702630CF14D
S3150800515028024763C0F838E0C763FDF769FE90B1D7
S3150800516020206064A764E06C40F01000E0642764C7
S31508005170B6E7202060640020A064E16C41F080015D
S31508005180E1642064ACE7216849F600034A686FF3D6
S315080051909F26E8B2CFF6004346EA00401A4010447C
S315080051A040F0807040F4005048602764086840F07A
S315080051B0F200086095E710B50446006C012804BFA4
S315080051C0022010BD02EA01004FF0010CC306C4F824
S315080051D040C02AD4830757D40B065CD512F0400288
S315080051E059D02068616C6FF0F20201F02801282975
S315080051F0016808BF6FF0420211400160016841F082
S3150800520090010160618D002900F08080618DB1F503
S31508005210807FC0F08080D4F854E040F2000CC0F2E1
S31508005220FF1C6FF39F2EFF217EE020681022616B22
S31508005230C261E26C44F2FD7342F0040244F22D3E70
S31508005240C0F60003E264C0F6000E45F2B71C202241
S315080052509942C0F6000C08BF6022714508BF60225B
S315080052606145016808BF60221143016081698907A9
S3150800527044BF002181628169C90740F08180816944
S3150800528041F0010181617BE02068A16D81624FF0E8
S31508005290FF30A06574E0420605D4800670D5204626
S315080052A000F0BCFF6CE02068616C6FF0F20201F060
S315080052B028012829016808BF6FF0420211400160E1
S315080052C0016842F2000241F090010160616CC8F287
S315080052D000022229618D49F6000C08BF02F580629A
S315080052E0B1F5807FCFF6004C2BD3616D43686FF321
S315080052F09F2102F4105203EA0C031144194341F0AA
S31508005300807141F47F014160FF212CE02046402155
S3150800531000F0A8FE34E0618D626DCBB26FF39F2278
S3150800532042EA034E4FF0007C49F600024368CFF686
S31508005330004202F580621A4042EA0E0242EA0C0274
S3150800534010E0618DD4F854E0CBB26FF39F2E4EEA8D
S31508005350034E436802F41052724403EA0C031A43DC
S3150800536042F0007242602185628D511A6185626C35
S315080053700168222A14BF41F4804141F400410160CA
S315080053800020206410BDF0B581B01D46436C202B6B
S315080053900DD104461046069A5AB1079B4BB10E46E4
S315080053A021688F693F0402D4276C012F08D1022790
S315080053B003E04FF40070E0640127384601B0F0BD01
S315080053C001272764222767644027A7640027E76424
S315080053D0626263850023CFF6FF73E36245F2B71373
S315080053E0C0F6000363636665638DFF2B94BF638D08
S315080053F0FF23012D238504D1C0B288624FF0FF3008
S3150800540002E0070AC0B28F62A065E06BC8B144F239
S315080054105D6C44F2215EC0F6000CC0F6000E002753
S315080054202431C0E90CC7C0E90EE7FDF701FD90B1CC
S3150800543020206064A764E06C40F01000E0642764F4
S31508005440BAE7202060640020A064E16C41F0800186
S31508005450E1642064B0E7216849F600034A686FF3FF
S315080054609F26E8B2CFF6004346EA00401A401044A9
S3150800547000F5005048602764086840F0F2000860AC
S315080054809BE72DE9F04F83B0044600200290606C3C
S31508005490202807D120688A468169090402D4216C2C
S315080054A0012903D1022003B0BDE8F08F012142F2A1
S315080054B00009216424211D469046C0F20029616432
S315080054C000216FF39F2A5F1CE164E16801294946C0
S315080054D018BF01F5006141EA0A014160FDF7E5F8E8
S315080054E0216806468A698B6902F0200203F01003D8
S315080054F0D2180FD137B1FDF7D8F81DB3801BA842D3
S3150800550020D8216888698A6900F0200002F0100214
