S31508000000E00F0020ED010008E9750008B16400085A
S31508000010E5750008E10D000821A3000800000000AE
S31508000020000000000000000000000000BD9200086B
S31508000030090E000800000000B9920008E1950008C2
S31508000040070200080702000807020008070200085E
S3150800005007020008070200080D0E0008070200083C
S31508000060070200080702000807020008E50D000855
S31508000070F10D0008FD0D0008070200080702000838
S31508000080070200080702000807020008070200081E
S31508000090070200080702000807020008070200080E
S315080000A007020008070200080702000807020008FE
S315080000B0F995000805960008119600080702000839
S315080000C007020008070200080702000807020008DE
S315080000D00702000859A200080702000807020008DC
S315080000E007020008070200080702000807020008BE
S315080000F007020008070200080702000807020008AE
S31508000100070200080702000807020008070200089D
S31508000110070200080702000807020008070200088D
S31508000120070200080702000807020008070200087D
S31508000130070200080702000807020008070200086D
S31508000140070200080702000807020008070200085D
S31508000150070200080702000807020008A163000852
S31508000160070200080702000807020008070200083D
S31508000170070200080702000807020008070200082D
S31508000180070200080702000807020008070200081D
S31508000190070200080000000007020008070200081E
S315080001A007020008070200080702000807020008FD
S315080001B007020008070200080702000807020008ED
S315080001C007020008070200080702000807020008DD
S315080001D00702000807020008DFF80CD000F09CFBB5
S315080001E00048004729A30008E00F0020064880477A
S315080001F006480047FEE7FEE7FEE7FEE7FEE7FEE7FE
S31508000200FEE7FEE7FEE7FEE7E5950008D9010008E8
S315080002102DE9F05F0546002092469B46884606462D
S31508000220814640241BE0284641464746224600F0C0
S3150800023075FA53465A46C01A914110D311461846C4
S31508000240224600F05CFA2D1A67EB01084F46224653
S315080002500120002100F053FA17EB00094E41201E39
S31508000260A4F10104DFDC484631462A464346BDE888
S31508000270F09F40EA01039B0703D009E008C9121F53
S3150800028008C0042AFAD203E011F8013B00F8013B42
S31508000290521EF9D27047D2B201E000F8012B491E6E
S315080002A0FBD270470022F6E710B513460A46044605
S315080002B01946FFF7F0FF204610BD10B5002200E0F2
S315080002C0521C835C8C5CA34201D1002BF8D1D8B2B6
S315080002D0E1B2401A10BD2DE9FE4F804681EA0300BF
S315080002E0C00F0C46009021F0004123F00045B8EB02
S315080002F00200A94105D24046214690461C460B46B7
S31508000300024623F00040104347D0270DC7F30A00E2
S31508000310C3F30A510290401A019040286BDAC3F3DE
S31508000320130040F4801B0098924620B10023D2EBBC
S31508000330030A63EB0B0B01985946C0F1400250467D
S3150800034000F0DDF906460D4650465946019A00F07A
S31508000350F5F910EB08006141002487EA115284EA96
S31508000360E7731A4340D0009A62B3019A012A4FEA0A
S31508000370075215DC001B61EB02014FF0004202EA4E
S315080003800752CDE90042001C41F5801132462B4642
S3150800039000F02CFA03B0BDE8F08F40462146F9E795
S315080003A0001B61EB0201001C41F5801300185B413C
S315080003B02018A2F5001747EB030140EAD570B619D5
S315080003C06D4111E06D084FEA360645EAC0754FEAF9
S315080003D00752001B61EB0201001C41F58011490818
S315080003E04FEA30000019514132462B4603B0BDE8AA
S315080003F0F04F00F0ECB90098012240000023D0EB42
S31508000400020263EBE073009821464FEAE074B8EB0A
S31508000410000061EB0401E9E783F000435BE781F044
S31508000420004158E72DE9FE4F81EA030404F0004431
S3150800043021F0004100944FF0000B23F0004350EAEE
S3150800044001045ED052EA03045BD0C3F30A54C1F335
S315080004500A552C44A4F2F3340194A0FB0254C1F3C8
S31508000460130141F48011C3F3130343F4801301FB12
S31508000470024400FB034E840A970A44EA815447EA79
S315080004808357A4FB076802958D0A05FB07854FEA83
S31508000490932C04FB0C542705029D4FEA065847EA9D
S315080004A01637B5EB08056EEB070C870E920E47EA72
S315080004B0811742EA8312A7FB0201B6EB0B0164EB34
S315080004C000042B0D43EA0C335E1844EB1C50DA4645
S315080004D05146E7FB0201C5F313044FEA0B3343EA1F
S315080004E014534FEA0432019C43EA0603A4F10C04B0
S315080004F00294009CCDE900B400F078F903B0BDE899
S31508000500F08F00200146F9E72DE9F04D81EA030452
S3150800051004F0004B21F0004514464FF0000A23F082
S31508000520004150EA050220D054EA01021DD0C5F365
S315080005300A570246C5F31303C1F31300C1F30A565B
S3150800054040F4801543F48013A7EB0608101BD64623
S3150800055008F2FD3873EB050002D308F1010801E043
S3150800056092185B41B8F1000F03DA00200146BDE896
S31508000570F08D00204FF48011064684460EE0171BC6
S3150800058073EB050705D3121B63EB050306434CEA19
S31508000590010C49084FEA300092185B4150EA0107FE
S315080005A0EDD152EA030012D082EA040083EA05017B
S315080005B0084305D0101BAB4106D20122002306E0F2
S315080005C000224FF0004302E06FF0010253101AEBCD
S315080005D006004CEB085110EB0A0041EB0B01BDE895
S315080005E0F04D00F0F4B830B5041E71F1000404DBD8
S315080005F04FF00044404264EB0101141E73F10004FD
S3150800060005DB1C464FF00043524263EB0403101A05
S315080006108B4101D2012030BD002030BD30B5041E0B
S3150800062071F1000404DB4FF00044404264EB010121
S31508000630141E73F1000405DB1C464FF000435242BA
S3150800064063EB0403101A8B4101D3012030BD00204F
S3150800065030BD0EB5C10F80EAE0700844CA07002114
S3150800066040F233438DE80E000A460B4600F0BEF80A
S3150800067003B000BD00F0004230F000400AD0C10DC2
S3150800068001F56071C0F3160042EA0151C20840073D
S315080006901143704700200146704701F0004330B40B
S315080006A021F0004150EA010206D00A0DA2F5607257
S315080006B0C1F31301002A02DC30BC00207047440F46
S315080006C044EAC104C100E01830BC00EBC25000F097
S315080006D047B830B50B46014600202022012409E020
S315080006E021FA02F59D4205D303FA02F5491B04FADD
S315080006F002F52844151EA2F10102F1DC30BD202ABC
S3150800070004DB203A00FA02F1002070479140C2F15A
S31508000710200320FA03F3194390407047202A04DB8C
S31508000720203A21FA02F00021704721FA02F3D0405C
S31508000730C2F120029140084319467047202A06DB79
S31508000740CB17203A41FA02F043EAE07306E041FA91
S3150800075002F3D040C2F1200291400843194670477F
S315080007600029A8BF7047401C490008BF20F00100B7
S31508000770704710B4B0FA80FC00FA0CF050EA010495
S3150800078004BF10BC704749B1CCF1200421FA04F427
S3150800079011FA0CF118BF012121430843A3EB0C0100
S315080007A0CB1D4FEA00614FEA102042BF002010BC63
S315080007B0704700EBC35010440029A4BF10BC704713
S315080007C0401C490008BF20F0010010BC704710B556
S315080007D0141E73F1000408DA401C41F10001921856
S315080007E05B411A4301D120F0010010BD2DE9F04DFF
S315080007F092469B4611B1B1FA81F202E0B0FA80F254
S3150800080020329046FFF77BFF04460F4640EA0A006F
S3150800081041EA0B0153465A46084313D0114653EA98
S31508000820010019D0C8F140025046FFF777FF054688
S315080008300E46504659464246FFF761FF084305D023
S31508000840012004E020463946BDE8F08D0020054326
S3150800085046EAE0762C4337430A986305E40AA0EB98
S3150800086008000022FD0A44EA47540A3002D500204F
S315080008700146E9E7010510196941DDE9084500194E
S315080008806941BDE8F04DA2E7C1F30A52C1F313016D
S3150800089040F2FF3341F480119A4202DA0020014601
S315080008A0704740F233439A42A2F2334202DC524284
S315080008B0FFF734BFFFF723BF30B5041E71F10004FC
S315080008C004DB4FF00044404264EB0101141E73F14F
S315080008D0000405DB1C464FF00043524263EB040359
S315080008E08B4208BF824230BD30B5041E71F1000448
S315080008F004DB4FF00044404264EB0101141E73F11F
S31508000900000405DB1C464FF00043524263EB040328
S31508000910994208BF904230BD1CB509480090094865
S3150800092001900546009C06E0E06840F0010394E863
S31508000930070098471034AC42F6D3FFF751FC000085
S31508000940ECC700080CC800080146806AC36DC26D72
S3150800095013F0500F08D0D20648BF01F035B8406DE5
S31508000960426B0846104700BF42F40071C165016832
S315080009700B68CA681B0703D4910707D501F020B88E
S3150800098012F4406FFAD1C9688904F7D4C16D21F40D
S315080009908071C165C16DC90448BF01F011B8C16D48
S315080009A041F00101C16501F00BB80000806AC16D14
S315080009B041F04001C165016E41F00401016601F094
S315080009C003B80000806A00F0FDBF0000B0B50168FA
S315080009D004468A688868C0074FF0000031D012F0D4
S315080009E0020218BFB0BD886800F00D0001281FD1AB
S315080009F088684FF6C072C7F6FF72104002308860EA
S31508000A000320086001F0FAFD21688968C90704BF58
S31508000A100020B0BD054602E08068C00712D001F08C
S31508000A20EDFD411B20680329F6D38168C907F3D079
S31508000A30E06D40F01000E065206E40F00100206691
S31508000A400120B0BD0020B0BD70B582B004460020BC
S31508000A50019021688A68D20711D14FF6C076C7F689
S31508000A60FF76886806F17F0210420BD0E06D40F0F1
S31508000A701000E065206E40F001002066012002B0FB
S31508000A8070BD00BF88684FF4C162304040F0010075
S31508000A90886040F20010C5F20000814208BF4FF49A
S31508000AA00272B1F1A04F08BF4FF40272105800024B
S31508000AB022D401F0A3FD21680A68D20718D1054699
S31508000AC003E000BF0868C00712D18868C00704D1D0
S31508000AD08868304040F00100886001F08FFD401BB7
S31508000AE021680328EED30868C007EBD1BEE700BF2C
S31508000AF0002002B070BD00BF40F23C00C2F2000008
S31508000B00006842F663518009C0F23E51A0FB01011C
S31508000B10880900EB40000C2101EB80000190019848
S31508000B200028C6D001980138019001980028C0D045
S31508000B3001980138019001980028BAD00198013827
S31508000B40019001980028B4D00198013801900198C5
S31508000B500028E7D1ADE7000070B52DED028B40F215
S31508000B606450C2F2000090ED010A90ED051A9FED5F
S31508000B706C8A9FED6C2AB8EE411AB8EE400A21EE4F
S31508000B80081A20EE080A81EE021A80EE020A90ED93
S31508000B90073A90ED034AB8EE433A9FED645AB8EE29
S31508000BA0444A23EE083A24EE084A83EE023A84EED3
S31508000BB0022A9FED5D4A40F2B86440F2F00581EEE4
S31508000BC0051A80EE050A9FED5A5AC2F20004C2F2CF
S31508000BD00005204683EE043A82EE042A81EE051AC1
S31508000BE080EE050A85ED093A85ED0A1A85ED072A8C
S31508000BF085ED080A01F0F8F8204600F0E7FE00EE59
S31508000C00100AB8EE400A9FED4B1A20EE080A80EE4D
S31508000C10010A9FED491A38EE402A22EE012A82EE91
S31508000C20000A80EE010A10EE100AFFF723FD41ECD8
S31508000C30100B0AF029F851EC100B9FED310B53EC11
S31508000C40102BFFF761FC9FED300B53EC102BFFF7D1
S31508000C5042FB9FED2F0B02460B4651EC100BFFF79C
S31508000C6053FC9FED2D0B53EC102BFFF734FBFFF7CE
S31508000C7014FD40F22474C2F200042863204601F0F1
S31508000C80B3F847F2A856C1F6FF76708C31889FED07
S31508000C902B1A401A00EE100AB8EEC00A204681EE5A
S31508000CA0008A00F093FE00EE100A3088B8EE400A7B
S31508000CB0BCEE001A9FED222A20EE010A01EE100A68
S31508000CC0B8EE411A20EE020A31EE000A28EE000AB2
S31508000CD0B3EE0E1A30EE010A95ED131A9FED192A96
S31508000CE09FED193A21EE021A20EE030A31EE000AA8
S31508000CF085ED130A85ED0B0ABDEC028B70BD00BFAE
S31508000D000000000000DCAE40000000E0E1796B3F27
S31508000D10000000000000F03F00000060661271C08D
S31508000D20BB27534000F0FF456157803D00007842DD
S31508000D300AD7A33B00F07F4700401C460000C8C204
S31508000D4027C58C3F6666663FCDCCCC3DB0B540F234
S31508000D50F004C2F20004E07801280BD140F200400A
S31508000D60C4F6000020210022002501F041FCE570B0
S31508000D70A570B0BDA078012818BFB0BD40F20040EC
S31508000D80C4F6000020210122012501F031FCE5709E
S31508000D90B0BD0000B0B540F2F004C2F20004E0783D
S31508000DA0012801D1A07878B16078012818BFB0BDB4
S31508000DB040F20040C4F6000020210122012501F07E
S31508000DC017FCE570B0BD00BF40F20040C4F6000055
S31508000DD020210022002501F00BFCE5706570B0BDEE
S31508000DE0FEE7000040F28800C2F2000001F098B960
S31508000DF040F2F070C2F2000001F092B940F2907031
S31508000E00C2F2000001F08CB970470000012001F021
S31508000E1005BB0000000000002DE9F0472DED028B10
S31508000E2040F2F006C2F20006307801280CD140F6EE
S31508000E3000040120C4F60004012501F0D1FA204679
S31508000E40012101F0C7FB18B1BDEC028BBDE8F087A4
S31508000E5020460221757001F0BDFB012812D10FF260
S31508000E60545009F0FFF940F2040796F87000C2F2F0
S31508000E7000073978002849D0C9B2012940F0A68070
S31508000E804CE000BF2046022101F0A4FB002840F0F8
S31508000E909D800FF2E44009F0E5F940F2040096F867
S31508000EA07010C2F20000027829B90132D3B2042BBD
S31508000EB088BF01220270D2B2012A40F08780022937
S31508000EC000F07880012940F0818096F87110042995
S31508000ED000F2FA81DFE811F07A00060064017C016D
S31508000EE08E0100BF96ED1A0AB2EE041A9FEDCC2ABF
S31508000EF030EE010AB4EE420AF1EE10FA86ED1A0A4D
S31508000F0040F3E481BAEE041A85E100BF01390A0606
S31508000F1008BF04213970C9B2012957D1022823D044
S31508000F20012853D196F87100042855D8DFE800F057
S31508000F304E04586E880000BF96ED1A0ABAEE041AD7
S31508000F4030EE010AB6EE001AB4EE410AF1EE10FAD6
S31508000F5086ED1A0A80F29680B2EE041A30EE010A7D
S31508000F6086ED1A0A8EE000BF96F87100042800F292
S31508000F709980DFE800F02B039BB7D70096ED1B0A94
S31508000F80BAEE041A30EE018A18EE100A86ED1B8AAC
S31508000F90FFF770FB9FEDCA0B53EC102BFFF73EFBD8
S31508000FA0002840F0E780B2EE040A38EE008A86EDA3
S31508000FB01B8ADFE096F87110042900F29781DFE8B2
S31508000FC011F0050031014101570169010020307017
S31508000FD0BDEC028BBDE8F08796ED1A0A52E000BF19
S31508000FE096ED1A0ABFEE001A30EE010AB6EE001A9E
S31508000FF0B4EE410AF1EE10FA86ED1A0A42DA4FF01B
S315080010007C50B066B0EE410A3CE000BFB06EFFF718
S3150800101031FB9FEDD50B53EC102BFFF75CF9FFF76F
S315080010203CFB00EE100AB6EE001AB4EE410AF1EEE9
S3150800103010FAB06626DAFFF71DFB9FEDCD0B18E018
S31508001040B06EFFF717FB9FEDC40B53EC102BFFF7A1
S3150800105042F9FFF722FB00EE100AB6EE001AB4EECC
S31508001060410AF1EE10FAB0660CDAFFF703FB9FEDC2
S31508001070BC0B53EC102BFFF72EF9FFF70EFB00EE17
S31508001080100AB0669FEDC71A9FEDC72A20EE010A1F
S3150800109080EE020A9FEDC51A4FF07E5096ED1B8A28
S315080010A076E000BF96ED1B8A64E000BF96ED1B0A4A
S315080010B0BFEE001A30EE018A18EE100A86ED1B8A7A
S315080010C0FFF7D8FA9FEDA60B53EC102BFFF7A6FAFD
S315080010D000284FD14DF20A709FEDAE8AC3F6234021
S315080010E044E000BFF06EFFF7C5FA9FED9F0B53EC87
S315080010F0102BFFF7F0F8FFF7D0FA0446F066FFF773
S31508001100B9FA9FED970B054653EC102B8846FFF767
S3150800111085FA68BB9FED960B284653EC102B414683
S315080011201EE000BFF06EFFF7A5FA9FED8B0B53ECA0
S31508001130102BFFF7D0F8FFF7B0FA0446F066FFF772
S3150800114099FA9FED870B80465AEC105B2A46534660
S315080011508946FFF763FA58B9404649462A46534630
S31508001160FFF7B9F8FFF799FA08EE100AF06601E0FA
S3150800117008EE104A96ED1A0A9FED8A1A9FED8A2AFA
S3150800118020EE010A80EE020A9FED881A4FF07E5083
S31508001190706620EE010ABDEEC00A87ED030ABCE0C0
S315080011A096ED1A0AB7EE002A9FED811A30EE020A6A
S315080011B0B4EE410AF1EE10FA86ED1A0A40F386807B
S315080011C00021C4F24221B166B0EE410A7EE000BFBA
S315080011D096ED1A0A9FED711A9FED752A30EE010AEF
S315080011E0B4EE420AF1EE10FA86ED1A0A6EDD9FEDAC
S315080011F06C1A10E096ED1A0A9FED661A9FED6C2A96
S3150800120030EE010AB4EE420AF1EE10FA86ED1A0A39
S315080012105CDD9FED611A30EE010A86ED1A0A55E08B
S315080012200000424296ED1B0AB2EE041A30EE018A1D
S31508001230B4EE418AF1EE10FA86ED1B8A58DDBAEE55
S31508001240040A38E096ED1B0AB7EE001A30EE018A5A
S31508001250B2EE040AB4EE408AF1EE10FA86ED1B8A65
S3150800126046DD0021C4F22011F166B0EE408A3FE067
S3150800127096ED1B0A9FED491A30EE018AB2EE040A72
S31508001280B4EE408AF1EE10FA86ED1B8A30DD9FED4A
S31508001290440A10E096ED1B0A9FED3E1A30EE018ACD
S315080012A0B2EE040AB4EE408AF1EE10FA86ED1B8A15
S315080012B01EDD9FED390A38EE008A86ED1B8A17E097
S315080012C07B14AE47E17A843F96ED1A0A9FED351AEC
S315080012D09FED352A20EE010A80EE020A9FED331AA9
S315080012E04FF07E5196ED1B8A10E000BF96ED1B8AE3
S315080012F096ED1A0A9FED2B1A9FED2B2A20EE010A6E
S3150800130080EE020A9FED291A4FF07E51716620EE93
S31508001310010ABDEEC00A80ED030A9FED2D0A9FED76
S315080013202D1A28EE000A20EE010A80EE020A9FED29
S315080013301F1A40F20400C2F2000020EE010ABDEEB8
S31508001340C00A80ED040A00203070BDEC028BBDE8AF
S31508001350F08700BF00BF00BF7B14AE47E17A84BFA9
S315080013607B14AE47E17A843F9A9999999999B9BFBE
S315080013709A9999999999B93FE7BC96E7A081E59911
S31508001380A8E9A1BAE697B6E99288E6978BE8BDACD4
S315080013900D0A00000AD7233C0AD723BCCDCCCC3D86
S315080013A0CDCCCCBD6157803DBB27534000F0FF45EF
S315080013B000004242E7BC96E7A081E599A8E9808645
S315080013C0E697B6E99288E6978BE8BDAC0D0A000069
S315080013D00AD7A33B00007842EFF3108072B600BF2D
S315080013E0FEE7000040F6F821642828BF6420C2F210
S315080013F0000100EB800009684000C86370470000E0
S31508001400B0B582B004460020019094F8580001282F
S3150800141002D1022002B0B0BD012084F8580020464F
S315080014200D46FFF7D3FAE16D10B141F010014BE01C
S3150800143041F2021291430231E16521684FF6C07309
S31508001440D1F808C0C3F6FF7303EA0C0305F080451C
S315080014504DF601622B44C0F2040203F100438B608F
S315080014608B68B3F1FF3F2BDC019B01330193019B92
S3150800147093421DD88B68B3F1FF3F21DC019B0133F2
S315080014800193019B934213D88B68B3F1FF3F17DC96
S31508001490019B01330193019B934209D88B68B3F1F1
S315080014A0FF3F0DDC019B01330193019B9342D7D982
S315080014B0E06D40F0100020F00201012004E000BFBA
S315080014C0E16D012262F30101E165002184F85810FB
S315080014D002B0B0BD90F85820012A04BF0220704718
S315080014E070B582B0002201920092026840F2080CA0
S315080014F0C5F2000CB2F1A04F0CF1F80508D040F285
S315080015000043C5F200039A4234D10CF59F6300E00C
S315080015102B469B68946823435B072BD44FF4E06300
S31508001520D1F800E0AA4208BF4FF44073B2F1A04FC9
S3150800153008BF4FF440735CF80340BEF1000F24F473
S31508001540604425D04D6890F8386042F4807245EAC8
S3150800155046352C4340F20015C5F20005AA424CF860
S31508001560034027D1DCF80020DCF800412243D207EB
S3150800157048D129E0C16D41F02001C1650121002251
S3150800158080F8582002B0BDE870400846704700BF92
S3150800159042F4807140F20012C5F2000291424CF802
S315080015A003401BD1DCF80010DCF800211143C90701
S315080015B028D11DE0DCF80044DCF80055DCF80026EC
S315080015C02C432243D2071DD15CF8032040F61F7432
S315080015D08968A243114341EA0E010EE0DCF80024B3
S315080015E0DCF80065DCF8001632431143C90709D157
S315080015F05CF8031040F61F7291434CF80310002163
S31508001600BDE700BF0021BAE7F0B581B0002200921D
S3150800161090F85820012A03D10221084601B0F0BDEE
S315080016200123076880F85830BB685B0734D4D1E9D2
S3150800163000351F26C5F3012407EB8404226B05F049
S315080016401F05AE40C3F38463B243AB401A4322631B
S31508001650BA68BB6802F0040203F00803D21840F027
S31508001660BC800A6807F114030426C2F34064D1F863
S3150800167008E006EAD25C53F82440C2F30455072270
S31508001680AA40BEF1004F24EA02040BD143F80C40ED
S315080016901A6842F000430DE0C16D41F02001C165B2
S315080016A0012167E10EFA05F2224343F80C201A6875
S315080016B022F000437B61D1E90435FC68042B5FD135
S315080016C03A6E3A6E0B68C2F3846293FAA3F6C3F3D2
S315080016D0846C6FF3DF43B6FA86F5002B2C464FF67B
S315080016E0FF7E08BF6446A242C0F2070E0CD13A6ECE
S315080016F022F000423A660A6802EA0E03C2F3846CD4
S3150800170092FAA2F2B2FA82F57A6E7A6E002BC2F3D8
S3150800171084622C4608BF6446A2420CD17A6E22F037
S3150800172000427A660A6802EA0E03C2F3846C92FAE9
S31508001730A2F2B2FA82F5BA6EBA6E002BC2F38462CE
S315080017402C4608BF6446A2420CD1BA6E22F000426B
S31508001750BA660A6802EA0E03C2F3846C92FAA2F227
S31508001760B2FA82F5FA6EFA6E002BC2F3846208BFEB
S315080017706546AA4231D1FA6E22F00042FA662CE09A
S31508001780062202EA940205FA02FC0E6807F16005D1
S3150800179055F823404FF20002C0F2FF3206F0F84631
S315080017A0224046EA0C06324342F0004245F823201E
S315080017B00A698B6955F8226026F08076334345F826
S315080017C022300A690B7F55F82260012B26F0007635
S315080017D008BF06F1007645F82260BA680D68D20798
S315080017E050D1CA68D7F8B0602B466FF3DF4326EAB4
S315080017F0030C4FF6FF7602F01804C0F20706E6401F
S3150800180000242E40C4F27F0446EA0C06A242C7F81A
S31508001810B06037D193B195FAA5F2B2FA82F20132E5
S3150800182002F01E03092B02F01F0310D801229A406A
S3150800183003EB430342EA035315E000BF012202EB20
S31508001840956202F01E030A2B02F01F03EED3012253
S3150800185000269A4003EB4303CFF6206606EB0353B4
S315080018601A4342F00073C3F3406607EB86068A689C
S315080018707569C3F3045307249C40A5439A402A4339
S3150800188072610D680021C8F208010D4271D040F25C
S31508001890001CC5F2000C4FF4C161674508BF4FF440
S315080018A00271B7F1A04F08BF4FF4027151F80C400E
S315080018B00022CCF22132954204F0E07E04D01022B8
S315080018C0C9F2C002954241D1220252D440F20062C6
S315080018D0C5F20002974202D0B7F1A04F49D15CF891
S315080018E0012022F0E07242EA0E0242F400024CF8AD
S315080018F0012040F23C01C2F20001096842F6635237
S315080019008909C0F23E52A1FB0212910901EB41017D
S315080019100C2202EB81010091009951B3009901391B
S315080019200091009929B3009901390091009901B3F2
S315080019300099013900910099D9B1009901390091AE
S31508001940009900294FF00001E8D113E00022CCF2FB
S315080019505272954214D10022B2EB1E6F10D15CF878
S31508001960012022F0E07242EA0E0242F080724CF840
S3150800197001200021002280F85820084601B0F0BD59
S315080019800021CCF684318D424FF0000108BF14F4D3
S315080019908002EFD1B7F1A04F06D06745EAD0674578
S315080019A002D00CF5C06101E00CF500718A6822F0DE
S315080019B0E07242EA0E0242F480028A60D9E7000029
S315080019C07047000070470000704700000068006C10
S315080019D070470000B0B582B00446002001904CB1B3
S315080019E0E06D58B121688868800012D48868C00004
S315080019F019D54CE0012002B0B0BD00BF204600F06A
S31508001A0027F90020206684F8580021688868800035
S31508001A10ECD588684FF6C072C5F6FF72104088602C
S31508001A208868C00033D44FF6C0728868C5F6FF725E
S31508001A3002F18052104000F18050886040F23C006C
S31508001A40C2F20000006842F663528009C0F23E52B4
S31508001A50A0FB02029009022202EB400001900198C5
S31508001A60A8B100BF019801380190019878B1019892
S31508001A7001380190019850B10198013801900198F8
S31508001A8028B101980138019001980028EAD18868A0
S31508001A90C00009D4E06D40F01000E065206E40F00B
S31508001AA001002066012000E000208A68E36D02F04C
S31508001AB0040203F01003D218E26D40F0818022F48C
S31508001AC081720232E2658A68D20729D140F2001390
S31508001AD041F48072C5F2000340F2080C9A42C5F23E
S31508001AE0000C73D1DCF80030DCF800211A43D20769
S31508001AF016D10CF1F8024FF4E063D4F804E09142F1
S31508001B0008BF4FF44073B1F1A04F08BF4FF44073BC
S31508001B105CF8032022F47C1242EA0E024CF80320F9
S31508001B2094F81DE0E36BD4E902C243EA4E331A4344
S31508001B3094F8243042EA0C02012B42EA034207D108
S31508001B40D4F828C00023CFF6FE7303EB4C431A43A0
S31508001B50E36A33B1D4F830C003F4787343EA0C036C
S31508001B601A43D1F80CC044F20703CFF6F07303EA20
S31508001B700C031A43CA600A69636B22F040621A436F
S31508001B800A618A68120752D494F83820237F5200D3
S31508001B9042EA833CCB6844F2020223EA020242EAA2
S31508001BA00C02CA6022690B69F2B143F480330B61F7
S31508001BB0D1F8C0C043F6FF732CEA03031A431BE0AF
S31508001BC042F010010120E16502B0B0BDDCF800E486
S31508001BD0DCF80025DCF8003642EA0E021A43D20782
S31508001BE03FF487AF9CE700BF23F480320A61D1F83F
S31508001BF0C02043F6FF739A43C1F8C02094F84030DA
S31508001C000A69012B10D140F2FD7322EA030CD4E9CC
S31508001C101132D4E913E543EA0C031A4342EA0E02E9
S31508001C202A4342F0010201E022F001020A616269D8
S31508001C300B6B012A23F00F0202D1236A013B1A43D8
S31508001C400A63E16D012262F30101E16502B0B0BDEC
S31508001C50F0B59BB0044600201A90CDE91800CDE9EE
S31508001C60160001A85421FEF71DFB206840F200610A
S31508001C70C5F20001884263D040F20011C5F20001A6
S31508001C80884279D0B0F1A04F74D14FF4004001904A
S31508001C904FF00050129001A802F086F8002818BFED
S31508001CA0FFF79AFB40F28405C2F20005296841F263
S31508001CB04C00C4F202004A1C2A6041B9016841F48A
S31508001CC000510160016801F4005100910099016812
S31508001CD0002641F001010160006816A900F0010024
S31508001CE0009000980F201690032017904FF0904010
S31508001CF0189600F09FFB0821C4F20201284640F816
S31508001D00041F052180224FF480734FF40057C0E961
S31508001D10011600F114014FF4806C4FF0200EC0E953
S31508001D20036281E80850076200F050FA002818BFDD
S31508001D30FFF752FB281D6065EC621BB0F0BD00BFC3
S31508001D404FF4803001904FF00040139001A802F044
S31508001D502BF8002818BFFFF73FFB41F24C00C4F2EE
S31508001D600200016841F480410160006800F4804087
S31508001D70009000981BB0F0BD4FF4004001904FF062
S31508001D800050129001A802F00FF8002818BFFFF7BC
S31508001D9023FB40F28401C2F200010A6841F24C00BA
S31508001DA0C4F20200531C0B6042B9016841F40051A9
S31508001DB00160016801F4005100910099016841F041
S31508001DC001010160006816A900F001000090009862
S31508001DD01020169003201790002018904FF090407E
S31508001DE000F028FB1BB0F0BD70B540F20045044674
S31508001DF0C5F200050068A5F540714FF442728842A5
S31508001E0008BF6FF0F702B0F1A04F08BF6FF0F702F6
S31508001E1056598068400703D494F85800012801D120
S31508001E20022070BD012084F858002046FEF70CFEFB
S31508001E3020B1002084F85800012070BD2068E16DAB
S31508001E4040F60172914340F20012C5F2000240F2D8
S31508001E50005C06F01F0301F580719042C5F2000C84
S31508001E60E16503D0604507D1294601E04FF0A0415E
S31508001E70814218BF002B03D1E16D21F48011E16581
S31508001E80E16D0026C9044FF0000144BF216E21F020
S31508001E90060121661C219042016084F8586005D02D
S31508001EA060450FD12946814204D10BE04FF0A0418D
S31508001EB0814207D0092B17D80121994040F22123E6
S31508001EC0194211D0C168890104D5E16D012262F376
S31508001ED00D31E16581684FF6C072C7F6FF72114091
S31508001EE004318160002070BDE16D904241F480119B
S31508001EF0E16503D0604508BF284601E04FF0A040E1
S31508001F00C06880015CBF002070BDE06D012161F3EF
S31508001F100D30E065002070BD2DE9F041044640F221
S31508001F2000170068C5F200074FF4C163B84208BF3E
S31508001F304FF40273B0F1A04F08BF4FF40273DB5998
S31508001F4086689046720704D40E4694F858100129FC
S31508001F5002D10220BDE8F08107F5A06203F01F0553
S31508001F600121904284F8581018BF002D16D120463A
S31508001F70FEF76AFDB0B92168E06D40F6017290433C
S31508001F8000F58070B942E06512D040F20050C5F203
S31508001F900000814212D107F540700BE0052DE6D00E
S31508001FA0092DE4D0002084F858000120BDE8F0810E
S31508001FB04FF0A040884218BF002D03D1E06D20F4F1
S31508001FC08010E065E06D40F64913C0044FF000004C
S31508001FD044BF206E20F006002066606D40F6C517E7
S31508001FE0C0F60003C0F6000740F6AD150022C0F69D
S31508001FF00005C0E90B371C2345630B6084F858209D
S315080020004A68434642F010024A60CA6842F0010232
S31508002010CA604031324600F06FF921684FF6C07346
S315080020208A68C7F6FF731A4004328A60BDE8F081F1
S31508002030014690F82500022828D180B50868D1E91C
S3150800204010CE8A6C036823F00E030360136823F42A
S3150800205080731360026822F0010202600EF01F000E
S31508002060012202FA00F0CCF80400D1E913205060EE
S31508002070486D30B1026822F480720260D1E9160216
S3150800208042600020BDE8804003E000BF0420C8632A
S315080020900120012281F82520002281F8242070479A
S315080020A090F82510022931D180B50168D0E910CE03
S315080020B0826C0B6823F00E030B600B6823F0010398
S315080020C00B60116821F4807111600EF01F02012166
S315080020D001FA02F2CCF80420D0E913325A60426DB4
S315080020E032B1136823F480731360D0E91623536062
S315080020F080F82510826B002180F824100AB19047D9
S315080021000021BDE880400846704700BF0421C1632E
S315080021100121002280F8251080F8242008467047FF
S31508002120B0B5D0E910C30268DCF8001003F01F034D
S315080021300424D2F800E09C400C4218BF1EF00405A7
S3150800214022D102249C400C4218BF1EF0020529D158
S31508002150D940090724D51EF0080108BFB0BD11688B
S3150800216021F00E011160012101FA03F2CCF80420D6
S31508002170C16380F82510416B002280F8242079B1CC
S31508002180BDE8B040084700BF1168890603D4116846
S3150800219021F004011160CCF80440016B0029EFD14D
S315080021A0B0BD00BF1168890606D4116821F00A017E
S315080021B01160012180F82510CCF80440C16A00227C
S315080021C0002980F82420DBD1EAE7000000284FF038
S315080021D0010100F08E802DE9F04740F2000CC4F2B0
S315080021E0020C03684FF6F8320CF5816ECBF6FD72D9
S315080021F0734538BF02F580624CF6CD441A44CCF6D6
S31508002200CC44A2FB042803F0FC02A2F10802A2FBBC
S3150800221004290CF580656FF00304D0E90262D0F852
S3150800222010A03CBF0025C4F2020504EA9804C0E9E0
S315080022301054022580F825501D6847F6F07725EAE0
S3150800224007073A43476942EA0A0285693A43C76972
S315080022502A43056A3A432A4332431A600CF5026256
S31508002260734538BF0CF50062A3180CF50862C26402
S31508002270C9F3041240F6840C01FA02F2B6F5804F4F
S31508002280C4F2020C8364026506D10021416019601C
S31508002290CCF800201EE000BF41685FFA81FE0139D4
S315080022A003294FF00001C3F800E0CCF8002011D84C
S315080022B0AEF101020CEB820747F87C1F02F01F0102
S315080022C0012202FA01F30CF1BC023946CCF8C030FF
S315080022D002E000BF0022002300F1540C8CE80E0037
S315080022E000210122C16380F8252080F82410BDE86A
S315080022F0F04708467047000090F824C0BCF1010F6B
S3150800230047D04FF0010C80F824C090F825C0BCF1E6
S31508002310010F3BD12DE9F0414FF0020C80F825C0A2
S315080023204FF0000CC0F83CC0D0F800C000F14C0ECD
S315080023309EE83040DCF80060BEF1000F26F001068A
S31508002340CCF8006065601CBFD0E916456560D0E929
S315080023501056012706F01F06846807FA06F6D0F815
S3150800236030806E60CCF804300B46102C04BF134640
S315080023700A46CCF80830CCF80C20DCF80010B8F186
S31508002380000F09D041F00E010EE000BF002180F8D1
S3150800239024100220704700BF21F00401CCF8001079
S315080023A0DCF8001041F00A01CCF80010806C0168D6
S315080023B0C90303D5016841F480710160BEF1000FBD
S315080023C005D0DEF8000040F48070CEF80000DCF896
S315080023D0000040F00100CCF800000020BDE8F081C4
S315080023E0B0B5044600F00AF9054640F22800C2F2E4
S315080023F000004068611C18BF044400BF00F0FEF8E6
S31508002400401BA042FAD3B0BD012818BF704740F25E
S31508002410F000C2F2000001210170704740F2144139
S31508002420C4F201010A68024214BF08607047FFF748
S31508002430EBBF00002DE9F04F82B00D68002D00F0CB
S31508002440C58000F13847860546EA972741F20046D7
S31508002450C4F60006062240F2004EB04208BF052226
S31508002460C4F2010E052F38BF3A464FF0000C01247E
S3150800247000270026009209E00D68013635FA06F2B3
S3150800248007F102070CF1040C00F0A08004FA06FB21
S3150800249015EA0B08F0D0D1F804A003230AF00305C7
S315080024A06A1EBB40012A6FEA03090FD88268CB6807
S315080024B002EA0902BB401A4382604268CAF3001363
S315080024C022EA0B02B3401A43426003E0032D01D10E
S315080024D003251FE0C2688B6802EA0902BB401A435B
S315080024E0022DC26016D16FF0030202EA56020244B8
S315080024F00CF01C050F23D2F820A003FA05FB0B6984
S315080025002AEA0B0AAB4043EA0A031362D1F804A08D
S315080025100AF00305026805FA07F302EA09021A43F4
S315080025201AF4403F0260A7D041F26003C4F20203E6
S315080025301A684FF6084A42F001021A601A68CFF67E
S31508002540FF7A02F001020192019A26F00302724410
S3150800255052F80A900CF00C050F23009CAB4029EAB0
S31508002560030304FA05F52B4342F80A30DEF808207F
S315080025704B6842EA080540F20C49DC0258BF22EAD9
S315080025800805CEF80850C4F20109D9F800209D02C2
S3150800259042EA080458BF22EA0804C9F80040DEF8EF
S315080025A004209D0342EA080458BF22EA0804CEF82C
S315080025B00440DEF80020DB0342EA080458BF22EA9A
S315080025C00804CEF80040012456E700BF02B0BDE873
S315080025D0F08F00000069084018BF0120704700000E
S315080025E0426902EA0103914341EA03418161704766
S315080025F01823002A08BF2823C150704740F6D83050
S31508002600C2F200000068704790F8DD30022B03D153
S315080026104FF0020C6046704790F8DC304FF0020C21
S31508002620012B01D16046704701237F2980F8DC30F1
S3150800263080F8DDC000F32C8001393F2900F27E8046
S31508002640DFE801F020347C3A7C7C7C407C7C7C7C16
S315080026507C7C7C467C7C7C7C7C7C7C7C7C7C7C7CE2
S315080026607C7C7C547C7C7C7C7C7C7C7C7C7C7C7CC4
S315080026707C7C7C7C7C7C7C7C7C7C7C7C7C7C7C7C8C
S315080026807C7C7C5A0168D1F8003462F3040324E0A8
S31508002690802937D0B1F5807F3AD0B1F5007F4DD18A
S315080026A00168D1F8043462F31C6336E00168D1F896
S315080026B0003462F38A1310E00168D1F8003462F33B
S315080026C010330AE00168D1F8003462F3964304E057
S315080026D00168D1F8003462F31C63C1F8003490F83D
S315080026E0DD104FF0010C072920D19BE70168D1F8CE
S315080026F0043462F3040310E00168D1F8043462F389
S315080027008A130AE00168D1F8043462F3103304E04E
S315080027100168D1F8043462F39643C1F8043490F89A
S31508002720DD104FF0010C07293FF47CAF80F8DDC0BF
S315080027304FF0000C80F8DCC060467047072180F82F
S31508002740DD10002180F8DC1090F8DD104FF0010C48
S315080027500729EBD166E7000090F8DD30022B03D19C
S3150800276002231846704700BF90F8DC30012B4FF063
S31508002770020301D118467047B0B5012480F8DC4041
S3150800278080F8DD3003687F29D3F880C3D3F8FCE3EB
S3150800279000F352804C1E3F2C00F21E81DFE814F035
S315080027A0400070001C017C001C011C011C018800F3
S315080027B01C011C011C011C011C011C011C019400AC
S315080027C01C011C011C011C011C011C011C011C0113
S315080027D01C011C011C011C011C011C011C01AE0072
S315080027E01C011C011C011C011C011C011C011C01F3
S315080027F01C011C011C011C011C011C011C011C01E3
S315080028001C011C011C011C011C011C011C011C01D2
S315080028101C011C011C011C011C011C011C01C60019
S315080028205488526864F3124CC3F8BC2390F8DD2030
S31508002830072A40F0C180D9E0802900F08F80B1F5E1
S31508002840807F00F0A380B1F5007F40F0C5805488F2
S31508002850D3F8F85364F3165E25F0F844C3F8F84342
S315080028605268D3F8F84302F01F0244EA8262C3F8BA
S31508002870F82390F8DD20072A40F09E80B6E000BFD6
S315080028805488526864F3D54CC3F8C02390F8DD2009
S31508002890072A40F09180A9E05488526864F3985C4E
S315080028A0C3F8C42390F8DD20072A40F085809DE010
S315080028B05488526864F35B6CC3F8C82390F8DD202B
S315080028C0072A79D192E000BF4FEADE05B2F802E0A6
S315080028D0D3F8F84365F3DF0E24F01F04C3F8F84372
S315080028E05268D3F8F84302F01F022243C3F8F823CC
S315080028F090F8DD20072A5FD178E000BF5488D3F826
S31508002900F85364F3061E25F47874C3F8F84352683E
S31508002910D3F8F84302F01F0244EA4212C3F8F82338
S3150800292090F8DD20072A47D160E000BF5488D3F825
S31508002930F85364F30A2E25F4F844C3F8F8435268AA
S31508002940D3F8F84302F01F0244EA8222C3F8F823B8
S3150800295090F8DD20072A2FD148E000BF5488D3F825
S31508002960F85364F30E3E25F4F814C3F8F843526896
S31508002970D3F8F84302F01F0244EA0242C3F8F823E8
S3150800298090F8DD20072A17D130E000BF5488D3F825
S31508002990F85364F3124E25F07874C3F8F843526876
S315080029A0D3F8F84302F01F0244EA4252C3F8F82368
S315080029B090F8DD20072A19D00F298CBFC3F8FCE34D
S315080029C0C3F880C30121002380F8DD1080F8DC30CD
S315080029D0BDE8B04018467047072280F8DD2000227F
S315080029E080F8DC2090F8DD20072AE5D10123BDE830
S315080029F0B040184670470000704700007047000056
S31508002A0070470000704700007047000070470000DC
S31508002A1070470000704700007047000090F8DC20FF
S31508002A20012A4FF0020221D0012380F8DC3080F819
S31508002A30DD2002684B1CD2F8CCC309D04CF0020347
S31508002A40C2F8CC33D2F8CC3323F00C03194301E097
S31508002A502CF00201C2F8CC13D2F8CC1341F00101D4
S31508002A60C2F8CC130121002280F8DD101046704709
S31508002A7090F8DD30022B04BF0220704790F8DC3056
S31508002A80012B4FF002033DD070B580F8DD30D2E956
S31508002A9000C3D2E902E60CF4E0546FF35F2315692C
S31508002AA023440EF40074234405F480452B4406F4AD
S31508002AB00046334456690025C0F2FF1505EA064666
S31508002AC09569334405F00076156A334405F0804667
S31508002AD0D2693343066802F0004206EBC1111A4375
S31508002AE0D1F8B83042F20006C3F6004633401A431E
S31508002AF0C1F8B8200121002380F8DD1080F8DC3009
S31508002B00BDE87040184670477047000070470000DF
S31508002B1070470000704700007047000070470000CB
S31508002B20704700002DE9F0410629044610D00D46ED
S31508002B30FF293DD12068D0F88863D0F89053F10773
S31508002B4018BF15F0010145D1B0074BD454E000BFBA
S31508002B502068D0F88853D0F890734668D0F80C806F
S31508002B60E9030FD517F480310CD04FF48031C0F843
S31508002B708C13012084F8DD00002084F8DC00204650
S31508002B80FFF74AFFA8030AD517F4003007D02068D4
S31508002B904FF40031C0F88C132046FFF72DFFF007DD
S31508002BA018BF18F0010067D1B0076ED477E000BFF0
S31508002BB0206800EBC510D0F88470D0F88C60F9074F
S31508002BC018BF16F0010140F0A980B80700F1AF80E0
S31508002BD0BAE000BF0121C0F88C132046FFF796FF24
S31508002BE0B00709D515F0020006D020680221C0F802
S31508002BF08C132046FFF78CFF700709D515F00400E3
S31508002C0006D020680421C0F88C132046FFF782FFFF
S31508002C10300709D515F0080006D020680821C0F845
S31508002C208C132046FFF778FFF00609D515F010003B
S31508002C3006D020681021C0F88C132046FFF76EFFD7
S31508002C40700609D515F0400006D020684021C0F866
S31508002C508C132046FFF764FFB00640F1358115F066
S31508002C60200000F03181216820222046C1F88C23FB
S31508002C70BDE8F04100F00CBA2068012181602046C9
S31508002C800621FFF7BFFEB00709D518F0020006D0E7
S31508002C9020680221816020460621FFF7B5FE7007ED
S31508002CA009D518F0040006D0206804218160204662
S31508002CB00621FFF7ABFE300709D518F0080006D045
S31508002CC020680821816020460621FFF7A1FEF0064C
S31508002CD009D518F0100006D020681021816020461A
S31508002CE0062100F0D1F9B00608D518F0200005D065
S31508002CF0206820218160204600F0C8F9700640F15E
S31508002D00E38018F0400000F0DF8022684023204668
S31508002D1006219360BDE8F04100F0B4B90121C0F87E
S31508002D20881020462946FFF76DFEB8070CD516F021
S31508002D30020009D02068022100EBC510C0F88810EF
S31508002D4020462946FFF760FE78070CD516F00400E2
S31508002D5009D02068042100EBC510C0F88810204669
S31508002D602946FFF753FE38070CD516F0080009D098
S31508002D702068082100EBC510C0F8881020462946AF
S31508002D80FFF746FEF8060CD516F0100009D02068A5
S31508002D90102100EBC510C0F888102046294600F01F
S31508002DA073F978060CD516F0400009D02068402142
S31508002DB000EBC510C0F888102046294600F062F9D5
S31508002DC038060CD516F0800009D02068802100EB63
S31508002DD0C510C0F8881020462946FFF70FFEF805EB
S31508002DE00DD516F480700AD020684FF4807100EB78
S31508002DF0C510C0F8881020462946FFF701FEB80519
S31508002E000DD516F400700AD020684FF4007100EB57
S31508002E10C510C0F888102046294600F0F3F8780552
S31508002E200DD516F480600AD020684FF4806100EB57
S31508002E30C510C0F888102046294600F0E1F8380584
S31508002E400DD516F400600AD020684FF4006100EB37
S31508002E50C510C0F888102046294600F0D7F8F804AF
S31508002E600DD516F480500AD020684FF4805100EB37
S31508002E70C510C0F888102046294600F0C5F8B804E1
S31508002E800DD516F400500AD020684FF4005100EB17
S31508002E90C510C0F8881020462946FFF7BBFD780400
S31508002EA058BFBDE8F08116F480400DD020684FF475
S31508002EB0804300EBC51220462946C2F88830BDE893
S31508002EC0F041FFF721BE00BFBDE8F081002804BF2E
S31508002ED00120704710B582B00446022084F8DD0050
S31508002EE0207AC0074FF00000C4E93800C4E93A0068
S31508002EF0C4E93C00C4F8F8001FD0206846F6000173
S31508002F00C4F2010188420CD141F26001C4F2020107
S31508002F100A6842F080620A60096801F080610191DE
S31508002F2001990168D4E9042321F4704102F440426E
S31508002F30114403F4405211440160204600F03EF863
S31508002F40207A800706D52068E1680268090A61F3D5
S31508002F5009220260012084F8DD00002084F8DC00E4
S31508002F60C4F8D800C4E90600C4E90800A062C4E9A8
S31508002F700C00C4E90E00C4E91000C4E91300C4E952
S31508002F801500C4E91700C4E91A00C4E91C00C4E91D
S31508002F901E00C4E92100C4E92300C4E92500C4E9E8
S31508002FA02800C4E92A00C4E92C00C4E92F00C4E9B2
S31508002FB03100C4E9330002B010BD0000006846F6CF
S31508002FC00001C4F20101884218BF704780B582B07B
S31508002FD041F26000C4F202000168002241F08061FB
S31508002FE001600068012100F0806001900198472087
S31508002FF000F000FE472002B0BDE8804000F0E8BDC2
S3150800300070470000704700007047000070470000D6
S3150800301070B50D460446FFF7F1FA2168D1F8882302
S31508003020D2031FD435B30646681C11D1D1F88803DC
S31508003030C00317D4D1F88803C0035CBFD1F888034E
S315080030405FEAC0300ED4D1F88803C003EED509E094
S31508003050FFF7D4FA801BA8420ED82068D0F8880358
S31508003060C003F5D5012084F8DD00002084F8DC00D3
S3150800307070BD00BFFFF7C2FA072084F8DD00032001
S3150800308070BD0000704700007047000070470000E0
S315080030907047000090F8DD30022B4FF0020331D064
S315080030A010B580F8DD300368062911D11968D2E910
S315080030B000CED2E9024221F01F0124F01804214370
S315080030C011431960C3F814C0C3F818E014E000BF30
S315080030D003EBC111D1F88030D2E900ECD2E9024203
S315080030E023F01F0324F0180423431A43C1F8802051
S315080030F0C1F894E0C1F898C00121002380F8DD10DA
S31508003100BDE810401846704790F8DDC0BCF1020FC4
S3150800311004D14FF0020C6046704700BF90F8DCC03F
S31508003120BCF1010F4FF0020C02D16046704700BF98
S3150800313010B54FF0010E062980F8DCE080F8DDC0F6
S3150800314012D1511E07292DD80FF20402DFE801F02B
S3150800315004222A362A2A2A3E19680268D16190F87A
S31508003160DD10072939D095E0A2F1010CBCF1070F53
S3150800317054D80FF20602DFE80CF0053751595151C1
S31508003180516100BF02681B6802EBC111C1F89C308F
S3150800319075E000BF19680268516290F8DD100729CA
S315080031A01BD077E0072180F8DD10002180F8DC10BD
S315080031B090F8DD10072910D06CE000BF1968026886
S315080031C0916290F8DD10072907D063E01968026854
S315080031D0D16290F8DD1007295CD14FF0010CBDE8EB
S315080031E010406046704700BFD0F800C0D3E900E43D
S315080031F00CEBC11CCCF8A4E0614651F8802F22F4F0
S3150800320040520A60DCB30A68B4F5405F42EA040239
S315080032100A6031D0B4F5005F29D030E0072180F884
S31508003220DD10002180F8DC1029E000BF02681B6869
S3150800323002EBC111C1F8A83021E000BFD0F800C0E8
S31508003240D3E900420CEBC11CCCF8AC40614651F8FE
S31508003250804F24F440440C608AB10C68B2F5405F94
S3150800326044EA82040C6007D0B2F5005F07D199687A
S31508003270CCF89C1003E000BF9968CCF8A81090F829
S31508003280DD10072906D14FF0010CBDE81040604655
S31508003290704700BF01214FF0000C80F8DD1080F860
S315080032A0DCC0BDE8104060467047000090F8DC209E
S315080032B0012A4FF002020BD080F8DD20026813685D
S315080032C0194311600121002280F8DD1080F8DC2006
S315080032D010467047B0B5044690F8DD00022804BFD2
S315080032E00220B0BD94F8DC0001284FF0020008BFA8
S315080032F0B0BD012584F8DC5084F8DD00204603F0D3
S315080033005BF8002084F8DD5084F8DC00B0BD0000CE
S3150800331090F8DC20012A4FF002020DD080F8DD205B
S315080033200268D2F894331943C2F894130121002293
S3150800333080F8DD1080F8DC201046704790F8DC2015
S31508003340012A4FF002020DD080F8DD200268D2F87B
S3150800335098331943C2F898130121002280F8DD102A
S3150800336080F8DC201046704790F8DD30022B04BF49
S315080033700220704790F8DC30012B4FF0020300F072
S3150800338034812DE9F04F8EB0012780F8DC7080F883
S31508003390DD30D0F80090062909EBC11C62D0E6465C
S315080033A05EF8803F644623F07043CEF80030DEF8BE
S315080033B0003054F8E85F23F020030B950D9464461B
S315080033C054F8E46F0C94D9F8A0535469202C44EAB5
S315080033D0030709D09469042C00F00A81032C00F035
S315080033E00B81022C40F00C8127F4D07303F12007DF
S315080033F0D369D2E911A40093136AD2F82CB00193C9
S31508003400536A0493936A0593536B0693D2E90E8322
S315080034100A93136C0993936D089344F48053B3F598
S31508003420F05F136D079326F480734AEA030A02D104
S31508003430B8F1400F03D12AF4F05343EA040AD36CD7
S3150800344005290393536D02934CD875A353F821307D
S315080034502E46156B4C1C334005FA04F444EA030661
S3150800346041E000BFD9F80060D9F8A0E3556926F015
S31508003470E00625F0C004202D46EA040609D0956921
S31508003480042D00F0C180032D00F0C280022D40F00B
S31508003490C38046F020064FF2FF35C3F2FF15D2E986
S315080034A007472E4005F50065D2E909382C40344314
S315080034B027F06E452C4323F06843234328F06044E5
S315080034C0D2F82CB0234343EA8B03546B23F0005302
S315080034D02343146B2EF480372743C9F80030C9F804
S315080034E0A07350E02E464FF2FF33C0F2FF13009D43
S315080034F007EA030403F500632B402343019C049D5C
S31508003500A4B223434FF6BF74C0F2006425402B4390
S31508003510059D04F100642C4023434FF6BF7443EA2B
S315080035200B03CFF600642340069CB4F1005F4FF608
S31508003530FF74CFF6026408BF03F5003308EA0405F2
S315080035402B43089D04F580242C402343079C2343E2
S31508003550CEF800304FF6C0730B9FC7F6FF733B409B
S315080035600A9F07F03F073B44099F3B430D9F3B607B
S31508003570039F2AF480433B430C9F3B60029BCCF895
S31508003580D430C9F8A063C1EBC103D2E9007500EBDA
S315080035908303D2E90246C3E9087517690629C3E910
S315080035A00A461F630AD84BF6F023C0F6000353F801
S315080035B02130D9F884733B43C9F8843306290BD0E4
S315080035C0BBF1000F08D1DCF88010D26D21F4007130
S315080035D041EA4221CCF880100121002380F8DD1051
S315080035E080F8DC300EB0BDE8F04F1846704700BFD3
S315080035F0022363F3C817FBE6012363F3C817F7E64C
S3150800360027F4D077F4E600BF46F0800643E700BF0C
S3150800361046F040063FE700BF26F0E0063BE700BF5E
S31508003620FFFFFDFFFFFFFBFFFFFFF7FFFFFFEFFFBA
S31508003630FFFFDFFFFFFFBFFF90F8DD30022B04BF5F
S315080036400220704790F8DC30012B4FF0020341D07E
S315080036502DE9F04180F8DD30D0F800C04FF6EF7460
S315080036600CEBC11E5EF8EC3FCFF6EC7492E86001F5
S3150800367023400134D76804EA0514234326F440346A
S31508003680234327F4003495692343012D43EA0803AD
S3150800369009D1D2E9042423F0060322F002021A43D0
S315080036A0224342F001030629CEF800300AD84BF629
S315080036B0F022C0F6000252F82110DCF884231143E8
S315080036C0CCF884130121002380F8DD1080F8DC3063
S315080036D0BDE8F0411846704790F84120202A03D1EA
S315080036E090F84020012A01D102207047242280F850
S315080036F041200268136823F001031360136823F45A
S3150800370080531360136819431160116841F0010171
S315080037101160202180F84110002180F840100846E9
S315080037207047000090F84120202A03D190F84020E5
S31508003730012A01D102207047242280F8412002681C
S31508003740136823F001031360136823F4706343EAD4
S3150800375001211160116841F001011160202180F8F2
S315080037604110002180F8401008467047002804BF21
S315080037700120704710B5044690F8410028B900208A
S3150800378084F84000204600F02BF9242084F84100F4
S3150800379094E80910E2680168012A21F00101016034
S315080037A023F070610161816821F40041816003D1D1
S315080037B04CF40041816009E04CF40441022A81601E
S315080037C004D1416841F4006103E000BF416821F477
S315080037D000614160416804F1100C41F0007141F448
S315080037E000414160C16821F40041C1609CE80E10A7
S315080037F0114341EA0321C160216A41EA0C010160D3
S31508003800016841F00101016000202021606484F80C
S315080038104110206384F8420010BD00002DE9F047EE
S3150800382082B0044690F84100202803D194F840005D
S31508003830012803D1022002B0BDE8F08701201D4609
S315080038401746884684F84000FEF7D8FE21680646E3
S315080038508A69120417D4212084F84100102084F8BC
S31508003860420000206064676265856063608DB0F51C
S31508003870807F23D3FF2020854FF0807225E000BF8C
S3150800388088690004E7D520461921324602F012FE5F
S31508003890002840F08580FEF7B1FE801B21681A28B3
S315080038A0EED388690004EBD5606C40F020006064B4
S315080038B0202084F84100012083E000BF608D0028A5
S315080038C0208500F087804FF0007217F8013B8B6265
S315080038D06762638D013B6385431E238543466FF309
S315080038E09F23C0B243EA0040104349F60045CFF68D
S315080038F000454A68A5F580631A40104340F4005015
S315080039004860608D0A9F002844D040F2000A6FF391
S315080039109F284FF0FF09C0F2FF1A10E0618D20685A
S31508003920218550F8042FC9B22A4042EA01414FF0D6
S31508003930007241EA080111430160608D50B32046C8
S315080039403946324602F014FF50BB606A216810F807
S31508003950012B8A626062608D01386085208D01388E
S315080039602085618D0029E8D00004E6D12046802113
S3150800397000223B46009602F04BFE88B9608DB0F5F2
S31508003980807FCBD32068A4F8289050F8041F5246AD
S315080039902940CEE720463946324602F0ABFE18B13A
S315080039A0012002B0BDE8F08720682021C161426885
S315080039B04EF60003CFF600631A404260002084F8F2
S315080039C04110002184F8421084F8401002B0BDE886
S315080039D0F08700BF4FF40042404662F39F2084E719
S315080039E02DE9F0439BB0044601A804305021FCF7AA
S315080039F059FC206847F60001C4F20001884203D04A
S31508003A001BB0BDE8F08300BF4FF4807801A8CDF85D
S31508003A10048000F0C9F9002818BFFDF7DDFC41F263
S31508003A204C06C4F20206306816AC40F0040030605A
S31508003A3030684FF0120900F00400169016983068A6
S31508003A40012540F0010030603068032700F00100CE
S31508003A50169016984FF40070169008201A9040F6A3
S31508003A600000C4F600002146CDF85C901895199719
S31508003A70FEF7E0FC02201A904FF090402146CDE96F
S31508003A801689CDE91857FEF7D5FCF06840F0804056
S31508003A90F060F06800F08040009000981BB0BDE828
S31508003AA0F0830000002804BF01207047B0B5044623
S31508003AB00068D4E901124CF6CC43036045F255532D
S31508003AC0036041608260FEF799FD2168CA68520763
S31508003AD010D0054603E000BFC86840070AD0FEF7C5
S31508003AE08DFD401B21683228F6D3C8684007F3D0FD
S31508003AF00320B0BD0A69E068824206BF4AF6AA20DA
S31508003B00086008610020B0BD01684AF6AA220020B4
S31508003B100A60704740F2280040F6D831C2F2000029
S31508003B20C2F2000140680A68104408607047000045
S31508003B3080B5032000F08AF80F2000F009F8002865
S31508003B401CBF012080BD00F029F8002080BD0000C0
S31508003B5070B540F22806C2F200067168E1B1044663
S31508003B6040F23C00C2F200004FF47A720068B2FBE1
S31508003B70F1F1B0FBF1F000F0A5FF0F2C4FF00105B5
S31508003B8008D838B94FF0FF3021460022002500F04A
S31508003B9031F83460284670BD012070BD82B041F20C
S31508003BA05800C4F20200816841F001018160816811
S31508003BB001F0010101910199016841F0805101600C
S31508003BC0006800F080500090009802B000F0E2B85B
S31508003BD0002848BF704700F01F01012202FA01F1D0
S31508003BE01C2202EAD0004EF20012CEF200028150E8
S31508003BF07047000010B54EF60C5CCEF2000CDCF8EF
S31508003C000030C3F3022E8EF00704042C28BF0424C8
S31508003C10BEF103034FF0FF3E0EFA04F438BF00234B
S31508003C20A14399400EFA03F39A43114300F00F0299
S31508003C3000F160430901043A03F56443624400282D
S31508003C4048BF02F10C03197010BD00004EF60C5166
S31508003C50CEF200010A684FF6FF031A4060F30A2203
S31508003C6042F0806040F0FD7008607047B0F5007F54
S31508003C7042D0002840F0808047F21400C4F20000C9
S31508003C8050F8141CC26E01F4C06122F48072B1F5BA
S31508003C90806FC2662ED150F8141C012262F34A21A5
S31508003CA040F8141C40F23C01C2F2000109683222B5
S31508003CB051434DF68362C4F21B32A1FB0212910CEA
S31508003CC00268520511D54A1C0FD0026852050CD558
S31508003CD059B10268520508D5012906D0026852056D
S31508003CE003D50229A1F10401EAD10068400544BFC1
S31508003CF0032070470020704747F21400C4F2000002
S31508003D0050F8141CC26E01F4C06142F48072B1F519
S31508003D10806FC266EED150F8141C012262F34A2164
S31508003D2040F8141C40F23C01C2F200010968322234
S31508003D3051434DF68362C4F21B32A1FB0212910C69
S31508003D400268520511D54A1C0FD0026852050CD5D7
S31508003D5059B10268520508D5012906D002685205EC
S31508003D6003D50229A1F10401EAD10068400544BF40
S31508003D7003207047BEE700BF47F21400C4F20000F4
S31508003D8050F8141C022262F34A2140F8141C002041
S31508003D907047000047F20800C4F20000016841F4C9
S31508003DA080410160704700002DE9F04182B0044669
S31508003DB0807841F288060007C4F2020602D4002081
S31508003DC02FE000BF56F8300C5FEAC0080BD456F84F
S31508003DD0300C40F0805046F8300C56F8300C00F0A5
S31508003DE080500190019847F20007C4F2000738682E
S31508003DF040F480703860FEF701FC05463868C00557
S31508003E0000F10C81FEF7FAFB401B0228F6D90320C5
S31508003E10B8F1000F05D456F8301C21F0805146F849
S31508003E20301C2168CA0717D18A071DD44A0723D42C
S31508003E300A0729D4CA062FD48A0635D44A063BD49B
S31508003E400A0641D4CA0547D48A034DD48A0553D4F1
S31508003E504A0559D467E000BF3268636822F0030256
S31508003E601A4332608A07E1D53268A36822F00C0249
S31508003E701A4332604A07DBD53268E36822F030021B
S31508003E801A4332600A07D5D53268236922F0C00280
S31508003E901A433260CA06CFD53268636922F4407283
S31508003EA01A4332608A06C9D53268A36922F4406289
S31508003EB01A4332604A06C3D53268E36922F440528F
S31508003EC01A4332600A06BDD53268236A22F4404294
S31508003ED01A433260CA05B7D53268636A22F440329B
S31508003EE01A4332608A03B1D57269A36A22F00302C3
S31508003EF01A4372618A05ABD53268E36A22F4402216
S31508003F001A4332604A050ED53268236B22F44012F2
S31508003F101A43B3F5801F326005D156F87C2C42F45B
S31508003F20801246F87C2C0A050ED53268636B22F49B
S31508003F3040021A43B3F5800F326005D156F87C2C3F
S31508003F4042F4801246F87C2CCA040ED53268A36B5C
S31508003F5022F040721A43B3F1807F326005D156F8D9
S31508003F607C2C42F4801246F87C2C8A040ED53268E2
S31508003F70E36B22F040621A43B3F1006F326005D159
S31508003F8056F87C2C42F4801246F87C2C4A040ED54E
S31508003F903268236C22F040621A43B3F1006F326034
S31508003FA005D156F87C2C42F4801246F87C2C0A047B
S31508003FB00ED53268636C22F040521A43B3F1805F23
S31508003FC0326005D156F87C2C42F4803246F87C2CB7
S31508003FD0CA030ED53268A36C22F040421A43B3F1E5
S31508003FE0804F326005D156F87C2C42F4803246F870
S31508003FF07C2C49030ED57169E26C21F440111143FA
S31508004000B2F5001F716105D156F87C1C41F4801188
S3150800401046F87C1C02B0BDE8F08100BFB06810F419
S31508004020407010D0216D88420BD0B068B16820F47A
S31508004030407041F48031B160B16821F48031B160DB
S31508004040B060C0070CD1B068216D20F440700843F9
S31508004050B0600020B8F1000F3FF5E3AEDBE600BF25
S31508004060FEF7CCFA054641F2883700BFB0688007EC
S31508004070E9D4FEF7C3FA401BB842F7D9C7E60000F1
S31508004080704700002DE9F047002865D042F2000A83
S31508004090C4F2020A0446DAF800000D4600F00F00E2
S315080040A088420CD2DAF8000020F00F002843CAF83C
S315080040B00000DAF8000000F00F00A8424CD1216891
S315080040C041F20808C807C4F2020803D1880740F17C
S315080040D0D480B9E0606802283AD0032840D158F85D
S315080040E0082C920138D5D8F80420D8F8043042F2C2
S315080040F00046C3F3031302F00302D8F80470013331
S31508004100C0F2F406032A04BF47F64006C0F27D163D
S31508004110B6FBF3F2D8F80430C7F306277A43C3F39D
S315080041204163022707EB4303B2FBF3F24BF200436A
S31508004130C0F2C4439A425DD9D8F8002012F0F00FB5
S315080041404DD0890756D5A168002953D147E000BF4D
S3150800415058F8081C890307D40120BDE8F08700BF7A
S3150800416058F8081C4905F7D5D8F8001001F00C01D5
S3150800417004293FD0D8F8001001F00C01082939D0DD
S31508004180D8F8001001F00C010C2933D1D8F8041026
S31508004190D8F8042042F20047C2F3031201F00301E3
S315080041A0D8F804300132C0F2F407032904BF47F6F1
S315080041B04007C0F27D17B7FBF2F1D8F80420C3F325
S315080041C006235943C2F34162022303EB4202B1FBC1
S315080041D0F2F14BF20042C0F2C44291420AD9D8F831
S315080041E00010082262F307114FF00109C8F8001001
S315080041F002E000BF4FF00009D8F8001021F00301D3
S315080042000843C8F80000FEF7F9F9064641F2883770
S31508004210D8F80000616800F00C00B0EB810F07D0F9
S31508004220FEF7ECF9801BB842F2D90320BDE8F08707
S315080042302168880708D4B9F1000F1ED0D8F8000005
S3150800424020F0F00017E000BF480705D5D8F80000B1
S3150800425040F4E060C8F80000080706D5D8F8000062
S31508004260072262F30D20C8F80000D8F80000A268FB
S3150800427020F0F0001043C8F80000DAF8000000F05B
S315080042800F00A8421BD9DAF8000020F00F002843D7
S31508004290CAF80000FEF7B2F9064641F2883700BFB1
S315080042A0DAF8000000F00F00A84207D0FEF7A6F9DA
S315080042B0801BB842F4D90320BDE8F0872168480777
S315080042C007D5D8F80000E26820F4E0601043C8F883
S315080042D00000080708D5D8F80000216920F46050C6
S315080042E040EAC100C8F80000D8F8000042F20041D0
S315080042F0C0F2F40100F00C00042808462DD0D8F8C6
S31508004300000000F00C00082847F64000C0F27D10B7
S3150800431023D0D8F8002002F00C020C2A1CD1D8F8B9
S315080043200420D8F8043002F00302C3F30313D8F8C4
S3150800433004700133032A08BF0146B1FBF3F0D8F82D
S315080043400410C7F30627C1F341610222784302EB42
S315080043504101B0FBF1F000E00020D8F800104BF660
S315080043600C32C1F30311C0F60002515C40F23C0264
S3150800437001F01F0120FA01F140F22800C2F2000004
S315080043800068C2F200021160BDE8F047FFF7E0BB23
S3150800439041F20000C4F20200016841F40021016004
S315080043A07047000040F23C0041F20801C2F20000EA
S315080043B0C4F20201006809684BF61C32C1F30221F7
S315080043C0C0F60002515C01F01F01C84070470000AA
S315080043D040F23C0041F20801C2F20000C4F20201B8
S315080043E0006809684BF61C32C1F3C221C0F6000208
S315080043F0515C01F01F01C8407047000041F20C01F2
S31508004400C4F2020151F8040C42F20042C0F2F4026E
S3150800441000F00C000428104608BF704751F8040C39
S3150800442000F00C00082847F64000C0F27D1025D0A1
S3150800443051F8043C03F00C030C2B1CBF00207047FA
S3150800444080B5D1F800C00B680CF0030CC3F3031E4B
S315080044500B680EF1010EBCF1030F08BF024609688E
S31508004460B2FBFEF0C3F30623C1F3416102225843AF
S3150800447002EB4101B0FBF1F0BDE880407047000057
S3150800448010B541F21C04C4F202042068C00558BFE6
S3150800449010BDFFF7F5FD4FF48070606010BD000099
S315080044A0002804BF012070472DE9F04182B0044678
S315080044B0007841F20006C007C4F202061ED1207831
S315080044C080073DD42078000764D42078400700F19F
S315080044D087802078800600F1D980E569002D00F0F4
S315080044E04482B06800F00C000C2840F03181012DA0
S315080044F040F09081012002B0BDE8F081B06800F07C
S315080045000C01F068082961D0032281F00C0122EA27
S3150800451000000844B0FA80F0400957D16068B0F549
S31508004520803F07D0B0F5A02F40F0E480306840F413
S3150800453080203060306840F480303060E5E000BFAD
S31508004540B068F16800F00C00042871D001F003018E
S3150800455080F00C0081F002010844B0FA80F04009AE
S3150800456066D1E1683068002900F0E08040F4807088
S315080045703060FEF743F805463068400500F10A81C9
S31508004580FEF73CF8401B0228F6D9032002B0BDE826
S31508004590F08100BF6169D6F89400002900F0948084
S315080045A040F00100C6F89400FEF728F8054600BF5B
S315080045B0D6F8940080073FF588AFFEF71FF8401B32
S315080045C00228F5D9032002B0BDE8F08130688003DF
S315080045D07FF575AF606800287FF471AF3EE000BFD5
S315080045E0B06D5FEAC00808D4B06D40F08050B06581
S315080045F0B06D00F080500190019847F20007C4F2B0
S3150800460000073868C0052DD4386840F480703860D3
S31508004610FDF7F4FF054600BF3868C00522D4FDF74C
S31508004620EDFF401B0228F7D9032002B0BDE8F08150
S315080046303068400501D5E06880B17068216920F0CE
S31508004640FE4040EA0160706040F22800C2F20000B5
S315080046500068FFF77DFA00283FF434AF012002B066
S31508004660BDE8F081A068012808D0052840F0B08090
S31508004670D6F8900040F00400C6F89000D6F89000EE
S3150800468040F00100C6F89000B0E000BFA169D6F876
S315080046909800002900F0868040F00100C6F89800CE
S315080046A0FDF7ACFF054600BFD6F8980080073FF532
S315080046B014AFFDF7A3FF401B02284FF00300F3D900
S315080046C002B0BDE8F08100BF20F00100C6F89400F2
S315080046D0FDF794FF054600BFD6F8940080077FF5DE
S315080046E0F4AEFDF78BFF401B0228F5D9032002B074
S315080046F0BDE8F0813168002821F4803131603168E5
S3150800470021F48021316000F0BF80FDF777FF054670
S31508004710306880033FF5D3AEFDF770FF401B642871
S31508004720F6D9032002B0BDE8F08100BF20F48070FE
S315080047303060FDF763FF0546306840057FF5C2AE79
S31508004740FDF75CFF401B02284FF00300F4D9B7E7DA
S31508004750306820F080703060FDF750FF022D054666
S315080047600CD100BF3068800140F1BA80FDF746FFE2
S31508004770401B02284FF00300F4D9A1E730688001F6
S3150800478040F1EC80FDF73AFF401B02284FF003008A
S31508004790F4D995E77068216920F0FE4040EA016087
S315080047A070608FE620F00100C6F89800FDF726FF36
S315080047B0054600BFD6F8980080077FF58EAEFDF750
S315080047C01DFF401B02284FF00300F3D978E700BF0E
S315080047D0D6F89010002821F00101C6F89010D6F8F6
S315080047E0901021F00401C6F890105DD0FDF706FF81
S315080047F0054641F2883700BFD6F89000800765D491
S31508004800FDF7FCFE401BB842F6D9032002B0BDE80E
S31508004810F08100BFF068216A00F003028A427FF443
S315080048201DAF626A6FF00F0300F0F00103EB02128E
S3150800483091427FF413AFA16A00F4FE42B2EB012F56
S315080048407FF40CAFE16A00F07842B2EBC16F7FF4F7
S3150800485005AF226B0023CFF6E07303EA025200F499
S31508004860C001A2F5001291427FF4F8AE616B4FF0D9
S315080048707E4202EA016100F0C06001F17E41884291
S315080048807FF4ECAE71E000BFFDF7B8FE054600BF49
S31508004890306880037FF513AEFDF7B0FE401B642831
S315080048A04FF00300F4D90BE7FDF7A8FE054641F2E1
S315080048B0883700BFD6F89000800707D5FDF79EFE1B
S315080048C0401BB8424FF00300F4D9F9E6B8F1000FDF
S315080048D03FF5FFADB06D20F08050B065F9E500BF3B
S315080048E0F06848F20C01C0F29F1104F1200700EAB3
S315080048F0010C8ECF6FF00F00D4E90C5400EB0210B8
S315080049000022CFF6E07241EA0C0102EA055208439A
S31508004910A2F500124FF07E4540EA032005EA046539
S31508004920104305F17E4540EAC7602843F0603068C9
S3150800493040F080703060F06840F08070F060FDF7FD
S315080049405DFE0446306880010FD4FDF757FE001B54
S3150800495002284FF00300F5D9B2E600BFF0684FF61B
S31508004960FC71CFF6EE610840F060002002B0BDE8A9
S31508004970F0810000002804BF01207047B0B5044646
S31508004980406A28B10020206104F1140006E000BF47
S315080049906068B0F5827F03D004F11C000021016035
S315080049A00025A56294F85D0020B9204684F85C507D
S315080049B000F052F8022084F85D002068D4F80CE074
S315080049C00268BEF5E06F22F0400202604EF4006213
S315080049D098BF0125B2F5706F1CBF0023A3624FEA8A
S315080049E0053CD4E90135D4E9042103F4827305F4BE
S315080049F004452B4402F002021A44A36901F001019E
S31508004A00E569114403F40072114405F03802256A79
S31508004A10114405F08002A56A114405F400521143B9
S31508004A2001600421626A0EF4706501EA1341636B42
S31508004A3045EA0C0502F01002294303F00803114366
S31508004A4019434160C16921F40061C1610020012157
S31508004A50206684F85D10B0BD006843F60041C4F2D4
S31508004A600001884218BF704780B586B041F24C00F5
S31508004A70C4F20200C16841F40041C160C16801F492
S31508004A80004101910199016841F004010160006843
S31508004A9001A900F00400019001984FF4E05001903C
S31508004AA0022002900020039003200490062005901F
S31508004AB040F60000C4F60000FDF7BCFC06B0BDE8F1
S31508004AC080407047411E0020B0EB116F1CBF0120CB
S31508004AD070474EF21002CEF2000251604EF6235194
S31508004AE0CEF20001F0230B70072190601160704729
S31508004AF070470000704700007047000090F83C209F
S31508004B00012A04BF02207047B0B5D1E90232D1E9C3
S31508004B1000CE22F47C5223F4705343EA020448F28E
S31508004B20FF73CEF6F0730EEA0302224303F5006420
S31508004B3004EA0C0442EA040C0C6903F5C05222404C
S31508004B404C6942EA0C02224303F5605422400C6B7E
S31508004B5003F5F04323401A438B6940F2000CCC69F5
S31508004B60CEF6FF7C0CEA034C1443026842F6004377
S31508004B70C4F201039A4244EA0C030BD045F200043E
S31508004B80C4F20104A24205D043F20044C4F201046F
S31508004B90A24217D14FF6FF74CDF60F4403EA040E6E
S31508004BA0D1E9084CD1E90A310025CDF6F04505EAE8
S31508004BB0035343EA0E0324F008552B432CF0005503
S31508004BC02B430B430021536480F83C10BDE8B040EA
S31508004BD0084670477047000070470000704700009D
S31508004BE090F83C20012A4FF0020268D070B580F890
S31508004BF03D20026842F600435468D2F808C0C4F261
S31508004C00010345F2000E9A42C4F2010E18BF72451E
S31508004C102CD14D6824F470042C434FF68F75CFF6CB
S31508004C20FF550E682C4042F6FF35C4F201053443A1
S31508004C30AA4254600EDC40F2FF73C4F200039A42A3
S31508004C401CDCB2F1804F2DD040F20043C4F20003C1
S31508004C5026E000BF43F6FF74C4F20104A24219DC41
S31508004C609A421FD043F2004318E000BF43F20045C2
S31508004C70C4F20105AA42CCD0CFE700BF40F6000334
S31508004C80C4F200039A420DD040F60043C4F2000372
S31508004C9006E000BF724505D044F20003C4F20103E2
S31508004CA09A4204D189682CF0800319439160012146
S31508004CB0002280F83D1080F83C20BDE87040104680
S31508004CC07047000070470000002804BF01207047A5
S31508004CD010B5044690F83D0028B9002084F83C0039
S31508004CE0204600F023F8022084F83D002068211DA4
S31508004CF004F094FC012084F8480084F83E0084F807
S31508004D003F0084F8400084F8410084F8420084F8A3
S31508004D10430084F8440084F8450084F8460084F883
S31508004D20470084F83D00002010BD000080B582B021
S31508004D30006840F2FF71C4F20001884220DCB0F13D
S31508004D40804F39D040F20041C4F20001884230D188
S31508004D5041F25800C4F202000168002241F0020143
S31508004D6001600068022100F00200019001981D20F0
S31508004D70FEF740FF1D2002B0BDE88040FEF728BFC1
S31508004D8040F60001C4F2000188422DD043F20041EA
S31508004D90C4F2010188420CD141F25800C4F2020063
S31508004DA0816841F400518160806800F400500190E8
S31508004DB0019802B080BD00BF41F25800C4F202005B
S31508004DC00168002241F0010101600068032100F03A
S31508004DD00100019001981C20FEF70CFF1C2002B070
S31508004DE0BDE88040FEF7F4BE41F25800C4F2020066
S31508004DF00168002241F0040101600068032100F007
S31508004E000400019001981E20FEF7F4FE1E2002B051
S31508004E10BDE88040FEF7DCBE90F83D1001291BD1A5
S31508004E20022180F83D10016842F6FF32C868C4F2D4
S31508004E300102914240F00100C8600FDC40F2FF70A9
S31508004E40C4F20000814219DCB1F1804F2ED040F245
S31508004E500040C4F2000027E00120704743F6FF70C7
S31508004E60C4F20100814215DC42F60040C4F201009A
S31508004E7081421BD043F2004014E000BF40F6000018
S31508004E80C4F20000814211D040F60040C4F200008E
S31508004E900AE000BF45F20000C4F20100814205D0D5
S31508004EA044F20000C4F2010081420CD1886807224E
S31508004EB0C0F201020240062A4FF00000CDD0B2F53A
S31508004EC0803F08BF7047086840F00100086000206E
S31508004ED07047000090F83C20012A4FF0020200F0CB
S31508004EE09B8080B580F83D20D0F800C08822DCF889
S31508004EF00830CFF6CE721A40CCF808200B68B3F506
S31508004F00005F0DDA3F2B21DD5F2B33DD602B00F0D0
S31508004F108580702B00F0A480B3F5805F73D0E9E03C
S31508004F202F22C0F21002934218DD4F21C0F2100161
S31508004F308B4247DD5021C0F210018B4257D06021C9
S31508004F40C0F210018B4252D070214BE01F2B41DC7E
S31508004F50002B4CD0102B4AD0CCE000BFB3F1101F69
S31508004F603EDAB3F5005F00F08F80B3F5801F3ED0C0
S31508004F70C0E000BF402B00F09B80502B40F0BA8069
S31508004F80D1F804E0C968DCF82030DCF8202022F0EB
S31508004F900102CCF82020DCF8182022F0F00242EAC0
S31508004FA0011123F00A0242EA0E02CCF81810CCF8D6
S31508004FB02020DCF808104FF68872CFF6CF72114021
S31508004FC057311EE03021C0F210018B420FD040212C
S31508004FD008E000BF202B0AD0302B08D08AE000BF9B
S31508004FE005D02021C0F210018B4240F08380DCF806
S31508004FF008104FF68872CFF6CF721140194341F068
S315080050000701CCF808100022012180F83D10002184
S3150800501080F83C10BDE8804010467047D1F804E09F
S31508005020C968DCF82030DCF8202022F01002CCF821
S315080050302020DCF8182022F4704242EA013123F0DD
S31508005040A00242EA0E12CCF81810CCF82020DCF8A0
S3150800505008104FF68872CFF6CF7211406731D0E745
S31508005060D1E901E3C968DCF8082043EA0E0322F413
S315080050707F4243EA01211143CCF80810DCF80810F6
S3150800508041F07701BDE700BFD1E901E3C968DCF863
S31508005090082043EA0E0322F47F4243EA0121114322
S315080050A0CCF80810DCF8081041F48041A9E700BFE5
S315080050B0D1F804E0C968DCF82030DCF8202022F0BA
S315080050C00102CCF82020DCF8182022F0F00242EA8F
S315080050D0011123F00A0242EA0E02CCF81810CCF8A5
S315080050E02020DCF808104FF68872CFF6CF721140F0
S315080050F0473186E7012287E770470000F0B581B09F
S3150800510004460068C5680669B10717D515F0020197
S3150800511014D06FF0020101610121217780698007AF
S3150800512004D02046FFF7E8FF06E000BF204600F05F
S31508005130CBF8204600F004FB00202077700719D52D
S3150800514015F0040016D020686FF0040101610221F1
S315080051502177806910F4407F04D02046FFF7CCFF02
S3150800516006E000BF204600F0AFF8204600F0E8FA57
S3150800517000202077300717D515F0080014D02068CE
S315080051806FF00801016104212177C069800703D007
S315080051902046FFF7B1FF05E0204600F095F82046C7
S315080051A000F0CEFA00202077F00619D515F0100089
S315080051B016D020686FF01001016108212177C069B7
S315080051C010F4407F04D02046FFF796FF06E000BFA4
S315080051D0204600F079F8204600F0B2FA0020207741
S315080051E0F00718BF15F0010006D020686FF001011E
S315080051F00161204600F07AFB16F4025F05F080078D
S3150800520018BF002F02D1F00509D410E020686FF40A
S31508005210025101612046FFF76DFCF00507D537B14D
S3150800522020686FF4807101612046FFF761FC700603
S3150800523009D515F0400006D020686FF040010161DD
S31508005240204600F0A7FBB00609D515F0200006D0C9
S3150800525020686FF0200101612046FFF74DFCF0023F
S3150800526009D515F4801006D020686FF48011016105
S315080052702046FFF7B1FCB00209D515F4001006D098
S3150800528020686FF4001101612046FFF7A3FC700245
S3150800529009D515F4800006D020686FF480010161F5
S315080052A02046FFF79BFC30020CD515F4000009D008
S315080052B021686FF4000220460A6101B0BDE8F0409B
S315080052C0FFF700BD01B0F0BD7047000090F83C3014
S315080052D0012B04BF022070474FEAB202052A00F2EA
S315080052E0AB812DE9F041DFE812F007005500B10067
S315080052F00D016901AD0100BF03681D6A1A6AA3F1B1
S31508005300804622F001021A621A46A6F596369F05CD
S31508005310D3F8048052F818CF47EA96268F68D1F852
S3150800532000E025F00205092E45EA07050BD80127F6
S31508005330B74040F2E52427421FBFCC6825F00C058C
S3150800534024F004042543092E0CD80124B44040F265
S31508005350E52634421FBFD1E9054628F440773C4389
S3150800536044EA06084FF68C74CFF6FE740CEA040776
S3150800537047EA0E07C3F804809F614F6809695F63AF
S315080053801D629F6947F008079F619F6927F0040718
S315080053909F6196E1036842F600461D6A1A6AC4F2DE
S315080053A0010622F010021A621A46D3F804C052F80F
S315080053B0188FB3428E68D1F800E025F0200545EA3B
S315080053C006150BD045F20006C4F20106B34205D015
S315080053D043F20046C4F20106B34207D1CE686FF025
S315080053E0400725F0C00507EA06163543A3F18046AF
S315080053F0A6F596369F0547EA9626092E0DD8012763
S3150800540007FA06F640F2E5273E421FBFD1E90567CF
S315080054102CF44064374344EA870C48F6FF44CFF639
S31508005420FF6404EA080444EA0E27C3F804C09F612F
S315080054304F6809699F631D629F6947F400679F610A
S315080054409F6927F480679F613AE100BF036842F6C7
S3150800545000461D6A1A6AC4F2010622F480721A62AC
S315080054601A46D3F804C052F81CEFB3428E68D1F836
S31508005470008025F4007545EA06250BD045F200069E
S31508005480C4F20106B34205D043F20046C4F201064F
S31508005490B34207D1CE6840F2FF47360225F440658D
S315080054A0BE433543A3F18046A6F596369F0547EADF
S315080054B09626092E0DD8012707FA06F640F2E527A3
S315080054C03E421FBFD1E905672CF44054374344EAEE
S315080054D0071C4FF68C74CFF6FE740EEA040747EAEB
S315080054E00807C3F804C0DF614F680969DF631D62F6
S315080054F0DF6947F00807DF61DF6927F00407DF6126
S31508005500DFE000BF036842F600461D6A1A6AC4F265
