S31508000000E00800209D350108FD580008055900083C
S31508000010095900080D590008115900080000000088
S31508000020000000000000000000000000155900084C
S3150800003019590008000000001D5900082159000838
S31508000040B7350108B7350108B7350108B7350108CE
S31508000050B7350108B7350108B7350108B7350108BE
S31508000060B7350108B7350108B7350108B7350108AE
S31508000070B7350108B7350108B7350108B73501089E
S31508000080B7350108B7350108B7350108B73501088E
S31508000090B7350108B7350108B7350108B73501087E
S315080000A0B7350108B7350108B7350108B73501086E
S315080000B025590008B7350108B7350108B7350108CD
S315080000C0B7350108B7350108B7350108B73501084E
S315080000D0B7350108B7350108B7350108B73501083E
S315080000E0B7350108B7350108B7350108B73501082E
S315080000F0B7350108B7350108B7350108B73501081E
S31508000100B7350108B7350108B7350108B73501080D
S31508000110B7350108B7350108B7350108B7350108FD
S31508000120B7350108B7350108B7350108B7350108ED
S31508000130B7350108B7350108B7350108B7350108DD
S31508000140B7350108B7350108B7350108B7350108CD
S31508000150B7350108B7350108B7350108B7350108BD
S31508000160B7350108B7350108B7350108B7350108AD
S31508000170B7350108B7350108B7350108B73501089D
S31508000180B7350108B7350108B7350108B73501088D
S31508000190B735010800000000B7350108B735010872
S315080001A0B7350108B7350108B7350108B73501086D
S315080001B0B7350108B7350108B7350108B73501085D
S315080001C0B7350108B7350108B7350108B73501084D
S315080001D0B7350108B7350108DFF80CD013F0F4FD80
S315080001E00048004729550008E008002000000000E4
S315080001F080B582B002464FF090404FF4807106F009
S3150800020041FC0020ADF80600BDF80600022823D8F8
S31508000210BDF806000130ADF80600BDF80600022854
S315080002201AD8BDF806000130ADF80600BDF806007C
S31508000230022811D8BDF806000130ADF80600BDF851
S315080002400600022808D8BDF806000130ADF80600F9
S31508000250BDF806000328DBD302B080BD80B582B0A6
S31508000260024640F60000C4F600004FF4007106F09E
S3150800027009FC0020ADF80600BDF80600022823D8C0
S31508000280BDF806000130ADF80600BDF806000228E4
S315080002901AD8BDF806000130ADF80600BDF806000C
S315080002A0022811D8BDF806000130ADF80600BDF8E1
S315080002B00600022808D8BDF806000130ADF8060089
S315080002C0BDF806000328DBD302B080BD70B586B042
S315080002D041F24C00C4F20200016840F6000441F005
S315080002E0040101600168C4F6000401F004010091EC
S315080002F0009901686D4641F0010101600068002619
S3150800030000F0010000900098112001900120029051
S31508000310032003904FF40070009020462946049667
S3150800032006F056FA4FF4807000904FF09040294638
S3150800033006F04EFA4FF090404FF48071012206F015
S31508000340A1FBADF81660BDF81600022824D800BF38
S31508000350BDF816000130ADF81600BDF816000228E3
S315080003601AD8BDF816000130ADF81600BDF816000B
S31508000370022811D8BDF816000130ADF81600BDF8F0
S315080003801600022808D8BDF816000130ADF8160088
S31508000390BDF816000328DBD320464FF4007101226E
S315080003A006F070FBADF81660BDF81600022823D8D3
S315080003B0BDF816000130ADF81600BDF81600022883
S315080003C01AD8BDF816000130ADF81600BDF81600AB
S315080003D0022811D8BDF816000130ADF81600BDF890
S315080003E01600022808D8BDF816000130ADF8160028
S315080003F0BDF816000328DBD306B070BDB0B582B0D1
S3150800040040F60004C4F6000420464FF400710122A9
S3150800041006F038FB0025ADF80050BDF800000228AC
S3150800042024D800BFBDF800000130ADF80000BDF8C3
S31508000430000002281AD8BDF800000130ADF8000007
S31508000440BDF80000022811D8BDF800000130ADF84B
S315080004500000BDF80000022808D8BDF800000130E9
S31508000460ADF80000BDF800000328DBD34FF090403C
S315080004704FF48071012206F005FBADF80250BDF875
S315080004800200022824D800BFBDF802000130ADF8EA
S315080004900200BDF8020002281AD8BDF80200013091
S315080004A0ADF80200BDF80200022811D8BDF8020016
S315080004B00130ADF80200BDF80200022808D8BDF8E0
S315080004C002000130ADF80200BDF802000328DBD3B4
S315080004D020464FF400710022002406F0D3FAADF846
S315080004E00440BDF80400022824D800BFBDF8040063
S315080004F00130ADF80400BDF8040002281AD8BDF88A
S3150800050004000130ADF80400BDF80400022811D833
S31508000510BDF804000130ADF80400BDF80400022857
S3150800052008D8BDF804000130ADF80400BDF8040091
S315080005300328DBD34FF090404FF48071002206F079
S31508000540A1FAADF80640BDF80600022824D800BF77
S31508000550BDF806000130ADF80600BDF80600022811
S315080005601AD8BDF806000130ADF80600BDF8060039
S31508000570022811D8BDF806000130ADF80600BDF80E
S315080005800600022808D8BDF806000130ADF80600B6
S31508000590BDF806000328DBD302B0B0BDB0B582B003
S315080005A040F60004C4F6000420464FF40071002209
S315080005B0002506F067FAADF80250BDF802000228D9
S315080005C024D800BFBDF802000130ADF80200BDF81E
S315080005D0020002281AD8BDF802000130ADF8020060
S315080005E0BDF80200022811D8BDF802000130ADF8A6
S315080005F00200BDF80200022808D8BDF80200013042
S31508000600ADF80200BDF802000328DBD34FF0904096
S315080006104FF48071012206F035FAADF80450BDF8A2
S315080006200400022824D800BFBDF804000130ADF844
S315080006300400BDF8040002281AD8BDF804000130E9
S31508000640ADF80400BDF80400022811D8BDF804006E
S315080006500130ADF80400BDF80400022808D8BDF83A
S3150800066004000130ADF80400BDF804000328DBD30C
S3150800067020464FF40071012206F004FA0020ADF876
S315080006800600BDF80600022824D800BFBDF80600FB
S315080006900130ADF80600BDF8060002281AD8BDF8E4
S315080006A006000130ADF80600BDF80600022811D88C
S315080006B0BDF806000130ADF80600BDF806000228B0
S315080006C008D8BDF806000130ADF80600BDF80600EA
S315080006D00328DBD302B0B0BDF0B583B040F6000501
S315080006E004460026C4F60005002703E00137082F54
S315080006F000F09C8004FA07F0C0B2C20928464FF4FD
S31508000700007106F0BFF9ADF80260BDF802000228D4
S3150800071024D800BFBDF802000130ADF80200BDF8CC
S31508000720020002281AD8BDF802000130ADF802000E
S31508000730BDF80200022811D8BDF802000130ADF854
S315080007400200BDF80200022808D8BDF802000130F0
S31508000750ADF80200BDF802000328DBD34FF0904045
S315080007604FF48071012206F08DF9ADF80460BDF8EA
S315080007700400022824D800BFBDF804000130ADF8F3
S315080007800400BDF8040002281AD8BDF80400013098
S31508000790ADF80400BDF80400022811D8BDF804001D
S315080007A00130ADF80400BDF80400022808D8BDF8E9
S315080007B004000130ADF80400BDF804000328DBD3BB
S315080007C04FF090404FF48071002206F05BF9ADF8C7
S315080007D00660BDF8060002283FF688AFBDF8060099
S315080007E00130ADF80600BDF8060002283FF67EAFD8
S315080007F0BDF806000130ADF80600BDF8060002286F
S315080008003FF674AFBDF806000130ADF80600BDF836
S31508000810060002283FF66AAFBDF806000130ADF8BB
S315080008200600BDF806000328D8D35FE74FF09040CE
S315080008304FF48071012206F025F90024ADF808402E
S31508000840BDF80800022823D8BDF808000130ADF825
S315080008500800BDF8080002281AD8BDF808000130BB
S31508000860ADF80800BDF80800022811D8BDF8080040
S315080008700130ADF80800BDF80800022808D8BDF810
S3150800088008000130ADF80800BDF808000328DBD3DE
S315080008904FF090404FF48071002206F0F3F8ADF85F
S315080008A00A40BDF80A00022824D800BFBDF80A008D
S315080008B00130ADF80A00BDF80A0002281AD8BDF8BA
S315080008C00A000130ADF80A00BDF80A00022811D85E
S315080008D0BDF80A000130ADF80A00BDF80A00022882
S315080008E008D8BDF80A000130ADF80A00BDF80A00BC
S315080008F00328DBD303B0F0BD10B50446FFF77EFD31
S315080009007820FFF7E9FE0020FFF7E6FE2046FFF70E
S31508000910E3FEBDE81040FFF741BE00BFB0B50C4688
S315080009200546FFF76BFD7820FFF7D6FE4020FFF758
S31508000930D3FE3CB1013D00BF15F8010FFFF7CCFE11
S31508000940013CF9D1BDE8B040FFF728BE80B5FFF7F6
S31508000950BDFCFFF753FD7820FFF7BEFE0020FFF72A
S31508000960BBFEAE20FFF7B8FEFFF718FEFFF746FD01
S315080009707820FFF7B1FE0020FFF7AEFED520FFF77F
S31508000980ABFEFFF70BFEFFF739FD7820FFF7A4FE55
S315080009900020FFF7A1FE8020FFF79EFEFFF7FEFD71
S315080009A0FFF72CFD7820FFF797FE0020FFF794FE4F
S315080009B0A820FFF791FEFFF7F1FDFFF71FFD78204E
S315080009C0FFF78AFE0020FFF787FE3F20FFF784FE29
S315080009D0FFF7E4FDFFF712FD7820FFF77DFE002004
S315080009E0FFF77AFED320FFF777FEFFF7D7FDFFF76D
S315080009F005FD7820FFF770FE0020FFF76DFE00204A
S31508000A00FFF76AFEFFF7CAFDFFF7F8FC7820FFF745
S31508000A1063FE0020FFF760FE4020FFF75DFEFFF74C
S31508000A20BDFDFFF7EBFC7820FFF756FE0020FFF729
S31508000A3053FEA120FFF750FEFFF7B0FDFFF7DEFCDF
S31508000A407820FFF749FE0020FFF746FEC820FFF78B
S31508000A5043FEFFF7A3FDFFF7D1FC7820FFF73CFE26
S31508000A600020FFF739FEDA20FFF736FEFFF796FD7E
S31508000A70FFF7C4FC7820FFF72FFE0020FFF72CFEB7
S31508000A801220FFF729FEFFF789FDFFF7B7FC78204C
S31508000A90FFF722FE0020FFF71FFE8120FFF71CFE4E
S31508000AA0FFF77CFDFFF7AAFC7820FFF715FE00206C
S31508000AB0FFF712FECF20FFF70FFEFFF76FFDFFF7D8
S31508000AC09DFC7820FFF708FE0020FFF705FED920D9
S31508000AD0FFF702FEFFF762FDFFF790FC7820FFF7AD
S31508000AE0FBFD0020FFF7F8FDF120FFF7F5FDFFF706
S31508000AF055FDFFF783FC7820FFF7EEFD0020FFF792
S31508000B00EBFDDB20FFF7E8FDFFF748FDFFF776FC76
S31508000B107820FFF7E1FD0020FFF7DEFD3020FFF724
S31508000B20DBFDFFF73BFDFFF769FC7820FFF7D4FDF7
S31508000B300020FFF7D1FDA420FFF7CEFDFFF72EFD1D
S31508000B40FFF75CFC7820FFF7C7FD0020FFF7C4FD20
S31508000B50A620FFF7C1FDFFF721FDFFF74FFC782020
S31508000B60FFF7BAFD0020FFF7B7FD8D20FFF7B4FDAC
S31508000B70FFF714FDFFF742FC7820FFF7ADFD0020D4
S31508000B80FFF7AAFD1420FFF7A7FDFFF707FDFFF7FC
S31508000B9035FC7820FFF7A0FD0020FFF79DFDAF206C
S31508000BA0FFF79AFDFFF7FAFC40F21000C2F20000C8
S31508000BB04FF4806112F00BFDBDE8804000F00AB8E2
S31508000BC080B540F21000C2F200004FF4806112F0C6
S31508000BD0FEFC80BD2DE9F04F83B040F2100840F6C8
S31508000BE000040025C2F20008C4F600044FF000090C
S31508000BF008E000BFFFF7D2FC09F10109B9F1080FB7
S31508000C0000F024815FFA89F000214FF0000B00F014
S31508000C1021F908EBC91AFFF7F1FB7820FFF75CFD0D
S31508000C204020FFF759FD04E00BF1010BBBF1800FE3
S31508000C30E0D01AF80B70002604E000BF0136082E33
S31508000C4000F09C8007FA06F0C0B2C20920464FF4AD
S31508000C50007105F017FFADF80250BDF80200022832
S31508000C6024D800BFBDF802000130ADF80200BDF877
S31508000C70020002281AD8BDF802000130ADF80200B9
S31508000C80BDF80200022811D8BDF802000130ADF8FF
S31508000C900200BDF80200022808D8BDF8020001309B
S31508000CA0ADF80200BDF802000328DBD34FF09040F0
S31508000CB04FF48071012205F0E5FEADF80450BDF849
S31508000CC00400022824D800BFBDF804000130ADF89E
S31508000CD00400BDF8040002281AD8BDF80400013043
S31508000CE0ADF80400BDF80400022811D8BDF80400C8
S31508000CF00130ADF80400BDF80400022808D8BDF894
S31508000D0004000130ADF80400BDF804000328DBD365
S31508000D104FF090404FF48071002205F0B3FEADF815
S31508000D200650BDF8060002283FF688AFBDF8060053
S31508000D300130ADF80600BDF8060002283FF67EAF82
S31508000D40BDF806000130ADF80600BDF80600022819
S31508000D503FF674AFBDF806000130ADF80600BDF8E1
S31508000D60060002283FF66AAFBDF806000130ADF866
S31508000D700600BDF806000328D8D35FE74FF0904079
S31508000D804FF48071012205F07DFEADF80850BDF8DC
S31508000D900800022824D800BFBDF808000130ADF8C5
S31508000DA00800BDF8080002281AD8BDF80800013066
S31508000DB0ADF80800BDF80800022811D8BDF80800EB
S31508000DC00130ADF80800BDF80800022808D8BDF8BB
S31508000DD008000130ADF80800BDF808000328DBD389
S31508000DE04FF090404FF48071002205F04BFEADF8AD
S31508000DF00A50BDF80A0002283FF616AFBDF80A00E9
S31508000E000130ADF80A00BDF80A0002283FF60CAF1B
S31508000E10BDF80A000130ADF80A00BDF80A0002283C
S31508000E203FF602AFBDF80A000130ADF80A00BDF87A
S31508000E300A0002283FF6F8AEBDF80A000130ADF800
S31508000E400A00BDF80A000328D8D3EDE603B0BDE8CA
S31508000E50F08F00BFB0B50C4640F0B005FFF7CEFAEC
S31508000E607820FFF739FC0020FFF736FC2846FFF705
S31508000E7033FCFFF793FB200900F11005FFF7BEFAD4
S31508000E807820FFF729FC0020FFF726FC2846FFF705
S31508000E9023FCFFF783FBFFF7B1FA7820FFF71CFC6A
S31508000EA00020FFF719FC04F00F00FFF715FCBDE85A
S31508000EB0B040FFF773BB00BF002904BF012070478D
S31508000EC0042901F0030201D201210AE021F00303FB
S31508000ED0012100BF414341434143043B00FB01F16B
S31508000EE0F8D13AB1012A00FB01F103D04143022AA5
S31508000EF018BF4143084670472DE9F0474FF00005F3
S31508000F00B8B3DDF820C0461E4FF0000E4FF00008BB
S31508000F1007E000BF464608F101080FFA88F5854242
S31508000F2026DA32F9159034B232F914A0E1454FF0B9
S31508000F300007D8BF0127E2454FF00006C8BF0126C3
S31508000F407740E7D131F9144031F91550ACEB090671
S31508000F50641B7443AAEB090694FBF6F42C449C42E2
S31508000F60C2BF1FFA8EF7B7FA87F74FEA571ED1E7BF
S31508000F707546E8B2BDE8F08770B52DED028B0646DA
S31508000F8008461C46154612F014FD41EC180B30466F
S31508000F9012F00FFD41EC110BB0EE480AF0EE680AAC
S31508000FA013F0C2F851EC100B9FED130B53EC102BFA
S31508000FB012F03FFC9FED120B53EC102B12F0C7FBFF
S31508000FC012F015FDA542014608DAA94210DBA14236
S31508000FD00EDC0120BDEC028B70BD00BFA9424FF0AC
S31508000FE0010002DAA142C8BF0020BDEC028B70BD29
S31508000FF00020BDEC028B70BD1F85EB51B81E094061
S3150800100000000000008066402DE9F04F85B0019091
S3150800101040B2002800F16F813F2900F26C81581810
S31508001020402888BFC1F1400351FA83F0013883B2E2
S3150800103000EB5330C0F3CF07B7EBD10FC0F05B819D
S31508001040019E6FF07F039019802888BF9A1BD6B23D
S31508001050002E4FEAD10B00F03B8140F60005C4F69E
S3150800106000050024009707E0FFF798FA009FBB45A4
S315080010700BF1010B80F23F81019F5FFA8BF0394635
S31508001080FFF7E8FE40F21000C2F2000000EBCB10BA
S315080010900744FFF7B3F97820FFF71EFB4020FFF758
S315080010A01BFB4FF0000903E009F10109B145DBD04C
S315080010B017F809804FF0000A06E000BF0AF1010A96
S315080010C0BAF1080F00F09C8008FA0AF0C0B2C2090B
S315080010D028464FF4007105F0D5FCADF80A40BDF876
S315080010E00A00022824D800BFBDF80A000130ADF86E
S315080010F00A00BDF80A0002281AD8BDF80A0001300D
S31508001100ADF80A00BDF80A00022811D8BDF80A0091
S315080011100130ADF80A00BDF80A00022808D8BDF863
S315080011200A000130ADF80A00BDF80A000328DBD32F
S315080011304FF090404FF48071012205F0A3FCADF802
S315080011400C40BDF80C00022824D800BFBDF80C00DE
S315080011500130ADF80C00BDF80C0002281AD8BDF80D
S315080011600C000130ADF80C00BDF80C00022811D8AF
S31508001170BDF80C000130ADF80C00BDF80C000228D3
S3150800118008D8BDF80C000130ADF80C00BDF80C000D
S315080011900328DBD34FF090404FF48071002205F00E
S315080011A071FCADF80E40BDF80E0002283FF686AF7A
S315080011B0BDF80E000130ADF80E00BDF80E0002288D
S315080011C03FF67CAFBDF80E000130ADF80E00BDF855
S315080011D00E0002283FF672AFBDF80E000130ADF8DA
S315080011E00E00BDF80E0002283FF668AFBDF80E00E7
S315080011F00130ADF80E00BDF80E000328D8D35DE720
S315080012004FF090404FF48071012205F03BFCADF899
S315080012101040BDF81000022824D800BFBDF8100001
S315080012200130ADF81000BDF8100002281AD8BDF834
S3150800123010000130ADF81000BDF81000022811D8D2
S31508001240BDF810000130ADF81000BDF810000228F6
S3150800125008D8BDF810000130ADF81000BDF8100030
S315080012600328DBD34FF090404FF48071002205F03D
S3150800127009FCADF81240BDF8120002283FF614AF7B
S31508001280BDF812000130ADF81200BDF812000228B0
S315080012903FF60AAFBDF812000130ADF81200BDF8EE
S315080012A0120002283FF600AFBDF812000130ADF873
S315080012B01200BDF8120002283FF6F6AEBDF812007D
S315080012C00130ADF81200BDF812000328D8D3EBE6BA
S315080012D001995FFA8BF0FFF7BDFDFFF78FF87820CD
S315080012E0FFF7FAF94020FFF7F7F9FFF757F9BB457B
S315080012F00BF1010BECDB05B0BDE8F08F2DE9F047EB
S3150800130047B2002F5ED43F295CD85F18402F88BFAC
S31508001310C1F1400313F0FF0F54D01718802F6FF058
S315080013207F0688BF321A12F0FF0F51FA83FE41D0AA
S3150800133040F2100850FA82FA4FF0010CC2F2000887
S315080013400B4603E00131CBB29E453BD901F00704B9
S315080013500CFA04F4E4434FEAD3090346064600BFF1
S3150800136008EBC917FD5C05EA0402751CEDB2AA452F
S31508001370FA54E7D97A5DB31CDBB222409A457A550E
S31508001380E0D9FA5CF51CEDB22240AA45FA54D9D93F
S315080013907A5D0436F3B222409A457A55E0D8D1E709
S315080013A0C81CC0B2864598BFBDE8F0870431C8B2EC
S315080013B0864507D9481CC0B2864503D9881CC0B2E1
S315080013C08645EDD8BDE8F08710B540F2100C00212F
S315080013D0C2F2000C1CF801300CEB0102DB430CF8DE
S315080013E001305378907892F803E01479DB43C043D0
S315080013F0537090706FEA0E005379D070E043107105
S31508001400D84393795071D843D3799071D843137AD6
S31508001410D071D843537A1072D843937A5072D8430E
S31508001420D37A9072D843137BD072D843537B107308
S31508001430D843937B5073D843D37B10319073D843EA
S315080014408029D073C6D100210CEB010292F88000E6
S3150800145092F8813092F88240C04392F883E082F88D
S315080014608000D84382F88100E04392F8843082F8FD
S3150800147082006FEA0E0082F88300D84392F885301E
S3150800148082F88400D84392F8863082F88500D843DB
S3150800149092F8873082F88600D84392F8883082F826
S315080014A08700D84392F8893082F88800D84392F8A2
S315080014B08A3082F88900D84392F88B3082F88A00FD
S315080014C0D84392F88C3082F88B00D84392F88D3046
S315080014D082F88C00D84392F88E3082F88D00D84373
S315080014E092F88F30103182F88E00D843802982F81E
S315080014F08F00A9D1002100BF0CEB010292F8000170
S3150800150092F8013192F80241C04392F803E182F859
S315080015100001D84382F80101E04392F8043182F8C9
S3150800152002016FEA0E0082F80301D84392F80531EA
S3150800153082F80401D84392F8063182F80501D843A7
S3150800154092F8073182F80601D84392F8083182F8F2
S315080015500701D84392F8093182F80801D84392F86E
S315080015600A3182F80901D84392F80B3182F80A0148
S31508001570D84392F80C3182F80B01D84392F80D3112
S3150800158082F80C01D84392F80E3182F80D01D8433F
S3150800159092F80F31103182F80E01D843802982F86B
S315080015A00F01A9D1002100BF0CEB010292F88001BE
S315080015B092F8813192F88241C04392F883E182F829
S315080015C08001D84382F88101E04392F8843182F899
S315080015D082016FEA0E0082F88301D84392F88531BA
S315080015E082F88401D84392F8863182F88501D84377
S315080015F092F8873182F88601D84392F8883182F8C2
S315080016008701D84392F8893182F88801D84392F83D
S315080016108A3182F88901D84392F88B3182F88A0197
S31508001620D84392F88C3182F88B01D84392F88D31E1
S3150800163082F88C01D84392F88E3182F88D01D8430E
S3150800164092F88F31103182F88E01D843802982F8BA
S315080016508F01A9D1002100BF0CEB010292F800020C
S3150800166092F8013292F80242C04392F803E282F8F5
S315080016700002D84382F80102E04392F8043282F865
S3150800168002026FEA0E0082F80302D84392F8053286
S3150800169082F80402D84392F8063282F80502D84343
S315080016A092F8073282F80602D84392F8083282F88E
S315080016B00702D84392F8093282F80802D84392F80A
S315080016C00A3282F80902D84392F80B3282F80A02E3
S315080016D0D84392F80C3282F80B02D84392F80D32AE
S315080016E082F80C02D84392F80E3282F80D02D843DB
S315080016F092F80F32103182F80E02D843802982F808
S315080017000F02A9D1002100BF0CEB010292F880025A
S3150800171092F8813292F88242C04392F883E282F8C4
S315080017208002D84382F88102E04392F8843282F834
S3150800173082026FEA0E0082F88302D84392F8853255
S3150800174082F88402D84392F8863282F88502D84312
S3150800175092F8873282F88602D84392F8883282F85D
S315080017608702D84392F8893282F88802D84392F8D9
S315080017708A3282F88902D84392F88B3282F88A0232
S31508001780D84392F88C3282F88B02D84392F88D327D
S3150800179082F88C02D84392F88E3282F88D02D843AA
S315080017A092F88F32103182F88E02D843802982F857
S315080017B08F02A9D1002100BF0CEB010292F80003A9
S315080017C092F8013392F80243C04392F803E382F891
S315080017D00003D84382F80103E04392F8043382F801
S315080017E002036FEA0E0082F80303D84392F8053322
S315080017F082F80403D84392F8063382F80503D843DF
S3150800180092F8073382F80603D84392F8083382F829
S315080018100703D84392F8093382F80803D84392F8A5
S315080018200A3382F80903D84392F80B3382F80A037D
S31508001830D84392F80C3382F80B03D84392F80D3349
S3150800184082F80C03D84392F80E3382F80D03D84376
S3150800185092F80F33103182F80E03D843802982F8A4
S315080018600F03A9D1002100BF0CEB010292F88003F7
S3150800187092F8813392F88243C04392F883E382F860
S315080018808003D84382F88103E04392F8843382F8D0
S3150800189082036FEA0E0082F88303D84392F88533F1
S315080018A082F88403D84392F8863382F88503D843AE
S315080018B092F8873382F88603D84392F8883382F8F9
S315080018C08703D84392F8893382F88803D84392F875
S315080018D08A3382F88903D84392F88B3382F88A03CD
S315080018E0D84392F88C3382F88B03D84392F88D3319
S315080018F082F88C03D84392F88E3382F88D03D84346
S3150800190092F88F33103182F88E03D843802982F8F3
S315080019108F03A9D110BD00BF2DE9F04747B2002FAC
S315080019205CD43F295AD85F18402F88BFC1F14003BD
S3150800193013F0FF0F52D01718802F6FF07F0688BF5D
S31508001940321A12F0FF0F51FA83FE3FD040F2100808
S3150800195050FA82FA4FF0010CC2F200080B4603E077
S315080019600131CBB29E4539D901F007040CFA04F4CB
S315080019704FEAD3090346064608EBC917FD5C85EA14
S315080019800402751CEDB2AA45FA54E9D97A5DB31C6E
S31508001990DBB262409A457A55E2D9FA5CF51CEDB29B
S315080019A06240AA45FA54DBD97A5D0436F3B262403E
S315080019B09A457A55E0D8D3E7C81CC0B2864598BF81
S315080019C0BDE8F0870431C8B2864507D9481CC0B2BD
S315080019D0864503D9881CC0B28645EDD8BDE8F08790
S315080019E080B582B0062B11D0082B1FD145F266238D
S315080019F0C0F6010303EB0212A2F5007C08221023AD
S31508001A00CDF800C000F014F802B080BD45F22C03F2
S31508001A1002EB4202C0F6010303EB4202A2F1C00C3C
S31508001A2006220823CDF800C000F002F802B080BDF7
S31508001A302DE9F04F83B047B2002F01D43F2903D9CF
S31508001A4003B0BDE8F08F00BF5F18402FCDE9013124
S31508001A5088BFC1F1400313F0FF0F5BD0111880292E
S31508001A6011466FF07F0788BF391ADDF8089011F024
S31508001A70FF0F59FA83FE3BD040F2100850FA81FB5B
S31508001A80C2F200084C4605E009F101095FFA89F43B
S31508001A90A6453FD909F00703012101FA03F3DD43FF
S31508001AA04FEAD40A0746064608EBCA14E35D03EA7A
S31508001AB00501731CDBB29B45E155E5D9E15CB71C12
S31508001AC0FFB22940BB45E154DED9E15DF31C5FFA5C
S31508001AD083FC2940E345E155D6D914F80C100436A1
S31508001AE0F7B22940BB4504F80C10DDD8CCE700BF97
S31508001AF04F4600BF791CC9B28E450BD9B91CC9B26D
S31508001B008E4507D9F91CC9B28E4503D90437F9B2EF
S31508001B108E45EFD80199002AA1F101018BB201EB9C
S31508001B2053314FEAE10B5FD003460299802828BF5C
S31508001B308023803B029340F21003C2F2000318444C
S31508001B404FEAD10E01F0070100F1800300F560703D
S31508001B50C1F10809009000204FF0000A019306E041
S31508001B600AF1010A5FFA8AF08345FFF469AF704407
S31508001B7007283FF665AF0C9B5FFA8AF012FB003028
S31508001B8010D1009D029E1346002EE9D010F8017B65
S31508001B902C788F40274305F8017B013B06F10106A7
S31508001BA0F2D1DDE7019F5EFA8AF307EBC316029BC3
S31508001BB0154600BF002BD3D090F800C016F8808CCD
S31508001BC00CFA01F444EA080406F8804C10F8014BB4
S31508001BD0377824FA09F4274306F8017B013D03F117
S31508001BE00103E7D1BCE700BF002000BF40F00101B8
S31508001BF0C9B28B45FFF424AF40F00201C9B28B4548
S31508001C00FFF41EAF40F00301C9B28B45FFF418AFCD
S31508001C100430C1B28B45E9D212E700BF2DE9F04383
S31508001C2081B014461278DAB389460646082B1FD0C7
S31508001C30062B39D145F22C080027C0F6010800BF4B
S31508001C4007EB470002EB420106EB400008EB4101B7
S31508001C50A1F1C005C0B24946062208230095FFF740
S31508001C60E7FE0137F8B2225C002AE9D118E000BF86
S31508001C7045F266280027C0F6010800BF06EBC70034
S31508001C8008EB0211A1F50075C0B2494608221023D7
S31508001C900095FFF7CDFE0137F8B2225C002AEDD198
S31508001CA001B0BDE8F08300BF002000BF40F001018D
S31508001CB0C9B2615C0029F3D040F00201C9B2615C87
S31508001CC00029EDD040F00301C9B2615C0029E7D0D4
S31508001CD00430C1B2615C0029E8D1E1E7002B08BFF6
S31508001CE070472DE9F04F83B081460C981C46924602
S31508001CF08B4608285ED0062840F0B280A01E0190C8
S31508001D006042651E002642F21078029029E000BF64
S31508001D100120BAFBF0F04CF6CD41CCF6CC41A0FB45
S31508001D200112D20802EB8202A0EB420006EB460142
S31508001D3040F0100045F22C0209EB410100EB40008F
S31508001D40C0F6010202EB4007C8B25946062208232C
S31508001D500097FFF76DFE0136A642A5F1010500F0D2
S31508001D607F800298F1438142D2D00198801B0328D4
S31508001D7002D2012008E000BF25F00302012000BFBF
S31508001D80043A00FB08F0FBD1214411F00301C0D04E
S31508001D90012903D100EB80004000BAE74FF47A72BC
S31508001DA0424302294FF0640108BF00FB01F21046C6
S31508001DB0AFE700BFA01E01906042651E002642F2F2
S31508001DC01078029024E000BF0120BAFBF0F04CF630
S31508001DD0CD41CCF6CC41A0FB0112D20802EB82021F
S31508001DE0A0EB420045F26622C0F6010209EBC601E5
S31508001DF002EB001000F58077C8B259460822102376
S31508001E000097FFF715FE0136A642A5F1010527D072
S31508001E100298F1438142D7D00198801B032801D24A
S31508001E20012007E025F00302012000BF043A00FB69
S31508001E3008F0FBD1214411F00301C6D0012903D1D2
S31508001E4000EB80004000C0E74FF47A724243022953
S31508001E504FF0640108BF00FB01F21046B5E700BF6A
S31508001E6003B0BDE8F04F70472DE9F04F83B00C9DE5
S31508001E701C469346002A824602910FD4062D1DD091
S31508001E80082D28D145F26620C0F60100029900F116
S31508001E90B0075046082210231AE000BF062D1DD0B1
S31508001EA0082D28D145F26620C0F60100029900F1F6
S31508001EB0D0075046082210231AE000BF45F22C002E
S31508001EC0C0F60100029900F142075046062208238F
S31508001ED00097FFF7ADFD9CB9C6E000BF45F22C00A0
S31508001EE0C0F60100029900F14E0750460622082363
S31508001EF00097FFF79DFDCBF1000B002C00F0B48096
S31508001F00082D5BD0062D40F0AF80A01EC4F1000955
S31508001F10671E002542F21078019028E00120BBFBDD
S31508001F20F0F04CF6CD41CCF6CC41A0FB0112D2081C
S31508001F3002EB82020135A0EB420005EB450140F0B9
S31508001F40100045F22C020AEB410100EB4000C0F6F6
S31508001F50010202EB4006C8B202990622082300963F
S31508001F60FFF766FDA542A7F1010700F07D80E9436A
S31508001F704945D3D00198401B032801D2012007E028
S31508001F8027F00302012000BF043A00FB08F0FBD14A
S31508001F90214411F00301C2D0012903D100EB8000CE
S31508001FA04000BCE74FF47A72424302294FF06401BD
S31508001FB008BF00FB01F21046B1E700BFA01EC4F13E
S31508001FC00009671E002642F21078019024E000BF3F
S31508001FD00120BBFBF0F04CF6CD41CCF6CC41A0FB82
S31508001FE00112D20802EB8202A0EB420045F26622F9
S31508001FF00136C0F601020AEBC60102EB001000F535
S315080020008075C8B20299082210230095FFF710FDC3
S31508002010A642A7F1010727D0F1434945D8D0019830
S31508002020801B032802D2012008E000BF27F0030224
S31508002030012000BF043A00FB08F0FBD1214411F04F
S315080020400301C6D0012903D100EB80004000C0E798
S315080020504FF47A72424302294FF0640108BF00FB2D
S3150800206001F21046B5E700BF03B0BDE8F08F00BF28
S315080020702DE9F04F83B0002B029100F07F800C9E73
S315080020801C4692468346981EC3F100085F1E4FF011
S315080020900009019017E000BF45F22C0201EB41014F
S315080020A0C0F6010202EB410101F18A050299C0B2AC
S315080020B0062208230095FFF7BBFC09F10109A14593
S315080020C0A7F101075AD06FEA0901414502D101205B
S315080020D01EE000BF0198A0EB0900032802D20120E8
S315080020E008E000BF27F00302012000BF043A4FEAC8
S315080020F00040FBD1214411F0030109D0012901D187
S31508002100000105E00203022908BF0202104600BFCB
S31508002110BAFBF0F000F00F0109FB06B009290FD849
S31508002120062E01F130011DD0082EC6D145F26622D1
S31508002130C0F6010202EB0111A1F500750CE000BF23
S31508002140062EA9D0082EB8D145F26622C0F601029D
S3150800215002EB011101F5B8750299C0B208221023E5
S31508002160A8E700BF45F22C0201EB4101C0F60102C7
S3150800217002EB4101A1F1C00598E700BF03B0BDE835
S31508002180F08F00BF002B08BF70472DE9F04F83B0D2
S3150800219080460C981C4692468B46082848D0062846
S315080021A040F08880A01EC4F10009651E0026029032
S315080021B01EE000BF0120BAFBF0F0082206EB46013C
S315080021C062F35F0045F22C0208EB410100EB400088
S315080021D0C0F6010202EB4007C8B259460622082398
S315080021E00097FFF725FC0136A642A5F1010561D047
S315080021F0F1434945DED00298801B032802D201200C
S3150800220008E000BF25F00302012000BF043A4FEAA8
S315080022100010FBD1214411F00301CCD0012901D1D2
S315080022204000C8E7C200022908BF82001046C2E77C
S31508002230A01EC4F10009651E002602901BE000BF1F
S315080022400120BAFBF0F045F2662200F00100C0F664
S31508002250010208EBC60102EB001000F58077C8B250
S315080022605946082210230097FFF7E2FB0136A642DB
S31508002270A5F101051ED0F1434945E1D00298801B1E
S31508002280032801D2012007E025F00302012000BF40
S31508002290043A4FEA0010FBD1214411F00301D0D0D3
S315080022A0012901D14000CCE7C200022908BF8200FB
S315080022B01046C6E703B0BDE8F04F704700BF00BF41
S315080022C02DE9F04F81B02DED028B84B0B0EE408A37
S315080022D0F0EE608A9FED720B9A4614468946DDF841
S315080022E04080834651EC180B53EC102B11F02BFB56
S315080022F0019488B1B8F1060F20D0B8F1080F2AD199
S3150800230045F26620C0F6010000F1D0075846494656
S31508002310082210231CE000BFB8F1060F26D0B8F13A
S31508002320080F30D145F26620C0F6010000F1B0076B
S31508002330584649460822102322E000BF45F22C00E1
S31508002340C0F6010000F14E07584649460622082302
S315080023500097FFF76DFB8DED028B9DF80F0080F05F
S3150800236080008DF80F009DED028B0CE045F22C00E5
S31508002370C0F6010000F142075846494606220823DE
S315080023800097FFF755FB55EC184B2046294611F0E8
S315080023904DFB064611F01EFB02460B462046294613
S315080023A011F0CFF90546BAF1000F0C4608D0BAF17C
S315080023B0040F0AF0030005D20A21A0B91DE000BFE8
S315080023C001271AE00AF0FC01012742F2107200BF49
S315080023D03B46043902FB07F7FAD148F2A061C0F27E
S315080023E00101594348B1012806D0642301EB810253
S315080023F05943022808BF51000F46384611F0EAFA39
S3150800240002460B462846214611F0A1F941EC100B6D
S3150800241011F08AFF51EC100B11F008FB0446B0FBD3
S31508002420F7F0019D821908EB0B00C0B249462B460E
S31508002430CDF80080FFF752FC681CB8F1060F10FBB8
S3150800244008B00DD0B8F1080F17D145F26621C0F6CD
S31508002450010101F1E007C0B249460822102309E04C
S3150800246045F22C01C0F6010101F15407C0B24946F4
S31508002470062208230097FFF7DBFAA81C10FB08B012
S31508002480C0B2494622465346CDF80080FFF726FCDF
S3150800249004B0BDEC028B01B0BDE8F08F00BF00BFF1
S315080024A000000000000000002DE9F04F83B0019104
S315080024B01178934600220029029253D044F63077C9
S315080024C0A0F1100A002402AEC0F60107002500207C
S315080024D01FE000BF4FF000094AF6AB21601CCAF6A0
S315080024E0AA21A0FB010101F01E0009EBC90107EBB7
S315080024F081010AEBC0000C1D0199C0B210221023FD
S315080025000094FFF795FA00200135ECB21BF8041089
S3150800251041B30228315423D3397830444FF00009A7
S31508002520002980F80290D7D03846314611F05AF87B
S315080025300028CFD04FF0000808F101085FFA88F9A3
S315080025404FEAC90050FA88F017F820100029C3D0BE
S3150800255007EB8000314611F045F80028ECD1BBE7BF
S315080025600130D1E703B0BDE8F08F00BF2DE9F04395
S315080025708BB00DF10E0917460D46064612AA4846B7
S315080025801946029211F038FC9DF80E00C8B3082FC0
S315080025901ED0062F38D145F22C080027C0F60108B0
S315080025A007EB470100EB400006EB410108EB400052
S315080025B0A0F1C004C8B22946062208230094FFF7F2
S315080025C037FA0137F8B219F800000028E8D118E000
S315080025D045F266280027C0F6010800BF06EBC701CA
S315080025E008EB0010A0F50074C8B22946082210238B
S315080025F00094FFF71DFA0137F8B219F80000002811
S31508002600ECD10BB0BDE8F083002000BF40F001011B
S31508002610C9B219F801100029F3D040F00201C9B275
S3150800262019F801100029ECD040F00301C9B219F8D5
S3150800263001100029E5D00430C1B219F801100029AB
S31508002640E4D1DEE742B2002A13D43F2988BF704797
S3150800265040F2100301F0070201F0F801C2F200038C
S3150800266003EB01114FF0010C0B5C0CFA02F21A4352
S315080026700A54704742B2002A4FF0000210D43F298C
S315080026800ED86FF0700240F2100302EA0112C2F28D
S3150800269000031A44105C01F00701C84000F001026B
S315080026A0104670472DE9F04F82B0994248D19042C2
S315080026B0134688BF03463F2900F2F38401F0070753
S315080026C0012606FA07F7904238BF02469E1A701C82
S315080026D010F003054FEAD10C00F0DA8050B200285A
S315080026E009D440F21004C2F20004C0B204EBCC14C0
S315080026F0215C39432154012D02F1010000F0C98003
S31508002700010609D440F21001C2F20001C0B201EB81
S31508002710CC110C5C3C430C54022D02F1020000F073
S31508002720B880010609D440F21001C2F20001C0B215
S3150800273001EBCC110D5C3D430D54D01CA9E000BF44
S31508002740904259D199429E4647B288BF8E46002F7D
S3150800275000F1A784994238BF0B46AEEB0307791CF4
S3150800276011F0030600F0D2803F2B10D840F2100576
S3150800277003F0F804C2F2000505EB041503F007019F
S315080027804FF0010C2C5C0CFA01F121432954012E5F
S3150800279003F1010100F0BB80C9B23F2911D86FF0DF
S315080027A0700401F0070504EA011140F21004C2F2B0
S315080027B0000421444FF0010C0C5C0CFA05F5254386
S315080027C00D54022E03F1020100F0A180C9B23F297F
S315080027D010D86FF0700401F0070604EA011140F200
S315080027E01004C2F20004214401250C5C05FA06F621
S315080027F026430E54D91C8AE002D990461F4603E0A8
S3150800280080460F4610461946C7F1000E8F424FF014
S31508002810000A72460D4688BF4FF0010A4E428F42A3
S3150800282084BF3A46354602EB0509B8F17F0F4FF0EB
S3150800283000024FF00003A0EB080B88BF01223F2FD0
S3150800284088BF0123CB4542EA030411DAABEB090042
S3150800285000908F429CBF0E46BE464FEA4B0CC9EB12
S315080028604B057346002C3046C64600F0AA80C6E0E3
S315080028704FEA490CA9EB0B028F42CBEB49054FF007
S31508002880000A00923CD9002C00F09A804346B6E034
S315080028901046032EC0F0058440F21001C2F2000172
S315080028A001EBCC1106E000BF92B29A4200F1040097
S315080028B080F0F783020611D4C2B28E5C3E438E5472
S315080028C0421C16060DD5821C160611D4D2B28E5C91
S315080028D03E438E54C21C1606E6D40CE0421C16066D
S315080028E0F1D4D2B28E5C3E438E54821C1606EDD5C8
S315080028F0C21C1606D8D4D6B28D5D3D438D55D3E796
S31508002900002CBE4643465CD079E000BF1946032F2B
S31508002910C0F0C78340F2100601236FF0700CC2F2B4
S31508002920000605E0AAB2724501F1040180F0B983F8
S31508002930CDB23F2D0CD94D1CEFB23F2F16D98D1CA9
S31508002940EFB23F2F21D9CD1CECB23F2CEAD82BE0B1
S3150800295005F007040CEA051535442F5C03FA04F460
S3150800296027432F544D1CEFB23F2FE8D805F0F80740
S3150800297006EB071705F007053C5C03FA05F5254342
S315080029803D548D1CEFB23F2FDDD805F0F80706EB56
S31508002990071705F007053C5C03FA05F525433D5482
S315080029A0CD1CECB23F2CBDD804F007070CEA041482
S315080029B03444225C03FA07F73A432254B2E700BFCD
S315080029C043466FF0700640F2100406EA0716C2F294
S315080029D000043444CDF8048007F0070214F80860B0
S315080029E0E046DC46CB46D1464FF0010A0AFA02F227
S315080029F03243019ECA46D946E346C446A2551CB28E
S31508002A0002B2A242019240F34C83009AC61A5400BD
S31508002A10DA4300EB0208BAF1000F06F0030000F0F3
S31508002A20FF80002859D029B2B1F1FF3F6246C8BFDE
S31508002A302246B1F1FF3FDEB2C8BF0EF1010EC02E2D
S31508002A4002EB050118D31EF0800215D186F0FF02AD
S31508002A506FF0700702F0070607EA021240F2100745
S31508002A60C2F200075FFA8EF53A444FF00109575D46
S31508002A7009FA06F63E4356555E1C01280DB22BD0C0
S31508002A80B5F1FF3F6146C8BF2146B5F1FF3FF6B233
S31508002A90C8BF0EF1010EC02E294418D31EF08002BD
S31508002AA015D186F0FF026FF0700702F0070607EAF5
S31508002AB0021240F21007C2F200075FFA8EF53A4496
S31508002AC04FF00109575D09FA06F63E4356559E1C16
S31508002AD002280DB240F0E88233461FFA88F0032830
S31508002AE0C0F0DF8240F2100B4FF0010AC2F2000B71
S31508002AF007E000BF191D0BB2019905448B4280F20D
S31508002B00D0822AB2B2F1FF3F6046C8BF2046B2F172
S31508002B10FF3FDFB2C8BF0EF1010EC02F14D31EF05F
S31508002B20800211D187F0FF026FF0700102F00708EA
S31508002B3001EA02125FFA8EF75A4412F807900AFA67
S31508002B4008F141EA0901D155284400B2B0F1FF3F26
S31508002B50654603F10101C8BF2546B0F1FF3FC9B27A
S31508002B60C8BF0EF1010EC02912D31EF080010FD185
S31508002B706FF00101C91A01F0F8025FFA8EF70BEB44
S31508002B80021201F00701D65D0AFA01F13143D15567
S31508002B90284400B2B0F1FF3F654603F10201C8BF01
S31508002BA02546B0F1FF3FC9B2C8BF0EF1010EC029D4
S31508002BB012D31EF080010FD16FF00201C91A01F07D
S31508002BC0F8025FFA8EF60BEB021201F00701975D29
S31508002BD00AFA01F139439155284405B2D91CB5F1D1
S31508002BE0FF3F6046C9B2C4BF20460EF1010EC02998
S31508002BF0FFF480AF1EF080017FF47CAF6FF0030115
S31508002C00C91A01F0F8025FFA8EF60BEB021201F010
S31508002C100701975D0AFA01F1394391556AE700BF42
S31508002C208F4240F2EF80002858D02AB2B2F1FF3F17
S31508002C30664603F10101C8BF2646B2F1FF3FC8BF89
S31508002C400EF1010E0A06354418D4CEF10006F2B28A
S31508002C503F2A13D806F0F80706F0070A40F21006CE
S31508002C60C2F20006CAB206EB07164FF0010916F8BB
S31508002C7002B009FA0AF747EA0B07B75401282DB23A
S31508002C802BD0B5F1FF3F624603F10201C8BF2246C9
S31508002C90B5F1FF3FC8BF0EF1010E0E06154418D454
S31508002CA0CEF10006F2B23F2A13D806F0F80706F06E
S31508002CB0070A40F21006C2F20006CAB206EB071669
S31508002CC04FF0010916F802B009FA0AF747EA0B07A6
S31508002CD0B75402282DB240F097820B461FFA88F0A7
S31508002CE00328C0F0DE8140F210094FF00108C2F255
S31508002CF0000904E001983544834280F2D28128B263
S31508002D00B0F1FF3F664603F10107C8BF2646B0F19A
S31508002D10FF3FC8BF0EF1010E380610D4CEF10000F1
S31508002D20C2B23F2A0BD8FAB200F0F80709EB071728
S31508002D3000F00700B95C08FA00F00843B8547019A7
S31508002D4005B2B5F1FF3F664603F10207C8BF26463E
S31508002D50B5F1FF3FC8BF0EF1010E380610D4CEF10B
S31508002D600000C1B23F290BD800F0F802F9B209EB0E
S31508002D70021200F00700575C08FA00F03843505476
S31508002D80701905B2B5F1FF3F664603F10307C8BFE0
S31508002D902646B5F1FF3FC8BF0EF1010E380610D41E
S31508002DA0CEF10000C1B23F290BD800F0F802F9B203
S31508002DB009EB021200F00700575C08FA00F03843E6
S31508002DC05054701905B2181DB5F1FF3F6646C4BFC9
S31508002DD026460EF1010E010603B28BD4CEF1000091
S31508002DE0C1B23F293FF686AF00F0F802D9B209EB27
S31508002DF0021200F00700575C08FA00F038435054F6
S31508002E0078E700BFCB4580F2ED80002858D02AB27B
S31508002E10B2F1FF3F6646C8BF2646B2F1FF3F03F14F
S31508002E20010BC8BF0EF1010E5FEA0E62354417D4D6
S31508002E305FFA8BF63F2E13D86FF0700706F0070A75
S31508002E4007EA061640F21007C2F200075FFA8EF28A
S31508002E503E444FF00109B75C09FA0AF13943B15407
S31508002E6001282DB22BD0B5F1FF3F6246C8BF2246D6
S31508002E70B5F1FF3F03F1020BC8BF0EF1010E5FEA81
S31508002E800E66154417D45FFA8BF63F2E13D86FF0EB
S31508002E90700706F0070A07EA061640F21007C2F29C
S31508002EA000075FFA8EF23E444FF00109B75C09FA53
S31508002EB00AF13943B15402282DB240F0C9815B4664
S31508002EC01FFA88F00328C0F0EC8040F2100A4FF091
S31508002ED001096FF07008C2F2000A05E001981BB2FA
S31508002EE083423D4480F2DD8029B2B1F1FF3F674657
S31508002EF0C8BF2746B1F1FF3FC8BF0EF1010E5FEA12
S31508002F000E6110D4591CCAB23F2A0CD801F0F80039
S31508002F105FFA8EF20AEB001001F00701865C09FAE7
S31508002F2001F131438154781905B2B5F1FF3F67467F
S31508002F30C8BF2746B5F1FF3FC8BF0EF1010E5FEACD
S31508002F400E6010D4991CC8B23F280CD801F0F802BC
S31508002F505FFA8EF00AEB021201F00701165C09FA15
S31508002F6001F131431154781905B2B5F1FF3F6746AF
S31508002F70C8BF2746B5F1FF3FC8BF0EF1010E5FEA8D
S31508002F800E6010D4D91CC8B23F280CD801F0F8023C
S31508002F905FFA8EF00AEB021201F00701165C09FAD5
S31508002FA001F131431154781905B2B5F1FF3F67466F
S31508002FB0C4BF27460EF1010E5FEA0E6003F1040353
S31508002FC08CD4D9B23F2989D801F0070208EA011141
S31508002FD05FFA8EF051440E5C09FA02F232430A5443
S31508002FE07CE700BF002858D02AB2B2F1FF3F6646F8
S31508002FF003F10101C8BF2646B2F1FF3FC8BF0EF173
S31508003000010E0A06354418D45FFA8EF63F2E14D8F8
S315080030106FF0700706F0070A07EA061640F210076F
S31508003020C2F20007CAB23E444FF0010916F802B0D0
S3150800303009FA0AF747EA0B07B75401282DB22BD02D
S31508003040B5F1FF3F624603F10201C8BF2246B5F15A
S31508003050FF3FC8BF0EF1010E0E06154418D45FFADD
S315080030608EF63F2E14D86FF0700706F0070A07EAA7
S31508003070061640F21007C2F20007CAB23E444FF0E5
S31508003080010916F802B009FA0AF747EA0B07B75416
S3150800309002282DB240F002810B461FFA88F0032859
S315080030A02AD202B0BDE8F08FB5F1FF3F6146F0B213
S315080030B003F10303C4BF21460EF1010EC0280D44D7
S315080030C0FFF40BAD1EF080017FF407AD80F0FF0022
S315080030D06FF0700700F0070207EA001040F21007C9
S315080030E0C2F200075FFA8EF138440126475C06FAF9
S315080030F002F23A434254F0E440F2100A4FF0010853
S315080031006FF07009C2F2000A04E000BF01983D445E
S315080031108342C6DA29B2B1F1FF3F674603F10100DF
S31508003120C8BF2746B1F1FF3FC8BF0EF1010E010621
S315080031300ED45FFA8EF13F290AD801F0070209EA90
S315080031400111C0B251440E5C08FA02F232430A5425
S31508003150781905B2B5F1FF3F674603F10200C8BF0B
S315080031602746B5F1FF3FC8BF0EF1010E01060ED482
S315080031705FFA8EF13F290AD801F0070209EA011120
S31508003180C0B251440E5C08FA02F232430A54781966
S3150800319005B2B5F1FF3F674603F10300C8BF2746EE
S315080031A0B5F1FF3FC8BF0EF1010E01060ED45FFA56
S315080031B08EF13F290AD801F0070209EA0111C0B2C7
S315080031C051440E5C08FA02F232430A54781905B2E1
S315080031D0181DB5F1FF3F6746C4BF27460EF1010E1D
S315080031E0010603B292D45FFA8EF03F288ED800F01B
S315080031F0070209EA0010D9B25044465C08FA02F2FE
S315080032003243425482E700BF0333B5F1FF3F6046BD
S31508003210C4BF20460EF1010E190605443FF55EAD02
S31508003220CEF10000C1B23F293FF658AD40F2100773
S3150800323000F0F802C2F20007D9B207EB021200F05A
S3150800324007000126575C06FA00F03843505445E556
S31508003250B5F1FF3F604603F10303C4BF20460EF1F4
S31508003260010E5FEA0E6105443FF52AAED8B23F2843
S315080032703FF626AE6FF0700700F0070207EA001067
S3150800328040F21007C2F200075FFA8EF138440126B1
S31508003290475C06FA02F23A43425411E60333B5F1A3
S315080032A0FF3F6046C4BF20460EF1010E19060544CD
S315080032B03FF5F3AE5FFA8EF03F283FF6EEAE6FF0BD
S315080032C0700700F0070207EA001040F21007C2F282
S315080032D00007D9B238440126475C06FA02F23A4397
S315080032E04254DAE62DE9F041069F02EB000C002F66
S315080032F052D0002A00F0A880002B43D040F21008D4
S315080033005A184FF0010EC2F20008054605E000BF44
S315080033100135E8B2844540F297806BB2002B0E4621
S315080033200B4615D5581CC0B28242F1D9981CC0B2BA
S315080033308242EDD9D81CC0B28242E9D90433D8B248
S315080033408242EFD8E4E700BF0136F3B29A42DFD9EA
S31508003350F3B23F2BF8D806F0F80308EB031306F090
S3150800336007071C5C0EFA07F73C431C54ECE700BF42
S31508003370C11CC9B28C4598BFBDE8F0810430C1B202
S315080033808C4561D9411CC9B28C455DD9811CC9B22D
S315080033908C45EDD858E000BF02B3CA18571E012560
S315080033A0FAB207F0070705FA07FE40294FEAD204E2
S315080033B04CD33F2A40F28A80024600BF571CFFB210
S315080033C0BC450BD9971CFFB2BC4507D9D71CFFB221
S315080033D0BC4503D90432D7B2BC45EFD8A3B3ACF188
S315080033E0010740F2100E03EB01087BB2FDB244B2AE
S315080033F04FF0010CC2F2000E04E000BF0131CAB260
S31508003400904521D9002C0DD4CEB23F2E0AD801F012
S31508003410F8060EEB061601F00707325C0CFA07F7FA
S315080034203A433254002BE9D4CAB23F2AE6D801F00F
S31508003430F8020EEB021201F00706575D0CFA06F6C3
S315080034403E435655DAE700BFBDE8F08101F00706AE
S3150800345005FA06F83F2A4FEAD10273D940F2100757
S31508003460C2F2000707EBC2120746044604E000BF93
S315080034700434E7B2BC45B1D966B2002E03D4D65D92
S3150800348046EA0806D655661CF7B2BC45A6D976B2F2
S31508003490002E03D4D65D46EA0806D655A61CF7B212
S315080034A0BC459BD976B2002E03D4D65D46EA0806FB
S315080034B0D655E61CF7B2BC457FF690AF76B2002E1D
S315080034C0D6D4D65D46EA0806D655D1E740F21002AC
S315080034D0C2F2000202EBC4120546044605E000BF2C
S315080034E00434E5B2AC457FF679AF66B2002E03D454
S315080034F0565D46EA0E065655661CF5B2AC457FF68D
S315080035006DAF76B2002E03D4565D46EA0E065655C2
S31508003510A61CF5B2AC457FF661AF76B2002E03D491
S31508003520565D46EA0E065655E61CF5B2AC457FF6DC
S3150800353055AF76B2002ED3D4565D46EA0E065655DA
S31508003540CEE700BF40F21006C2F2000606EBC21232
S3150800355006EBC4140746064605E000BF0136F7B277
S31508003560BC457FF63BAF75B2002DF7D4D55D45EA6D
S315080035700805D555E55D45EA0E05E555EEE700BFB4
S315080035802DE9F04F8FB00F461A99DDE9185B9A4678
S3150800359090460029044600F0D780A045214638BF4A
S315080035A04146A942384628BF2946BA4538BF50463B
S315080035B0584528BF584605902046A04588BF40462E
S315080035C0A84298BF28463B460490BA4588BF53464A
S315080035D0281B5B4598BF5B460C90ABEB07000B902E
S315080035E0A4EB080001940A90A7EB0A000990A8EB3F
S315080035F00500CDE902580890AAEB0B00079006E0F3
S315080036000699049A0131C8B2904200F2998006914F
S3150800361048B20599B0F1FF3F40F37E8006985FFAFD
S3150800362080FE0198AEEB00000E900398AEEB00000A
S315080036300D900298059DAEEB000C03E00135E8B24B
S315080036409842DDD8EAB2BA424FF000004FF00001C6
S3150800365028BF01205A4538BF012148404FF00001D4
S3150800366002D0012010E000BF0C99D01B48430B99EB
S3150800367090FBF1F00E9988424FF000004FF00001E0
S31508003680D8BF0120C8BF012152454FF0000828BF06
S315080036904FF00108BA424FF0000938BF4FF0010950
S315080036A098EA090F0AD10A9EA2EB0A047443099EF6
S315080036B094FBF6F40D9EB442C8BF01465A454FF036
S315080036C0000028BF012052454FF0000438BF0124EE
S315080036D060400AD1089CA2EB0B006043079C90FB54
S315080036E0F4F06045C8BF81F001010029A6D03F2A41
S315080036F0A4D840F2100205F0F800C2F2000202EB6C
S31508003700001005F0070110F80E20012404FA01F153
S31508003710114300F80E1091E7481CC0B298423FF6D4
S315080037206FAF881CC0B298423FF66AAFC81CC0B2D9
S3150800373098423FF665AF0431C8B29842ECD95FE7C4
S315080037400FB0BDE8F08F00BF2046394642465346C3
S31508003750FEF7A8FF204639462A465B46FEF7A2FF33
S31508003760404651462A465B460FB0BDE8F04FFEF785
S3150800377099BF00BF2DE9F04F8CB0804640B240F2A9
S31508003780100915468A460028C2F20009029312D487
S3150800379005EB0A02D3B23F2B0DD802F0F80309EB6A
S315080037A0031302F00702012713F8086007FA02F26A
S315080037B0324303F80820002812D4AAEB0502D3B234
S315080037C03F2B0DD802F0F80309EB031302F00702AA
S315080037D0012713F8086007FA02F2324303F80820B3
S315080037E0BAF13F0F13D805EB080252B2002A0ED4DD
S315080037F00AF0F806D2B209EB06160AF00703012703
S315080038002946B55C07FA03F32B430D46B354BAF1C0
S315080038103F0F13D8A8EB050252B2002A0ED40AF0BD
S31508003820F806D2B209EB06160AF00703012729465D
S31508003830B55C07FA03F32B430D46B354029979B3E3
S315080038406A42AA422CDA00281AD4012004E000BFF2
S31508003850013213B2AB4223DA02EB0A03DFB23F2F7F
S31508003860F6D803F0F80709EB071703F0070317F86C
S31508003870086000FA03F3334307F80830E8E700BFA7
S31508003880501C00B2A8420BDA901C00B2A84207DA14
S31508003890D01C00B2A84203DA043210B2A842EFDB09
S315080038A0002D00F07383C5F1010000224FF0010BD3
S315080038B00021CDE900A80EE00798069A00B20899FB
S315080038C000EB4200DDE90A25DDF80480013101300C
S315080038D0AA4280F25B830492531C07900004A5F168
S315080038E0010210B21F464CBF2A463F1A03EB0800D6
S315080038F040B2002802EB0A0E06970A930FD45FFA25
S315080039008EF33F2B0BD80EF0F806C3B209EB06165A
S315080039100EF00705F45C0BFA05F52543F554CDE9D9
S3150800392008100A9910B2514400EB0802CBB23F2B9B
S315080039304FFA82FC05930B9010D8BCF1000F0DD4FA
S3150800394001F0F8045FFA8CF209EB041401F007059C
S31508003950A75C0BFA05F50B983D43A55403910A9904
S31508003960AAEB0006A8EB010251B200290FD4F2B265
S315080039703F2A0CD806F0F804CAB209EB041406F07C
S315080039800705A75C0BFA05F50B983D43A554A8EB6C
S3150800399000040A984FFA84F8AAEB0005EAB23F2A0F
S315080039A01BD8B8F1000F18D440F2100005F0F8093A
S315080039B0C2F200005FFA88F700EB091305F0070A60
S315080039C013F807900BFA0AF0DDF800A040EA0900A0
S315080039D040F21009C2F20009D855099800281BD4EC
S315080039E0F0B23F2818D8099840F2100406F0F803F8
S315080039F0C2F20004C0B204EB031306F0070913F879
S31508003A0000A00BFA09F740F2100947EA0A07DDF8A1
S31508003A1000A0C2F200091F543F2A0FD8BCF1000FBC
S31508003A200CD405F0F8025FFA8CF009EB021205F0E7
S31508003A300703155C0BFA03F32B43135400290FD421
S31508003A405FFA8EF03F280BD80EF0F802C8B209EBE1
S31508003A5002120EF00703175C0BFA03F33B431354E9
S31508003A6005983F2810D8B8F1000F0DD4039B5FFACC
S31508003A7088F003F0F80209EB021203F00703175C5B
S31508003A800BFA03F33B431354029800283FF414AF90
S31508003A900B9C604200B2844240F31281099B5FFA94
S31508003AA081F9002B00F1D480E2075FFA83FE42D049
S31508003AB000EB0A02D0B23F281BD802F0F80302F046
S31508003AC0070540F21002C2F2000202EB031212F8D6
S31508003AD00E700BFA05F30B9C47EA0305002902F85A
S31508003AE00E5006D43F2804D812F80900184302F8E5
S31508003AF00900721CD0B23F281BD802F0F80302F066
S31508003B00070540F21002C2F2000202EB031212F895
S31508003B100E700BFA05F30B9C47EA0305002902F819
S31508003B200E5006D43F2804D812F80900184302F8A4
S31508003B300900C4F102004FF0FF3202EB440292B2D0
S31508003B40032A07D2BCE000BF04300B9A00B29042A9
S31508003B5080F2B68000EB0A03DAB23F2A19D840F29F
S31508003B60100403F0F805C2F2000404EB051503F08F
S31508003B70070715F80E600BFA07F73E43002905F804
S31508003B800E6006D43F2A04D815F809203A4305F8EA
S31508003B9009205D1CEAB23F2A19D840F2100405F044
S31508003BA0F806C2F2000405F0070704EB061515F837
S31508003BB00E600BFA07F73E43002905F80E6006D497
S31508003BC03F2A04D815F809203A4305F809209D1C10
S31508003BD0EAB23F2A19D840F2100405F0F806C2F2F4
S31508003BE0000405F0070704EB061515F80E600BFA36
S31508003BF007F73E43002905F80E6006D43F2A04D885
S31508003C0015F809203A4305F809200333DAB23F2AA2
S31508003C109AD803F0F80503F0070640F21003C2F23B
S31508003C20000303EB051313F80E700BFA06F547EAC3
S31508003C300506002903F80E603FF586AF3F2A3FF6D2
S31508003C4083AF13F809202A4303F809207CE700BF4D
S31508003C50002935D4E2072BD05044C2B23F2A10D8E7
S31508003C6040F2100100F0F802C2F2000101EB021264
S31508003C7000F0070012F809300BFA00F0184302F8B2
S31508003C800900701CC2B23F2A10D840F2100100F099
S31508003C90F802C2F2000101EB021200F0070012F866
S31508003CA009300BFA00F0184302F80900C4F10200C3
S31508003CB04FF0FF3101EB440292B2032A80F0FF80F5
S31508003CC0DDF810E008995FEACE7040F210096FEA55
S31508003CD001075FFA88F35FFA8CF0C2F2000949D14E
S31508003CE0B8F1000F07EB0A020DD4D7B23F2F0AD856
S31508003CF002F0F80709EB071702F00706FD5C0BFA56
S31508003D0006F62E43FE54BCF1000F0DD4D7B23F2F52
S31508003D100AD802F0F80709EB071702F007023E5C1B
S31508003D200BFA02F232433A54B8F1000FAAEB010239
S31508003D300DD4D7B23F2F0AD802F0F80709EB0717B8
S31508003D4002F00706FD5C0BFA06F62E43FE54BCF19C
S31508003D50000F0DD4D7B23F2F0AD802F0F80709EBA7
S31508003D60071702F007023E5C0BFA02F232433A5496
S31508003D70C1F101074FEA4E020132032A06D29BE53A
S31508003D8029B28E4507F104077FF796ADB8F1000F03
S31508003D9007EB0A050DD4EAB23F2A0AD805F0F8025D
S31508003DA009EB021205F00706D45C0BFA06F121436B
S31508003DB0D154BCF1000F0DD4E9B23F290AD805F059
S31508003DC0F80109EB011105F007020E5C0BFA02F285
S31508003DD032430A54B8F1000F05F101020DD4D1B2ED
S31508003DE03F290AD802F0F80109EB011102F007068B
S31508003DF0CC5C0BFA06F62643CE54BCF1000F0DD464
S31508003E00D1B23F290AD802F0F80109EB011102F0F4
S31508003E1007020E5C0BFA02F232430A54B8F1000F9D
S31508003E2005F102020DD4D1B23F290AD802F0F801F1
S31508003E3009EB011102F00706CD5C0BFA06F62E43D4
S31508003E40CE54BCF1000F0DD4D1B23F290AD802F0E6
S31508003E50F80109EB011102F007020E5C0BFA02F2F7
S31508003E6032430A54FD1CB8F1000F05EB0A020DD4C3
S31508003E70D1B23F290AD802F0F80109EB011102F084
S31508003E800706CC5C0BFA06F62643CE54BCF1000FA7
S31508003E903FF576AFD1B23F293FF672AF02F0F8018F
S31508003EA009EB011102F007020E5C0BFA02F232432B
S31508003EB00A5465E7043000B2A042BFF601AF00EB32
S31508003EC00A03DAB23F2A0DD95A1CD7B23F2F1FD997
S31508003ED09A1CD7B23F2F31D9DA1CD3B23F2BE9D877
S31508003EE042E000BF40F2100103F0F802C2F20001FE
S31508003EF001EB021203F0070712F809500BFA07F74D
S31508003F000B9C2F4302F809705A1CD7B23F2FDFD8F3
S31508003F1040F2100102F0F807C2F2000101EB0717A0
S31508003F2002F0070217F809500BFA02F20B9C2A4313
S31508003F3007F809209A1CD7B23F2FCDD840F21001B6
S31508003F4002F0F807C2F2000101EB071702F00702B8
S31508003F5017F809500BFA02F20B9C2A4307F80920B6
S31508003F60DA1CD3B23F2BA5D840F2100102F0F803B1
S31508003F70C2F2000101EB031302F0070213F80970FD
S31508003F800BFA02F23A4303F8092093E70CB0BDE8AE
S31508003F90F08F00BF00BF00BF2DE9F04F81B02DEDB7
S31508003FA0028B8EB00D90DDF868A003FB03F09846EF
S31508003FB016468B4605900FF0FCFC814606FB06F07C
S31508003FC00D4609900FF0F5FCC8F100060746304685
S31508003FD00C460FF0EEFC9FEDD80B53EC102BCDE9F9
S31508003FE001230FF00DFB02460B46384621460C9777
S31508003FF00A940FF0ACFB4A462B4604950FF000FBDB
S315080040000FF02DFDBAF1000F069018BFB8F1000F9A
S3150800401040F022840D9908EB0B0049B2C2B2002980
S315080040204FF0000348BF01233F2A4FF0000288BF24
S3150800403001221A434FF0000311D140F2100500F097
S31508004040F807C2F200050D9C05EB071700F00706F6
S315080040504FF0010C3D5D0CFA06F62E433E5500293D
S31508004060ABEB08014FF00007CEB248BF01273F2E41
S3150800407088BF01233B4300F0C383002A00F0D583A1
S3150800408083B940F2100301F0F800C2F200030D9F55
S3150800409003EB001001F007010122C35D02FA01F1EA
S315080040A01943C15540460FF095FC9FEDA50B53ECFF
S315080040B0102BCDE907320FF0A3FA0C9A0A9B0FF0E2
S315080040C046FB049B4A464FF0000ACDF80C900FF0C9
S315080040D01FFC002840F05C82069840F21009059CF7
S315080040E008EE100AC2F200090025474625E000BF7F
S315080040F00FFA8AF500EE10CA681CB8EEC00A00FB73
S315080041000EF038EE008A74460FF053FC0646404619
S3150800411057468A460FF04DFCDDE907320FF070FA74
S315080041200C9A0A9B0FF013FB32465346BA460FF019
S3150800413025FC0028474600F02B82032000EB4501AA
S315080041400220A0EB48020998B5EE408A4243F1EEF8
S3150800415010FA4FF000063B46B5EE408A1A9801FB66
S3150800416004FCC4BF4FF0FF36013BF1EE10FA0FFA1C
S3150800417083F8C8BF01FB042C00280AF1010AA646E9
S315080041804FF0010400F05881C8F1000109B28845D2
S3150800419040F352810D980AEB00035AB2A0EB0A00CD
S315080041A045B2B2F1FF3FC2B240F39680780000EB09
S315080041B04600DBB2461E002D4FEA807700F11481D7
S315080041C0002F27D55944C8B23F280DD801F0F8006A
S315080041D009EB001001F00701C75C04FA01F10F436F
S315080041E0C754875C39438154ABEB0800411CC8B2FD
S315080041F03F280DD801F0F80009EB001001F007017F
S31508004200C75C04FA01F10F43C754875C39438154EC
S31508004210C8F10201B0B2032805D20DE1081D01B2AA
S31508004220414580F2098101EB0B07F8B23F280DD909
S315080042307E1CF0B23F281BD9BE1CF0B23F2829D9F4
S315080042400337F8B23F28E9D836E000BF07F0F80090
S3150800425009EB001007F00706C55C04FA06F63543B5
S31508004260C554855C2E4386547E1CF0B23F28E3D89D
S3150800427006F0F80009EB001006F00706C55C04FA1C
S3150800428006F63543C554855C2E438654BE1CF0B2EB
S315080042903F28D5D806F0F80009EB001006F0070607
S315080042A0C55C04FA06F63543C554855C2E43865428
S315080042B00337F8B23F28B1D807F0F80009EB001029
S315080042C007F00707C65C04FA07F73E43C654865C40
S315080042D037438754A2E700BF002D00F1AD80780070
S315080042E000EB4603980721D55944C8B23F280AD897
S315080042F001F0F80009EB001001F00701875C04FAE9
S3150800430001F139438154ABEB0800411CC8B23F2880
S315080043100AD801F0F80009EB001001F00701875CE4
S3150800432004FA01F139438154C8F10201581E80B2DA
S3150800433003280DD280E000BF000000000000E03F27
S31508004340000000000000E0BF081D01B2414573DA15
S3150800435001EB0B03D8B23F280CD95F1CF8B23F28F3
S3150800436017D99F1CF8B23F2822D90333D8B23F2861
S31508004370EAD82CE003F0F80009EB001003F0070771
S31508004380865C04FA07F7374387545F1CF8B23F2860
S31508004390E7D807F0F80009EB001007F00707865C76
S315080043A004FA07F7374387549F1CF8B23F28DCD82E
S315080043B007F0F80009EB001007F00707865C04FA17
S315080043C007F7374387540333D8B23F28BCD803F0DE
S315080043D0F80009EB001003F00703875C04FA03F3FF
S315080043E03B438354B0E700BF002F21D55944C8B2D8
S315080043F03F280AD801F0F80009EB001001F0070180
S31508004400C25C04FA01F11143C154ABEB0800411C2C
S31508004410C8B23F280AD801F0F80009EB001001F0ED
S315080044200701C25C04FA01F11143C154C8F1020143
S31508004430B0B2032860D200BF0D9808EB0B025044B7
S3150800444041B200290ED4D0B23F280BD802F0F803A7
S31508004450C8B209EB031302F007071E5C04FA07F754
S3150800446037431F540D98ABEB0803A0EB0A0047B27D
S31508004470002F17D4D8B23F2814D803F0F806F8B29C
S3150800448009EB061603F00705CDF818C0345CDC46C0
S315080044904FF0010B0BFA05F5E346DDF818C0254386
S315080044A001243554002F0ED4D0B23F280BD8F8B2C9
S315080044B002F0F80709EB071702F007023E5C04FA58
S315080044C002F232433A5400293FF512AED8B23F28D9
S315080044D03FF60EAEC8B203F0F80109EB011103F07E
S315080044E007020B5C04FA02F21A430A5400E600BFFC
S315080044F0081D01B241459FDA01EB0B02D0B23F28F5
S315080045000CD9571CF8B23F2817D9971CF8B23F2880
S3150800451022D90332D0B23F28EAD82CE002F0F800BC
S3150800452009EB001002F00707C65C04FA07F73743E1
S31508004530C754571CF8B23F28E7D807F0F80009EB2C
S31508004540001007F00707C65C04FA07F73743C75495
S31508004550971CF8B23F28DCD807F0F80009EB0010E2
S3150800456007F00707C65C04FA07F73743C754033250
S31508004570D0B23F28BCD802F0F80009EB001002F0D0
S315080045800702C75C04FA02F23A43C254B0E700BF16
S31508004590B8F1010FC0F22E810FFA8AF00FF009FA6E
S315080045A0DDE901230FF02CF8DDE903230646D146A1
S315080045B08A460FF0CCF8099C0C90A8F101000A91E4
S315080045C000FB04F148430FF0F4F905460F460C9832
S315080045D00A99324653460FF0BAF82A463B460FF078
S315080045E00FF8064605988A4660430FF0E2F9024638
S315080045F00B46304651464F460FF0A3F80FF02FFAF8
S3150800460040F2100C00EE100A1FFA88F84FF0030E5D
S315080046104FF00109C2F2000CCDF82CB00EE000BF35
S315080046200A99DDE90BB701EE101AB8EEC11A30EE99
S31508004630010AB8F1010F804640F3DC80B5EE400A66
S31508004640F1EE10FA04DD0999AEEB480048430BE099
S3150800465038B20221099A01EB4000AEEB48015143FA
S31508004660059A013700FB02100A901A980028A8F14B
S31508004670010041D0C8F1010181423DDA0D9BFA18CB
S3150800468056B2DD1B6BB2B6F1FF3FEDB232DD002B41
S31508004690D6B205D51CE000BF01310AB290422BDD27
S315080046A001EB0B02D3B23F2BF6D802F0F8030CEB62
S315080046B0031302F007029C5D09FA02F214439C55A3
S315080046C05C5D22435A55E7E701310AB2904213DD91
S315080046D001EB0B02D3B23F2BF6D802F0F8030CEB32
S315080046E0031302F007029D5D09FA02F22A439A555E
S315080046F0EAE700BF002B6BD50D995A4600EB0B0570
S315080047003944EAB23F2A4FFA81FA0C970FD8BAF120
S31508004710000F0CD405F0F8065FFA8AF30CEB0616C0
S3150800472005F00704F75C09FA04F42743F754DDE9B2
S315080047300C31E346CF1A0B994FFA87FC0E1AF3B2DF
S315080047403F2B18D8BCF1000F15D406F0F8075FFA0E
S315080047508CF40BEB0717C64606F00708012117F875
S31508004760049001FA08F1F0464FF0030E41EA0901F8
S315080047704FF0010939553F2A0FD8BCF1000F0CD468
S3150800478005F0F8025FFA8CF10BEB021205F0070749
S31508004790555C09FA07F72F4357543F2BDC463FF67B
S315080047A03FAFBAF1000F3FF53BAF06F0F8025FFAEC
S315080047B08AF10CEB021206F00703575C09FA03F3B9
S315080047C03B4353542CE700BF01310AB2904293DDB4
S315080047D001EB0B02D3B23F2BF6D802F0F8030CEB31
S315080047E0031302F007025E5D09FA02F232435A55D4
S315080047F0EAE700BF0EB0BDEC028B01B0BDE8F08F52
S3150800480040F2100501F0F807C2F200050D9C05EB11
S31508004810071701F007064FF0010C3D5D0CFA06F686
S315080048202E433E55002A7FF42BAC40F2100600F0CA
S31508004830F802C2F200060D9D06EB021200F0070010
S315080048400127565D07FA00F030435055002B3FF418
S3150800485018ACFFF727BC00BF0D9840B200282CD42F
S3150800486040F210010D9D0120C2F2000105E000BFD3
S31508004870013632B24245BFF6CDAB06EB0B02D3B2D8
S315080048803F2BF5D802F0F80301EB031302F00702F9
S315080048905F5D00FA02F23A435A55E9E7B01C00B2E6
S315080048A04045BFF6B7ABF01C00B24045BFF6B2AB09
S315080048B0043630B24045BFF6ADAB701C00B2404579
S315080048C0ECDBFFF7A7BB00BF2DE9F04F81B02DED5C
S315080048D00A8B8CB0209F814610461C46924607914B
S315080048E00FF078F841EC180B9FEDD91BB0EE480A8B
S315080048F0F0EE680A0FF018FC51EC100B9FEDD60B82
S3150800490053EC102BCDE90A320EF093FF9FEDD40B32
S3150800491053EC102BCDE908320EF019FF0FF067F8AB
S31508004920BC4203DAA04203DA20E000BFA04202DA62
S31508004930209988421ADC4FFA89F0002816D407987D
S315080049405044C1B23F2911D840F2100300F0F801D3
S31508004950C2F2000303EB011100F00700012211F86F
S31508004960093002FA00F0184301F80900CAF10008F4
S3150800497040460FF01EF841EC190B9FEDB51BB0EE43
S31508004980490AF0EE690A0FF0CFFBDDE90A3251EC6D
S31508004990100B0EF04EFFDDE908320EF0D8FE0FF0D0
S315080049A026F820998C4203DAA04203DA20E000BFF9
S315080049B0A04201DA88421BDC4FFA89F0002817D496
S315080049C00798A0EB0A00C1B23F2911D840F210039C
S315080049D000F0F801C2F2000303EB011100F0070032
S315080049E0012211F8093002FA00F0184301F809000B
S315080049F09FED970BB0EE481AF0EE681A0FF094FB8D
S31508004A00DDE90A3251EC100B0EF013FFDDE908322E
S31508004A100EF09DFE0EF0EBFF20998C4202DAA042C2
S31508004A2002DA1DE0A04201DA884219DC07983F281D
S31508004A3016D80AEB090040B2002811D4079B40F2A9
S31508004A40100703F0070103F0F803C2F20007C0B22B
S31508004A5007EB031301221F5C02FA01F139431954CB
S31508004A609FED7B0BB0EE491AF0EE691A0FF05CFB6E
S31508004A70DDE90A3251EC100B0EF0DBFEDDE90832F7
S31508004A800EF065FE0EF0B3FF20998C4202DAA042C2
S31508004A9002DA1DE0A04201DA884219DC07983F28AD
S31508004AA016D8A9EB0A0040B2002811D4079B40F299
S31508004AB0100703F0070103F0F803C2F20007C0B2BB
S31508004AC007EB031301221F5C02FA01F1394319545B
S31508004AD02198002800F0AE80D04580F2AB804FFACE
S31508004AE089F0B0F1FF3F79DD20989FED598B40F2B0
S31508004AF010070126C2F20007844208DB3EE000BF29
S31508004B0008F101080FFA88F0504580F293800FFAF1
S31508004B1088F00EF04EFF41EC100BB0EE481AF0EE9E
S31508004B20681A0FF001FBDDE90A3251EC100B0EF0A2
S31508004B3080FEDDE908320EF00AFE0EF058FFA042AC
S31508004B40DEDB20998842DBDC07984044C1B23F2966
S31508004B50D6D800F0F80107EB011100F0070011F8AC
S31508004B60092006FA00F0104301F80900C8E700BF5B
S31508004B7008F101080FFA88F050455BDA0FFA88F059
S31508004B800EF017FF41EC100BB0EE481AF0EE681A5B
S31508004B900FF0CAFADDE90A3251EC100B0EF049FEA5
S31508004BA0DDE908320EF0D3FD0EF021FFA04202DA4D
S31508004BB020998842DCDC07984044C1B23F29D7D8FF
S31508004BC000F0F80107EB011100F0070011F80920C1
S31508004BD006FA00F0104301F80900C9E720989FED8E
S31508004BE01C8B844214DA00BF0FFA88F00EF0E1FE3F
S31508004BF041EC100BB0EE481AF0EE681A0FF094FA72
S31508004C0008F101080FFA88F05045EDDB12E000BF05
S31508004C100FFA88F00EF0CDFE41EC100BB0EE481AF4
S31508004C20F0EE681A0FF080FA08F101080FFA88F01A
S31508004C305045EDDBBAF1000F00F05683CAF10100CA
S31508004C4000210026CDF800901DE000BF00BF00BF80
S31508004C5000000000000000001F85EB51B81E094047
S31508004C6000000000008066400398019900B2029E89
S31508004C7000EB4100DDE9041ADDF800900136013049
S31508004C80514580F2318303900004AAF10100069190
S31508004C9001F1010501B248BF50460FFA80FB2846CC
S31508004CA058BF401A019058460EF083FE41EC180B87
S31508004CB028B20EF07EFE41EC1A0BB0EE480AB0EEB2
S31508004CC04A1AF0EE680AF0EE6A1A0FF02DFADDE9D4
S31508004CD00A3251EC100B0EF0ACFDDDE908320EF08D
S31508004CE036FD0EF084FE20998C4203DAA04203DAE0
S31508004CF01FE000BFA04201DA88421ADC05EB090072
S31508004D0040B2002815D407995944CAB23F2A10D888
S31508004D1040F2100301F0F802C2F20003C0B203EB3E
S31508004D20021201F00701135C012707FA01F1194382
S31508004D301154B0EE4A0AB0EE481AF0EE6A0AF0EEDE
S31508004D40681A0FF0F1F9DDE90A3251EC100B0EF092
S31508004D5070FDDDE908320EF0FAFC0EF048FE2099E7
S31508004D608C4203DAA04203DA1FE000BFA04201DA50
S31508004D7088421ADC07982844C1B23F2915D80BEB9C
S31508004D80090149B2002910D440F2100300F0F802D4
S31508004D90C2F20003C9B203EB021200F00700535C2B
S31508004DA0012707FA00F018435054CBF100000FFA18
S31508004DB080F86FEA060A404602960FFA8AF70EF05E
S31508004DC0F8FD41EC190B38460EF0F3FD41EC1B0BD0
S31508004DD0B0EE490AB0EE4B1AF0EE690AF0EE6B1A1D
S31508004DE00FF0A2F9DDE90A3251EC100B0EF021FDA5
S31508004DF0DDE908320EF0ABFC0EF0F9FD20998C4285
S31508004E0002DAA04202DA1FE0A04201DA88421BDC7D
S31508004E10A9EB050040B2002816D40799A1EB0B01AF
S31508004E20CAB23F2A10D840F2100301F0F802C2F2C3
S31508004E300003C0B203EB021201F00701135C01275D
S31508004E4007FA01F119431154B0EE4B0AB0EE491AAC
S31508004E50F0EE6B0AF0EE691A0FF066F9DDE90A3230
S31508004E6051EC100B0EF0E5FCDDE908320EF06FFC94
S31508004E700EF0BDFD20998C4202DAA04202DA1EE04D
S31508004E80A04201DA88421ADC0798401BC1B23F29C2
S31508004E9015D8A9EB0B0149B2002910D440F210032A
S31508004EA000F0F802C2F20003C9B203EB021200F0E6
S31508004EB00700535C012707FA00F018435054B0EE78
S31508004EC0490AB0EE4A1AF0EE690AF0EE6A1A0FF0CD
S31508004ED02BF9DDE90A3251EC100B0EF0AAFCDDE9DC
S31508004EE008320EF034FC0EF082FD20998C4203DA6B
S31508004EF0A04203DA20E000BFA04201DA88421BDCA8
S31508004F0005EB090040B2002816D40799A1EB0B015E
S31508004F10CAB23F2A10D840F2100301F0F802C2F2D2
S31508004F200003C0B203EB021201F00701135C01276C
S31508004F3007FA01F119431154B0EE4B0AB0EE481ABC
S31508004F40F0EE6B0AF0EE681A0FF0EEF8DDE90A32B9
S31508004F5051EC100B0EF06DFCDDE908320EF0F7FB94
S31508004F600EF045FD20998C4202DAA04202DA1EE0D4
S31508004F70A04201DA88421ADC0798401BC1B23F29D1
S31508004F8015D80BEB090149B2002910D440F21003D9
S31508004F9000F0F802C2F20003C9B203EB021200F0F5
S31508004FA00700535C012707FA00F018435054B0EE87
S31508004FB0480AB0EE4B1AF0EE680AF0EE6B1A0FF0DC
S31508004FC0B3F8DDE90A3251EC100B0EF032FCDDE9DC
S31508004FD008320EF0BCFB0EF00AFD20998C4203DA6B
S31508004FE0A04203DA1FE000BFA04201DA88421ADCB9
S31508004FF0A9EB050040B2002815D407995944CAB24E
S315080050003F2A10D840F2100301F0F802C2F200035A
S31508005010C0B203EB021201F00701135C012707FA7D
S3150800502001F119431154B0EE4A0AB0EE491AF0EEEE
S315080050306A0AF0EE691A0FF077F8DDE90A3251ECE0
S31508005040100B0EF0F6FBDDE908320EF080FB0EF0D1
S31508005050CEFC20998C4203DAA04203DA1FE000BF97
S31508005060A04201DA88421ADC07982844C1B23F29CF
S3150800507015D8A9EB0B0149B2002910D440F2100348
S3150800508000F0F802C2F20003C9B203EB021200F004
S315080050900700535C012707FA00F01843505421987B
S315080050A0CDE9045B00283FF4DFAD0598049A404536
S315080050B040F38A800099474650184FFA80FB5FFAFA
S315080050C080F9881A45B2C6B207E000BF07F10108A1
S315080050D005980FFA88F7874276DA38B20EF069FC37
S315080050E041EC1C0BB0EE4A1AB0EE4C0AF0EE6C0A14
S315080050F0F0EE6A1A0FF018F8DDE90A3251EC100BD7
S315080051000EF097FBDDE908320EF021FB0EF06FFC7E
S3150800511020998C4202DAA04202DA1DE0A04201DAA6
S31508005120884219DCBBF1000F16D407984044C1B277
S315080051303F2911D840F2100200F0F801C2F200022D
S3150800514002EB011100F0070011F80920012303FA08
S3150800515000F0104301F80900B0EE4C0AB0EE4B1A05
S31508005160F0EE6C0AF0EE6B1A0EF0DEFFDDE90A329D
S3150800517051EC100B0EF05DFBDDE908320EF0E7FA94
S315080051800EF035FC20998C4202DAA04202DA9DE73D
S31508005190A04201DA884299DC002D97D4079840444A
S315080051A0C1B23F2992D840F2100200F0F801C2F2CB
S315080051B0000202EB011100F007008A5D012303FAE1
S315080051C000F01043885581E70599009A501A4FFA5E
S315080051D080F85FFA80FB881845B25FFA80F904E028
S315080051E0BE420AF1010A7FF73FAD0FFA8AF7384641
S315080051F00EF0DFFB41EC1A0BB0EE491AB0EE4A0A84
S31508005200F0EE6A0AF0EE691A0EF08EFFDDE90A3250
S3150800521051EC100B0EF00DFBDDE908320EF097FA93
S315080052200EF0E5FB20998C4202DAA04202DA1DE074
S31508005230A04201DA884219DCB8F1000F16D40798A3
S315080052405044C1B23F2911D840F2100200F0F801CB
S31508005250C2F2000202EB011100F0070011F80B2060
S31508005260012303FA00F0104301F80B00B0EE4A0AD6
S31508005270B0EE481AF0EE6A0AF0EE681A0EF054FF1D
S31508005280DDE90A3251EC100B0EF0D3FADDE90832EB
S315080052900EF05DFA0EF0ABFB20998C4204DA069EFE
S315080052A0A04204DA9CE700BF069EA04201DA8842C3
S315080052B096DC002D94D407985044C1B23F298FD864
S315080052C040F2100200F0F801C2F2000202EB0111EE
S315080052D000F0070011F80920012303FA00F0104333
S315080052E001F809007CE700BF0CB0BDEC0A8B01B0E1
S315080052F0BDE8F08F2DE9F04387B0002641F24C0057
S315080053000696C4F202000168002241F00401016019
S3150800531001684FF0200901F0040101910199016823
S3150800532041F020010160016801F020010191019915
S31508005330016841F0010101600068202100F00100C8
S31508005340019001984FF0904001F09CFB40F6000454
S31508005350C4F600042046102101224FF01008012748
S3150800536001F090FB20462021002201F08BFB02ADC4
S315080053704FF090402946CDE90297CDE9046701F040
S3150800538027FA20462946CDE90287CDE9046701F0C8
S315080053901FFA20462946CDE90297CDE9046601F0B1
S315080053A017FA07B0BDE8F08380B540F2104047F61B
S315080053B00001C2F20000C4F2000142F27212002398
S315080053C0C0F280024FF0010C80E80E10C0E90433E9
S315080053D0C0E90633036201F085FB002818BF00F018
S315080053E063FA40F21040C2F20000002105F0CAF943
S315080053F0002818BF00F058FA40F21040C2F2000028
S31508005400002105F0DFF9002818BF00F04DFA042046
S31508005410C4F20100016841F48001016080BD00BF4B
S315080054202DE9F0439BB0044601A8043050210EF044
S31508005430CEF8206847F60001C4F20001884203D07E
S315080054401BB0BDE8F08300BF4FF4807801A8CDF803
S31508005450048006F09FFD002818BF00F025FA41F2E7
S315080054604C06C4F20206306816AC40F00400306000
S3150800547030684FF0120900F004001690169830684C
S31508005480012540F0010030603068032700F0010074
S31508005490169016984FF40070169008201A9040F649
S315080054A00000C4F600002146CDF85C9018951997BF
S315080054B001F08EF902201A904FF090402146CDE96E
S315080054C01689CDE9185701F083F9F06840F0804055
S315080054D0F060F06800F08040009000981BB0BDE8CE
S315080054E0F08300BF006847F60001C4F20001884255
S315080054F018BF704780B541F25800C4F2020001682F
S3150800550021F08041016040F60000C4F600004FF427
