S31508000000381200205103000819900008297E0008BC
S3150800001015900008451D0008D5CA00080000000014
S3150800002000000000000000000000000005BA0008FB
S315080000306D1D00080000000079B7000835BD0008EE
S315080000406B0300086B0300086B0300086B030008CA
S315080000506B0300086B030008711D00086B0300089A
S315080000606B0300086B0300086B030008491D0008B2
S31508000070551D0008611D00086B0300086B03000886
S315080000806B0300086B0300086B0300086B0300088A
S315080000906B0300086B0300086B0300086B0300087A
S315080000A06B0300086B0300086B0300086B0300086A
S315080000B04DBD000859BD000865BD00086B03000862
S315080000C06B0300086B0300086B0300086B0300084A
S315080000D06B030008ADC900086B0300086B03000832
S315080000E06B0300086B0300086B0300086B0300082A
S315080000F06B0300086B0300086B0300086B0300081A
S315080001006B0300086B0300086B0300086B03000809
S315080001106B0300086B0300086B0300086B030008F9
S315080001206B0300086B0300086B0300086B030008E9
S315080001306B0300086B0300086B0300086B030008D9
S315080001406B0300086B0300086B0300086B030008C9
S315080001506B0300086B0300086B030008197D000891
S315080001606B0300086B0300086B0300086B030008A9
S315080001706B0300086B0300086B0300086B03000899
S315080001806B0300086B0300086B0300086B03000889
S315080001906B030008000000006B0300086B030008EF
S315080001A06B0300086B0300086B0300086B03000869
S315080001B06B0300086B0300086B0300086B03000859
S315080001C06B0300086B0300086B0300086B03000849
S315080001D06B0300086B03000800F002F800F0A8F8AB
S315080001E014A696E8000CB244B344DA4501D100F0EF
S315080001F09FF8BAE80F000FA696E83000A5EB0405AD
S3150800020004EB0607AAEB0704A7F101074FEA151541
S315080002104FEA3414A4F10104AC4201D300F088F883
S3150800022013F0010F18BFFB1A43F0010300F001F8A1
S31508000230DBE718472CFE00004CFE0000103A24BFEE
S3150800024078C878C1FAD8520724BF30C830C144BF2D
S3150800025004680C6070470000704700000023002403
S3150800026000250026103A28BF78C1FBD8520728BFB8
S3150800027030C148BF0B6070476E2900F0878270292D
S3150800028000F0D18366290EF0D48765290EF0D18750
S3150800029067290EF0CE8761290EF0CD8703681B0A01
S315080002A028BF41F08001692900F03482642900F0F2
S315080002B03182752900F02E826F2900F05F83782934
S315080002C000F09D83E92900F0F982E42900F0F6821E
S315080002D0F52900F0F382EF2900F05C83F82900F095
S315080002E09C830368DB0928BF41F08001632901F07C
S315080002F0D380732901F0D880E32901F0E380F3293C
S3150800030001F0E880002070471FB50EF080FF01F06D
S315080003103BF90400002000210EF0B8F9401C60608B
S31508000320002000210EF09CF9E0601FBD10B510BD3D
S3150800033001F0FCF81146FFF7E7FF0CF009FE01F0A3
S31508000340D9F903B4FFF7F2FF03BC01F0DDF90000A9
S315080003500948804709480047FEE7FEE7FEE7FEE74B
S31508000360FEE7FEE7FEE7FEE7FEE7FEE70448054987
S31508000370054A064B7047000039BD0008D901000838
S31508000380380C002038120020380E0020380E0020C5
S3150800039053EA020C00F069802DE9F04B4FF0000695
S315080003A0002B1FBFB3FA83F503FA05F424FA05F602
S315080003B05E4012BF1643B2FA82F502FA05F4C5F199
S315080003C020051EBF22FA05FC44EA0C04203556EA2D
S315080003D0044C4FEA144418BF641C4FF000084FF051
S315080003E00009904271EB030C39D3002919BFB1FA01
S315080003F081F701FA07F6B0FA80F700FA07F6C7F1AF
S3150800040020071EBF20FA07FC46EA0C062037B6FB73
S31508000410F4FCA7EB0507103F07F01F0BCBF12006EE
S315080004202CFA06F60CFA0BFB44BFB3460026202F1F
S31508000430A4BF5E464FF0000B5BEA060C08BF4FF000
S31508000440010B19EB0B0948EB0608ABFB027C06FB14
S3150800045002CC0BFB03CCC01B71EB0C01C1E70B46AE
S31508000460024641464846BDE8F08B13B5084318BF17
S315080004704FF0FF300146AFF30080BDE81C407047DF
S315080004801CB50C46064B7B4469460090204600F096
S3150800049096F904460020694600F0A4F920461CBDDA
S315080004A05B0300007CB51D4616460C00009007D07D
S315080004B04142A14202D32044401E01E04FF0FF30E2
S315080004C0064B7B442A4669460190304600F077F988
S315080004D0002C02D0009A002111707CBD290300006F
S315080004E0032A40F2308010F0030C00F0158011F852
S315080004F0013BBCF1020F624498BF11F801CB00F82A
S31508000500013B38BF11F8013BA2F1040298BF00F87D
S3150800051001CB38BF00F8013B11F0030300F052830A
S31508000520083AC0F0088051F8043B083A51F804CB61
S31508000530A0E80810F5E7121D5CBF51F8043B40F827
S31508000540043BAFF30080D20724BF11F8013B11F832
S3150800055001CB48BF11F8012B24BF00F8013B00F876
S3150800056001CB48BF00F8012B70474FF0000200B5D9
S31508000570134694469646203922BFA0E80C50A0E8B8
S315080005800C50B1F12001BFF4F7AF090728BFA0E866
S315080005900C5048BF0CC05DF804EB890028BF40F832
S315080005A0042B08BF704748BF20F8022B11F0804F74
S315080005B018BF00F8012B704730B44FF0013C50F8D3
S315080005C0042B51F8043BCCFA52F4D51A20D1FCB9C5
S315080005D050F8042B51F8043BCCFA52F4D51A17D12B
S315080005E0B4B950F8042B51F8043BCCFA52F4D51A96
S315080005F00ED16CB950F8042B51F8043BCCFA52F4DE
S31508000600D51A05D1002CDAD030BC4FF0000070475F
S3150800061029BAB1FA81F111F01801D1F1200084400C
S31508000620F2D1CA40CB4012F0FF0213F0FF0330BCF0
S31508000630D01A704770477047704710B500F0F4FA43
S31508000640006810BD10B5044600F0EEFA046010BD4F
S3150800065070B5044685690068C10601D5302600E0F4
S315080006602026C00707D070BDD4E90121304690473F
S31508000670206A401C20626D1EF6D570BD70B5044612
S3150800068085690078C00707D170BDD4E9012120200B
S315080006909047206A401C20626D1EF6D570BD096819
S315080006A04A0501D540B27047C905FCD500B2704766
S315080006B009684A0501D5C0B27047C905FCD580B29C
S315080006C0704770B50C460546012A05D0287880067D
S315080006D000D5EA69002302E0012305E05B1C93428A
S315080006E002D2E05C0028F9D1A869E618C01AA86108
S315080006F0286A184428622846FFF7AAFF04E0D5E9C5
S31508000700012114F8010B9047B442F8D32846FFF7A5
S31508000710B5FF70BD2DE9F04106460024106875291D
S31508000720314616A510D0FFF7BAFF002802DA404274
S3150800073013A507E031688A0701D512A502E0490723
S3150800074004D511A5012401E0FFF7B2FF00210A2212
S3150800075006F1240709E0B0FBF2FCB0FBF2F302FB5A
S315080007601C00303078541846491C0028F3D123461B
S315080007702A463046BDE8F04100F09FBA0000000066
S315080007802D0000002B000000200000001168026800
S31508000790006A530501D508700AE0D30501D508801B
S315080007A006E0130603D5C217C1E9000200E0086097
S315080007B00120704701694A1C02610878704700B534
S315080007C08FB0CDE901310021059105497944CDE97C
S315080007D003101146684600F031F90FB000BD00005D
S315080007E0E5FFFFFF0A6802F8010B0A607047D1E9C6
S315080007F000239A4202D2531C0B6010707047000007
S315080008002DE9FF5F15468A460446DFF8AC80F844B2
S315080008100027D8E900103E46CDE9001010E03AF866
S3150800082016106A4602A800F059FE411C07D0217826
S31508000830890603D5E269391891420DD80744761C12
S315080008402078800602D5E069B84205DDAE42E6DBCF
S315080008503AF816000028E2D1A069C01BA06120461C
S31508000860FFF7F6FED8E90010CDE90010002017E0E2
S315080008703AF818106A4602A800F030FEB0F1FF3FB9
S3150800088081460BD000250DF1080B05E0D4E90121BE
S315080008901BF8050090476D1C4D45F7D308F101007C
S315080008A0B0428046E4DB206A384420622046FFF7DF
S315080008B0E5FEBDE8FF9F000066EA00002DE9F0416D
S315080008C08046D21D22F007020025D2E90002F5294A
S315080008D015A614D0011E72F1000106DA0023D0EB2A
S315080008E0030063EB020211A608E0D8F800108B0794
S315080008F001D50FA602E0490701D50EA60125114626
S31508000900002408F1240704E000F092F930323A5541
S31508000910641C50EA0102F7D12B463246214640466E
S31508000920BDE8F04100F0C9B9000000002D00000044
S315080009302B0000002000000030B4002100F1240440
S3150800094008E002F00705D208303542EA4372DB08B0
S315080009506554491C52EA0305F3D10468002310A222
S31508000960250708D504F020040C4304D0C4690123E4
S315080009700CA2641EC46130BC00F09FB910B50446D1
S3150800098021461068FFF794FE02462046BDE810404F
S315080009900023D1E7D21D22F00701D1E90023CBE7D6
S315080009A00000000030000000F0B40D46018809057B
S315080009B002D5214C7C4402E01F4C7C440E340021B5
S315080009C000F1240608E002F00F071209E75D42EA83
S315080009D003721B097754491C52EA0307F3D10278BC
S315080009E00023120704D5702D06D009B1022311344D
S315080009F02246F0BC00F061B901231034F8E770B55F
S31508000A0004460D4621461068FFF752FE024629465F
S31508000A102046BDE870400023C6E7D21D22F0070332
S31508000A20D3E90023C0E70368126843F02003036094
S31508000A300823C3610023B7E7C8E800002DE9F05F83
S31508000A40894604464FF0000ADFF874B1FB44C0F843
S31508000A5020A02046E1688847002874D0252806D0BB
S31508000A60D4E901219047206A401C2062F1E700265C
S31508000A705F462046E16888472028054607DB312D72
S31508000A8005D2781910F8200C08B10643F1E7B0072B
S31508000A9001D526F00406C4F81CA00027C4F818A03F
S31508000AA02A2D09D028460DF0D3FD38B304EB870864
S31508000AB0303DC8F8185019E059F8041B204604EBD5
S31508000AC087029161E1688847012F054618D1E069D8
S31508000AD0002820DA26F020061DE0D8F8180000EBDA
S31508000AE0800005EB40003038C8F818002046E16859
S31508000AF0884705460DF0ACFD0028EED1012F0AD037
S31508000B002E2D08D12046E16888477F1C0546022F0E
S31508000B1046F02006C4DBA069002803DA404246F006
S31508000B200106A061F00701D026F010066C2D0BD047
S31508000B30682D09D04C2D39D06A2D35D0742D35D075
S31508000B407A2D33D016E038E0E1682F4620468847EC
S31508000B50B842054609D16C2F26D04FF48060E1686B
S31508000B60064320468847054604E06C2F1AD04FF402
S31508000B70807006430DB3A5F14100192802D8203527
S31508000B8046F400664A462946204626604E46FFF742
S31508000B9073FB80B101280BD0F61D26F0070000F183
S31508000BA0080956E74020E4E78020D8E70020D6E782
S31508000BB006F104094DE7284652E7206ABDE8F09F8A
S31508000BC058E8000010B5203AC0F00B80B1E818507C
S31508000BD0A0E81850B1E81850A0E81850203ABFF419
S31508000BE0F5AF5FEA027C24BFB1E81850A0E81850B8
S31508000BF044BF18C918C0BDE810405FEA827C24BF0C
S31508000C0051F8043B40F8043B08BF7047D20728BF99
S31508000C1031F8023B48BF11F8012B28BF20F8023BE8
S31508000C2048BF00F8012B704700487047380000207D
S31508000C3030B5B0F10A0271F100034FEA900E4EEAA0
S31508000C40817EB0EB0E0061EB91014FEA101E4EEA71
S31508000C50017E10EB0E0041EB11114FEA102E4EEA01
S31508000C60016E10EB0E0041EB11214FEA104E4EEAD1
S31508000C70014E10EB0E0041EB1141401841F1000105
S31508000C804FEAD00040EA41704FEAD1014FEA8104A9
S31508000C9044EA907410EB800544EB01046D1944EBAB
S31508000CA00404521BA3414FF0000348BF0A3200D583
S31508000CB030BD401C41F1000130BD2DE9F0470D461D
S31508000CC099469246044600F124080168880604D528
S31508000CD0E06921F01001216000E00120A84201DD51
S31508000CE0471B00E00027A1697A1902EB0900081AD8
S31508000CF0A0612078C00602D42046FFF7A9FC00268A
S31508000D0008E0D4E901211AF806009047206A401C39
S31508000D10761C20624E45F4DB2078C0060AD52046AC
S31508000D20FFF796FC06E0D4E9012130209047206AB7
S31508000D30401C2062381EA7F10107F4DC07E0D4E95D
S31508000D40012118F805009047206A401C2062281ED9
S31508000D50A5F10105F3DC2046FFF790FC2078000694
S31508000D6002D50220BDE8F0870120FBE72DE9FF4FF9
S31508000D700C461E464FF0FF378BB0D2E90001DDF86E
S31508000D8060800A908A46C1F30A5505B93D46002196
S31508000D9008464FF00000BAF1000F00F4400005DAEB
S31508000DA000EB80004FF4400101EA50004FEA9059E9
S31508000DB0B9F1010F00DDB9460A9850EA4A000ED08B
S31508000DC044F61050A5F2FF3545432F14B8F1000F2D
S31508000DD01ED07542291E1EDDC9F100021CE0B8F1BD
S31508000DE0010F4FF0000001D0302103E0F24305E087
S31508000DF02154401CB042FBDB30460022002121541E
S31508000E000B99C1F80880C1E900200FB0BDE8F08F42
S31508000E10BD1B6D1CDEE74A4600DA694206A800F0EB
S31508000E20F7FB06AB93E8070003AB83E807005046D9
S31508000E300A990CF06FFA8DE80700A0F500501F38E4
S31508000E4000900398002D0ADD42F21F014A46084425
S31508000E50002303A9039068460CF0D8FC09E0A0F526
S31508000E6000504A461F38002303A9039068460CF031
S31508000E70E2FC8DE807000004000C03D04FF0FF30B9
S31508000E80410800E01046B8F1000F03D00022009296
S31508000E9015461EE0751E05D4FFF7CAFE30326255A8
S31508000EA06D1EF9D5B3460122084302D000227F1CE5
S31508000EB004E02078302801D100227F1E002A0997F5
S31508000EC084D01DE0112D07DAFFF7B2FE30326255E5
S31508000ED06D1C50EA0102F5D1084302D00098C8B14A
S31508000EE00EE00021681E05E0235C625C6354225410
S31508000EF0401E491C8142F7DBAB46A81B401E0990E1
S31508000F00002004F80B000B98099AC0F80880C0E97D
S31508000F10002B7AE711264FF0000857E72DE9F04F26
S31508000F2088460446D21D22F0070191B0D1E9000196
S31508000F30CDE90A010DF0DEF802460B98C00F01D084
S31508000F402D2007E02068810701D52B2002E020210B
S31508000F5001EAC000032A099001D0072A05DB0346E7
S31508000F604146204600F014FB0BE12078800601D5A7
S31508000F70E06900E00620B8F1650F814606D0B8F1B1
S31508000F80660F18D0B8F1670F70D131E00020B9F1BB
S31508000F90110F009001DB112301E009F101030AAAF0
S31508000FA001A90CA8FFF7E2FEDDE90C70002609F19D
S31508000FB00105834647E001204B4600904FF0004765
S31508000FC00AAA01A90CA8FFF7D1FEDDE90DB00C9914
S31508000FD05D46002610B909F101000D18B9EB0500A8
S31508000FE003D4C0F1FF3609F10105A5EB09002BE092
S31508000FF0B9F1010F01DA4FF001090020B9F1110F1B
S315080010000090484601DD112300E003460AAA01A91B
S315080010100CA8FFF7ABFEDDE90C704D4600268346AB
S31508001020207800070AD4AB4500DA5D4601A8012DF1
S3150800103004DD411911F8011C302907D04F4502DAA1
S3150800104017F1040F04DA012082460FE06D1EEEE761
S31508001050002F02DCED1B3E4403E0781CA84200DDAD
S315080010607D1CB81B00F1010A4FF0004720780007E5
S3150800107003D4AA4501DB4FF0FF3A0021B7F1004F30
S315080010800DF143088DF8431024D002202B23002F9E
S3150800109001DA7F422D230A21021EA0F1010000DC9D
S315080010A05FB197FBF1FC97FBF1F201FB1C7C17463D
S315080010B00CF1300C08F801CDEEE7A8F10100037039
S315080010C02188090501D5452100E06521A0F101081F
S315080010D000F8011C09980FA9A1EB0807FF1D00B12C
S315080010E00120411901EBEA70A1693844081A401E2B
S315080010F0A0612078C00602D42046FFF7A9FA09980D
S3150800110028B1D4E901219047206A401C2062207842
S31508001110C00622D52046FFF79BFA1EE0002E04DB08
S31508001120B34502DD01A8805D00E03020D4E9012145
S315080011309047206A401C2062761CAAF101005FEAEB
S31508001140000A0AD100F020FAC0680168405CD4E9B8
S3150800115001219047206A401C2062281EA5F101053E
S31508001160DCDC07E0D4E9012118F8010B9047206A76
S31508001170401C2062381EA7F10107F3DC2046FFF762
S315080011807DFA032011B041E62DE9F04F04460D46DD
S31508001190D21D22F0070089B0D0E9009748463946A3
S315080011A00CF0A8FF0246F80F01D02D2307E02068AF
S315080011B0810701D52B2302E0202101EAC0038DF81F
S315080011C020300BB1012000E00020032A824601D01E
S315080011D0072A04DB2946204600F0DAF93FE12078A1
S315080011E0800601D40D2500E0E569C7F30A560D2DE2
S315080011F049DA00214FEA175B08464FF00000002F36
S3150800120000F4400007DA00EB80004FF4400100EBE1
S31508001210D07001EA60008115012901DD4FF0FF3128
S3150800122000224FEA850CBCF1180F06D31346ACF121
S3150800123018004FF08052C24003E04FF4801323FA9F
S315080012400CF30CF10C0CBCF1200F04D3ACF1200C00
S3150800125009FA0CF001E007FA0CF000294FF00048F3
S3150800126001DD18B90FE00ED140450CD319EB020980
S315080012705F4121B9404502D19F4329EA0209BBEBE8
S31508001280175F00D0761C2088000502D57B48784475
S3150800129002E07A487844193808AA302302F80A3056
S315080012A0037C0AF10101002E0AF1020A53546A4628
S315080012B002DC4FF0300101E04FF031014FF0010838
S315080012C08DF8001002D0A6F2FF3603E059EA47016E
S315080012D000D06B4E002D02DC2178090704D54FF0AB
S315080012E002082E218DF80110C44600210BE0C7F331
S315080012F003433F01C35C491C6D1E02F808300529EB
S3150800130008F1010801DA002DF1DC00210CE000EB00
S315080013101973491C1B786D1E082902F808304FEA14
S31508001320091908F1010801DA002DF0DC21688B069D
S3150800133002D516E0A8F10108E04505DD02EB080331
S3150800134013F8013C302BF5D0B8F1000F09DD02EB9C
S31508001350080313F8013C2E2B03D1090701D4A8F181
S315080013600108002D05DD3E2102F808106D1E08F162
S315080013700108407C002E02F8080008F1010804DA8A
S315080013802D20764202F8080002E02B2002F8080019
S315080013900A214FF47A70864208F101080BDB96FBA6
S315080013A0F0F3303302F8083096FBF0F308F1010841
S315080013B000FB136601E0642E0CDB642096FBF0F359
S315080013C0303302F8083096FBF0F308F1010800FB09
S315080013D0136601E00A2E06DB96FBF1F0303002F8C0
S315080013E0080008F1010896FBF1F001FB10603030A7
S315080013F002F80800A16908F1010808EB050202EBEA
S315080014000A00081AA0612078C00602D42046FFF711
S315080014101FF9216A08AE01EB0A00206204E0D4E94C
S31508001420012116F8010B9047BAF1010AF7D2207884
S31508001430C00602D52046FFF70BF96E4609E016F8F6
S31508001440010B3E280FD0D4E901219047206A401CA1
S315080014502062B8F10108F2D22046FFF70FF909B069
S315080014600320BDE8F08F206A2844206203E0D4E90F
S315080014700121302090476D1EEBD3F8E749E00000C4
S3150800148002FCFFFF10B5436913B1AFF3008001E01A
S31508001490FFF717F9012010BD127800F124010A7030
S315080014A000224A700122EDE711684FF0FF32E9E7A2
S315080014B010B5436913B1AFF3008001E0FFF7A0F957
S315080014C0012010BD128800F1240182840022C28402
S315080014D00122EDE711684FF0FF32E9E72DE9F04107
S315080014E016460C46054600F047F8036893F80101CE
S315080014F0012807D0FF2C12D8185D80B101202C7066
S31508001500BDE8F081D3F807013246214603F20713F6
S31508001510C7182846BC46BDE8F041002360474FF08F
S31508001520FF30EDE700487047380000207546FFF7A2
S31508001530F9FFAE4605006946534620F00700854682
S3150800154018B020B5FEF712FFBDE820404FF00006A0
S315080015504FF000074FF000084FF0000BAC46ACE820
S31508001560C009ACE8C009ACE8C009ACE8C00921F07C
S3150800157007018D467047000010B500F005F8001DFC
S3150800158010BD00BF09D10000004870475800002070
S315080015902DE9F0411F46044603260168072A01F48F
S315080015A0006004DB08B116A505E016A503E008B13E
S315080015B015A500E015A521F010002060A069C01E41
S315080015C0A0610FB1401EA0612046FFF741F84FB158
S315080015D0D4E9012138469047206A401C2062C01C85
S315080015E0206206E0206AFAE7D4E9012115F8010B22
S315080015F09047761EF8D22046FFF740F8BDE8F081FE
S315080016004E414E006E616E00494E4600696E660098
S315080016102DE9F047814616468AB0354878440DC804
S315080016208DE80D0032487844801C03AC0DC884E868
S315080016300D0041F69B300844372190FBF1F290FBF0
S31508001640F1F5A5F1800501FB12041B3C02D56442A5
S31508001650012000E00020DFF898A080460027FA4421
S31508001660AAF1BE0A0EE0E0070AD03246684607EB42
S31508001670470101230AEB81010CF0DDF88DE807002C
S3150800168064107F1C002CEED1194F7F44AE3F19E041
S31508001690E80715D007EB04100DF1180A90E80E00BC
S315080016A08AE80E00C068F04201D1981908903246BF
S315080016B0012306A903A80CF0BEF803AB83E80700CC
S315080016C06D10641C002DE3D14FF0010332466946C4
S315080016D0B8F1000F03A802D00CF098F801E00CF05E
S315080016E0AAF8C9E90001C9F808200AB0BDE8F087D8
S315080016F04CDD000010B50446AFF300802046BDE877
S315080017001040FEF71EBE000001491820ABBEFEE7DA
S3150800171026000200704700000146806AC36DC26D4C
S3150800172013F0500F08D0D20648BF01F083BC406DB5
S31508001730426B0846104700BF42F40071C165016854
S315080017400B68CA681B0703D4910707D501F06EBC5E
S3150800175012F4406FFAD1C9688904F7D4C16D21F42F
S315080017608071C165C16DC90448BF01F05FBCC16D18
S3150800177041F00101C16501F059BC0000806AC16DE4
S3150800178041F04001C165016E41F00401016601F0B6
S3150800179051BC0000806A01F04BBC0000B0B501687E
S315080017A004468A688868C0074FF0000031D012F0F6
S315080017B0020218BFB0BD886800F00D0001281FD1CD
S315080017C088684FF6C072C7F6FF721040023088600C
S315080017D00320086002F048FA21688968C90704BF2F
S315080017E00020B0BD054602E08068C00712D002F0AE
S315080017F03BFA411B20680329F6D38168C907F3D051
S31508001800E06D40F01000E065206E40F001002066B3
S315080018100120B0BD0020B0BD70B582B004460020DE
S31508001820019021688A68D20711D14FF6C076C7F6AB
S31508001830FF76886806F17F0210420BD0E06D40F013
S315080018401000E065206E40F001002066012002B01D
S3150800185070BD00BF88684FF4C162304040F0010097
S31508001860886040F20010C5F20000814208BF4FF4BC
S315080018700272B1F1A04F08BF4FF40272105800026D
S3150800188022D402F0F1F921680A68D20718D1054670
S3150800189003E000BF0868C00712D18868C00704D1F2
S315080018A08868304040F00100886002F0DDF9401B8E
S315080018B021680328EED30868C007EBD1BEE700BF4E
S315080018C0002002B070BD00BF40F22C00C2F200003A
S315080018D0006842F663518009C0F23E51A0FB01013F
S315080018E0880900EB40000C2101EB8000019001986B
S315080018F00028C6D001980138019001980028C0D068
S3150800190001980138019001980028BAD00198013849
S31508001910019001980028B4D00198013801900198E7
S315080019200028E7D1ADE7000070B52DED028B40F237
S31508001930B010C2F2000090ED0B0A9FED6D8AB8EE6A
S31508001940400A9FED6C1A20EE080A80EE010A9FED08
S315080019506A2A40F24015C2F200059FED683A9FEDEB
S31508001960684A40F21474C2F2000480EE020A85ED59
S315080019700C0A90ED090AB8EE400A20EE080A80EE35
S31508001980010A80EE030A80EE040A85ED0D0A90ED41
S31508001990070AB8EE400A20EE080A80EE010A80EE31
S315080019A0020A85ED0A0A90ED050A2046B8EE400AB5
S315080019B020EE080A80EE010A80EE030A80EE040A89
S315080019C085ED0B0A01F046FD204601F035FB00EED9
S315080019D0100AB8EE400A9FED4B1A20EE080A80EE70
S315080019E0010A9FED491A38EE402A22EE012A82EEB4
S315080019F0000A80EE010A10EE100A0DF06DFB41ECAC
S31508001A00100B0CF091FB51EC100B9FED310B53ECC6
S31508001A10102B0CF043FF9FED300B53EC102B0CF002
S31508001A2089FE9FED2F0B02460B4651EC100B0CF06E
S31508001A3035FF9FED2D0B53EC102B0CF07BFE0CF0B5
S31508001A4047FE40F28074C2F20004E863204601F0C3
S31508001A5001FD47F2A856C1F6FF76708C31889FEDD6
S31508001A602B1A401A00EE100AB8EEC00A204681EE7C
S31508001A70008A01F0E1FA00EE100A3088B8EE400A52
S31508001A80BCEE001A9FED222A20EE010A01EE100A8A
S31508001A90B8EE411A20EE020A31EE000A28EE000AD4
S31508001AA0B3EE0E1A30EE010A95ED161A9FED192AB5
S31508001AB09FED193A21EE021A20EE030A31EE000ACA
S31508001AC085ED160A85ED0E0ABDEC028B70BD00BFCA
S31508001AD00000000000DCAE40000000E0E1796B3F4A
S31508001AE0000000000000F03F00000060661271C0B0
S31508001AF0BB27534000F0FF456157803D0000784200
S31508001B000AD7A33B00F07F4700401C460000C8C226
S31508001B1027C58C3F6666663FCDCCCC3D00000000ED
S31508001B2010B540F21474C2F20004204601F092FC8B
S31508001B30204601F081FA00EE100A9FED531AB8EE1E
S31508001B40400A9FED522A20EE010A80EE020A9FED16
S31508001B50502A31EE401A21EE021A81EE000A80EE72
S31508001B60020A10EE100A0DF0B7FA41EC100B0CF051
S31508001B70DBFA51EC100B9FED3C0B53EC102B0CF0E1
S31508001B808DFE9FED3B0B53EC102B0CF0D3FD9FED18
S31508001B903A0B02460B4651EC100B0CF07FFE9FEDFC
S31508001BA0380B53EC102B0CF0C5FD0CF091FD9FED96
S31508001BB0391A00EE100AB4EE410AF1EE10FA01DA0B
S31508001BC0002049E0B4EE410AF1EE10FA2EDA9FED54
S31508001BD0321AB4EE410AF1EE10FA2BDA9FED2F1AFB
S31508001BE0B4EE410AF1EE10FA28DA9FED2D1AB4EE9A
S31508001BF0410AF1EE10FA25DA9FED2A1AB4EE410AE7
S31508001C00F1EE10FA22DA9FED281AB4EE410AF1EE47
S31508001C1010FA1FDA9FED251AB4EE410AF1EE10FA12
S31508001C20B8BF10BD4FF47A7016E000BF4FF4AF701E
S31508001C3012E000BF4FF4E1700EE000BF4FF41670DB
S31508001C400AE000BF4FF42F7006E000BF4FF448705B
S31508001C5002E000BF4FF4617040F65431C2F2000151
S31508001C600968C86310BD00BF0000000000DCAE4074
S31508001C70000000E0E1796B3F000000000000F03F43
S31508001C8000000060661271C0BB27534000F07F4712
S31508001C9000401C4600000C4200002042000034426E
S31508001CA00000484200005C42000070420000824288
S31508001CB0B0B540F24014C2F20004E07801280BD116
S31508001CC040F20040C4F6000020210022002501F061
S31508001CD0C5FFE570A570B0BDA078012818BFB0BDD6
S31508001CE040F20040C4F6000020210122012501F03F
S31508001CF0B5FFE570B0BD0000B0B540F24014C2F2C1
S31508001D000004E078012801D1A07878B1607801282C
S31508001D1018BFB0BD40F20040C4F6000020210122E1
S31508001D20012501F09BFFE570B0BD00BF40F2004001
S31508001D30C4F6000020210022002501F08FFFE5707F
S31508001D406570B0BDFEE7000040F2D800C2F20000A0
S31508001D5001F01CBD40F64C00C2F2000001F016BDB1
S31508001D6040F2EC70C2F2000001F010BD70470000AE
S31508001D70012001F089BE00002DE9F04140F240162D
S31508001D80C2F200063078012840F00F8640F60004BB
S31508001D900120C4F60004012501F058FE2046012161
S31508001DA001F04EFF002818BFBDE8F0812046022149
S31508001DB0757001F045FF012836D10FF66C400AF020
S31508001DC0FBFD40F2B017C2F2000740F20004397B6F
S31508001DD0C2F200042078002966D004286CD00128B5
S31508001DE040F0E185387B012840F0AC80787B0128FB
S31508001DF040F0388197ED010ABAEE041A30EE010A6E
S31508001E0087ED010A97ED010AB6EE001AB4EE410A0B
S31508001E10F1EE10FA80F2618397ED010AB2EE041A28
S31508001E2030EE010A57E300BF2046022101F008FF01
S31508001E30002840F0B8850FF6B0300AF0BDFD40F234
S31508001E40B014C2F2000440F20005217BC2F200057C
S31508001E50287829B90130C1B2042988BF0120287021
S31508001E60C0B2042848D0012840F09D85207B01286F
S31508001E7040F0B480607B012840F0488194ED010A67
S31508001E80B2EE041A30EE010A84ED010A94ED010A55
S31508001E909FEDD91AB4EE410AF1EE10FA40F3B58473
S31508001EA0BAEE040AAEE300BF0138010608BF0420F3
S31508001EB0207000F078BD00BF387B012868D1787B98
S31508001EC0012840F0E78096ED070ABAEE041A30EECC
S31508001ED0010A86ED070A96ED070A9FEDC81AB4EEC1
S31508001EE0410AF1EE10FA80F2508396ED070AB2EE37
S31508001EF0041A30EE010A46E3207B012840F08E8062
S31508001F00607B012840F01A8196ED070AB2EE041AA2
S31508001F1030EE010A86ED070AF0690DF0DDF89FED4F
S31508001F20B80B53EC102B0DF01EF9002840F0358540
S31508001F3096ED070ABAEE041A30EE010A86ED070A8C
S31508001F4000F02BBD387B022840F02D85787B0128D0
S31508001F5040F0348197ED020ABAEE041A30EE010A0F
S31508001F6087ED020AB8680DF0B7F89FEDA70B53EC9A
S31508001F70102B0DF0F1F8002840F0AF8297ED020A19
S31508001F80B2EE041A30EE010A87ED020AA5E200BF96
S31508001F90387B022840F09680787B012840F04881FB
S31508001FA096ED080ABAEE041A30EE010A86ED080A1A
S31508001FB0306A0DF091F89FED940B53EC102B0DF051
S31508001FC0CBF8002840F0E18296ED080AB2EE041A32
S31508001FD030EE010A86ED080AD7E200BF207B022808
S31508001FE040F0E184607B012840F0808194ED020A8C
S31508001FF0B2EE041A30EE010A84ED020AA0680DF06A
S315080020006BF89FED830B53EC102B0DF09EF8002810
S3150800201000F0FB83BAEE040A00F0F1BB207B02282D
S3150800202040F0AA80607B012840F0968196ED080A68
S31508002030B2EE041A30EE010A86ED080A96ED080A91
S31508002040B2EE051AB4EE410AF1EE10FA40F3A58491
S3150800205096ED080ABAEE041A30EE010A86ED080A69
S3150800206000F09BBC787B022840F0008197ED010ABE
S31508002070BFEE001A30EE010A87ED010A97ED011A44
S31508002080B6EE000AB4EE401AF1EE10FAB8BF87EDC4
S31508002090010A22E2787B022840F0088196ED070AB9
S315080020A0BFEE001A30EE010A86ED070A96ED071A0A
S315080020B09FED520AB4EE401AF1EE10FAB8BF86ED5B
S315080020C0070A62E2387B032840F06D84787B012892
S315080020D040F07C8196ED090ABAEE041A30EE010A40
S315080020E086ED090A96ED090AB6EE001AB4EE410A1B
S315080020F0F1EE10FA80F2498296ED090AB2EE041A58
S3150800210030EE010A86ED090A3FE200BF607B02282D
S3150800211040F0088194ED010AB7EE001A30EE010A84
S3150800212084ED010A94ED011A9FED330AB4EE401AC4
S31508002130F1EE10FAC8BF84ED010A66E3607B022857
S3150800214040F0228196ED070AB7EE001A30EE010A32
S3150800215086ED070AF0690CF0BFFF9FED290B53ECDB
S31508002160102B0CF0F2FF002800F017849FEDF10AFF
S3150800217086ED070A00F011BC207B032840F0138483
S31508002180607B012840F0468296ED090AB2EE041AF1
S3150800219030EE010A86ED090A96ED090A9FEDE61A60
S315080021A0B4EE410AF1EE10FA40F3F78396ED090A08
S315080021B0BAEE041A30EE010AEDE300BF787B022876
S315080021C040F01C8197ED020ABFEE001A30EE010AB4
S315080021D087ED020AB8680CF07FFF9FED0B0B53ECF6
S315080021E0102B0CF0C7FF002800F077819FEDEA0A54
S315080021F087ED020A71E100BF00004242000020425A
S315080022008FC2F5285CFF58407B14AE47E17A843FBD
S3150800221033333333333324409A9999999999B9BF0B
S315080022209A9999999999B93F7B14AE47E17A84BFEF
S31508002230787B022840F0068196ED080ABFEE001A60
S3150800224030EE010A86ED080A306A0CF045FF1FEDEC
S31508002250120B53EC102B0CF08DFF002800F0958123
S315080022609FEDCD0A86ED080A8FE100BF787B03282B
S3150800227040F00C8178680CF02FFF1FED190B53EC1A
S31508002280102B0CF057FA0CF023FA786097ED010A38
S31508002290B6EE001AB4EE410AF1EE10FA80F21D818C
S315080022A078680CF019FF1FED220B0CE1787B0328E8
S315080022B040F04481F0690CF00FFF1FED290B53EC39
S315080022C0102B0CF037FA0CF003FAF06196ED070ABA
S315080022D01FED361AB4EE410AF1EE10FA80F2558176
S315080022E0F0690CF0F9FE1FED320B44E1607B022821
S315080022F040F0548194ED020AB7EE001A30EE010A56
S3150800230084ED020AA0680CF0E7FE1FED3F0B53ECC4
S31508002310102B0CF01AFF002800F077829FEDED0ACB
S3150800232071E200BF607B032840F0548194ED010AF6
S315080023309FEDE91A30EE010A84ED010A94ED010ACF
S315080023401FED531AB4EE410AF1EE10FA40F35D821E
S315080023509FEDE20A56E100BF607B022840F07281D9
S3150800236096ED080AB7EE001A30EE010A86ED080A5D
S3150800237096ED081AB2EE050AB4EE401AF1EE10FA16
S31508002380C8BF86ED080A08E3607B032840F076811B
S31508002390F0690CF0A1FE1FED5E0B53EC102B0CF050
S315080023A0C9F90CF095F9F061F0690CF095FE1FED8E
S315080023B06C0B53EC102B0CF0D6FE002840F0ED8287
S315080023C0F0690CF089FE1FED6C0B78E1787B02282A
S315080023D040F0868196ED090ABFEE001A30EE010A32
S315080023E086ED090A96ED091AB6EE000AB4EE401A09
S315080023F0F1EE10FAB8BF86ED090AC6E0787B032825
S3150800240040F08E81B8680CF067FE1FED7D0B53EC2B
S31508002410102B0CF08FF90CF05BF9B860B8680CF06B
S315080024205BFE1FED870B53EC102B0CF095FE002876
S3150800243053D1B8680CF050FE1FED870B53EC102BE8
S3150800244091E100BF787B032840F09681306A0CF052
S3150800245043FE1FED8F0B53EC102B0CF06BF90CF0B1
S3150800246037F93062306A0CF037FE1FED990B53ECE2
S31508002470102B0CF071FE002840F08780306A0CF0B3
S315080024802BFE1FED990B53EC102B98E1787B042853
S3150800249023D178680CF020FE1FED9D0B53EC102B12
S315080024A00CF048F90CF014F9786097ED010AB6EECD
S315080024B0001AB4EE410AF1EE10FA0EDA78680CF05A
S315080024C00BFE1FEDAF0B53EC102B0CF033F90CF091
S315080024D0FFF800EE100A87ED010A787B002800F065
S315080024E062824FF07E50386097ED010A9FEDEB1A35
S315080024F09FEDEB2A20EE010A80EE020A9FEDE91A0B
S315080025009FEDE93A9FEDE94A20EE010ABDEEC00AC1
S3150800251084ED030A97ED020A20EE030A20EE040A68
S3150800252080EE020A20EE010ABDEEC00A84ED040A16
S3150800253039E200BFE1FAC74200004842787B042826
S3150800254023D1F0690CF0C8FD1FEDC90B53EC102B15
S315080025500CF0F0F80CF0BCF8F06196ED070A1FEDE8
S31508002560D91AB4EE410AF1EE10FA0EDAF0690CF057
S31508002570B3FD1FEDDB0B53EC102B0CF0DBF80CF066
S31508002580A7F800EE100A86ED070A787B00281CBF1C
S315080025904FF07E50386006E20AD7233C607B03285A
S315080025A040F0168194ED020A9FED4B1A30EE010AAF
S315080025B084ED020AA0680CF08FFD1FEDEB0B53ECBF
S315080025C0102B0CF0C2FD002800F01F819FED430A76
S315080025D015E100BF607B042840F0178194ED010ADD
S315080025E01FED131A30EE010A84ED010A94ED010A73
S315080025F09FEDEF1AB4EE410AF1EE10FA40F30581A9
S315080026009FEDEC0A94ED011A31EE000A84ED010AF9
S31508002610FBE000BF607B022840F0248196ED090AA2
S31508002620B7EE001A30EE010A86ED090A96ED091A88
S315080026301FED3F0AB4EE401AF1EE10FAC8BF86ED58
S31508002640090AAAE1607B032840F0328196ED080A60
S315080026509FEDED1A30EE010A86ED080A96ED080A96
S31508002660B2EE051AB4EE410AF1EE10FA40F395817E
S31508002670306A0CF031FD9FEDD40B32E1607B042803
S3150800268040F08B81F0690CF027FD9FEDCB0B53ECE6
S31508002690102B0CF04FF80CF01BF8F061F0690CF0F9
S315080026A01BFD9FEDCB0B53EC102B0CF05CFD0028AB
S315080026B040F07381F0690CF00FFD9FEDC10B53ECF0
S315080026C0102B0CF037F80CF003F800EE100A86ED24
S315080026D0070A62E19A992141CDCCCC3DCDCCCCBD3F
S315080026E0787B032840F00881706A0CF0F5FC9FEDB2
S315080026F0B60B53EC102B0CF01DF80BF0E9FF7062CB
S3150800270096ED090AB6EE001AB4EE410AF1EE10FA91
S31508002710BFF63BAF706A0CF0DFFC9FEDAF0B0AE12A
S31508002720787B04287FF4D9AEB8680CF0D5FC9FED09
S31508002730A40B53EC102B0BF0FDFF0BF0C9FFB86090
S31508002740B8680CF0C9FC9FED9C0B58EC105B2A4648
S3150800275043460CF001FD00287FF4BFAEB8680CF0C4
S31508002760BBFC2A4643460BF0E5FF0BF0B1FF00EE33
S31508002770100A87ED020AB0E6787B04287FF405AFD5
S31508002780306A0CF0A9FC9FED8E0B53EC102B0BF066
S31508002790D1FF0BF09DFF3062306A0CF09DFC9FED77
S315080027A0860B54EC105B2A4623460CF0D5FC002811
S315080027B07FF4EBAE306A0CF08FFC2A4623460BF00A
S315080027C0B9FF0BF085FF00EE100A86ED080ADCE675
S315080027D0607B042819D194ED020A9FED8C1A30EE1D
S315080027E0010A84ED020AA0680CF076FC9FED7C0BCA
S315080027F053EC102B0CF0B7FC38B99FED850A94ED15
S31508002800021A31EE000A84ED020A607B002800F005
S31508002810CA804FF07E50206094ED010A9FED7D1A24
S315080028209FED7D2A20EE010A80EE020A9FED7B1AB3
S315080028309FED7B3A9FED7B4A20EE010ABDEEC00A6A
S3150800284085ED030A94ED020A20EE030A20EE040A37
S3150800285080EE020A20EE010ABDEEC00A85ED040AE2
S31508002860A1E000BF607B032870D196ED090A9FEDB1
S31508002870661A30EE010A86ED090A96ED090A9FEDF9
S31508002880611AB4EE410AF1EE10FA40F38680706AD6
S315080028900CF022FC9FED4C0B75E000BF6157803DA4
S315080028A0BB27534000F0FF450AD7A33B00007842F8
S315080028B0607B042871D196ED080A9FED541A30EE14
S315080028C0010A86ED080A96ED080AB2EE051AB4EE74
S315080028D0410AF1EE10FA60DD306A0CF0FDFB9FED5F
S315080028E0380B53EC102B0BF025FF0BF0F1FE00EE26
S315080028F0100A86ED080A50E0787B04287FF445AE76
S31508002900706A0CF0E9FB9FED2E0B53EC102B0BF0C5
S3150800291011FF0BF0DDFE706296ED090AB6EE001A9D
S31508002920B4EE410AF1EE10FABFF62FAE706A0CF05B
S31508002930D3FB9FED210B53EC102B0BF0FBFE0BF09A
S31508002940C7FE00EE100A86ED090A1EE6607B04281B
S3150800295023D1706A0CF0C0FB9FED170B53EC102BBC
S315080029600BF0E8FE0BF0B4FE706296ED090A9FEDD7
S31508002970251AB4EE410AF1EE10FA0EDD706A0CF073
S31508002980ABFB9FED0F0B53EC102B0BF0D3FE0BF0AC
S315080029909FFE00EE100A86ED090A607B00281CBF20
S315080029A04FF07E50206000203070BDE8F08100BFF7
S315080029B0000042420AD723BC7B14AE47E17A843F23
S315080029C07B14AE47E17A84BF9A9999999999B9BFC8
S315080029D08FC2F5285CFF58409A9999999999B93FF9
S315080029E03333333333332440E7BC96E7A081E59984
S315080029F0A8E9A1BAE697B6E99288E6978BE8BDAC4E
S31508002A000D0A000000004842CDCCCC3D0AD7233C35
S31508002A100AD723BC6157803DBB27534000F0FF45CA
S31508002A200AD7A33B00007842E7BC96E7A081E59960
S31508002A30A8E98086E697B6E99288E6978BE8BDAC62
S31508002A400D0A0000EFF3108072B600BFFEE7000023
S31508002A5040F65431642828BF6420C2F2000100EB16
S31508002A60800009684000C86370470000B0B582B0AE
S31508002A7004460020019094F85800012802D102204B
S31508002A8002B0B0BD012084F8580020460D46FEF776
S31508002A9085FEE16D10B141F010014BE041F20212E2
S31508002AA091430231E16521684FF6C073D1F808C039
S31508002AB0C3F6FF7303EA0C0305F080454DF6016281
S31508002AC02B44C0F2040203F100438B608B68B3F118
S31508002AD0FF3F2BDC019B01330193019B93421DD8D9
S31508002AE08B68B3F1FF3F21DC019B01330193019B06
S31508002AF0934213D88B68B3F1FF3F17DC019B013370
S31508002B000193019B934209D88B68B3F1FF3F0DDC13
S31508002B10019B01330193019B9342D7D9E06D40F0A5
S31508002B20100020F00201012004E000BFE16D01223F
S31508002B3062F30101E165002184F8581002B0B0BDC6
S31508002B4090F85820012A04BF0220704770B582B059
S31508002B50002201920092026840F2080CC5F2000CAD
S31508002B60B2F1A04F0CF1F80508D040F20043C5F2C7
S31508002B7000039A4234D10CF59F6300E02B469B680C
S31508002B80946823435B072BD44FF4E063D1F800E045
S31508002B90AA4208BF4FF44073B2F1A04F08BF4FF4E2
S31508002BA040735CF80340BEF1000F24F4604425D05E
S31508002BB04D6890F8386042F4807245EA46352C43F1
S31508002BC040F20015C5F20005AA424CF8034027D189
S31508002BD0DCF80020DCF800412243D20748D129E07E
S31508002BE0C16D41F02001C1650121002280F85820FD
S31508002BF002B0BDE870400846704700BF42F48071D5
S31508002C0040F20012C5F2000291424CF803401BD173
S31508002C10DCF80010DCF800211143C90728D11DE0B3
S31508002C20DCF80044DCF80055DCF800262C43224387
S31508002C30D2071DD15CF8032040F61F748968A243A9
S31508002C40114341EA0E010EE0DCF80024DCF80065C9
S31508002C50DCF8001632431143C90709D15CF80310A2
S31508002C6040F61F7291434CF803100021BDE700BFE0
S31508002C700021BAE7F0B581B00022009290F85820FA
S31508002C80012A03D10221084601B0F0BD01230768D5
S31508002C9080F85830BB685B0734D4D1E900351F2665
S31508002CA0C5F3012407EB8404226B05F01F05AE402B
S31508002CB0C3F38463B243AB401A432263BA68BB6862
S31508002CC002F0040203F00803D21840F0BC800A6838
S31508002CD007F114030426C2F34064D1F808E006EAB3
S31508002CE0D25C53F82440C2F304550722AA40BEF129
S31508002CF0004F24EA02040BD143F80C401A6842F04C
S31508002D0000430DE0C16D41F02001C165012167E175
S31508002D100EFA05F2224343F80C201A6822F0004303
S31508002D207B61D1E90435FC68042B5FD13A6E3A6EB3
S31508002D300B68C2F3846293FAA3F6C3F3846C6FF349
S31508002D40DF43B6FA86F5002B2C464FF6FF7E08BF02
S31508002D506446A242C0F2070E0CD13A6E22F0004237
S31508002D603A660A6802EA0E03C2F3846C92FAA2F281
S31508002D70B2FA82F57A6E7A6E002BC2F384622C461A
S31508002D8008BF6446A2420CD17A6E22F000427A66E7
S31508002D900A6802EA0E03C2F3846C92FAA2F2B2FA45
S31508002DA082F5BA6EBA6E002BC2F384622C4608BF4F
S31508002DB06446A2420CD1BA6E22F00042BA660A688C
S31508002DC002EA0E03C2F3846C92FAA2F2B2FA82F510
S31508002DD0FA6EFA6E002BC2F3846208BF6546AA42F1
S31508002DE031D1FA6E22F00042FA662CE0062202EA97
S31508002DF0940205FA02FC0E6807F1600555F82340AF
S31508002E004FF20002C0F2FF3206F0F846224046EAC8
S31508002E100C06324342F0004245F823200A698B69C2
S31508002E2055F8226026F08076334345F822300A6941
S31508002E300B7F55F82260012B26F0007608BF06F1B5
S31508002E40007645F82260BA680D68D20750D1CA687C
S31508002E50D7F8B0602B466FF3DF4326EA030C4FF62C
S31508002E60FF7602F01804C0F20706E64000242E405A
S31508002E70C4F27F0446EA0C06A242C7F8B06037D10E
S31508002E8093B195FAA5F2B2FA82F2013202F01E0364
S31508002E90092B02F01F0310D801229A4003EB4303C3
S31508002EA042EA035315E000BF012202EB956202F0E5
S31508002EB01E030A2B02F01F03EED3012200269A40B6
S31508002EC003EB4303CFF6206606EB03531A4342F09F
S31508002ED00073C3F3406607EB86068A687569C3F311
S31508002EE0045307249C40A5439A402A4372610D68FF
S31508002EF00021C8F208010D4271D040F2001CC5F24B
S31508002F00000C4FF4C161674508BF4FF40271B7F171
S31508002F10A04F08BF4FF4027151F80C400022CCF2C2
S31508002F202132954204F0E07E04D01022C9F2C00294
S31508002F30954241D1220252D440F20062C5F2000203
S31508002F40974202D0B7F1A04F49D15CF8012022F090
S31508002F50E07242EA0E0242F400024CF8012040F206
S31508002F602C01C2F20001096842F663528909C0F2CF
S31508002F703E52A1FB0212910901EB41010C2202EB20
S31508002F8081010091009951B3009901390091009986
S31508002F9029B3009901390091009901B300990139C3
S31508002FA000910099D9B10099013900910099002939
S31508002FB04FF00001E8D113E00022CCF2527295429C
S31508002FC014D10022B2EB1E6F10D15CF8012022F05A
S31508002FD0E07242EA0E0242F080724CF801200021AB
S31508002FE0002280F85820084601B0F0BD0021CCF632
S31508002FF084318D424FF0000108BF14F48002EFD1EE
S31508003000B7F1A04F06D06745EAD0674502D00CF560
S31508003010C06101E00CF500718A6822F0E07242EAAC
S315080030200E0242F480028A60D9E700007047000069
S3150800303070470000704700000068006C7047000089
S31508003040B0B582B00446002001904CB1E06D58B18D
S3150800305021688868800012D48868C00019D54CE0B9
S31508003060012002B0B0BD00BF204600F027F90020BD
S31508003070206684F85800216888688000ECD588683E
S315080030804FF6C072C5F6FF72104088608868C000A7
S3150800309033D44FF6C0728868C5F6FF7202F18052C3
S315080030A0104000F18050886040F22C00C2F2000007
S315080030B0006842F663528009C0F23E52A0FB020243
S315080030C09009022202EB400001900198A8B100BFC6
S315080030D0019801380190019878B10198013801905A
S315080030E0019850B1019801380190019828B10198CA
S315080030F00138019001980028EAD18868C00009D4EF
S31508003100E06D40F01000E065206E40F0010020669A
S31508003110012000E000208A68E36D02F0040203F053
S315080031201003D218E26D40F0818022F481720232D7
S31508003130E2658A68D20729D140F2001341F4807209
S31508003140C5F2000340F2080C9A42C5F2000C73D18E
S31508003150DCF80030DCF800211A43D20716D10CF14E
S31508003160F8024FF4E063D4F804E0914208BF4FF444
S315080031704073B1F1A04F08BF4FF440735CF80320C9
S3150800318022F47C1242EA0E024CF8032094F81DE061
S31508003190E36BD4E902C243EA4E331A4394F8243067
S315080031A042EA0C02012B42EA034207D1D4F828C0AE
S315080031B00023CFF6FE7303EB4C431A43E36A33B19D
S315080031C0D4F830C003F4787343EA0C031A43D1F8F1
S315080031D00CC044F20703CFF6F07303EA0C031A4354
S315080031E0CA600A69636B22F040621A430A618A68F8
S315080031F0120752D494F83820237F520042EA833CBF
S31508003200CB6844F2020223EA020242EA0C02CA60CE
S3150800321022690B69F2B143F480330B61D1F8C0C05F
S3150800322043F6FF732CEA03031A431BE042F010012E
S315080032300120E16502B0B0BDDCF800E4DCF8002549
S31508003240DCF8003642EA0E021A43D2073FF487AF8B
S315080032509CE700BF23F480320A61D1F8C02043F608
S31508003260FF739A43C1F8C02094F840300A69012BCD
S3150800327010D140F2FD7322EA030CD4E91132D4E9E5
S3150800328013E543EA0C031A4342EA0E022A4342F0C4
S31508003290010201E022F001020A6162690B6B012A50
S315080032A023F00F0202D1236A013B1A430A63E16D38
S315080032B0012262F30101E16502B0B0BDF0B59BB031
S315080032C0044600201A90CDE91800CDE9160001A899
S315080032D05421FDF74AF9206840F20061C5F2000161
S315080032E0884263D040F20011C5F20001884279D0C5
S315080032F0B0F1A04F74D14FF4004001904FF0005048
S31508003300129001A802F086F8002818BFFFF79AFB6A
S3150800331040F2D405C2F20005296841F24C00C4F215
S3150800332002004A1C2A6041B9016841F40051016053
S31508003330016801F40051009100990168002641F0E6
S3150800334001010160006816A900F0010000900098CC
S315080033500F201690032017904FF09040189600F013
S315080033609FFB0821C4F20201284640F8041F0521E4
S3150800337080224FF480734FF40057C0E9011600F11C
S3150800338014014FF4806C4FF0200EC0E9036281E807
S315080033900850076200F050FA002818BFFFF752FBE2
S315080033A0281D6065EC621BB0F0BD00BF4FF480308D
S315080033B001904FF00040139001A802F02BF8002866
S315080033C018BFFFF73FFB41F24C00C4F20200016848
S315080033D041F480410160006800F480400090009844
S315080033E01BB0F0BD4FF4004001904FF00050129012
S315080033F001A802F00FF8002818BFFFF723FB40F2D8
S31508003400D401C2F200010A6841F24C00C4F202007B
S31508003410531C0B6042B9016841F400510160016810
S3150800342001F4005100910099016841F00101016021
S31508003430006816A900F00100009000981020169068
S3150800344003201790002018904FF0904000F028FBBA
S315080034501BB0F0BD70B540F200450446C5F2000544
S315080034600068A5F540714FF44272884208BF6FF0B4
S31508003470F702B0F1A04F08BF6FF0F70256598068FF
S31508003480400703D494F85800012801D1022070BDE2
S31508003490012084F858002046FEF7BEF920B1002026
S315080034A084F85800012070BD2068E16D40F601726D
S315080034B0914340F20012C5F2000240F2005C06F0A9
S315080034C01F0301F580719042C5F2000CE16503D037
S315080034D0604507D1294601E04FF0A041814218BF57
S315080034E0002B03D1E16D21F48011E165E16D002621
S315080034F0C9044FF0000144BF216E21F00601216680
S315080035001C219042016084F8586005D060450FD1AF
S315080035102946814204D10BE04FF0A041814207D0F1
S31508003520092B17D80121994040F22123194211D0BD
S31508003530C168890104D5E16D012262F30D31E165A7
S3150800354081684FF6C072C7F6FF7211400431816078
S31508003550002070BDE16D904241F48011E16503D011
S31508003560604508BF284601E04FF0A040C0688001CA
S315080035705CBF002070BDE06D012161F30D30E06590
S31508003580002070BD2DE9F041044640F2001700689E
S31508003590C5F200074FF4C163B84208BF4FF402737F
S315080035A0B0F1A04F08BF4FF40273DB598668904606
S315080035B0720704D40E4694F85810012902D1022045
S315080035C0BDE8F08107F5A06203F01F0501219042CE
S315080035D084F8581018BF002D16D12046FEF71CF99E
S315080035E0B0B92168E06D40F60172904300F580702D
S315080035F0B942E06512D040F20050C5F2000081429F
S3150800360012D107F540700BE0052DE6D0092DE4D060
S31508003610002084F858000120BDE8F0814FF0A04052
S31508003620884218BF002D03D1E06D20F48010E065B4
S31508003630E06D41F21973C0044FF0000044BF206EDC
S3150800364020F006002066606D41F29577C0F600030B
S31508003650C0F6000741F27D750022C0F60005C0E9F4
S315080036600B371C2345630B6084F858204A68434689
S3150800367042F010024A60CA6842F00102CA6040314C
S31508003680324600F06FF921684FF6C0738A68C7F6AC
S31508003690FF731A4004328A60BDE8F081014690F84B
S315080036A02500022828D180B50868D1E910CE8A6C91
S315080036B0036823F00E030360136823F48073136012
S315080036C0026822F0010202600EF01F00012202FACF
S315080036D000F0CCF80400D1E913205060486D30B1F1
S315080036E0026822F480720260D1E916024260002064
S315080036F0BDE8804003E000BF0420C8630120012222
S3150800370081F82520002281F82420704790F825109A
S31508003710022931D180B50168D0E910CE826C0B68D8
S3150800372023F00E030B600B6823F001030B6011688E
S3150800373021F4807111600EF01F02012101FA02F2D4
S31508003740CCF80420D0E913325A60426D32B11368BE
S3150800375023F480731360D0E91623536080F825108C
S31508003760826B002180F824100AB190470021BDE839
S3150800377080400846704700BF0421C163012100222A
S3150800378080F8251080F8242008467047B0B5D0E99F
S3150800379010C30268DCF8001003F01F030424D2F8F3
S315080037A000E09C400C4218BF1EF0040522D10224FA
S315080037B09C400C4218BF1EF0020529D1D9400907C2
S315080037C024D51EF0080108BFB0BD116821F00E010E
S315080037D01160012101FA03F2CCF80420C16380F8D4
S315080037E02510416B002280F8242079B1BDE8B0404D
S315080037F0084700BF1168890603D4116821F004013F
S315080038001160CCF80440016B0029EFD1B0BD00BFB0
S315080038101168890606D4116821F00A011160012190
S3150800382080F82510CCF80440C16A0022002980F8E7
S315080038302420DBD1EAE7000000284FF0010100F060
S315080038408E802DE9F04740F2000CC4F2020C0368A2
S315080038504FF6F8320CF5816ECBF6FD72734538BF1C
S3150800386002F580624CF6CD441A44CCF6CC44A2FB51
S31508003870042803F0FC02A2F10802A2FB04290CF5B5
S3150800388080656FF00304D0E90262D0F810A03CBF4F
S315080038900025C4F2020504EA9804C0E9105402257A
S315080038A080F825501D6847F6F07725EA07073A435A
S315080038B0476942EA0A0285693A43C7692A43056A9B
S315080038C03A432A4332431A600CF50262734538BFFD
S315080038D00CF50062A3180CF50862C264C9F3041259
S315080038E040F6840C01FA02F2B6F5804FC4F2020CD7
S315080038F08364026506D1002141601960CCF8002076
S315080039001EE000BF41685FFA81FE013903294FF0C6
S315080039100001C3F800E0CCF8002011D8AEF101028E
S315080039200CEB820747F87C1F02F01F01012202FAFE
S3150800393001F30CF1BC023946CCF8C03002E000BFF6
S315080039400022002300F1540C8CE80E00002101220D
S31508003950C16380F8252080F82410BDE8F0470846A2
S315080039607047000090F824C0BCF1010F47D04FF013
S31508003970010C80F824C090F825C0BCF1010F3BD19A
S315080039802DE9F0414FF0020C80F825C04FF0000CED
S31508003990C0F83CC0D0F800C000F14C0E9EE830409C
S315080039A0DCF80060BEF1000F26F00106CCF80060D6
S315080039B065601CBFD0E916456560D0E91056012739
S315080039C006F01F06846807FA06F6D0F830806E609F
S315080039D0CCF804300B46102C04BF13460A46CCF824
S315080039E00830CCF80C20DCF80010B8F1000F09D02C
S315080039F041F00E010EE000BF002180F824100220DD
S31508003A00704700BF21F00401CCF80010DCF8001064
S31508003A1041F00A01CCF80010806C0168C90303D58F
S31508003A20016841F480710160BEF1000F05D0DEF82F
S31508003A30000040F48070CEF80000DCF8000040F08A
S31508003A400100CCF800000020BDE8F081B0B50446BE
S31508003A5000F00AF9054640F22400C2F20000406868
S31508003A60611C18BF044400BF00F0FEF8401BA042CA
S31508003A70FAD3B0BD012818BF704740F24010C2F211
S31508003A80000001210170704740F21441C4F201019F
S31508003A900A68024214BF08607047FFF7EBBF0000D0
S31508003AA02DE9F04F82B00D68002D00F0C58000F1B9
S31508003AB03847860546EA972741F20046C4F60006C7
S31508003AC0062240F2004EB04208BF0522C4F2010E9B
S31508003AD0052F38BF3A464FF0000C01240027002670
S31508003AE0009209E00D68013635FA06F207F1020779
S31508003AF00CF1040C00F0A08004FA06FB15EA0B088A
S31508003B00F0D0D1F804A003230AF003056A1EBB40CF
S31508003B10012A6FEA03090FD88268CB6802EA09020C
S31508003B20BB401A4382604268CAF3001322EA0B02BA
S31508003B30B3401A43426003E0032D01D103251FE079
S31508003B40C2688B6802EA0902BB401A43022DC260AA
S31508003B5016D16FF0030202EA560202440CF01C0565
S31508003B600F23D2F820A003FA05FB0B692AEA0B0AF1
S31508003B70AB4043EA0A031362D1F804A00AF003052E
S31508003B80026805FA07F302EA09021A431AF4403FE3
S31508003B900260A7D041F26003C4F202031A684FF626
S31508003BA0084A42F001021A601A68CFF6FF7A02F054
S31508003BB001020192019A26F00302724452F80A9011
S31508003BC00CF00C050F23009CAB4029EA030304FA0A
S31508003BD005F52B4342F80A30DEF808204B6842EA1E
S31508003BE0080540F20C49DC0258BF22EA0805CEF85F
S31508003BF00850C4F20109D9F800209D0242EA0804D7
S31508003C0058BF22EA0804C9F80040DEF804209D03DC
S31508003C1042EA080458BF22EA0804CEF80440DEF84F
S31508003C200020DB0342EA080458BF22EA0804CEF85B
S31508003C300040012456E700BF02B0BDE8F08F00003F
S31508003C400069084018BF012070470000426902EA6F
S31508003C500103914341EA0341816170471823002A11
S31508003C6008BF2823C150704740F63440C2F200000E
S31508003C700068704790F8DD30022B03D14FF0020C34
S31508003C806046704790F8DC304FF0020C012B01D1EA
S31508003C906046704701237F2980F8DC3080F8DDC054
S31508003CA000F32C8001393F2900F27E80DFE801F01D
S31508003CB020347C3A7C7C7C407C7C7C7C7C7C7C468E
S31508003CC07C7C7C7C7C7C7C7C7C7C7C7C7C7C7C544E
S31508003CD07C7C7C7C7C7C7C7C7C7C7C7C7C7C7C7C16
S31508003CE07C7C7C7C7C7C7C7C7C7C7C7C7C7C7C5A28
S31508003CF00168D1F8003462F3040324E0802937D040
S31508003D00B1F5807F3AD0B1F5007F4DD10168D1F881
S31508003D10043462F31C6336E00168D1F8003462F3B8
S31508003D208A1310E00168D1F8003462F310330AE010
S31508003D300168D1F8003462F3964304E00168D1F8CB
S31508003D40003462F31C63C1F8003490F8DD104FF0BC
S31508003D50010C072920D19BE70168D1F8043462F3E6
S31508003D60040310E00168D1F8043462F38A130AE008
S31508003D700168D1F8043462F3103304E00168D1F81D
S31508003D80043462F39643C1F8043490F8DD104FF01A
S31508003D90010C07293FF47CAF80F8DDC04FF0000C1A
S31508003DA080F8DCC060467047072180F8DD100021E6
S31508003DB080F8DC1090F8DD104FF0010C0729EBD1E4
S31508003DC066E7000090F8DD30022B03D1022318467F
S31508003DD0704700BF90F8DC30012B4FF0020301D189
S31508003DE018467047B0B5012480F8DC4080F8DD300D
S31508003DF003687F29D3F880C3D3F8FCE300F3528025
S31508003E004C1E3F2C00F21E81DFE814F040007000C3
S31508003E101C017C001C011C011C0188001C011C01E2
S31508003E201C011C011C011C011C0194001C011C0125
S31508003E301C011C011C011C011C011C011C011C018C
S31508003E401C011C011C011C011C01AE001C011C01EB
S31508003E501C011C011C011C011C011C011C011C016C
S31508003E601C011C011C011C011C011C011C011C015C
S31508003E701C011C011C011C011C011C011C011C014C
S31508003E801C011C011C011C011C01C6005488526837
S31508003E9064F3124CC3F8BC2390F8DD20072A40F0DF
S31508003EA0C180D9E0802900F08F80B1F5807F00F0CD
S31508003EB0A380B1F5007F40F0C5805488D3F8F85345
S31508003EC064F3165E25F0F844C3F8F8435268D3F84D
S31508003ED0F84302F01F0244EA8262C3F8F82390F816
S31508003EE0DD20072A40F09E80B6E000BF548852685D
S31508003EF064F3D54CC3F8C02390F8DD20072A40F0B8
S31508003F009180A9E05488526864F3985CC3F8C42386
S31508003F1090F8DD20072A40F085809DE05488526895
S31508003F2064F35B6CC3F8C82390F8DD20072A79D1BF
S31508003F3092E000BF4FEADE05B2F802E0D3F8F84394
S31508003F4065F3DF0E24F01F04C3F8F8435268D3F86C
S31508003F50F84302F01F022243C3F8F82390F8DD2045
S31508003F60072A5FD178E000BF5488D3F8F85364F382
S31508003F70061E25F47874C3F8F8435268D3F8F84354
S31508003F8002F01F0244EA4212C3F8F82390F8DD2033
S31508003F90072A47D160E000BF5488D3F8F85364F382
S31508003FA00A2E25F4F844C3F8F8435268D3F8F843C0
S31508003FB002F01F0244EA8222C3F8F82390F8DD20B3
S31508003FC0072A2FD148E000BF5488D3F8F85364F382
S31508003FD00E3E25F4F814C3F8F8435268D3F8F843AC
S31508003FE002F01F0244EA0242C3F8F82390F8DD20E3
S31508003FF0072A17D130E000BF5488D3F8F85364F382
S31508004000124E25F07874C3F8F8435268D3F8F8438B
S3150800401002F01F0244EA4252C3F8F82390F8DD2062
S31508004020072A19D00F298CBFC3F8FCE3C3F880C34D
S315080040300121002380F8DD1080F8DC30BDE8B040AF
S3150800404018467047072280F8DD20002280F8DC2019
S3150800405090F8DD20072AE5D10123BDE8B0401846CF
S315080040607047000070470000704700007047000066
S315080040707047000070470000704700007047000056
S31508004080704700007047000090F8DC20012A4FF0C6
S31508004090020221D0012380F8DC3080F8DD20026896
S315080040A04B1CD2F8CCC309D04CF00203C2F8CC336F
S315080040B0D2F8CC3323F00C03194301E02CF00201AB
S315080040C0C2F8CC13D2F8CC1341F00101C2F8CC13D4
S315080040D00121002280F8DD101046704790F8DD3087
S315080040E0022B04BF0220704790F8DC30012B4FF0FA
S315080040F002033DD070B580F8DD30D2E900C3D2E9BD
S3150800410002E60CF4E0546FF35F23156923440EF4BA
S315080041100074234405F480452B4406F400463344D2
S3150800412056690025C0F2FF1505EA06469569334427
S3150800413005F00076156A334405F08046D2693343A4
S31508004140066802F0004206EBC1111A43D1F8B830EE
S3150800415042F20006C3F6004633401A43C1F8B820B7
S315080041600121002380F8DD1080F8DC30BDE87040BE
S3150800417018467047704700007047000070470000F7
S315080041807047000070470000704700007047000045
S315080041902DE9F0410629044610D00D46FF293DD1E8
S315080041A02068D0F88863D0F89053F10718BF15F047
S315080041B0010145D1B0074BD454E000BF2068D0F8C0
S315080041C08853D0F890734668D0F80C80E9030FD569
S315080041D017F480310CD04FF48031C0F88C130120CD
S315080041E084F8DD00002084F8DC002046FFF74AFF4B
S315080041F0A8030AD517F4003007D020684FF4003119
S31508004200C0F88C132046FFF72DFFF00718BF18F0EB
S31508004210010067D1B0076ED477E000BF206800EBD5
S31508004220C510D0F88470D0F88C60F90718BF16F05E
S31508004230010140F0A980B80700F1AF80BAE000BFDD
S315080042400121C0F88C132046FFF796FFB00709D561
S3150800425015F0020006D020680221C0F88C1320460B
S31508004260FFF78CFF700709D515F0040006D0206803
S315080042700421C0F88C132046FFF782FF300709D5C2
S3150800428015F0080006D020680821C0F88C132046CF
S31508004290FFF778FFF00609D515F0100006D020685C
S315080042A01021C0F88C132046FFF76EFF700609D55B
S315080042B015F0400006D020684021C0F88C1320462F
S315080042C0FFF764FFB00640F1358115F0200000F0D5
S315080042D03181216820222046C1F88C23BDE8F041AF
S315080042E000F00CBA20680121816020460621FFF7FC
S315080042F0BFFEB00709D518F0020006D020680221D3
S31508004300816020460621FFF7B5FE700709D518F02B
S31508004310040006D020680421816020460621FFF7A4
S31508004320ABFE300709D518F0080006D0206808212A
S31508004330816020460621FFF7A1FEF00609D518F090
S31508004340100006D02068102181602046062100F062
S31508004350D1F9B00608D518F0200005D0206820212C
S315080043608160204600F0C8F9700640F1E38018F035
S31508004370400000F0DF802268402320460621936033
S31508004380BDE8F04100F0B4B90121C0F88810204614
S315080043902946FFF76DFEB8070CD516F0020009D0BE
S315080043A02068022100EBC510C0F88810204629466F
S315080043B0FFF760FE78070CD516F0040009D02068D0
S315080043C0042100EBC510C0F8881020462946FFF7DF
S315080043D053FE38070CD516F0080009D020680821C6
S315080043E000EBC510C0F8881020462946FFF746FEA0
S315080043F0F8060CD516F0100009D02068102100EB3D
S31508004400C510C0F888102046294600F073F97806CA
S315080044100CD516F0400009D02068402100EBC510E5
S31508004420C0F888102046294600F062F938060CD5EF
S3150800443016F0800009D02068802100EBC510C0F86E
S31508004440881020462946FFF70FFEF8050DD516F405
S3150800445080700AD020684FF4807100EBC510C0F850
S31508004460881020462946FFF701FEB8050DD516F433
S3150800447000700AD020684FF4007100EBC510C0F830
S3150800448088102046294600F0F3F878050DD516F46D
S3150800449080600AD020684FF4806100EBC510C0F830
S315080044A088102046294600F0E1F838050DD516F49F
S315080044B000600AD020684FF4006100EBC510C0F810
S315080044C088102046294600F0D7F8F8040DD516F4CA
S315080044D080500AD020684FF4805100EBC510C0F810
S315080044E088102046294600F0C5F8B8040DD516F4FC
S315080044F000500AD020684FF4005100EBC510C0F8F0
S31508004500881020462946FFF7BBFD780458BFBDE84A
S31508004510F08116F480400DD020684FF4804300EBFC
S31508004520C51220462946C2F88830BDE8F041FFF793
S3150800453021BE00BFBDE8F081002804BF01207047F6
S3150800454010B582B00446022084F8DD00207AC00740
S315080045504FF00000C4E93800C4E93A00C4E93C0059
S31508004560C4F8F8001FD0206846F60001C4F201011D
S3150800457088420CD141F26001C4F202010A6842F095
S3150800458080620A60096801F08061019101990168F9
S31508004590D4E9042321F4704102F44042114403F49F
S315080045A0405211440160204600F03EF8207A800708
S315080045B006D52068E1680268090A61F309220260E3
S315080045C0012084F8DD00002084F8DC00C4F8D80057
S315080045D0C4E90600C4E90800A062C4E90C00C4E9FD
S315080045E00E00C4E91000C4E91300C4E91500C4E9C3
S315080045F01700C4E91A00C4E91C00C4E91E00C4E98E
S315080046002100C4E92300C4E92500C4E92800C4E957
S315080046102A00C4E92C00C4E92F00C4E93100C4E922
S31508004620330002B010BD0000006846F60001C4F26F
S315080046300101884218BF704780B582B041F2600018
S31508004640C4F202000168002241F08061016000683E
S31508004650012100F0806001900198472000F000FEDB
S31508004660472002B0BDE8804000F0E8BD7047000072
S3150800467070470000704700007047000070B50D468F
S315080046800446FFF7F1FA2168D1F88823D2031FD42C
S3150800469035B30646681C11D1D1F88803C00317D470
S315080046A0D1F88803C0035CBFD1F888035FEAC0303D
S315080046B00ED4D1F88803C003EED509E0FFF7D4FA83
S315080046C0801BA8420ED82068D0F88803C003F5D509
S315080046D0012084F8DD00002084F8DC0070BD00BFEE
S315080046E0FFF7C2FA072084F8DD00032070BD00003A
S315080046F070470000704700007047000070470000D0
S3150800470090F8DD30022B4FF0020331D010B580F857
S31508004710DD300368062911D11968D2E900CED2E93D
S31508004720024221F01F0124F01804214311431960A5
S31508004730C3F814C0C3F818E014E000BF03EBC111B6
S31508004740D1F88030D2E900ECD2E9024223F01F0307
S3150800475024F0180423431A43C1F88020C1F894E0D2
S31508004760C1F898C00121002380F8DD10BDE810408B
S315080047701846704790F8DDC0BCF1020F04D14FF01F
S31508004780020C6046704700BF90F8DCC0BCF1010F10
S315080047904FF0020C02D16046704700BF10B54FF0CB
S315080047A0010E062980F8DCE080F8DDC012D1511E22
S315080047B007292DD80FF20402DFE801F004222A3671
S315080047C02A2A2A3E19680268D16190F8DD1007295D
S315080047D039D095E0A2F1010CBCF1070F54D80FF2BD
S315080047E00602DFE80CF0053751595151516100BFF7
S315080047F002681B6802EBC111C1F89C3075E000BF66
S3150800480019680268516290F8DD1007291BD077E015
S31508004810072180F8DD10002180F8DC1090F8DD1003
S31508004820072910D06CE000BF19680268916290F8F9
S31508004830DD10072907D063E019680268D16290F88D
S31508004840DD1007295CD14FF0010CBDE81040604629
S31508004850704700BFD0F800C0D3E900E40CEBC11CD8
S31508004860CCF8A4E0614651F8802F22F440520A6041
S31508004870DCB30A68B4F5405F42EA04020A6031D044
S31508004880B4F5005F29D030E0072180F8DD1000215B
S3150800489080F8DC1029E000BF02681B6802EBC11132
S315080048A0C1F8A83021E000BFD0F800C0D3E9004223
S315080048B00CEBC11CCCF8AC40614651F8804F24F48F
S315080048C040440C608AB10C68B2F5405F44EA820441
S315080048D00C6007D0B2F5005F07D19968CCF89C1038
S315080048E003E000BF9968CCF8A81090F8DD100729F6
S315080048F006D14FF0010CBDE810406046704700BF76
S3150800490001214FF0000C80F8DD1080F8DCC0BDE80E
S31508004910104060467047000090F8DC20012A4FF0EE
S3150800492002020BD080F8DD20026813681943116073
S315080049300121002280F8DD1080F8DC20104670473F
S31508004940B0B5044690F8DD00022804BF0220B0BDC9
S3150800495094F8DC0001284FF0020008BFB0BD01251D
S3150800496084F8DC5084F8DD00204603F0E1F90020E5
S3150800497084F8DD5084F8DC00B0BD000090F8DC2037
S31508004980012A4FF002020DD080F8DD200268D2F825
S3150800499094331943C2F894130121002280F8DD10DC
S315080049A080F8DC201046704790F8DC20012A4FF08A
S315080049B002020DD080F8DD200268D2F89833194338
S315080049C0C2F898130121002280F8DD1080F8DC2057
S315080049D01046704790F8DD30022B04BF022070475E
S315080049E090F8DC30012B4FF0020300F034812DE9FA
S315080049F0F04F8EB0012780F8DC7080F8DD30D0F8F3
S31508004A000090062909EBC11C62D0E6465EF8803F95
S31508004A10644623F07043CEF80030DEF8003054F8D0
S31508004A20E85F23F020030B950D94644654F8E46F71
S31508004A300C94D9F8A0535469202C44EA030709D0EA
S31508004A409469042C00F00A81032C00F00B81022CD7
S31508004A5040F00C8127F4D07303F12007D369D2E91B
S31508004A6011A40093136AD2F82CB00193536A0493E5
S31508004A70936A0593536B0693D2E90E830A93136CD4
S31508004A800993936D089344F48053B3F5F05F136D5F
S31508004A90079326F480734AEA030A02D1B8F1400F55
S31508004AA003D12AF4F05343EA040AD36C0529039385
S31508004AB0536D02934CD875A353F821302E46156BC7
S31508004AC04C1C334005FA04F444EA030641E000BFEF
S31508004AD0D9F80060D9F8A0E3556926F0E00625F074
S31508004AE0C004202D46EA040609D09569042D00F075
S31508004AF0C180032D00F0C280022D40F0C38046F02D
S31508004B0020064FF2FF35C3F2FF15D2E907472E40BC
S31508004B1005F50065D2E909382C40344327F06E457F
S31508004B202C4323F06843234328F06044D2F82CB082
S31508004B30234343EA8B03546B23F000532343146B3C
S31508004B402EF480372743C9F80030C9F8A07350E01F
S31508004B502E464FF2FF33C0F2FF13009D07EA030407
S31508004B6003F500632B402343019C049DA4B2234311
S31508004B704FF6BF74C0F2006425402B43059D04F12F
S31508004B8000642C4023434FF6BF7443EA0B03CFF669
S31508004B9000642340069CB4F1005F4FF6FF74CFF61D
S31508004BA0026408BF03F5003308EA04052B43089D91
S31508004BB004F580242C402343079C2343CEF8003079
S31508004BC04FF6C0730B9FC7F6FF733B400A9F07F06B
S31508004BD03F073B44099F3B430D9F3B60039F2AF4D5
S31508004BE080433B430C9F3B60029BCCF8D430C9F80A
S31508004BF0A063C1EBC103D2E9007500EB8303D2E9D8
S31508004C000246C3E9087517690629C3E90A461F63F8
S31508004C100AD84FF28433C0F6000353F82130D9F886
S31508004C2084733B43C9F8843306290BD0BBF1000FC4
S31508004C3008D1DCF88010D26D21F4007141EA4221D6
S31508004C40CCF880100121002380F8DD1080F8DC30D4
S31508004C500EB0BDE8F04F1846704700BF022363F355
S31508004C60C817FBE6012363F3C817F7E627F4D077DE
S31508004C70F4E600BF46F0800643E700BF46F040066C
S31508004C803FE700BF26F0E0063BE700BFFFFFFDFF5A
S31508004C90FFFFFBFFFFFFF7FFFFFFEFFFFFFFDFFF52
S31508004CA0FFFFBFFF90F8DD30022B04BF02207047DC
S31508004CB090F8DC30012B4FF0020341D02DE9F0418A
S31508004CC080F8DD30D0F800C04FF6EF740CEBC11E4B
S31508004CD05EF8EC3FCFF6EC7492E8600123400134AD
S31508004CE0D76804EA0514234326F44034234327F4FB
S31508004CF0003495692343012D43EA080309D1D2E913
S31508004D00042423F0060322F002021A43224342F047
S31508004D1001030629CEF800300AD84FF28432C0F6CD
S31508004D20000252F82110DCF884231143CCF88413CE
S31508004D300121002380F8DD1080F8DC30BDE8F04161
S31508004D401846704790F84120202A03D190F8402051
S31508004D50012A01D102207047242280F841200268E6
S31508004D60136823F001031360136823F48053136058
S31508004D70136819431160116841F00101116020217F
S31508004D8080F84110002180F840100846704700005E
S31508004D9090F84120202A03D190F84020012A01D119
S31508004DA002207047242280F841200268136823F005
S31508004DB001031360136823F4706343EA0121116049
S31508004DC0116841F001011160202180F8411000218D
S31508004DD080F8401008467047002804BF0120704735
S31508004DE010B5044690F8410028B9002084F8400020
S31508004DF0204600F02BF9242084F8410094E8091095
S31508004E00E2680168012A21F00101016023F070615E
S31508004E100161816821F40041816003D14CF40041AD
S31508004E20816009E04CF40441022A816004D141689A
S31508004E3041F4006103E000BF416821F4006141606C
S31508004E40416804F1100C41F0007141F400414160E1
S31508004E50C16821F40041C1609CE80E10114341EA83
S31508004E600321C160216A41EA0C010160016841F031
S31508004E700101016000202021606484F8411020634C
S31508004E8084F8420010BD00002DE9F04782B00446C0
S31508004E9090F84100202803D194F84000012803D156
S31508004EA0022002B0BDE8F08701201D461746884655
S31508004EB084F84000FEF7D8FE216806468A6912047F
S31508004EC017D4212084F84100102084F842000020DD
S31508004ED06064676265856063608DB0F5807F23D303
S31508004EE0FF2020854FF0807225E000BF8869000406
S31508004EF0E7D520461921324602F098FF002840F0EF
S31508004F008580FEF7B1FE801B21681A28EED38869D2
S31508004F100004EBD5606C40F020006064202084F823
S31508004F204100012083E000BF608D0028208500F045
S31508004F3087804FF0007217F8013B8B626762638DBA
S31508004F40013B6385431E238543466FF39F23C0B207
S31508004F5043EA0040104349F60045CFF600454A6843
S31508004F60A5F580631A40104340F400504860608DF0
S31508004F700A9F002844D040F2000A6FF39F284FF09A
S31508004F80FF09C0F2FF1A10E0618D2068218550F8EC
S31508004F90042FC9B22A4042EA01414FF0007241EAA1
S31508004FA0080111430160608D50B3204639463246E8
S31508004FB003F09AF850BB606A216810F8012B8A62E0
S31508004FC06062608D01386085208D01382085618D8D
S31508004FD00029E8D00004E6D12046802100223B467D
S31508004FE0009602F0D1FF88B9608DB0F5807FCBD3EB
S31508004FF02068A4F8289050F8041F52462940CEE7A6
S3150800500020463946324603F031F818B1012002B07D
S31508005010BDE8F08720682021C16142684EF600038A
S31508005020CFF600631A404260002084F84110002140
S3150800503084F8421084F8401002B0BDE8F08700BF3B
S315080050404FF40042404662F39F2084E72DE9F0437F
S315080050509BB0044601A804305021FBF786FA206865
S3150800506047F60001C4F20001884203D01BB0BDE830
S31508005070F08300BF4FF4807801A8CDF8048000F0D3
S31508005080C9F9002818BFFDF7DDFC41F24C06C4F249
S315080050900206306816AC40F00400306030684FF005
S315080050A0120900F00400169016983068012540F0A1
S315080050B0010030603068032700F00100169016984A
S315080050C04FF40070169008201A9040F60000C4F6B7
S315080050D000002146CDF85C9018951997FEF7E0FC7C
S315080050E002201A904FF090402146CDE91689CDE965
S315080050F01857FEF7D5FCF06840F08040F060F0687D
S3150800510000F08040009000981BB0BDE8F0830000D6
S31508005110002804BF01207047B0B504460068D4E9EA
S3150800512001124CF6CC43036045F2555303604160C7
S315080051308260FEF799FD2168CA68520710D00546B5
S3150800514003E000BFC86840070AD0FEF78DFD401B84
S3150800515021683228F6D3C8684007F3D00320B0BDCB
S315080051600A69E068824206BF4AF6AA200860086112
S315080051700020B0BD01684AF6AA2200200A607047DE
S3150800518040F2240040F63441C2F20000C2F20001A7
S3150800519040680A68104408607047000080B503201C
S315080051A000F08AF80F2000F009F800281CBF01203B
S315080051B080BD00F029F8002080BD000070B540F2DF
S315080051C02406C2F200067168E1B1044640F22C00DA
S315080051D0C2F200004FF47A720068B2FBF1F1B0FB3C
S315080051E0F1F001F02BF90F2C4FF0010508D838B96A
S315080051F04FF0FF3021460022002500F031F83460D8
S31508005200284670BD012070BD82B041F25800C4F234
S315080052100200816841F001018160816801F00101A5
S3150800522001910199016841F080510160006800F020
S3150800523080500090009802B000F0E2B8002848BFFD
S31508005240704700F01F01012202FA01F11C2202EA4E
S31508005250D0004EF20012CEF20002815070470000D4
S3150800526010B54EF60C5CCEF2000CDCF80030C3F339
S31508005270022E8EF00704042C28BF0424BEF1030373
S315080052804FF0FF3E0EFA04F438BF0023A1439940BD
S315080052900EFA03F39A43114300F00F0200F160433C
S315080052A00901043A03F564436244002848BF02F141
S315080052B00C03197010BD00004EF60C51CEF2000119
S315080052C00A684FF6FF031A4060F30A2242F080602C
S315080052D040F0FD7008607047B0F5007F42D00028A6
S315080052E040F0808047F21400C4F2000050F8141C05
S315080052F0C26E01F4C06122F48072B1F5806FC26695
S315080053002ED150F8141C012262F34A2140F8141CCD
S3150800531040F22C01C2F200010968322251434DF6CF
S315080053208362C4F21B32A1FB0212910C0268520579
S3150800533011D54A1C0FD0026852050CD559B102681E
S31508005340520508D5012906D00268520503D5022957
S31508005350A1F10401EAD10068400544BF0320704763
S315080053600020704747F21400C4F2000050F8141CDD
S31508005370C26E01F4C06142F48072B1F5806FC266F4
S31508005380EED150F8141C012262F34A2140F8141C8D
S3150800539040F22C01C2F200010968322251434DF64F
S315080053A08362C4F21B32A1FB0212910C02685205F9
S315080053B011D54A1C0FD0026852050CD559B102689E
S315080053C0520508D5012906D00268520503D50229D7
S315080053D0A1F10401EAD10068400544BF03207047E3
S315080053E0BEE700BF47F21400C4F2000050F8141CD0
S315080053F0022262F34A2140F8141C0020704700007C
S3150800540047F20800C4F20000016841F480410160D7
S31508005410704700002DE9F04182B00446807841F2D9
S3150800542088060007C4F2020602D400202FE000BF57
S3150800543056F8300C5FEAC0080BD456F8300C40F02A
S31508005440805046F8300C56F8300C00F08050019029
S31508005450019847F20007C4F20007386840F48070E4
S315080054603860FEF701FC05463868C00500F10C8176
S31508005470FEF7FAFB401B0228F6D90320B8F1000F05
S3150800548005D456F8301C21F0805146F8301C2168A6
S31508005490CA0717D18A071DD44A0723D40A0729D46D
S315080054A0CA062FD48A0635D44A063BD40A0641D4FE
S315080054B0CA0547D48A034DD48A0553D44A0559D414
S315080054C067E000BF3268636822F003021A4332605D
S315080054D08A07E1D53268A36822F00C021A433260C3
S315080054E04A07DBD53268E36822F030021A43326095
S315080054F00A07D5D53268236922F0C0021A433260FA
S31508005500CA06CFD53268636922F440721A433260FC
